:100000000C9401030C9445030C9445030C94450394
:100010000C9445030C9445030C9445030C94450340
:100020000C9445030C9445030C94A9290C947B2A49
:100030000C9411200C9445030C9445030C94450337
:100040000C9445030C9445030C9445030C94450310
:100050000C9445030C9478200C9445030C944503B0
:100060000C9445030C9445030C9445030C944503F0
:100070000C9445030C9445030C9445030C944503E0
:100080000C9445030C9445030C9445030C944503D0
:100090000C9445030C9445030C9445030C944503C0
:1000A0000C9445030C9445030C9445036A057005B4
:1000B000740577057B057F05830587058C0590050D
:1000C000940598059B059F05A305A705AB05B005FD
:1000D00006150615401540158315A315341734175A
:1000E000E915341788168816FF16071734172E17C8
:1000F00095169516951695169516951695169516A8
:100100009516951695169516951695169516951697
:10011000A716B716BE16C516CF16C817C817DB1711
:10012000DB17D117DB17DB17DB17C817C817D71773
:10013000DB17DB17D717E02A072BF52B072BF52B3F
:100140004F2B722BF52BC82BD72B29001E001F001D
:100150002000210022002300240025002600270083
:100160002D002E0000002A002B00000014001A00B1
:100170000800150017001C0018000C0012001300E6
:100180002F00300031003900000004001600070085
:1001900009000A000B000D000E000F0033003400B0
:1001A00028000000E10000001D001B0006001900EF
:1001B000050011001000360037000000E500520075
:1001C0003800E000E3000000E200000000002C0026
:1001D000000000000000F45C1150500051004F007E
:1001E00035003A003B003C003D003E003F0040002F
:1001F0004100420043004400450000004C00010063
:1002000000000100010001000100010001000100E7
:1002100001000100010001000100005C010000007C
:1002200001000100010001000100010001000100C6
:1002300001000100010001000000010000000100B8
:1002400001000100010001000100010001000100A6
:100250000000010001000100010001000000010098
:10026000000000000100000000000000010001008B
:1002700001000100010000047F3F1F64321464325A
:1002800014783C1E1E140A052223252628292A2C10
:100290002D2F3032333536383A3B3D3E40424345D0
:1002A00047494A4C4E5051535557595A5C5E60620B
:1002B000646668696B6D6F71737577797B7D7F811B
:1002C000838587898A8C8E90929496989A9C9E9F1B
:1002D000A1A3A5A7A8AAACAEAFB1B3B4B6B8B9BB39
:1002E000BCBEBFC1C2C3C5C6C7C9CACBCCCDCED0A8
:1002F000D1D2D2D3D4D5D6D7D7D8D9D9DADADBDB95
:10030000DBDCDCDCDCDCDDDDDDDDDCDCDCDCDCDB2B
:10031000DBDBDADAD9D9D8D7D7D6D5D4D3D2D2D174
:10032000D0CECDCCCBCAC9C7C6C5C3C2C1BFBEBC67
:10033000BBB9B8B6B4B3B1AFAEACAAA8A7A5A3A1D8
:100340009F9E9C9A98969492908E8C8A898785839A
:10035000817F7D7B79777573716F6D6B696866647A
:1003600062605E5C5A5957555351504E4C4A49474A
:10037000454342403E3D3B3A3836353332302F2DEF
:100380002C2A292826252322FFAA7F554000000079
:100390000000000000000001010101010101010154
:1003A0000202020202020202030303030303030424
:1003B00004040404050505050506060606060707E8
:1003C0000707080808080909090A0A0A0B0B0B0C99
:1003D0000C0C0D0D0D0E0E0E0F0F10101011111232
:1003E0001213131414151516161717181819191AAD
:1003F0001A1B1C1C1D1D1E1F1F202121222323240C
:10040000252526272828292A2B2C2C2D2E2F303144
:100410003132333435363738393A3B3C3D3E3F4054
:100420004142434445464748494B4C4D4E4F50523C
:100430005354555758595A5C5D5E606163646567F3
:10044000686A6B6C6E6F7172747677797A7C7D7F77
:100450008182848687898B8D8E9092949597999BC3
:100460009D9FA1A2A4A6A8AAACAEB0B2B4B6B9BBD7
:10047000BDBFC1C3C5C8CACCCED0D3D5D7DADCDEA8
:10048000E1E3E6E8EAEDEFF2F4F7F9FCFF0403300C
:100490000000000A0344005A00360030000000103B
:1004A000034B0042004400460061006E00730000F0
:1004B000000403090409023B00020100A0FA090438
:1004C0000000010301010009211101000122400087
:1004D0000705810308000A09040100010300000068
:1004E00009211101000122C0000705820320000A32
:1004F0001201100100000008EDFE6022010001025F
:10050000030105010902A10185020901A1000509F4
:10051000190129051500250195057501810295012F
:10052000750381010501093009311581257F950287
:100530007508810609381581257F950175088106A2
:10054000050C0A38021581257F950175088106C0C2
:10055000C005010980A10185031601002603001AC8
:1005600081002A8300751095018100C0050C0901E6
:10057000A1018504160100269C021A01002A9C0292
:10058000751095018100C005010906A101850505C9
:100590000719E029E7150025019508750181020575
:1005A00008190129059505750191029501750391B9
:1005B000010507190029EF1500250195F075018146
:1005C00002C005010906A101050719E029E7150088
:1005D00025019508750181029501750881010508BD
:1005E0001901290595057501910295017503910180
:1005F0000507190029FF150026FF009506750881DB
:1006000000C011241FBECFEFDAE0DEBFCDBF04B6BD
:1006100003FE24C08091A8029091A902A091AA0291
:10062000B091AB028730904BA740B04BB9F4109219
:10063000A8021092A9021092AA021092AB0214BE54
:1006400084B7877F84BF88E10FB6F89480936000F9
:10065000109260000FBEE0E0F8E3099511E0A0E021
:10066000B1E0E8EFF9E502C005900D92AC35B107B5
:10067000D9F712E0ACE5B1E001C01D92A83AB1078C
:10068000E1F70E94D0260C94FA2C0C9400000C94F4
:10069000CD09229A2A9A08950E94CC090C94490304
:1006A00081FF02C02A9801C02A9A0C94DB04843F7F
:1006B0009C4541F4FB018281882321F080E491E094
:1006C0000E940C0481E00895CF92DF92EF92FF9296
:1006D0006B017C010E94431E813021F444E767ECEA
:1006E0008FEF03C049E568E482EB0E943A0CC70132
:1006F000B601FF90EF90DF90CF9008950F931F9376
:10070000CF93DF938C01EB019A9581159F4138F5CA
:1007100010FF03C080EEFB01099511FF03C081EEBD
:10072000FE01099512FF03C082EEFE01099513FF39
:1007300003C083EEFE0109950115104180F084EE9F
:10074000FE01099585EEFE01099586EEFE010995EB
:1007500087EEFE01DF91CF911F910F910994DF91F8
:10076000CF911F910F910895877091E001C0990F6B
:100770008A95EAF7892F0E94A61D0C94DF1D8770C9
:1007800091E001C0990F8A95EAF7892F0E94A61D72
:100790000C94DF1D877091E001C0990F8A95EAF7EC
:1007A000892F0E94AC1D0C94DF1D877091E001C061
:1007B000990F8A95EAF7892F0E94AC1D0C94DF1DD2
:1007C000CF93DF93EC01805E9109089710F020979A
:1007D00019F46FEB73E002C064EB73E0CE010E948A
:1007E0007E038C2FDF91CF910C941C13CF93DF935A
:1007F000EC010E943A14CE01805E9109089710F036
:10080000209719F465ED73E002C06AEC73E0CE0145
:10081000DF91CF910C947E03CF93DF93EC010E9484
:10082000E003CE01DF91CF910C94F60381E00895AF
:100830000C9457031F93CF93DF9300D000D01F92E7
:10084000CDB7DEB749835A832091960189819A8179
:10085000211112C0662349F00E94141D182F682F21
:1008600089819A810E94BA1C03C00E94E81C182F3B
:1008700069817A81812F04C00E94141D69817A8167
:100880000F900F900F900F900F90DF91CF911F91CD
:100890000C942107FC014081518162817381848124
:1008A0000C941A040C944703E82FE295EF70F0E0E3
:1008B00092A18F7021E030E0082E01C0220F0A942F
:1008C000EAF72095922392A30895CF92DF92EF92B8
:1008D000FF92863030F4811105C0909180009F7D99
:1008E00004C085E090918000906290938000282F52
:1008F00030E0AFEFBFEF0E942B2C25E030E040E06E
:1009000050E00E94722CC9012C3764E1360728F4AC
:1009100069E070E00E944A2C29C0DA01C9018A50BE
:10092000974DAF4FBF4F6627782F892F9A2F25EF0E
:1009300038E241E050E00E94722C69017A01CA015C
:10094000B9010E943A2C9B01AC01C701B6010E947B
:100950003A2CBB27A92F982F872F009721E0A207B9
:10096000B10511F0BC0102C06FEF7FEF70938B00F7
:1009700060938A00FF90EF90DF90CF900895269AC1
:1009800086E30E94540482E28093800089E1809390
:1009900081008FEF9FEF90938700809386000C94E7
:1009A0004F240E94961E811102C00E94231F0E94A4
:1009B000BF040C944C0308950C94500308950E94B6
:1009C000B8170E94DE042FEF84E39CE021508040A2
:1009D0009040E1F700C000000C949E200F931F93FD
:1009E000CF93DF938C010E944A04EC01B8010E946E
:1009F0001804882309F41BC2B801CE010E946211B9
:100A0000882309F414C2CA3CFCE5DF0741F4F8016D
:100A10008281882309F40BC20E94BD0D08C2CB3C21
:100A20008CE5D80708F036C1C33C9CE5D90761F4D2
:100A3000F8018281882309F4FAC10E94931D827211
:100A4000E1F00E94D80FF3C1C43CECE5DE07C0F032
:100A5000C63C9CE5D90709F4EEC008F000C1C43CCF
:100A6000FCE5DF0709F0EFC0F8018281882309F473
:100A7000DEC10E94931D827221F30E94CC0FD7C168
:100A8000C531FCE5DF0708F0A1C0C2308CE5D8070E
:100A900008F478C0F8018281882309F47AC00E94A2
:100AA000961E811102C00E94231F0E94B31E90E077
:100AB0009093990280939802FE01E350FC45E23145
:100AC000F10520F4EA5AFF4F0C94942C809198027F
:100AD000816003C0809198028260809398024BC02D
:100AE000809198028460F9CF8091980213C0809120
:100AF00098028061F2CF809198028062EECF80915F
:100B000098028064EACF809198028068E6CF809155
:100B1000980284608860E1CF809198028E7FDDCF5B
:100B2000809198028D7FD9CF809198028B7FD5CF0D
:100B30008091980213C0809198028F7ECECF8091D1
:100B400098028F7DCACF809198028F7BC6CF80910B
:100B500098028F77C2CF809198028B7F877FBDCF1D
:100B60009091980297FB882780F921E0822780FBEB
:100B700097F990939802809198020E94B71E0E9464
:100B8000B81755C1C1159CE5D90751F0C130DC45F6
:100B900079F0C801DF91CF911F910F910C94160449
:100BA000F8018281882309F442C10E94DF043FC119
:100BB000F8018281882309F43AC180912E02982F8E
:100BC000909590FB80F980932E0231C1C631FCE5EF
:100BD000DF0729F50E94931D382FF80122818091AB
:100BE000100190911101222371F03A7A21E009F469
:100BF00020E020935C01222311F065E301C069E24B
:100C00000E94921F09C020915C01222311F065E32C
:100C100001C069E20E949D1F0E94DF1D08C1C23C05
:100C2000DC4509F0B6CFF8018281882309F4FFC0C2
:100C30000E94E60FFCC0F8018281882309F4F7C006
:100C40000E947D0DF4C0C53CDC4509F0A2CFF8013F
:100C50008281882309F4EBC00E946F0DE8C0F8017F
:100C60008281C83CFCE5DF0731F4882309F4DFC04A
:100C70000E949D0DDCC0C93CDC4530F4882309F49A
:100C8000D6C00E948D0DD3C0882309F4D0C00E9425
:100C9000AD0DCDC0C13DECE5DE0791F4F8018281D8
:100CA000882309F4C4C00E94EB0B8F3028F00E9407
:100CB000EB0B843108F4E1CE8FE00E94DB0FB7C06C
:100CC000C23DFCE5DF0708F05AC0CD3C8CE5D807F3
:100CD00039F4F8018281882309F4A9C081E0EDCFBD
:100CE000CE3C9CE5D907C0F4CB3CECE5DE0741F4F3
:100CF000F8018281882309F49AC00E94F30B97C0FF
:100D0000CC3CDC4509F045CFF8018281882309F409
:100D10008EC00E94040C8BC0F8018281CF3CFCE5A0
:100D2000DF0771F4882309F482C00E94EB0B863040
:100D300028F00E94EB0B883008F49FCE86E0BDCFF0
:100D4000C03DDC4570F4882309F471C00E94EB0BB0
:100D5000823028F00E94EB0B853008F48ECE82E0C2
:100D6000ACCF882309F463C00E94EB0B893028F0D4
:100D70000E94EB0B8E3008F480CE89E09ECFC53DFB
:100D8000ECE5DE0739F4F8018281882309F44FC0CD
:100D900083E293CFC63DFCE5DF0740F5F801828191
:100DA000C33DFCE5DF0729F4882309F440C088E14E
:100DB00084CFC43DDC4568F48823C9F10E94EB0B65
:100DC000853128F00E94EB0B873108F456CE85E17F
:100DD00074CF882361F10E94EB0B893128F00E94C7
:100DE000EB0B823208F449CE89E167CFCD3DECE5CB
:100DF000DE0741F4F80182818823C9F082E00E9475
:100E00006F2715C0CE3DFCE5DF0739F4F80182817C
:100E1000882369F00E94231F0AC0CC3DDC4509F0FD
:100E2000B8CEF8018281882311F080E0E8CF80E01D
:100E3000DF91CF911F910F91089580E090E0089588
:100E400008959FE0799FF00111249BE4899FE00DB4
:100E5000F11D1124E60FF11DEE0FFF1FE65BFE4FA3
:100E6000859194910895880F991F8A589D4FFC0190
:100E7000859194910895CF93DF930E9421070E945A
:100E80002D09EC01811521E5920708F044C0C11538
:100E900080E5D80708F031C1C83ED10510F5C03E45
:100EA000D10508F0D6C1C83AD10578F4C53AD105C4
:100EB00008F0A6C0C130D10509F4CBC108F47CC14B
:100EC000C430D10508F0C5C177C1CF3BD10508F4C6
:100ED000A2C0C03CD10508F46FC1CE01805C91096D
:100EE000FBC0C11520E3D20780F4C11580E2D8070A
:100EF00008F0F0C0C03FD10508F45EC1CF3FD10576
:100F000011F008F0A6C1D065A4C1C11520E4D20734
:100F100008F0F0C0E5C0C11589E5D80760F5C11536
:100F200028E5D20708F034C1C11584E5D80778F464
:100F3000C11523E5D20708F011C1C11582E5D80714
:100F400008F0F7C0DC2FCC27C16FD06A82C1C11571
:100F500025E5D20708F417C1C11586E5D80708F0C2
:100F60002BC18C2F0E94A9098F71C82FD0E0DC2FD4
:100F7000CC27D0626EC1CD3B2CE5D20709F413C15A
:100F8000F0F4CB3B2CE5D20709F407C108F008C107
:100F9000C1152AE5D20708F00FC18C2F8F700E946F
:100FA000A90934E0D695C7953A95E1F7CF70D0E01E
:100FB000DC2FCC27D06A8F70806EC82B4AC1C03C12
:100FC0008CE5D80709F4F5C060F4CE3B8CE5D80772
:100FD00009F4ECC0CF3BDC4509F0EEC0C0E0D2ED37
:100FE00038C1CE0190568115904208F0E5C08D2F92
:100FF0008F710E94A909DD27D0628F71D82B29C17A
:10100000C53AD10509F4DBC0C63AD10509F4DAC006
:10101000C3E8D0E41EC1C83AD10509F4D6C0C93A24
:10102000D10509F4D5C0CA3AD10509F4D4C0CB3AE8
:10103000D10509F4D3C0CC3AD10509F4D2C0CB3BD9
:10104000D10509F4D1C0CC3BD10509F4D0C0CD3ACB
:10105000D10509F4CFC0C03BD10509F4CEC0CE3ACA
:10106000D10509F4CDC0CF3AD10509F4CCC0C13BBC
:10107000D10509F4CBC0C23BD10509F4CAC0C33BBA
:10108000D10509F4C9C0C43BD10509F4C8C0C53BAA
:10109000D10509F4C7C0C63BD10509F4C6C0C73B9A
:1010A000D10509F4C5C0C83BD10509F4C4C0C93B8A
:1010B000D10509F4C3C0CD3BD10509F4C2C0CE3B74
:1010C000D10509F4C1C0CA3BD10509F0C0C0CAE2CC
:1010D000D6E4BFC0CE019F700E943307EC01B9C0B7
:1010E000CE019927D3FF03C0EC01D86CB2C0EC014C
:1010F000D06CAFC0DF70D06AACC02C2F237081E001
:1011000090E002C0880F991F2A95E2F79C689E0123
:10111000F4E036952795FA95E1F72370922BCF707E
:10112000C695C69520E2C29FE0011124C82BD92B99
:1011300090C08C2F8695869520E2829FC001112455
:101140009E0123703327C1E0D0E002C0CC0FDD1F29
:101150002A95E2F7C82BD92BDC687BC08C2F8695AB
:10116000869520E2829FC00111249E0123703327BF
:10117000C1E0D0E002C0CC0FDD1F2A95E2F7C82BFA
:10118000D92BDA6866C0DC2FCC27C46FD06A61C067
:10119000DC2FCC27C06FD06A5CC0C0E0D4ED59C052
:1011A000C0E0D5ED56C0C0E0D1ED53C0C0E0D0EDF9
:1011B00050C0C0E0D3ED4DC0C0E0D0E04AC0C1E8AF
:1011C000D0E447C0C2E8D0E444C0C2EED4E441C099
:1011D000C9EED4E43EC0CAEED4E43BC0C5EBD4E4CF
:1011E00038C0C6EBD4E435C0C3EBD4E432C0C4EBA2
:1011F000D4E42FC0C7EBD4E42CC0CCECD4E429C099
:10120000CDECD4E426C0C3E8D5E423C0CAE8D5E4D5
:1012100020C0C2E9D5E41DC0C4E9D5E41AC0C1E2CA
:10122000D6E417C0C3E2D6E414C0C4E2D6E411C0C9
:10123000C5E2D6E40EC0C6E2D6E40BC0C7E2D6E4EF
:1012400008C0CFE6D4E405C0C0E7D4E402C0C0E0E3
:10125000D4E4CE01DF91CF9108958238910549F110
:10126000B0F48133910509F459C048F489329105ED
:1012700009F44FC08A32910509F455C008958533A9
:10128000910509F441C08933910599F00895833E91
:10129000910531F138F4803E910591F0823E91053F
:1012A000A9F00895863E910501F1873E910539F137
:1012B00008952091980220FD3BC021FD39C008957A
:1012C0008091980280FF34C089E341C080919802E8
:1012D00082FF32C08091980284FF2CC080E037C02A
:1012E0008091980282FD28C0F5CF8091980283FFFB
:1012F00025C08091980284FDF1CF87EE28C08091AF
:10130000980283FD1BC0F5CF8091980285FF18C01D
:1013100019C08091980285FF15C012C08091980273
:1013200086FF12C013C08091980286FF0FC00CC0C8
:1013300080EE0DC083EE0BC082EE09C086EE07C0C2
:1013400085E305C089E203C081E301C08AE290E041
:1013500008959091980292FF0DC0282F287128308F
:1013600019F4877F846006C0282F2471243011F47B
:101370008B7F886093FF0DC0282F2871283119F4C6
:10138000877E846106C0282F2471243111F48B7E5E
:10139000886194FD877E089508950895E82FF0E010
:1013A000EE0FFF1FE35AFE4F80819181089508954B
:1013B000E2E3F1E021E030E08191A82FA295AF7047
:1013C000B0E091964C9191978F70B90102C0660F71
:1013D000771F8A95E2F7CB018095482391964C932D
:1013E00071E0E733F70741F7A3E2B1E021E030E035
:1013F0008D91E82FE295EF70F0E041A18F70B90177
:1014000002C0660F771F8A95E2F7CB01962F909561
:10141000492341A392A1982B92A371E0A233B7076D
:1014200039F7E7E6F1E0ADE5B1E0119211921D92D6
:101430001D9281E0E137F807C1F785E00E94C00AFC
:101440000C94D1042F923F925F926F927F928F9271
:101450009F92AF92BF92CF92DF92EF92FF920F9343
:101460001F93CF93DF9352E3252E51E0352EA7E64D
:10147000B1E0B12C21E030E04D016D907C901197EE
:1014800011961C921E92E10169911E01E62FE295D0
:10149000EF70F0E081A16F70A90102C0440F551FE9
:1014A0006A95E2F7BA01842B81A382A1A42EA094AD
:1014B0008A2182A350EA5A95F1F743E2E42E41E0F3
:1014C000F42E40E050E0E70159907E01852D829591
:1014D0008F7090E0EC0108A1CD90DC90119710E0A6
:1014E000852D8F7002C0159507958A95E2F700FD4E
:1014F00008C0C901042E02C0880F991F0A94E2F7A0
:1015000002C080E090E0C82AD92A1196DC92CE92DF
:101510004F5F5F4F4F305105B1F681A18A2181A302
:1015200082A1862B82A3129641E0F40180819181F1
:101530006816790609F440E0B42AF7E32F16F1E0C3
:101540003F0609F099CF2B2D45E06DE571E087E668
:1015500091E00E94C10A0E9452048B2DDF91CF912D
:101560001F910F91FF90EF90DF90CF90BF90AF90C1
:101570009F908F907F906F905F903F902F900895F5
:101580000895FF920F931F93CF93DF93D82FC92F06
:10159000F62E072F142F222349F081E08093730148
:1015A0000E94432090937201809371018091730196
:1015B0008823D9F080917101909172010E944F208F
:1015C000069798F0ED2FFC2FAF2DB02F80E090E024
:1015D000412F50E08417950734F4219131912D93D8
:1015E0003D930196F7CF10927301DF91CF911F9138
:1015F0000F91FF900895CF92DF92EF92FF920F9399
:101600001F93CF93DF93D62EC72EE82EF82EE82F08
:10161000F0E0711106C0E357FC4F6491762F862FDE
:101620007BC0072F10E026E0629FC0011124CFEF9E
:10163000D0E0BE010E944A2C9B016BEA6203A0012C
:10164000639F500D11244D0D511D4D0D511DD42E74
:10165000DD0CD40ECE01801B910B8E9FA0018F9FBD
:10166000500D9E9F500D1124852FDC9CB00111243C
:10167000672F7727DE01A61BB70BAE9FB001AF9F88
:10168000700DBE9F700D1124972FDE01AD19B109A9
:101690006D01C09ED001C19EB00DD09EB00D112431
:1016A000AB2FBB27CA1BDB0BCE9FD001CF9FB00D4A
:1016B000DE9FB00D11242230310591F03CF421154C
:1016C000310559F021303105C1F014C02430310505
:1016D00069F04CF02630310569F49E2DFB2E0DC0CB
:1016E000952F8B2F0AC0F72E952F02C09B2FF52E1A
:1016F0008E2D03C0F52E872F9E2DE92FF0E0E357A6
:10170000FC4F7491EF2DF0E0E357FC4F6491E82F0C
:10171000F0E0E357FC4F8491DF91CF911F910F913F
:10172000FF90EF90DF90CF9008950895CF93DF93CF
:10173000762FE901682F842F0E94FB0A7983688342
:101740008A83DF91CF91089520915D02822F869543
:1017500090E0009729F42170226020935D020895A3
:1017600085972CF0822F8170886480935D020895A4
:1017700088E090E00C94BA2CCF93DF9300D000D097
:10178000CDB7DEB7AB01BC0149835A836B837C8341
:101790000E94A40B49815A816B817C8188E090E092
:1017A0000F900F900F900F90DF91CF910C94D82C49
:1017B000EDE5F2E083E0808310925E028FEF80938C
:1017C0005F02809360021092610260817181828168
:1017D00093810C94BC0B80915D0280FF02C08695C2
:1017E000089580E0089580916102833018F48F5F3E
:1017F0008093610260915D0270915E0280915F0250
:10180000909160020C94BC0B80916102882319F0C6
:1018100081508093610260915D0270915E028091BF
:101820005F02909160020C94BC0B6091040170E027
:1018300080915D0280FF0AC08091780123E0829F41
:10184000C00111248E599D4F0C94F2102091770104
:1018500030910301231780F7822F90E0FC01EE0FF7
:10186000FF1FE80FF91FEE59FD4F118210821282FF
:101870002F5FF0CF90915D0290FF16C0909177019D
:1018800050910301951770F4292F30E0F901EE0F04
:10189000FF1FE20FF31FEE59FD4F818360834283E8
:1018A0009F5FF0CF0C94150C0895CF93DF9300D079
:1018B0001F92CDB7DEB790915D0290FF0AC09E01E6
:1018C0002F5F3F4F0E94960B4B8169818A810E9456
:1018D0003A0C0F900F900F90DF91CF910895CF9316
:1018E000DF93EC01EC81F0E0E857FD4F449160910B
:1018F0005F0280915E020E94550C8C818F5F8C8309
:10190000DF91CF910895CF93DF93EC014091600276
:1019100060915F028C810E94550C8C818F5F8C835B
:10192000DF91CF9108950F931F93CF93DF9300D052
:101930001F92CDB7DEB78C018091740181110AC06E
:101940009E012F5F3F4F4FEF6FEF0E94960B8A81F2
:1019500080937401F8018481813051F028F0823045
:1019600061F4409174010AC08091740140E007C0A5
:101970006091740140E080E003C040E080E060E0FE
:101980000E943A0CF801848190E0019663E070E0D7
:101990000E945E2C84830F900F900F90DF91CF9167
:1019A0001F910F910895AF92BF92CF92DF92EF9265
:1019B000FF920F931F93CF93DF9300D01F92CDB769
:1019C000DEB7F82ED62EE42EC22E90915D0290FF47
:1019D0006DC0E92FE695AE2FB0E0A95CBE4F8C91AB
:1019E000809380019E7F923061F49E012F5F3F4F74
:1019F0008F2D0E94960B4B8169818A810E943A0C3F
:101A000043C0823019F4E09060023EC0863019F481
:101A1000F0905E0239C08930D9F38931A9F5E951D6
:101A20008E2F8170B82EE695F0E0E857FC4F0591B7
:101A30001491A12C112760910201A61618F5EA2D28
:101A4000F0E0E09FC001E19F900DF09F900D112408
:101A500070E00E944A2C8F2DB11002C0860F01C089
:101A6000861B90917701E90FF11D9F01220F331F13
:101A70002E0F3F1F2E593D4F4E2D6D2D0E94960B60
:101A8000A394D9CF0E94150CF0925E02D0925F020F
:101A9000E0926002CC2051F060915D0270915E0294
:101AA00080915F02909160020E94BC0B0F900F909A
:101AB0000F90DF91CF911F910F91FF90EF90DF90EA
:101AC000CF90BF90AF90089590915E02282F4091E3
:101AD000600260915F0288E0890F0C94D30C81E072
:101AE0000C94640D90915E02282F409160026091E9
:101AF0005F0288EF890F0C94D30C81E00C94720D77
:101B000060915F0228E0620F08F46FEF282F409188
:101B1000600280915E020C94D30C81E00C94800DE5
:101B200060915F0228E0621B08F460E0282F40917A
:101B3000600280915E020C94D30C81E00C94900DB5
:101B40004091600228E0420F08F44FEF282F609187
:101B50005F0280915E020C94D30C81E00C94A00D86
:101B60004091600228E0421B08F440E0282F609179
:101B70005F0280915E020C94D30C81E00C94B00D56
:101B800020E00C94D30CFF920F931F93CF93DF931D
:101B9000EC01F12C0FEF10E060910201F616E8F471
:101BA0004091770150E04F0D511D9A01220F331FD4
:101BB000240F351F2E593D4F70E0C8010E945E2C46
:101BC000962F8C814091600260915F02F99E800D9A
:101BD00011240E94960BF394DFCF0E94150C9A817A
:101BE0008C8190FF02C08F5F01C081508C83DF9198
:101BF000CF911F910F91FF900895BF92CF92DF92E6
:101C0000EF92FF920F931F93CF93DF93FC0182819A
:101C100080FD03C0CC24C39402C0CC24CA94D12C30
:101C200080910201D816E0F5ED2CF12C809177011E
:101C30009701280F311DE901CC0FDD1FC20FD31F03
:101C4000CE59DD4F198218821A8204E010E0B12CBF
:101C5000809176018B0D87FF03C090910201890F5F
:101C6000992787FD9095E816F90691F48091600216
:101C7000809FA001819F500D112455954795559542
:101C800047959E0160915F0280915E020E94960BD3
:101C9000BC0C0150110901151105D1F6D394C0CF28
:101CA0000E94150C8091760131E0C31206C08111AB
:101CB00002C080910201815007C090E001966091BE
:101CC000020170E00E945E2C80937601DF91CF913B
:101CD0001F910F91FF90EF90DF90CF90BF900895EC
:101CE000CF932091770130910301231770F4822F55
:101CF00090E0FC01EE0FFF1FE80FF91FEE59FD4FBA
:101D00001182108212822F5FF0CFC0E06091020139
:101D1000C617B0F52C2F30E070E0C9010E945E2C90
:101D200040917701480F80917501992787FD909523
:101D300050E028173907C4F080910101992787FDE9
:101D400090958217930784F09A01220F331F240F76
:101D5000351F2E593D4F4091600260915F02809186
:101D60005E020E94960B0AC0FA01EE0FFF1FE40FFD
:101D7000F51FEE59FD4F118210821282CF5FC6CF40
:101D80000E94150C4091000120917501240F2093B1
:101D9000750180910101840F80930101181654F49C
:101DA000332727FD30958091020190E00197281795
:101DB00039071CF0419540930001CF9108950F938E
:101DC0001F93CF93DF93EC012C813D812F5F3F4F19
:101DD000217033273D832C8310E005E580910201BB
:101DE0001817F0F44091770150E0410F511D9A010E
:101DF000220F331F240F351F2E593D4F412F46957B
:101E00008C819D81840F911D817040916002609151
:101E10005F02809F802D11240E94960B1F5FDECFF2
:101E2000DF91CF911F910F910C94150C0F931F937D
:101E3000CF93DF938C01C0E0D0E040910201842F6A
:101E400090E0C817D9072CF5809177019E01280FE3
:101E5000311DC901220F331F280F391F2E593D4F45
:101E60004695842F90E0F8014481C817D9071CF4E7
:101E7000442331F002C0411103C04091600201C00F
:101E800040E060915F0280915E020E94960B219675
:101E9000D4CF0E94150CF801248130E02F5F3F4F12
:101EA000217033272483DF91CF911F910F910895E3
:101EB000EDE5F2E080818E7F808360817181828197
:101EC00093810E94BC0B109281012FEF80E792E07A
:101ED000215080409040E1F700C000000C94150CA8
:101EE00060915D02669570E04BE050E085E091E026
:101EF0000E94A52C892B19F481E0809381010E9416
:101F0000432090937A0180937901089590915D0226
:101F100090FF37C09170811102C0926003C085327A
:101F200020F0986490935D0204C0880F892B809301
:101F30005D02662351F060915D0270915E028091B6
:101F40005F02909160020E94BC0B60915D026695F9
:101F500070E04BE050E085E091E00E94A52C892BD9
:101F600019F01092810102C00E94700F81E08093ED
:101F70007C014091600260915F0280915E020C944E
:101F8000C00D0895682F80915D0286958F5F853220
:101F900008F081E00C94860F81E00C94C20F682F4A
:101FA00080915D028695815009F484E20C94860F3D
:101FB00081E00C94CF0F61E00C94860FEDE5F2E028
:101FC00080818160808386950C94DB0F80915D0217
:101FD00080FD0C94580F0C94DE0F60E00C94860F7B
:101FE00080917F01811133C080912E0281608093A6
:101FF0002E020E94961E811104C00E94231F0E947F
:10200000D80B0E94B80B60935D0270935E028093C0
:102010005F02909360026E7F61F40E94D80B0E9471
:10202000B80B60935D0270935E0280935F029093A1
:1020300060020E94A40B1092810180915D0280FFDA
:1020400003C086950E94ED0F81E080937F01089583
:102050000F931F93CF93DF9380918101882309F41D
:1020600089C080918001E0915D02E695E81BE093D4
:102070007B01823049F4F0E0EC57FD4FE491CE2F24
:10208000D0E00FE61CE046C0863049F4F0E0EF57A0
:10209000FD4FE491CE2FD0E003E81CE03BC0893037
:1020A00049F4E695F0E0E258FD4FC491D0E003EC2E
:1020B0001DE030C08F3049F4E695F0E0E558FD4F63
:1020C000C491D0E00DEF1DE025C0853141F4F0E072
:1020D000E858FD4FC491D0E000E71EE01BC08831F6
:1020E00081F0833239F4E6E7F2E0C591D49103E957
:1020F0001CE010C0843251F0C0EDD7E005E91BE0D0
:1021000009C0C8EED3E00FED1EE004C0C4EFD1E07B
:1021100006E11FE080917C01882389F010927C0108
:102120000E9443209E0120953095280F391F30933F
:102130007A012093790110927E0110927D018091A5
:10214000790190917A010E944F208C179D0790F0A1
:102150008091790190917A018C0F9D1F90937A0163
:102160008093790189E791E0F801DF91CF911F9188
:102170000F910994DF91CF911F910F9108953EB176
:10218000242F209523233EB1342B4FB7F894FC0124
:10219000680F791FE617F70789F0819198E03EB93B
:1021A000000000C087FF2EB9880F000000C000C0EB
:1021B00000C02EB900C09A9591F7ECCF4FBF08959B
:1021C0002DB1242B2DB99B01220F331F260F371F52
:1021D000B9010E94BF1087EC90E00197F1F700C0B1
:1021E0000000089544E00C94E0100F931F93CF93E8
:1021F000DF93C62FD42F022FFC0182818823C9F0E0
:10220000609384010E944320909383018093820114
:1022100080E28C0F883008F050C0C77081E001C0A8
:10222000880FCA95EAF7DF91CF911F910F910C9417
:10223000B51410918401161330C0809182019091E1
:1022400083010E944F20883C910538F5C0E2CD0FF4
:102250001D17B9F080E2810F883040F4177081E0DB
:1022600001C0880F1A95EAF70E94BC14C83048F4E0
:1022700081E09D2F977001C0880F9A95EAF70E9420
:10228000B514802F0E94A214C830B8F4D77081E032
:1022900001C0880FDA95EAF70AC080E28C0F883017
:1022A00060F4C77081E001C0880FCA95EAF7DF913A
:1022B000CF911F910F910C94BC14DF91CF911F917E
:1022C0000F9108959C01CB01203F4CE53407F9F0B4
:1022D00078F4283DFCE53F07B9F0293D4CE534078B
:1022E00011F1273D3C4531F526E241EE61EE1EC07D
:1022F000223FFCE53F0799F070F0233F3C45D1F4C5
:1023000027E245EE66EE12C027E245EE0EC026E259
:1023100041EE60EE0BC027E245EE64EE07C026E218
:1023200041EE62EE03C028E241E065EE0E94F51046
:1023300080E00895FC018281882319F010928401C5
:10234000089581E0089590938A018093890108950A
:10235000E0918901F0918A01309721F00190F0819C
:10236000E02D099480E00895E0918901F0918A01BF
:10237000309799F020912201222359F02091980260
:1023800027FF07C0DC012C9111962C93119725E0B3
:102390002C930280F381E02D09940895E091890146
:1023A000F0918A01309739F022E0DC012C9304800F
:1023B000F581E02D099408952091870130918801DD
:1023C0008217930771F09093880180938701E091C1
:1023D0008901F0918A01309721F00680F781E02D84
:1023E0000994089520918501309186018217930701
:1023F00071F09093860180938501E0918901F091BD
:102400008A01309721F00084F185E02D0994089528
:1024100085B7806885BF85B7806885BF08950895B2
:1024200008950C94101208950C9413120E9408122F
:102430000E940F120C94111281E008950E943A201C
:102440000E94D8090E940E210E944F240E94F00F82
:102450000C9414125F926F927F928F929F92AF9220
:10246000BF92CF92DF92EF92FF920F931F93CF9381
:10247000DF93CDB7DEB72A970FB6F894DEBF0FBE55
:10248000CDBF0E94220A0E941C12811111C08FEF41
:1024900089838A831B820E9443208160782F9D83D9
:1024A0008C8349815A816B818D810E94E81257C0CB
:1024B0009CE8C92E91E0D92E00E010E0AA24A39454
:1024C000B12C502E802F0E94CE093C01F601E190E4
:1024D000F1906F01E826F926E114F10431F40F5F61
:1024E0001F4F0530110569F7D2CF80912E0281FD73
:1024F0000E94D70920E030E04501022E02C0880C7E
:10250000991C0A94E2F7C4018E219F21892B09F1BD
:102510002E835F826820792081E0672809F480E0BB
:1025200088870E9443208160782F9A8789874E810F
:102530005F8168858A850E94E812F801EE0FFF1F0F
:10254000E457FE4F8081918188259925918380836E
:1025500006C02F5F3F4F2F30310571F6C0CF0E946C
:10256000AE2310918B010E94A8111817D9F00E9478
:10257000A81180938B012A960FB6F894DEBF0FBE88
:10258000CDBFDF91CF911F910F91FF90EF90DF9022
:10259000CF90BF90AF909F908F907F906F905F9003
:1025A0000C94DC042A960FB6F894DEBF0FBECDBFA4
:1025B000DF91CF911F910F91FF90EF90DF90CF901F
:1025C000BF90AF909F908F907F906F905F90089595
:1025D000CF93DF93CDB7DEB72B970FB6F894DEBF5E
:1025E0000FBECDBF4F83588769877A878B87DE01FF
:1025F000119686E0FD0111928A95E9F785E0FE01CA
:10260000379601900D928A95E1F749815A816B8145
:102610007C818D819E810E94951A2B960FB6F8942D
:10262000DEBF0FBECDBFDF91CF910895FC01808149
:1026300091810E94541D0895882309F41AC182389B
:10264000C1F40E94A81181FD14C169E380911001B9
:10265000909111010E94921F0E94DF1D2FEF81EEC9
:1026600094E0215080409040E1F700C0000069E311
:1026700019C08338F9F40E94A81180FDFAC063E5FF
:1026800080911001909111010E94921F0E94DF1D04
:102690002FEF81EE94E0215080409040E1F700C0A0
:1026A000000063E580911001909111010E949D1F2F
:1026B0000C94DF1D8438C1F40E94A81182FDD9C09A
:1026C00067E480911001909111010E94921F0E9475
:1026D000DF1D2FEF81EE94E0215080409040E1F724
:1026E00000C0000067E4DECF9CEF980F913A40F401
:1026F000682F80911001909111010E94921FD8CFF4
:1027000090E2980F983050F4877091E001C0990FD3
:102710008A95EAF7892F0E94961DCACF9BE5980FEC
:10272000933070F4853A29F0863A31F482E890E0EB
:1027300005C081E890E002C083E890E00C94DC11D1
:1027400098E5980F973108F08EC0883A09F445C093
:10275000893A09F445C08A3A09F445C08B3A09F42C
:1027600045C08C3A09F445C08B3B09F445C08C3B0D
:1027700009F445C08D3A09F445C0803B09F445C0D1
:102780008E3A09F445C08F3A09F445C0813B09F4FB
:1027900045C0823B09F445C0833B09F445C0843BF6
:1027A00009F445C0853B09F445C0863B09F445C0A2
:1027B000873B09F445C0883B09F445C0893B09F4CF
:1027C00045C08D3B09F445C08E3B09F445C08A3BAA
:1027D00009F045C08AE292E044C082EE90E041C038
:1027E00089EE90E03EC08AEE90E03BC085EB90E041
:1027F00038C086EB90E035C083EB90E032C084EBCC
:1028000090E02FC087EB90E02CC08CEC90E029C0CA
:102810008DEC90E026C083E891E023C08AE891E047
:1028200020C082E991E01DC084E991E01AC081E2F4
:1028300092E017C083E292E014C084E292E011C0FB
:1028400085E292E00EC086E292E00BC087E292E061
:1028500008C08FE690E005C080E790E002C080E00D
:1028600090E00C94F211803F20F00E94B6220C946C
:10287000A3230895882309F464C0823879F40E9460
:10288000A81181FF5EC069E3809110019091110150
:102890000E94921F0E94DF1D69E310C08338B1F4CB
:1028A0000E94A81180FF4DC063E5809110019091B6
:1028B00011010E94921F0E94DF1D63E580911001AB
:1028C000909111010E949D1F0C94DF1D843879F4B2
:1028D0000E94A81182FF35C067E480911001909199
:1028E00011010E94921F0E94DF1D67E4E7CF9CEF59
:1028F000980F913A10F4682FE1CF90E2980F98303A
:1029000050F4877091E001C0990F8A95EAF7892FFA
:102910000E949C1DD9CF9BE5980F933020F480E056
:1029200090E00C94DC1198E5980F973120F480E04A
:1029300090E00C94F211803F20F00E941E230C9432
:10294000A3230895CF93C82F0E941C13C93349F4C1
:102950002FEF83EC99E0215080409040E1F700C0D8
:1029600000008C2FCF910C943A14882321F00E9400
:10297000961D0C94DF1D0895882321F00E949C1D54
:102980000C94DF1D08958F929F92BF92CF92DF9299
:10299000EF92FF920F931F93CF93DF9300D0CDB7A9
:1029A000DEB74C01562F472FFC01B580B2949FE053
:1029B000B922E280EE2031F079836A830E94B31D50
:1029C0005A81498149835A830E948C1D49815A81C9
:1029D000882389F0EE2079F080E2850F883058F066
:1029E00082E00E942A1E0E948C1DFF24F394F82688
:1029F00049815A8101C0F12CC42EC2948FE0C822B3
:102A0000D12CF601E859FF4F0C94942C842F807F31
:102A1000142F1F70882311F01295107FEE20C1F043
:102A2000112309F4D7C180E2850F883010F05111CD
:102A300005C0812F5A830E94961D04C0812F5A839E
:102A40000E94A61D5A815A830E94DF1D5A81C2C16D
:102A5000852F5A830E943A145A81112309F404C223
:102A600080E2850F883010F0511104C0812F0E9440
:102A70009C1D03C0812F0E94AC1D0E94DF1DF4C16C
:102A8000842F807F142F1F70803211F01295107FD9
:102A9000552319F05130D9F026C0EE2079F0BB2033
:102AA00049F0F1E0BF1206C00E94C61D812B0E94B2
:102AB000CC1DDAC10E94C61D812B40C1BB2021F074
:102AC00021E0B21609F4D0C10E94D51D3CC1EE2010
:102AD00029F085E08B1508F4C7C12FC194E09B1540
:102AE00008F4C2C130C1EE2051F0BB2009F425C169
:102AF000F401858180FF6EC18F7085831EC1BB206C
:102B000009F421C178C1842F86958695837090E061
:102B1000009719F0019761F0A7C1EE2021F0852FF1
:102B2000942F937002C080E090E00E94DC11ACC151
:102B3000EE2021F0852F942F937002C080E090E06A
:102B40000E94F211A1C1EE20F9F0553F51F0563F1D
:102B500071F0543FA9F480919202909193028160A8
:102B60000BC08091920290919302826005C0809187
:102B700092029091930284609093930280939202C8
:102B8000852F0E94B62222C0553F51F0563F91F04A
:102B9000543FC9F480919202909193028E7F05C0B8
:102BA00080919202909193028D7F909393028093F3
:102BB000920209C020919202309193022B7F3093B0
:102BC000930220939202852F0E941E230E94A3232A
:102BD0005BC1842F837009F04AC0E11051C1E52F19
:102BE000E295E695E770EE0FEE0F652F6F70862F7A
:102BF00090E0A0E0B0E00E2E04C0880F991FAA1F3D
:102C0000BB1F0A94D2F754FF10C00FE010E020E081
:102C100030E004C0000F111F221F331FEA95D2F7C6
:102C2000009510952095309503C000E010E09801C4
:102C300046954695437050E0BC01CD01602B712B49
:102C4000822B932B4230510561F04330510561F0E6
:102C50004130510519F00E94E81B12C10E94D61B99
:102C60000FC10E94FA1B0CC10E94D41B09C1EE20A7
:102C700019F0842F817001C08695882309F400C162
:102C8000E52FE295E695E770EE0FEE0F652F6F707A
:102C9000862F90E0A0E0B0E00E2E04C0880F991FB0
:102CA000AA1FBB1F0A94D2F754FF10C00FE010E018
:102CB00020E030E004C0000F111F221F331FEA95EF
:102CC000D2F7009510952095309503C000E010E0F4
:102CD000980146954695437050E0BC01CD01602BAC
:102CE000712B822B932B4230510561F043305105FB
:102CF00061F04130510519F00E94951CC1C00E943D
:102D0000831CBEC00E94A71CBBC00E940E1CB8C082
:102D1000052F10E0F801E05EF109E531F10508F05A
:102D200055C0E858FF4F0C94942C152F1F70842F1A
:102D30008F71EE2031F00E942E1C812F0E94B5145D
:102D400093C00E94491C812F0E94BC148DC0EE20AC
:102D500049F0F4E0FB1508F487C0842F8F710E94BE
:102D6000681C82C025E02B1508F47EC0F6CFEE204B
:102D700039F0842F8F710E942E1C76C0EE20C9F38B
:102D8000842F8F710E94491C6FC0EE2029F0842F80
:102D90008F710E941F1C68C00E941A1C65C0EE2023
:102DA00051F0142F1F71812F0E942E1C63E0812F80
:102DB0000E94151E59C081E00E942A1E81E08B15D9
:102DC00008F052C082E00E942A1E4EC0EE2031F070
:102DD000BB2079F2852F0E941C1346C0BB2081F2D4
:102DE000593349F49FEFE3ECF9E09150E040F040B3
:102DF000E1F700C00000852F0E943A1435C04F70E3
:102E0000652FC4010E941D070E94421B3DC0E110B6
:102E10003BC04F7050E042305105B1F04CF44115C9
:102E2000510579F041305105F9F40E9488242CC0F5
:102E30004430510579F05CF045305105A9F480E04B
:102E40000AC00E946C2420C00E94C7241DC00E949A
:102E5000CE241AC085E00E94F32416C04F70652F5F
:102E6000C4010E94200710C028E0C216D10441F01E
:102E70005CF09AE0C91AD108E2E0CE16D10420F441
:102E80000E94A8110E94DC04FF20F1F00E94881D1E
:102E900080FD1AC0F40112820E94821D0E942E1C25
:102EA000C4010E9472170E94821D0F900F90DF9143
:102EB000CF911F910F91FF90EF90DF90CF90BF9037
:102EC0009F908F900C94491C0F900F90DF91CF91A1
:102ED0001F910F91FF90EF90DF90CF90BF909F9048
:102EE0008F9008950F931F93CF93DF93EC01288168
:102EF00039818B819C81892B31F03F3F11F080E03B
:102F000003C02F3FE1F781E0811113C0CE010E9481
:102F1000EE04882371F0688179818A810E945F1DA7
:102F20008C010E94B91C0E94D31BB801CE010E94E3
:102F3000C314DF91CF911F910F9108950E94B31D8B
:102F40000E94C31D0E94DF1D0E9443240E94A323F0
:102F500080E090E00E94DC1180E090E00C94F2119F
:102F600080911001909111010E94A81F0C949E174E
:102F70000E94A31D0C94B017E92FE295EF70F0E0CA
:102F80003297EE30F105B8F4E357FF4F0C94942CD0
:102F9000803F59F018F4803E70F407C0843F59F424
:102FA00004C0803E10F0813F31F481E0089593FB2E
:102FB000882780F9089580E008950E94541D0E949A
:102FC000BC170895CF93DF9300D000D01F92CDB7E8
:102FD000DEB70F900F900F900F900F90DF91CF9171
:102FE0000895CF93DF9300D000D000D0CDB7DEB7E7
:102FF00026960FB6F894DEBF0FBECDBFDF91CF91FE
:1030000008951F93CF93DF93C091970116E08091AD
:103010009801C81799F0D0E01C9FF0011D9FF00D9A
:103020001124E756FE4F4081518162817381848172
:1030300095810E94F1172196C770E9CFDF91CF915A
:103040001F9108954091C9015091CA016091CB012F
:103050007091CC018091CD019091CE010C94F1172B
:10306000CF938091CE0182958F7009F05FC08091DF
:10307000CB01882309F45AC020919701A0919801AF
:103080006091C9017091CA018091CC019091CD01EC
:1030900031E06F3F09F030E0B32FC6E02A1709F4A2
:1030A00045C0009721F07F3F21F44B2F03C041E042
:1030B00001C040E030E040FD35C0C29FF001C39F39
:1030C000F00D1124E756FE4F418174132BC040814F
:1030D000641328C04281411125C04381548148179F
:1030E000590710F441505109481B590B483C5105F0
:1030F000C8F48091CE018F7080618093CE0186E00C
:10310000829FF001839FF00D1124E256FE4F8081D3
:103110008F708061808389EC91E00E947217CF915B
:103120000C9401182F5F3F4F2770B8CFCF910895AF
:10313000CF92DF92EF92FF920F931F93CF93DF9383
:10314000CDB7DEB762970FB6F894DEBF0FBECDBF26
:103150008C0185E0F801DE011D9601900D928A95A3
:10316000E1F7D8014C9111965C91119712966C91F0
:1031700012971396ED90FC9014977091C901E0910D
:10318000CA012091CC013091CD012115310531F0DA
:10319000EF3F31F481E07F3F19F403C081E001C0CB
:1031A00080E0B82FB170CB2E80FD6BC1D090CB01E9
:1031B000DD2009F4F5C0F091CE01E216F30638F0F7
:1031C000C701821B930B883C910548F09DC0209558
:1031D00030952E0D3F1D283C310508F095C08F2FEE
:1031E000807F09F052C0E51314C0741312C0D62EAC
:1031F00061110FC0FF70F061F093CE010E942218A0
:1032000089EC91E00E9472178091CE01F8018583CC
:103210007CC1EF2831F05F3F31F481E04F3F19F47A
:1032200003C081E001C080E080FD03C081E086270B
:1032300001C080E0F82FF170FF2E80FF1CC080914C
:1032400097012091980136E0821709F438C190E087
:10325000389FF001399FF00D1124E756FE4F718120
:10326000571306C07081471303C07281671303C0F0
:1032700001968770E9CFD62E662309F446C1809166
:10328000CE0181608093CE0155C0E51308C0741350
:1032900006C0611104C0D8011596FC93AEC04D87DD
:1032A0005E878D859E856A8B0E94DD176A898823DB
:1032B00029F1D62E662311F12091CE01822F82951D
:1032C0008F7090E002970CF462C08091C9019091D8
:1032D000CA0198878F831986FB86EA862C87CE01E0
:1032E000079653C0E51741F14D875E878D859E8512
:1032F0006A8B0E94DD176A89811130C0C8010E9463
:103300007217DD24D39401C18F2F807F59F77E2D52
:10331000F98AE88A89890E94E21789EC91E00E9483
:103320007217E9ECF1E086E0DF011D928A95E9F77A
:103330000E942218D12CE9C07413D6CF6111D4CFCA
:10334000D8011596FC93C8010E947217E9ECF1E0D0
:1033500086E0DF011D928A95E9F7D7C0D62E662355
:1033600069F22091CE01822F82958F7090E00297B2
:1033700074F08091C9019091CA019A8389831B825C
:10338000FD82EC822E83CE0101960E94721786E0A8
:10339000F801A9ECB1E001900D928A95E1F78AC09D
:1033A000E216F30628F0C701821B930B9C0104C0B0
:1033B000209530952E0D3F1D283C310508F053C057
:1033C000D62E662309F49ACFE5132CC074132AC0B5
:1033D0008091CE0180FD1DC0982F92959F70C9F0FD
:1033E000D80115968C9315979F3039F09F5F929571
:1033F000907F8F70892B15968C93C8010E9472174D
:1034000086E0F801A9ECB1E001900D928A95E1F710
:1034100053C086E0F801A9ECB1E001900D928A95C5
:10342000E1F773C04D875E878D859E850E94DD170D
:10343000882381F096E0F801A9ECB1E001900D92AB
:103440009A95E1F78A8B0E9430180E9422188A8987
:10345000D82E5BC08091CE0181608093CE01C801DF
:103460000E94721752C07E2DF98AE88A89890E94CB
:10347000E217E9ECF1E086E0DF011D928A95E9F7B9
:103480001BC0662309F43ACF4D875E878D859E85E4
:103490000E94DD17D82E882309F430CF86E0F8018A
:1034A000A9ECB1E001900D928A95E1F789EC91E0E9
:1034B0000E9416130E9430180E94221826C04D87C1
:1034C0005E878D859E850E94541D292F22952F7021
:1034D00030E0223031052CF49F7041F0811106C09C
:1034E0000CC0243031052CF49F7049F4805E883084
:1034F00020F0C8010E947217CF2CDC2C06C0D80126
:1035000015969C91907F91F7F8CF8D2D62960FB60E
:10351000F894DEBF0FBECDBFDF91CF911F910F9109
:10352000FF90EF90DF90CF9008951F93CF93DF939C
:10353000CDB7DEB72C970FB6F894DEBF0FBECDBF68
:103540004F83588769877A878B879C87CE01079638
:103550000E9498188823C1F02F8138858A859B8521
:10356000892B31F03F3F11F080E003C02F3FE1F79E
:1035700081E0811147C04F81588569857A858B85A7
:103580009C850E94F1173EC086E0FE013796DE0161
:10359000119601900D928A95E1F7FF81E8854A85A1
:1035A0005B854115510531F0EF3F31F481E0FF3F7C
:1035B00019F403C081E001C080E080FD23C02091A8
:1035C000980130E0C90101968770992760919701B1
:1035D00070E086179707F1F1F983EA835D834C83E6
:1035E00096E0929FD001939FB00D1124A756BE4F35
:1035F000FE01319601900D929A95E1F78093980122
:103600000E94011816E08091970190919801891706
:1036100079F1189FC001112487569E4F0E94981877
:10362000882331F1E09197011E9FF0011124E756A4
:10363000FE4F4081518162817381848195810E9416
:10364000F1178091970190E00196877099278093F8
:103650009701D9CF0E94B817109298011092970144
:10366000E9ECF1E086E0DF011D928A95E9F7CACF27
:103670002C960FB6F894DEBF0FBECDBFDF91CF9171
:103680001F910895EF92FF920F931F93CF93DF93B3
:103690009C01009709F471C0F12CEE24E394E90138
:1036A0002196F9018491843740F4843008F056C0A3
:1036B000813081F0823021F160C0853709F449C042
:1036C000C0F19CE7980F903708F057C08F770E94A1
:1036D0003A1446C089010E5F1F4FFE01849190E2AB
:1036E000980F983050F48770FE2D01C0FF0F8A9517
:1036F000EAF78F2F0E94B61D15C00E941C1314C03C
:1037000089010E5F1F4FFE01849190E2980F98305F
:1037100068F48770FE2D01C0FF0F8A95EAF78F2F9E
:103720000E94BC1D0E94DF1DE8011AC00E943A14CD
:10373000FBCF2E5F3F4FFE01C491CC2341F08FE9B8
:103740009FE00197F1F700C00000C150F6CFE901FA
:1037500007C0FE01F490E901229602C00E941C13EA
:103760008F2D882341F0EFE9FFE03197F1F700C09A
:1037700000008150F6CF9E0192CFDF91CF911F9133
:103780000F91FF90EF90089508950C94C41B0E9430
:10379000C51B609305027093060280930702909305
:1037A00008020C949E1708950C94C71B0F931F9347
:1037B0000091050210910602209107023091080243
:1037C000602B712B822B932B1F910F910C94C71B95
:1037D0000F931F930091050210910602209107029A
:1037E0003091080260237123822393231F910F914C
:1037F0000C94C71B0F931F930091050210910602B2
:1038000020910702309108026027712782279327B1
:103810001F910F910C94C71B0C9464030E940C1C05
:10382000609301027093020280930302909304025A
:103830000C949E1760E070E0CB010C940E1C41E0EC
:1038400050E060E070E004C0440F551F661F771F12
:103850008A95D2F7CB01BA010C940E1C41E050E0DE
:1038600060E070E004C0440F551F661F771F8A9503
:10387000D2F78091010290910202A0910302B091CF
:103880000402482B592B6A2B7B2BCB01BA010C94D9
:103890000E1C41E050E060E070E004C0440F551F92
:1038A000661F771F8A95D2F7409550956095709561
:1038B0008091010290910202A0910302B091040252
:1038C000482359236A237B23CB01BA010C940E1C95
:1038D00041E050E060E070E004C0440F551F661FF7
:1038E000771F8A95D2F78091010290910202A091F0
:1038F0000302B0910402482759276A277B27CB018E
:10390000BA010C940E1C0F931F93009101021091A9
:1039100002022091030230910402602B712B822B52
:10392000932B1F910F910C940E1C0F931F930091DA
:1039300001021091020220910302309104026023DF
:103940007123822393231F910F910C940E1C0F93CC
:103950001F93009101021091020220910302309105
:10396000040260277127822793271F910F910C94DF
:103970000E1C08952FE0929F800D1124482F46952C
:10398000469546958770B1E001C0BB0F8A95EAF76E
:1039900085E0489FA001112441535E4F80E090E0F4
:1039A00070E0FA01E80FF91FA0819B01082E02C008
:1039B000369527950A94E2F72170332721952A2717
:1039C0002B232A27208301968530910551F70895EE
:1039D0002FE0929F800D1124682F6695669566955D
:1039E000982F977085E0689FB001112461537E4F36
:1039F00040E050E080E0FB01E40FF51F208130E063
:103A0000092E02C0369527950A94E2F721703327D4
:103A1000042E01C0220F0A94EAF7822B4F5F5F4FFA
:103A20004530510541F70895CF92DF92EF92FF9212
:103A30000F931F93CF93DF93EC01C0900502D090BA
:103A40000602E0900702F090080280910102909136
:103A50000202A0910302B0910402C82AD92AEA2ADC
:103A6000FB2A0FE110E0B701A601002E04C07695F5
:103A70006795579547950A94D2F740FD05C00150C8
:103A8000110988F780E007C0BE01802F0E943B0724
:103A90000197A9F3802FDF91CF911F910F91FF9094
:103AA000EF90DF90CF900895CF93DF93EC010E94C9
:103AB000141DBE010E943B07DF91CF9108951F9313
:103AC000CF93DF93EB0190919601992321F0CB01E5
:103AD0000E94541D13C0882349F0CB010E94141D7D
:103AE000182F682FCE010E94BA1C04C0CB010E947F
:103AF000E81C182FBE01812F0E943B07DF91CF9158
:103B00001F91089580910902859585958595089561
:103B1000809109028770089590910902977081E061
:103B200009F480E0089580912D02089590912D026E
:103B3000982B90932D020895809590912D029823B3
:103B400090932D02089510922D02089590912C02C9
:103B5000982B90932C020895809590912C02982395
:103B600090932C02089510922C02089590912B02AC
:103B7000982B90932B020895809590912B02982377
:103B800090932B02089510922B02089580910A02BF
:103B9000089508950C94C91D90910A02981721F078
:103BA00080930A020C94CA1D089580910A0288230A
:103BB00029F010920A0280E00C94CA1D0895E09149
:103BC0001001F091110180912D028083E09110018C
:103BD000F0911101808190912C02892B8083E091DA
:103BE0001001F0911101808190912B02892B80832B
:103BF00090910A02992381F0E0911001F091110156
:103C00008081892B808380911001909111010E9405
:103C1000251F81110E94D51D8091100190911101E5
:103C20000C94B41108950C94121E98E0899F900191
:103C30001124622B609309020E942E1C80910902BC
:103C40008595859585950C94131E1092090280E048
:103C50000C94131E409109028095842380930902DD
:103C6000982F977079F450E0282F332727FD30954F
:103C70004217530739F08595859585950E94491C13
:103C80000C94251E0895CF92DF92EF92FF920F932E
:103C90001F936C01EE24FF24C114D104E104F1044C
:103CA00021F46B017C0180E001C080E133272F2DDE
:103CB0001E2D0D2D011511052105310519F0885F07
:103CC0006801790197018601A4E03695279517953B
:103CD0000795AA95D1F7011511052105310519F0B0
:103CE0008C5F6801790197018601F2E0369527958E
:103CF00017950795FA95D1F701151105210531059D
:103D000019F08E5F68017901B701A6017695679574
:103D100057954795452B462B472B09F08F5F1F91F1
:103D20000F91FF90EF90DF90CF90089580E090E0AA
:103D30000E94C02C21E08D3E9E4F09F020E0822F92
:103D4000089582E090E00C94B22C682F82E090E01D
:103D50000C94C62C83E090E00C94B22C682F83E086
:103D600090E00C94C62C84E090E00C94B22C682F68
:103D700084E090E00C94C62C86E090E00C94B22C89
:103D8000682F86E090E00C94C62CAB01BC018FE05C
:103D900090E00C94D82CAB01BC0183E190E00C9432
:103DA000D82C60E070E0CB010C94CB1E60E070E09A
:103DB000CB010E94C51E0C94D11E6DEE7EEF80E0FB
:103DC00090E00E94E42C60E082E090E00E94C62C2B
:103DD00060E083E090E00E94C62C109205021092F1
:103DE0000602109207021092080260E084E090E060
:103DF0000E94C62C60E085E090E00E94C62C60E046
:103E000086E090E00E94C62C6FEF87E090E00E9471
:103E1000C62C40E050E0BA0188E090E00E94D82C27
:103E200060E08DE090E00E94C62C40E050E0BA01D6
:103E300088E190E00E94D82C60E087E190E00E9449
:103E4000C62C0C94D61E0C94DD1E029620912201E5
:103E5000211102C026E005C02091980227FFFACF69
:103E60002EE1FC0180E0215028F091919923D9F3B3
:103E70008F5FF9CF089520E030E04FEFFC01E20FB3
:103E8000F31F5281561799F04F3F19F4511101C099
:103E9000422F2F5F3F4F2630310581F74F3F39F0DA
:103EA000FC01E40FF11D47FDFA9562830895089522
:103EB00020E030E0FC01E20FF31F4281461301C015
:103EC00012822F5F3F4F26303105A1F70895262F2C
:103ED0002695269526952E3170F4FC01E20FF11DF2
:103EE000677021E030E0062E01C0220F0A94EAF745
:103EF0008281822B82830895262F269526952695EA
:103F00002E3178F4FC01E20FF11D677021E030E002
:103F1000062E01C0220F0A94EAF7209582812823F9
:103F20002283089520912201222329F020919802D2
:103F300027FD0C94671F0C943B1F20912201222324
:103F400029F02091980227FD0C947C1F0C94581F97
:103F500020912201FC013296222331F080919802B7
:103F600087FF02C08EE101C086E0DF011D928A95C5
:103F7000E9F7089508950C94BA1F0E94BB1F809121
:103F80009F02843049F110922F0220E488E190E0F2
:103F90000FB6F894A895809360000FBE2093600040
:103FA00080E00E94650480E00E94DC040E94BB1F48
:103FB00083B7817F846083BF83B7816083BF789438
:103FC000889583B78E7F83BF88E10FB6F89480937E
:103FD0006000109260000FBE089508950895CF9379
:103FE0000E94ED1F0E94220A0E94EE1FC0E08C2F4B
:103FF0000E94CE09892B29F4CF5FC530C1F780E03C
:1040000001C081E0CF91089508950C9404200E948E
:10401000B8170E944F240E94A8110E94DC040C943F
:1040200005201F920F920FB60F9211248F939F932A
:10403000AF93BF9380912F02811113C0809194029E
:1040400090919502A0919602B09197024196A11D80
:10405000B11D8093940290939502A0939602B09321
:104060009702BF91AF919F918F910F900FBE0F90CC
:104070001F90189582E084BD93E095BD9AEF97BD9F
:1040800080936E0008952FB7F894809194029091D8
:104090009502A0919602B09197022FBF0895CF92FA
:1040A000DF92EF92FF920F931F932FB7F8944091F6
:1040B00094025091950260919602709197022FBFE1
:1040C0006A017B01EE24FF248C0120E030E0C01661
:1040D000D106E206F30610F441505109481B590B72
:1040E000CA011F910F91FF90EF90DF90CF9008953C
:1040F00078941F920F920FB60F9211248F939F9373
:10410000AF93BF938091940290919502A0919602F3
:10411000B09197020196A11DB11D809394029093D6
:104120009502A0939602B0939702BF91AF919F9191
:104130008F910F900FBE0F901F90189581E0809384
:10414000E00080E28093D8001092C9008FE19EE4E5
:104150000197F1F700C0000087E090EBDC0180934D
:10416000A8029093A902A093AA02B093AB022CE0FC
:1041700088E190E00FB6F894A895809360000FBE98
:1041800020936000FFCFBF92CF92DF92EF92FF9219
:104190000F931F93CF93DF93B12C01E010E0E82E33
:1041A000F12C8B2D0E94CE096C01C0E0D0E098016B
:1041B0000C2E02C0220F331F0A94E2F72C213D215E
:1041C000232B29F42196CF30D10589F70AC06C2F13
:1041D0007B2D80E00E942107E816F90699F781E01F
:1041E00005C0B39485E0B812DCCF80E0DF91CF91B9
:1041F0001F910F91FF90EF90DF90CF90BF900895A7
:10420000CF93C82F8CE20E94C320882321F08C2FEB
:10421000CF910C94C32080E0CF910895CF930E945A
:10422000961E811102C00E94231FC5E6C15049F0AD
:104230000E94220A8FE39CE90197F1F700C0000079
:10424000F5CF89E20E94002181110DC18AE20E940E
:10425000002181110E94231F85E00E94002181110D
:104260000E949E200E94A11E80932E0287E00E9441
:104270000021882399F18BE10E940021882351F0CD
:1042800090912E0291FB882780F921E0822780FB04
:1042900091F922C08EE00E940021882351F0909174
:1042A0002E0292FB882780F921E0822780FB92F979
:1042B00013C080E10E94002190912E02882341F0DA
:1042C00093FB882780F921E0822780FB93F904C0C3
:1042D000892F809580FB90F990932E0280912E0279
:1042E0000E94A51E0E94B31E90E0909399028093B5
:1042F000980280EE0E940021882341F0809198026C
:10430000982F909590FB80F98093980289E30E9402
:104310000021882359F09091980291FB882780F919
:1043200021E0822780FB91F99093980282EE0E940F
:104330000021882359F09091980292FB882780F9F8
:1043400021E0822780FB92F99093980286EE0E94EA
:104350000021882359F09091980293FB882780F9D7
:1043600021E0822780FB93F99093980283EE0E94CC
:104370000021882359F09091980294FB882780F9B6
:1043800021E0822780FB94F99093980285E30E94B4
:104390000021882359F09091980295FB882780F995
:1043A00021E0822780FB95F99093980281E30E9497
:1043B0000021882359F09091980296FB882780F974
:1043C00021E0822780FB96F99093980281E10E9478
:1043D0000021882359F09091980297FB882780F953
:1043E00021E0822780FB97F99093980280919802B0
:1043F0000E94B71E87E20E940021C82F8EE10E9412
:1044000000218111C2608FE10E9400218111C460EE
:1044100080E20E9400218111C86081E20E94002197
:104420008111C06182E20E9400218111C06283E299
:104430000E9400218111C06484E20E94002188232F
:1044400011F0C06802C0CC2329F08C2F0E94AE1E50
:104450006C2F03C00E94AA1E682F70E080E090E0DD
:10446000CF910C94D41BCF9108958091330280FF9B
:104470000BC06091150185E0689FB001112475950E
:104480006795759567952AC081FF09C060911501F0
:1044900085E0689FB0011124759567951FC082FF64
:1044A00007C06091150185E0689FB001112416C016
:1044B000409132024423C9F060911401461788F7F5
:1044C0002091150185E0289F90011124429FC00191
:1044D000439F900D112470E00E945E2C603871059E
:1044E00040F46115710539F002C065E070E0862F77
:1044F00008958FE7089581E008958091330280FF49
:1045000008C06091130170E0759567957595679582
:1045100021C081FF06C06091130170E07595679519
:1045200019C082FF04C06091130170E010C0809137
:1045300032028823C1F0609112018617A0F7909192
:104540001301989FC001112470E00E945E2C603816
:10455000710528F46115710521F0862F08958FE704
:10456000089581E0089561E070E0F4CF803F21F488
:104570000E943522819504C0813F29F40E94352292
:10458000809337020895823F21F40E94352281955D
:1045900004C0833F29F40E94352280933602089597
:1045A000893F19F40E947D2205C08A3F31F40E94A0
:1045B0007D2281958093380208958B3F21F40E94DB
:1045C0007D22819504C08C3F29F40E947D22809336
:1045D00039020895843F21F480913502816017C02B
:1045E000853F21F480913502826011C0863F21F41D
:1045F0008091350284600BC0873F21F480913502A1
:10460000886005C0883F31F48091350280618093D5
:10461000350208958D3F21F48091330281600BC0F3
:104620008E3F21F480913302826005C08F3F29F4D0
:10463000809133028460809333020895803F39F47F
:104640008091370287FF6CC01092370269C0813FAA
:1046500029F4809137021816BCF362C0909136029B
:10466000823F29F497FF5CC01092360259C0833F05
:1046700019F41916CCF354C0893F41F480913802E3
:1046800018160CF04DC0109238024AC08A3F29F427
:104690008091380287FF44C0F6CF8B3F39F4809178
:1046A000390287FF3DC0109239023AC08C3F29F48D
:1046B000809139021816BCF333C0843F21F48091F5
:1046C00035028E7F17C0853F21F4809135028D7FA2
:1046D00011C0863F21F4809135028B7F0BC0873F4C
:1046E00021F480913502877F05C0883F31F48091A5
:1046F00035028F7E8093350213C08D3F21F4809167
:1047000033028E7F0BC08E3F21F4809133028D7F68
:1047100005C08F3F29F4809133028B7F8093330251
:104720008091360281110EC08091370281110AC03A
:1047300080913802811106C080913902811102C036
:1047400010923202089584E392E00E94CE110E94FA
:104750004320909331028093300208951F93CF93AA
:10476000DF9380913002909131020E944F2040915E
:104770003202442321F02091160130E006C020913E
:1047800017015AE0259F900111248217930708F41E
:1047900076C08091360210913702D0913802C091D4
:1047A0003902811107C0111105C0D11103C0CC23FA
:1047B00009F465C04F3F19F04F5F4093320218165D
:1047C00024F40E943522809336028091360287FFBE
:1047D00005C00E943522819580933602111624F47B
:1047E0000E943522809337028091370287FF05C0EF
:1047F0000E94352281958093370220913602222330
:10480000D9F0409137024423B9F055EB25039001CC
:104810001124332319F03093360203C081E08093D2
:10482000360225EB4203C001112490933702911107
:1048300003C081E0809337021D1624F40E947D227C
:10484000809338028091380287FF05C00E947D2244
:104850008195809338021C1624F40E947D22809357
:1048600039028091390287FF05C00E947D2281951F
:1048700080933902DF91CF911F910C94A323DF9194
:10488000CF911F910895E4E3F2E086E0DF011D92ED
:104890008A95E9F7109232021092330208950E942D
:1048A000961E811102C00E94231F0E94BC1E80938D
:1048B0009A02282F269530E02630310524F08170A9
:1048C0008A6080939A0280919A0280FF02C0869546
:1048D00001C080E00C94650420919A02322F369535
:1048E000832F90E0059744F491E0930F990F822F66
:1048F0008170892B80939A0280919A0281608093C3
:104900009A020E94C01E80919A0286950C946504BA
:1049100080919A02982F969591F09158990F8170F5
:10492000892B80939A028E7F91E009F490E0809128
:104930009A0290FB80F980939A020E94C01E809197
:104940009A0286950C94650480919A0280FD11C0AC
:10495000816080939A02813019F483E080939A02F7
:1049600080919A020E94C01E80919A0286950C94B2
:104970006504089580919A0280FF08C08E7F80931D
:104980009A020E94C01E80E00C94650408958091F4
:104990009A0280FD0C94BA240C94A42430919A02BB
:1049A000232F26952F5F2F77822F90E03170069767
:1049B0002CF4220F232B20939A0202C030939A02E8
:1049C00080919A028E7F91E009F490E080919A02A2
:1049D00090FB80F980939A020E94C01E80919A02F7
:1049E00086950C946504863008F085E0880F9091D8
:1049F0009A029170982B90939A029E7F21E009F47D
:104A000020E080919A0220FB80F980939A020E9414
:104A1000C01E80919A0286950C94650480915A027A
:104A200008950F931F93CF93DF9300D01F92CDB7BC
:104A3000DEB78C010E947F27823011F0843021F58F
:104A400084E089831B830A8382E08093E9008FEFEF
:104A50009091E800815095FD06C095ED9A95F1F78B
:104A600000008111F5CF8091E80085FF0DC040E086
:104A700050E063E070E0CE0101960E949C27809197
:104A8000E8008E778093E8000F900F900F90DF91F1
:104A9000CF911F910F910895CF93DF9300D01F9274
:104AA000CDB7DEB720919F02243031F523E0298372
:104AB000805891099B838A8382E08093E9008FEF7D
:104AC0009091E800815095FD06C095ED9A95F1F71B
:104AD00000008111F5CF8091E80085FF0DC040E016
:104AE00050E063E070E0CE0101960E949C27809127
:104AF000E8008E778093E8000F900F900F90DF9181
:104B0000CF910895CF93DF93EC010E947F278230ED
:104B100011F08430F9F482E08093E9008FEF9091F6
:104B2000E800815095FD06C095ED9A95F1F70000DB
:104B30008111F5CF8091E80085FF0CC040E050E086
:104B400066E070E0CE010E949C278091E8008E779D
:104B50008093E800DF91CF910895CF93DF93EC012C
:104B60000E947F27823011F08430D9F58091220194
:104B7000811103C068E081E006C08091980287FF40
:104B8000F9CF60E282E08093E9008FEF9091E80036
:104B9000815095FD06C095ED9A95F1F700008111C1
:104BA000F5CF8091E80085FF1CC080912201811122
:104BB00005C040E050E068E070E003C070E040E015
:104BC00050E0CE010E949C278091E8008E77809370
:104BD000E80080E2FE01AAE3B2E001900D928A951E
:104BE000E1F7DF91CF91089580919E02811109C074
:104BF0000E942E290E948B298091E200846080937C
:104C0000E200089510929E020895089508950C946C
:104C1000072042E061EC81E00E94A82842E261ECBA
:104C200082E00C94A8288091A102833009F460C02E
:104C300030F4813071F0823009F499C008958A30DF
:104C400009F485C08B3009F46BC0893009F0A7C026
:104C500020C08091A002813A09F0A1C08091E800B3
:104C6000877F8093E8008091A4029091A502892B10
:104C700021F060E080E090E003C060E28AE392E02F
:104C800070E00E94E5278091E8008B778093E80030
:104C900008958091A002813209F081C08091A40220
:104CA0009091A502029708F07AC08091E800877F72
:104CB0008093E8008091E80082FD05C080919F020A
:104CC0008111F8CF6CC02091F3008091F20090E048
:104CD000922B029729F48091F1008B7F813021F48F
:104CE0008091F10080935A028091E8008B7753C045
:104CF0008091A002813A09F052C08091A402909163
:104D0000A502892B09F04BC08091E800877F809332
:104D1000E8008091E80080FFFCCF8091220136C03E
:104D20008091A0028132D9F58091A4029091A502D0
:104D3000892BA9F58091E800877F8093E8000E9485
:104D4000DD288091A202809322010C94B8178091F3
:104D5000A002813221F58091E800877F8093E800EE
:104D60000E94DD288091A30280935B0208958091C8
:104D7000A002813AA1F48091E800877F8093E80047
:104D80008091E80080FFFCCF80915B028093F1006E
:104D90008091E8008E778093E8000C94DD280895D8
:104DA00084B7877F84BF88E10FB6F8948093600052
:104DB000109260000FBE80E8809361001092610045
:104DC0000E9416120E942E290E948B298091E200D7
:104DD00084608093E20078940E940E2C0E941E1240
:104DE00088E191E00E94A31180919F02853069F4CF
:104DF0000E94BD1F80919D028823B1F30E94EF1F86
:104E0000882391F30E948627EFCF0E942A120E94E6
:104E10002810EACF0C940C27292F33272330310593
:104E2000A9F06CF42130310509F441C0223031057C
:104E300009F042C08BE390E025EB34E04BC0213217
:104E40003105F9F02232310539F136C09927813028
:104E5000910571F02CF4892B79F5E1EBF4E00DC0AC
:104E60008230910541F0039739F5EDE8F4E005C093
:104E7000EFE9F4E002C0E3E9F4E0849190E09F01FF
:104E800029C061157105E9F061307105A9F489E067
:104E900090E020EE34E01EC061157105B9F061307C
:104EA000710551F480EC90E022E035E013C082E11E
:104EB00090E020EF34E00EC080E090E020E030E0B1
:104EC00009C089E090E027EC34E004C080E490E081
:104ED00022EC35E0FA013183208308950895CF93C1
:104EE000C82F0E946E27C0935C02CF9108958091D5
:104EF0009F02843011F482E0089581E0089580914A
:104F00005C02811102C00C947727089580E189BD6D
:104F100082E189BD09B400FEFDCF8091D8008F7D6C
:104F20008093D8008091E00082608093E0008091BF
:104F3000E00081FDFCCF0895CF92DF92EF92FF92C7
:104F40000F931F93CF93DF937C018B01EA010E94A3
:104F5000FE28811131C0209731F088819981081B8A
:104F6000190BE80EF91EC12CD12C0115110519F1F0
:104F70008091E80085FD14C08091E8008E778093D1
:104F8000E800209741F0888199818C0D9D1D9983BF
:104F9000888385E011C00E94FE28882331F30CC06D
:104FA000F70181917F018093F10001501109FFEF1A
:104FB000CF1ADF0ADACF80E0DF91CF911F910F91F6
:104FC000FF90EF90DF90CF9008952091A60230914E
:104FD000A7022617370748F06115710539F42091AB
:104FE000E8002E772093E80001C0B901FC0120E021
:104FF00061157105B9F180919F02882309F440C0C1
:10500000853009F43FC08091E80083FD3DC0809168
:10501000E80082FF06C08091E80082FF26C080E0A1
:1050200008958091E80080FFE3CF2091F300809104
:10503000F20090E0922B6115710551F088309105D6
:1050400038F421912093F100615071090196F3CF5A
:1050500021E0089709F020E08091E8008E778093A6
:10506000E800C6CF2111C7CFD6CF80919F028823F9
:1050700039F0853039F08091E80083FFCCCF04C04F
:1050800082E0089583E0089581E008952091A602CA
:105090003091A7022617370748F06115710539F4DA
:1050A0002091E8002E772093E80001C0B901FC01AF
:1050B00020E061157105C1F180919F02882309F4F8
:1050C00041C0853009F440C08091E80083FD3EC0B6
:1050D0008091E80082FF06C08091E80082FF27C02F
:1050E00080E008958091E80080FFE3CF2091F300F5
:1050F0008091F20090E0922B6115710559F0883093
:10510000910540F424912093F1003196615071098A
:105110000196F2CF21E0089709F020E08091E800A5
:105120008E778093E800C5CF2111C6CFD5CF80916F
:105130009F02882339F0853039F08091E80083FFA1
:10514000CBCF04C082E0089583E0089581E0089504
:10515000982F973058F59093E900981739F070918F
:10516000EC002091ED005091F00003C0242F762F29
:1051700050E021FF19C03091EB003E7F3093EB00EF
:105180003091ED003D7F3093ED003091EB003160C8
:105190003093EB007093EC002093ED005093F000FF
:1051A0002091EE0027FF07C09F5FD3CF8F708093C1
:1051B000E90081E0089580E008958091A00287FDD4
:1051C00005C08091E80080FF0EC012C08091E80009
:1051D00082FD05C080919F028111F8CF08958091D2
:1051E000E8008B7708C080919F028111EACF089573
:1051F0008091E8008E778093E80008958091E40024
:105200009091E50045E62091EC0020FF21C020911F
:10521000E80020FD21C020919F02222389F0253043
:1052200089F02091EB0025FD0FC02091E400309122
:10523000E5002817390739F3415041F0C901E3CFA0
:1052400082E0089583E0089581E0089584E0089560
:105250002091E80022FFDFCF80E008950E949C2982
:105260000E94A429E0EEF0E0808181608083E8ED77
:10527000F0E080818F77808319BCA7EDB0E08C913E
:105280008E7F8C9380818F7E808310929E02089502
:105290000F931F93CF93DF930E949C290E94A42910
:1052A000C8EDD0E088818F77888388818068888383
:1052B00088818F7D888319BC10929F0210929B0277
:1052C00010929D0210929C0200EE10E0F801808185
:1052D0008B7F808388818160888342E060E080E00A
:1052E0000E94A828E1EEF0E080818E7F8083E2EECC
:1052F000F0E0808181608083808188608083F80114
:1053000080818E7F8083888180618883DF91CF91C7
:105310001F910F910895E8EDF0E080818F7E8083EA
:10532000E7EDF0E080818160808384E082BF81E0EE
:1053300080939E020C944829E8EDF0E080818E7FF6
:1053400080831092E20008951092DA001092E1003A
:1053500008951F920F920FB60F9211242F933F932F
:105360004F935F936F937F938F939F93AF93BF936D
:10537000EF93FF938091E10082FF0BC08091E200E8
:1053800082FF07C08091E1008B7F8093E1000E9443
:105390000D2C8091DA0080FF1FC08091D80080FF23
:1053A0001BC08091DA008E7F8093DA008091D90053
:1053B00080FF0DC080E189BD82E189BD09B400FE96
:1053C000FDCF81E080939F020E94F42505C019BCA7
:1053D00010929F020E9402268091E10080FF19C076
:1053E0008091E20080FF15C08091E2008E7F809363
:1053F000E2008091E20080618093E2008091D80019
:1054000080628093D80019BC85E080939F020E943F
:1054100006268091E10084FF30C08091E20084FF85
:105420002CC080E189BD82E189BD09B400FEFDCFB9
:105430008091D8008F7D8093D8008091E1008F7E8D
:105440008093E1008091E2008F7E8093E200809162
:10545000E20081608093E20080919B02882311F03A
:1054600084E007C08091E30087FF02C083E001C0B1
:1054700081E080939F020E9407268091E10083FFD4
:1054800029C08091E20083FF25C08091E100877FE1
:105490008093E10082E080939F0210929B028091B2
:1054A000E1008E7F8093E1008091E2008E7F809307
:1054B000E2008091E20080618093E20042E060E0DF
:1054C00080E00E94A8288091F00088608093F0001E
:1054D0000E940526FF91EF91BF91AF919F918F910F
:1054E0007F916F915F914F913F912F910F900FBEE0
:1054F0000F901F9018951F920F920FB60F921124C4
:105500002F933F934F935F936F937F938F939F93CB
:10551000AF93BF93CF93EF93FF93C091E900CF7008
:105520008091EC001092E9008091F000877F8093D9
:10553000F00078940E94B72A1092E9008091F00060
:1055400088608093F000C093E900FF91EF91CF91C4
:10555000BF91AF919F918F917F916F915F914F918B
:105560003F912F910F900FBE0F901F9018951F9392
:10557000CF93DF93CDB7DEB7AA970FB6F894DEBF0F
:105580000FBECDBFE0EAF2E08091F100819322E00E
:10559000E83AF207C9F70E9413268091E80083FFDA
:1055A00024C12091A0023091A102832F90E08A3083
:1055B000910508F01AC1FC01E556FF4F0C94942C9C
:1055C000203821F0223809F010C108C080919C02D7
:1055D00090919D02992389F082600FC08091A4026E
:1055E0008F70873008F001C18093E9008091EB0053
:1055F00085FB882780F91092E9009091E800977F59
:105600009093E8008093F1001092F100CCC0822FBB
:105610008D7F09F0EAC0222319F0223061F0E5C045
:105620008091A202813009F0E0C0333009F080E0BF
:1056300080939D022AC08091A202811126C02091F0
:10564000A4022F708FEF820F863008F0CEC0209317
:10565000E9008091EB0080FF18C08091EB003330AF
:1056600011F4806210C080618093EB0081E090E0D3
:1056700001C0880F2A95EAF78093EA001092EA00A9
:105680008091EB0088608093EB001092E90080919C
:10569000E800877F8093E8000E94DD28A6C02111E2
:1056A000A4C01091A2021F778091E3008078812B23
:1056B0008093E3008091E800877F8093E8000E9458
:1056C000DD288091E80080FFFCCF8091E3008068B6
:1056D0008093E300112311F083E001C082E0809306
:1056E0009F0283C02058223008F07FC08091A20220
:1056F0009091A3028C3D23E0920779F583E08A83A1
:105700008AE289834FB7F894DE01139620E03EE0E9
:1057100051E2E32FF0E050935700E49120FF03C0E3
:10572000E295EF703F5FEF708E2F90E0EA3010F05F
:10573000C79601C0C0968D939D932F5F243149F782
:105740004FBF8091E800877F8093E8006AE270E0B5
:10575000CE0101960E94E52715C06091A4027091C8
:10576000A502AE014F5F5F4F0E940A270097E9F143
:105770002091E800277F2093E800BC0189819A816D
:105780000E9446288091E8008B778093E8002DC026
:10579000203859F58091E800877F8093E800809158
:1057A0009B028093F1008091E8008E7773CF2111E6
:1057B0001CC09091A2029230C0F48091E800877FD3
:1057C0008093E80090939B020E94DD2880919B02C9
:1057D000811104C08091E30087FF02C084E001C012
:1057E00081E080939F020E9409268091E80083FF58
:1057F0000AC08091E800877F8093E8008091EB00E9
:1058000080628093EB00AA960FB6F894DEBF0FBEBD
:10581000CDBFDF91CF911F9108950895CF938091CF
:105820009F028823B1F08091E9008F709091EC0085
:1058300090FF02C090E801C090E0C92FC82B1092E1
:10584000E9008091E80083FD0E94B72ACF70C093E1
:10585000E900CF910895A29FB001B39FC001A39F1B
:10586000700D811D1124911DB29F700D811D112499
:10587000911D0895DB018F939F930E949A2CBF91F5
:10588000AF91A29F800D911DA39F900DB29F900D8F
:1058900011240895AA1BBB1B51E107C0AA1FBB1FFF
:1058A000A617B70710F0A61BB70B881F991F5A95AC
:1058B000A9F780959095BC01CD01089597FB072E1F
:1058C00016F4009407D077FD09D00E944A2C07FCFB
:1058D00005D03EF4909581959F4F08957095619500
:1058E0007F4F0895A1E21A2EAA1BBB1BFD010DC01C
:1058F000AA1FBB1FEE1FFF1FA217B307E407F50780
:1059000020F0A21BB30BE40BF50B661F771F881F5B
:10591000991F1A9469F760957095809590959B01F1
:10592000AC01BD01CF010895EE0FFF1F0590F4916A
:10593000E02D09940E942B2CA59F900DB49F900DF3
:10594000A49F800D911D11240895FC0141505040E9
:1059500030F001900616D1F73197CF0108958827CE
:1059600099270895F999FECF92BD81BDF89A99279C
:1059700080B50895A6E1B0E044E050E00C94EC2C32
:10598000A8E1B0E042E050E00C94EC2C262FF9990D
:10599000FECF92BD81BDF89A019700B4021639F08E
:1059A0001FBA20BD0FB6F894FA9AF99A0FBE08955F
:1059B0000396272F0E94C72C0E94C62C252F0E94D9
:1059C000C72C242F0C94C72C0196272F0E94C72C7C
:1059D0000C94C62CDC01CB01FC01F999FECF06C06A
:1059E000F2BDE1BDF89A319600B40D92415050409D
:0859F000B8F70895F894FFCF09
:1059F800010210101001191A1B1C1D1E1F20212244
:105A08000B022808140A321E0E25AD2582254C25C6
:105A1800112501F0F1C66766379431303534979611
:105A280033F4909192939500010202020206060651
:105A38000909090909090F0F0F0F0F0F1515151877
:0C5A480019191919191919191919232411
:00000001FF
