:100000000C948A050C94CE050C94CE050C94CE0568
:100010000C94CE050C94CE050C94CE050C94CE0514
:100020000C94CE050C94CE050C948B300C945D3161
:100030000C94A0260C94CE050C94CE050C94CE0501
:100040000C94CE050C94CE050C94CE050C94CE05E4
:100050000C94CE050C9407270C94CE050C94CE0579
:100060000C94CE050C94CE050C94CE050C94CE05C4
:100070000C94CE050C94CE050C94CE050C94CE05B4
:100080000C94CE050C94CE050C94CE050C94CE05A4
:100090000C94CE050C94CE050C94CE050C94CE0594
:1000A0000C94CE050C94CE050C94CE051B072407AA
:1000B0002D0736073F074807510789098F0993091C
:1000C00096099A099E09A209A609AB09AF09B309C5
:1000D000B709BA09BE09C209C609CA09CF094C1B2A
:1000E0004C1B861B861BC91BE91B7A1D7A1D2F1C06
:1000F0007A1DCE1CCE1C451D4D1D7A1D741DDB1CAA
:10010000DB1CDB1CDB1CDB1CDB1CDB1CDB1CDB1C37
:10011000DB1CDB1CDB1CDB1CDB1CDB1CDB1CED1C15
:10012000FD1C041D0B1D151D0E1E0E1E211E211E65
:10013000171E211E211E211E0E1E0E1E1D1E211EFB
:10014000211E1D1EC231E931D732E931D732313299
:100150005432D732AA32B93229001E001F002000C3
:1001600021002200230024002500260027002D0066
:100170002E0000002A002B00000014001A000800C6
:10018000150017001C0018000C00120013002F00AF
:1001900030003100F45C0000040016000700090084
:1001A0000A000B000D000E000F0033003400280081
:1001B0000000E10000001D001B0006001900050002
:1001C00011001000360037000000E5005200380032
:1001D000E000E3000000E200000000002C0000004E
:1001E00000000000F55C0151500051004F00350047
:1001F0003A003B003C003D003E003F004000410013
:10020000420043004400450000004C00005C000038
:10021000FA5C0100010001000100010059005A00D0
:100220005B004B00AA00A90001003900000001009A
:10023000010001000100010001005C005D005E00A2
:100240004E004A004D0000000100000001000100C6
:1002500001000100010001005F006000610000007A
:100260006200F75C4900010001000000010000008D
:100270000000010000000000000001000100F65C29
:10028000F85CF95C44454255473A20646973616201
:100290006C65642E0A0044454255473A20656E61FC
:1002A000626C65642E0A000A002530313662003A1D
:1002B000200025303258000A722F6320303132334B
:1002C0003435363738394142434445460A0072676F
:1002D000626C696768742074696D65722064697303
:1002E00061626C652E0A007267626C6967687420CF
:1002F00074696D657220656E61626C65642E0A00BA
:100300007267626C696768742073657420687376BD
:10031000205B4E4F454550524F4D5D3A2025752C80
:1003200025752C25750A007267626C6967687420F0
:1003300073657420687376205B454550524F4D5D60
:100340003A2025752C25752C25750A007267626C7C
:1003500069676874207261696E626F772073657473
:10036000206873763A2025642C25642C25642C257E
:10037000750A007267626C696768742064697361EA
:10038000626C65205B454550524F4D5D3A20726767
:10039000626C696768745F636F6E6669672E656E0D
:1003A00061626C65203D2025750A007267626C6988
:1003B00067687420656E61626C65205B4E4F4545D1
:1003C00050524F4D5D3A207267626C696768745F86
:1003D000636F6E6669672E656E61626C65203D2095
:1003E00025750A007267626C6967687420656E61C2
:1003F000626C65205B454550524F4D5D3A207267F7
:10040000626C696768745F636F6E6669672E656E9C
:1004100061626C65203D2025750A007267626C6917
:1004200067687420746F67676C65205B4545505240
:100430004F4D5D3A207267626C696768745F636FE5
:100440006E6669672E656E61626C65203D2025755C
:100450000A007267626C69676874206D6F6465205A
:100460005B4E4F454550524F4D5D3A2025750A0071
:100470007267626C69676874206D6F6465205B45A4
:100480004550524F4D5D3A2025750A007267626CE7
:10049000696768745F696E6974207267626C696706
:1004A00068745F636F6E6669672E6D6F6465203D6B
:1004B00020302E2057726974652064656661756C02
:1004C000742076616C75657320746F2045455052B9
:1004D0004F4D2E0A007267626C696768745F696EBF
:1004E0006974206565636F6E666967206973206E45
:1004F0006F7420656E61626C65642E0A00726762BB
:100500006C696768745F696E697420737461727472
:10051000210A007267626C696768745F696E69744A
:100520002063616C6C65642E0A007267626C696797
:1005300068745F636F6E6669672E737065656420AB
:100540003D2025640A007267626C696768745F63A6
:100550006F6E6669672E76616C203D2025640A0007
:100560007267626C696768745F636F6E6669672E35
:10057000736174203D2025640A007267626C6967AC
:1005800068745F636F6E6669672E687565203D20CD
:1005900025640A007267686C696768745F636F6ED0
:1005A0006669672E6D6F6465203D2025640A0072C0
:1005B00067626C696768745F636F6E6669672E65F2
:1005C0006E61626C65203D2025640A007267626C72
:1005D000696768745F636F6E666967206570726FC4
:1005E0006D0A0000047F3F1F643214643214783CAB
:1005F0001E1E140A052223252628292A2C2D2F30D9
:1006000032333536383A3B3D3E4042434547494A0E
:100610004C4E5051535557595A5C5E60626466683F
:10062000696B6D6F71737577797B7D7F818385874A
:10063000898A8C8E90929496989A9C9E9FA1A3A54D
:10064000A7A8AAACAEAFB1B3B4B6B8B9BBBCBEBF75
:10065000C1C2C3C5C6C7C9CACBCCCDCED0D1D2D2F8
:10066000D3D4D5D6D7D7D8D9D9DADADBDBDBDCDC03
:10067000DCDCDCDDDDDDDDDCDCDCDCDCDBDBDBDABB
:10068000DAD9D9D8D7D7D6D5D4D3D2D2D1D0CECD26
:10069000CCCBCAC9C7C6C5C3C2C1BFBEBCBBB9B833
:1006A000B6B4B3B1AFAEACAAA8A7A5A3A19F9E9CB8
:1006B0009A98969492908E8C8A89878583817F7D83
:1006C0007B79777573716F6D6B6968666462605E64
:1006D0005C5A5957555351504E4C4A49474543422D
:1006E000403E3D3B3A3836353332302F2D2C2A29C7
:1006F0002826252322FFAA7F554000000000000085
:1007000000000000010101010101010101020202DA
:1007100002020202020303030303030304040404AA
:10072000040505050505060606060607070707086A
:100730000808080909090A0A0A0B0B0B0C0C0C0D16
:100740000D0D0E0E0E0F0F101010111112121313AB
:100750001414151516161717181819191A1A1B1C20
:100760001C1D1D1E1F1F2021212223232425252679
:10077000272828292A2B2C2C2D2E2F3031313233AB
:100780003435363738393A3B3C3D3E3F40414243B1
:100790004445464748494B4C4D4E4F505253545593
:1007A0005758595A5C5D5E606163646567686A6B3F
:1007B0006C6E6F7172747677797A7C7D7F818284BA
:1007C0008687898B8D8E9092949597999B9D9FA1FA
:1007D000A2A4A6A8AAACAEB0B2B4B6B9BBBDBFC104
:1007E000C3C5C8CACCCED0D3D5D7DADCDEE1E3E6C8
:1007F000E8EAEDEFF2F4F7F9FCFF0A002530325891
:1008000020006B6579626F6172645F7265706F72F0
:10081000743A20000A0025303258006B6579626F07
:100820006172645F7365745F6C65643A200064652F
:100830006C5F6B65795F6269743A2063616E2774DF
:100840002064656C3A20253032580A006164645F88
:100850006B65795F6269743A2063616E2774206109
:1008600064643A20253032580A00290A00257500B0
:100870002F002575005D28002564002000256400F8
:10088000200025640020002564007C0025303258BB
:10089000006D6F7573656B6579205B62746E7C7833
:1008A0002079207620685D287265702F61636C293D
:1008B0003A205B006261636B6C69676874207374D3
:1008C00065703A2025750A006261636B6C69676820
:1008D000742064697361626C650A006261636B6CA9
:1008E0006967687420656E61626C650A00626163A5
:1008F0006B6C6967687420746F67676C653A202554
:10090000750A006261636B6C696768742064656373
:1009100072656173653A2025750A006261636B6CCC
:100920006967687420696E6372656173653A202532
:10093000750A005B735D004B6579626F61726420BC
:1009400073746172742E0A005B575D005B535D0027
:100950005B525D005B445D005B435D00040330005F
:1009600000000A0344005A00360030000000100363
:100970004B0042004400460061006E00730000001E
:100980000403090409025B00030100A0FA09040042
:1009900000010301010009211101000122400007AB
:1009A00005810308000A0904010001030000000991
:1009B000211101000122C0000705820320000A095D
:1009C000040200020300000009211101000122229B
:1009D000000705830320000107050303200001121F
:1009E00001100100000008EDFE6022010001020379
:1009F000010631FF0974A1010975150026FF009554
:100A000020750881020976150026FF0095207508DB
:100A10009102C005010902A10185020901A1000599
:100A20000919012905150025019505750181029512
:100A300001750381010501093009311581257F9573
:100A4000027508810609381581257F950175088191
:100A500006050C0A38021581257F95017508810667
:100A6000C0C005010980A10185031601002603000D
:100A70001A81002A8300751095018100C0050C09B8
:100A800001A1018504160100269C021A01002A9C7E
:100A900002751095018100C005010906A1018505B7
:100AA000050719E029E71500250195087501810260
:100AB0000508190129059505750191029501750330
:100AC00091010507190029EF1500250195F0750121
:100AD0008102C005010906A101050719E029E715F2
:100AE00000250195087501810295017508810105B0
:100AF0000819012905950575019102950175039164
:100B0000010507190029FF150026FF009506750845
:100B10008100C00011241FBECFEFDAE0DEBFCDBFE1
:100B200004B603FE24C08091CC029091CD02A09126
:100B3000CE02B091CF028730904BA740B04BB9F4B2
:100B40001092CC021092CD021092CE021092CF02DF
:100B500014BE84B7877F84BF88E10FB6F894809372
:100B60006000109260000FBEE0E0F8E3099511E02C
:100B7000A0E0B1E0E2EDF7E602C005900D92A437E7
:100B8000B107D9F712E0A4E7B1E001C01D92AC3C77
:100B9000B107E1F70E94A92D0C94E7330C940000F3
:100BA000FF93EF93E0917401F0917501309709F094
:100BB0000995EF91FF910895FC018591803011F026
:100BC000EFDFFBCF0895FF27E0E230E247FF0CC0E4
:100BD000419597FF09C0EDE26095709580959095DD
:100BE000611D711D811D911D27FF02C0219530E3FC
:100BF00050E2AA27660F771F881F991FAA1FA41704
:100C000010F0A41B63955A95A9F7AA3008F0A95FC4
:100C1000A05DAF93F395611571058105910541F7CD
:100C2000ED3211F4EF93F395F21718F43F93F39527
:100C3000FBCF8F91B5DFFA95E1F70895E991F9912E
:100C40008591803021F0853219F0AADFF9CF08951F
:100C500020E0E89455915532C1F3503311F4689473
:100C600055915A3348F4505390F3220F022E220F1D
:100C7000220F200D250FF4CF0EF421958991999123
:100C8000533619F3533729F1533559F1BC018827ED
:100C90009927E8945C3621F489919991689455914B
:100CA000543639F446EF7EF077FF0DC08FEF9FEF9B
:100CB0000AC055374AE039F0583540E121F0523644
:100CC00042E009F00895FF93EF937DDFEF91FF91EC
:100CD000B7CFFF93EF93FC0181918030B9F360DFD0
:100CE000FBCFFF93EF9368DFF1CFDF93CF93CDB7C7
:100CF000DEB72596A3DFCF91DF9108950C9484078A
:100D0000229A2A9A08950E947D070C94800681FFFA
:100D100002C02A9801C02A9A0C94FA08CF93DF9354
:100D2000C82F442351F1611106C0D0E0CE010E94CA
:100D3000FF07CE011FC0613071F482EE90E00E9487
:100D4000FF07D0E0CE010E94FF07CE010E941508E8
:100D500082EE90E00FC0623091F483EE90E00E944A
:100D6000FF07D0E0CE010E94FF07CE010E941508C8
:100D700083EE90E00E94150802C081E001C080E08F
:100D8000DF91CF910895209100012223D1F00197A6
:100D900089F5109279011092780189E390E00E9420
:100DA0002B088091000191E08927809300018091B8
:100DB0007601909177010196909377018093760167
:100DC00008950197B9F4109277011092760189E3A2
:100DD00090E00E942B088091000191E08927809388
:100DE00000018091780190917901019690937901A9
:100DF0008093780108950F931F93CF93DF93EC01B5
:100E00008B0180917C01882359F0FB01828188232A
:100E100039F0CC32D10509F44EC0CE010E94C30690
:100E2000FE01E45FFC45E730F10508F044C0EA5AF2
:100E3000FF4F0C9481334091010160E080E40E94F7
:100E40008E068093010137C04091020162E08FE07D
:100E50000E948E06809302012EC04091030161E042
:100E600080E50E948E068093030125C04091040115
:100E700061E082E50E948E06809304011CC04091CF
:100E8000050161E081E50E948E068093050113C093
:100E90004091060161E08FE40E948E068093060176
:100EA0000AC0F8018281882331F080917C0191E0B1
:100EB000892780937C0181E0DF91CF911F910F9171
:100EC0000895CF92DF92EF92FF926B017C010E9416
:100ED0008E24882331F0813049F444ED6FEF8FEF99
:100EE00003C04EEB6FEF81E10E94F312C701B60120
:100EF000FF90EF90DF90CF9008950E94D2269093BC
:100F00007B0180937A010895809107018823A1F0E5
:100F100080917A0190917B010E94DE260B9760F010
:100F2000109207014EEB6FEF81E10E94F31281E016
:100F30000E9445150C94AE1508950F931F93CF93FF
:100F4000DF938C01EB019A9581159F4138F510FFD5
:100F500003C080EEFB01099511FF03C081EEFE0185
:100F6000099512FF03C082EEFE01099513FF03C02D
:100F700083EEFE0109950115104180F084EEFE011B
:100F8000099585EEFE01099586EEFE01099587EE2D
:100F9000FE01DF91CF911F910F910994DF91CF91C5
:100FA0001F910F910895877091E001C0990F8A9564
:100FB000EAF7892F0E94EC230C942524877091E096
:100FC00001C0990F8A95EAF7892F0E94EC230C94AF
:100FD0002524877091E001C0990F8A95EAF7892F3F
:100FE0000E94F2230C942524877091E001C0990F90
:100FF0008A95EAF7892F0E94F2230C942524CF9337
:10100000DF93EC01805E9109089710F0209719F4A6
:101010006EED77E002C063ED77E0CE010E949D07A0
:101020008C2FDF91CF910C946219CF93DF93EC0159
:101030000E94801ACE01805E9109089710F02097D7
:1010400019F464EF77E002C069EE77E0CE01DF913A
:10105000CF910C949D07CF93DF93EC010E94FF0783
:10106000CE01DF91CF910C94150881E008950C9486
:10107000FB061F93CF93DF9300D000D01F92CDB714
:10108000DEB749835A832091B70189819A81211162
:1010900012C0662349F00E945A23182F682F8981B5
:1010A0009A810E94002303C00E942E23182F698179
:1010B0007A81812F04C00E945A2369817A810F901E
:1010C0000F900F900F900F90DF91CF911F910C9484
:1010D0004A0BFC01408151816281738184810C94AF
:1010E00039080C947E06E82FE295EF70F0E092A1AB
:1010F0008F7021E030E0082E01C0220F0A94EAF739
:101100002095922392A30895CF92DF92EF92FF92BF
:10111000863030F4811105C0909180009F7D04C01D
:1011200085E090918000906290938000282F30E0BD
:10113000AFEFBFEF0E940C3325E030E040E050E01D
:101140000E945F33C9012C3764E1360728F469E057
:1011500070E00E94373329C0DA01C9018A50974DE7
:10116000AF4FBF4F6627782F892F9A2F25EF38E290
:1011700041E050E00E945F3369017A01CA01B90180
:101180000E941B339B01AC01C701B6010E941B33B7
:10119000BB27A92F982F872F009721E0A207B10521
:1011A00011F0BC0102C06FEF7FEF70938B00609372
:1011B0008A00FF90EF90DF90CF900895269A86E303
:1011C0000E94730882E28093800089E1809381000D
:1011D0008FEF9FEF90938700809386000C94072AEF
:1011E0000E940D25811102C00E9490250E94DE08F8
:1011F0000C94830608950C94870608950E94FE1DA2
:101200000E94FD082FEF84E39CE021508040904035
:10121000E1F700C000000C942D270F931F93CF938C
:10122000DF938C010E946908EC01B8010E94370825
:10123000882309F425C2B801CE010E9443178823F0
:1012400009F41EC2CA3CFCE5DF0741F4F8018281C3
:10125000882309F415C20E94F01212C2CB3C8CE51F
:10126000D80708F040C1C33C9CE5D90761F4F801F8
:101270008281882309F404C20E94D9238272E1F09A
:101280000E942515FDC1C43CECE5DE07C0F0C63C5C
:101290009CE5D90709F4F8C008F00AC1C43CFCE594
:1012A000DF0709F0F9C0F8018281882309F4E8C159
:1012B0000E94D923827221F30E941915E1C1C53120
:1012C000FCE5DF0708F0ABC0C2308CE5D80708F4B6
:1012D00078C0F8018281882309F47AC00E940D2524
:1012E000811102C00E9490250E94202590E09093D9
:1012F000BD028093BC02FE01E350FC45E231F105E2
:1013000020F4E35AFF4F0C9481338091BC0281603A
:1013100003C08091BC0282608093BC024BC080916C
:10132000BC028460F9CF8091BC0213C08091BC02E2
:101330008061F2CF8091BC028062EECF8091BC02CE
:101340008064EACF8091BC028068E6CF8091BC02C5
:1013500084608860E1CF8091BC028E7FDDCF809178
:10136000BC028D7FD9CF8091BC028B7FD5CF80917D
:10137000BC0213C08091BC028F7ECECF8091BC0294
:101380008F7DCACF8091BC028F7BC6CF8091BC027B
:101390008F77C2CF8091BC028B7F877FBDCF90912A
:1013A000BC0297FB882780F921E0822780FB97F910
:1013B0009093BC028091BC020E9424250E94FE1DD5
:1013C0005FC1C1159CE5D90751F0C130DC4579F00A
:1013D000C801DF91CF911F910F910C943508F8014E
:1013E0008281882309F44CC10E94FE0849C1F8019A
:1013F0008281882309F444C190914F02892F8095FE
:10140000817080FB90F990934F02882319F086E950
:1014100092E002C084E892E00E94DC0531C1C6314E
:10142000FCE5DF0729F50E94D923382FF801228136
:101430008091180190911901222371F03A7A21E0EC
:1014400009F420E020937D01222311F065E301C01F
:1014500069E20E94212609C020917D01222311F01A
:1014600065E301C069E20E942C260E94252408C180
:10147000C23CDC4509F0ACCFF8018281882309F435
:10148000FFC00E94F215FCC0F8018281882309F494
:10149000F7C00E94B012F4C0C53CDC4509F098CFFB
:1014A000F8018281882309F4EBC00E94A212E8C0EF
:1014B000F8018281C83CFCE5DF0731F4882309F498
:1014C000DFC00E94D012DCC0C93CDC4530F4882368
:1014D00009F4D6C00E94C012D3C0882309F4D0C03A
:1014E0000E94E012CDC0C13DECE5DE0791F4F801A9
:1014F0008281882309F4C4C00E94D3108F3028F061
:101500000E94D310843108F4D7CE8FE00E942815B2
:10151000B7C0C23DFCE5DF0708F05AC0CD3C8CE502
:10152000D80739F4F8018281882309F4A9C081E041
:10153000EDCFCE3C9CE5D907C0F4CB3CECE5DE0713
:1015400041F4F8018281882309F49AC00E94DB10DB
:1015500097C0CC3CDC4509F03BCFF8018281882361
:1015600009F48EC00E94EC108BC0F8018281CF3C40
:10157000FCE5DF0771F4882309F482C00E94D310D0
:10158000863028F00E94D310883008F495CE86E08B
:10159000BDCFC03DDC4570F4882309F471C00E94C2
:1015A000D310823028F00E94D310853008F484CE06
:1015B00082E0ACCF882309F463C00E94D310893045
:1015C00028F00E94D3108E3008F476CE89E09ECFAA
:1015D000C53DECE5DE0739F4F8018281882309F482
:1015E0004FC083E293CFC63DFCE5DF0740F5F8012D
:1015F0008281C33DFCE5DF0729F4882309F440C05C
:1016000088E184CFC43DDC4568F48823C9F10E9499
:10161000D310853128F00E94D310873108F44CCEC6
:1016200085E174CF882361F10E94D310893128F0BD
:101630000E94D310823208F43FCE89E167CFCD3DBE
:10164000ECE5DE0741F4F80182818823C9F082E0ED
:101650000E94512E15C0CE3DFCE5DF0739F4F8019C
:101660008281882369F00E9490250AC0CC3DDC4528
:1016700009F0AECEF8018281882311F080E0E8CF36
:1016800080E0DF91CF911F910F91089580E090E06D
:10169000089508959FE0799FF00111249BE4899FAC
:1016A000E00DF11D1124E60FF11DEE0FFF1FE85AAA
:1016B000FE4F859194910895880F991F89559D4FEC
:1016C000FC01859194910895CF93DF930E944A0B7A
:1016D0000E94560DEC01811521E5920708F044C0E7
:1016E000C11580E5D80708F031C1C83ED10510F515
:1016F000C03ED10508F0D6C1C83AD10578F4C53A44
:10170000D10508F0A6C0C130D10509F4CBC108F459
:101710007CC1C430D10508F0C5C177C1CF3BD1052C
:1017200008F4A2C0C03CD10508F46FC1CE01805CB2
:101730009109FBC0C11520E3D20780F4C11580E2F6
:10174000D80708F0F0C0C03FD10508F45EC1CF3F14
:10175000D10511F008F0A6C1D065A4C1C11520E4DF
:10176000D20708F0F0C0E5C0C11589E5D80760F5DB
:10177000C11528E5D20708F034C1C11584E5D807A2
:1017800078F4C11523E5D20708F011C1C11582E52F
:10179000D80708F0F7C0DC2FCC27C16FD06A82C110
:1017A000C11525E5D20708F417C1C11586E5D8078C
:1017B00008F02BC18C2F0E94D20D8F71C82FD0E062
:1017C000DC2FCC27D0626EC1CD3B2CE5D20709F4CB
:1017D00013C1F0F4CB3B2CE5D20709F407C108F0A4
:1017E00008C1C1152AE5D20708F00FC18C2F8F70F0
:1017F0000E94D20D34E0D695C7953A95E1F7CF70A7
:10180000D0E0DC2FCC27D06A8F70806EC82B4AC105
:10181000C03C8CE5D80709F4F5C060F4CE3B8CE5FC
:10182000D80709F4ECC0CF3BDC4509F0EEC0C0E0BE
:10183000D2ED38C1CE0190568115904208F0E5C036
:101840008D2F8F710E94D20DDD27D0628F71D82B22
:1018500029C1C53AD10509F4DBC0C63AD10509F45E
:10186000DAC0C3E8D0E41EC1C83AD10509F4D6C035
:10187000C93AD10509F4D5C0CA3AD10509F4D4C092
:10188000CB3AD10509F4D3C0CC3AD10509F4D2C082
:10189000CB3BD10509F4D1C0CC3BD10509F4D0C074
:1018A000CD3AD10509F4CFC0C03BD10509F4CEC073
:1018B000CE3AD10509F4CDC0CF3AD10509F4CCC058
:1018C000C13BD10509F4CBC0C23BD10509F4CAC064
:1018D000C33BD10509F4C9C0C43BD10509F4C8C054
:1018E000C53BD10509F4C7C0C63BD10509F4C6C044
:1018F000C73BD10509F4C5C0C83BD10509F4C4C034
:10190000C93BD10509F4C3C0CD3BD10509F4C2C020
:10191000CE3BD10509F4C1C0CA3BD10509F0C0C016
:10192000CAE2D6E4BFC0CE019F700E945C0BEC01FE
:10193000B9C0CE019927D3FF03C0EC01D86CB2C067
:10194000EC01D06CAFC0DF70D06AACC02C2F23701C
:1019500081E090E002C0880F991F2A95E2F79C6809
:101960009E01F4E036952795FA95E1F72370922BC6
:10197000CF70C695C69520E2C29FE0011124C82B06
:10198000D92B90C08C2F8695869520E2829FC0012E
:1019900011249E0123703327C1E0D0E002C0CC0F98
:1019A000DD1F2A95E2F7C82BD92BDC687BC08C2F72
:1019B0008695869520E2829FC00111249E012370A6
:1019C0003327C1E0D0E002C0CC0FDD1F2A95E2F73B
:1019D000C82BD92BDA6866C0DC2FCC27C46FD06A3D
:1019E00061C0DC2FCC27C06FD06A5CC0C0E0D4EDF2
:1019F00059C0C0E0D5ED56C0C0E0D1ED53C0C0E045
:101A0000D0ED50C0C0E0D3ED4DC0C0E0D0E04AC042
:101A1000C1E8D0E447C0C2E8D0E444C0C2EED4E498
:101A200041C0C9EED4E43EC0CAEED4E43BC0C5EB2D
:101A3000D4E438C0C6EBD4E435C0C3EBD4E432C040
:101A4000C4EBD4E42FC0C7EBD4E42CC0CCECD4E47A
:101A500029C0CDECD4E426C0C3E8D5E423C0CAE84D
:101A6000D5E420C0C2E9D5E41DC0C4E9D5E41AC05C
:101A7000C1E2D6E417C0C3E2D6E414C0C4E2D6E49F
:101A800011C0C5E2D6E40EC0C6E2D6E40BC0C7E280
:101A9000D6E408C0CFE6D4E405C0C0E7D4E402C071
:101AA000C0E0D4E4CE01DF91CF9108958238910552
:101AB00049F1B0F48133910509F459C048F48932F1
:101AC000910509F44FC08A32910509F455C0089573
:101AD0008533910509F441C08933910599F0089542
:101AE000833E910531F138F4803E910591F0823EBC
:101AF0009105A9F00895863E910501F1873E910573
:101B000039F108952091BC0220FD3BC021FD39C070
:101B100008958091BC0280FF34C089E341C0809168
:101B2000BC0282FF32C08091BC0284FF2CC080E0E6
:101B300037C08091BC0282FD28C0F5CF8091BC02E5
:101B400083FF25C08091BC0284FDF1CF87EE28C0C1
:101B50008091BC0283FD1BC0F5CF8091BC0285FF44
:101B600018C019C08091BC0285FF15C012C08091B9
:101B7000BC0286FF12C013C08091BC0286FF0FC05A
:101B80000CC080EE0DC083EE0BC082EE09C086EE65
:101B900007C085E305C089E203C081E301C08AE292
:101BA00090E008959091BC0292FF0DC0282F2871FB
:101BB000283019F4877F846006C0282F24712430D0
:101BC00011F48B7F886093FF0DC0282F2871283176
:101BD00019F4877E846106C0282F2471243111F402
:101BE0008B7E886194FD877E0895E82FF0E0EE0FEC
:101BF000FF1FE258FE4F808191810895CF92DF92BE
:101C0000EF92FF920F931F93CF93DF9387EB92E0B6
:101C10000E94DC052EE7E22E21E0F22EC0E0D0E0AB
:101C200032EBC32E32E0D32E09EA12E0DF93CF93DA
:101C3000DF92CF920E9475068FEA92E00E94DC0547
:101C4000F701819191917F010E94F3249F938F93DB
:101C50001F930F930E94750687EA92E00E94DC05AD
:101C600021968DB79EB708960FB6F8949EBF0FBE0B
:101C70008DBFC530D105D1F6DF91CF911F910F9166
:101C8000FF90EF90DF90CF900895EAE3F1E021E03C
:101C900030E08191A82FA295AF70B0E091964C9161
:101CA00091978F70B90102C0660F771F8A95E2F78E
:101CB000CB018095482391964C9371E0EF33F70761
:101CC00041F7ABE2B1E021E030E08D91E82FE29501
:101CD000EF70F0E041A18F70B90102C0660F771F6D
:101CE0008A95E2F7CB01962F9095492341A392A1C3
:101CF000982B92A371E0AA33B70739F7E8E8F1E02F
:101D0000AEE7B1E0119211921D921D9281E0E2398D
:101D1000F807C1F785E00E942D0F0C94F0082F9270
:101D20003F925F926F927F928F929F92AF92BF92FB
:101D3000CF92DF92EF92FF920F931F93CF93DF9397
:101D40005AE3252E51E0352EA8E8B1E0B12C21E070
:101D500030E04D016D907C90119711961C921E926F
:101D6000E10169911E01E62FE295EF70F0E081A19B
:101D70006F70A90102C0440F551F6A95E2F7BA01BE
:101D8000842B81A382A1A42EA0948A2182A350EA4D
:101D90005A95F1F74BE2E42E41E0F42E40E050E09A
:101DA000E70159907E01852D82958F7090E0EC01BE
:101DB00008A1CD90DC90119710E0852D8F7002C0A6
:101DC000159507958A95E2F700FD08C0C901042E14
:101DD00002C0880F991F0A94E2F702C080E090E0E9
:101DE000C82AD92A1196DC92CE924F5F5F4F4F30AE
:101DF0005105B1F681A18A2181A382A1862B82A3FC
:101E0000129641E0F401808191816816790609F407
:101E100040E0B42AFFE32F16F1E03F0609F099CF26
:101E20002B2D45E06EE771E088E891E00E942E0FCF
:101E30000E9471088B2DDF91CF911F910F91FF9020
:101E4000EF90DF90CF90BF90AF909F908F907F905A
:101E50006F905F903F902F9008950895FF920F9399
:101E60001F93CF93DF93D82FC92FF62E072F142F50
:101E7000222349F081E0809394010E94D22690931E
:101E8000930180939201809194018823D9F08091ED
:101E90009201909193010E94DE26069798F0ED2F13
:101EA000FC2FAF2DB02F80E090E0412F50E0841741
:101EB000950734F4219131912D933D930196F7CFFD
:101EC00010929401DF91CF911F910F91FF9008958F
:101ED000CF92DF92EF92FF920F931F93CF93DF93F6
:101EE000D62EC72EE82EF82EE82FF0E0711106C08E
:101EF000E650F94F6491762F862F7BC0072F10E0B4
:101F000026E0629FC0011124CFEFD0E0BE010E9405
:101F100037339B016BEA6203A001639F500D1124CC
:101F20004D0D511D4D0D511DD42EDD0CD40ECE0185
:101F3000801B910B8E9FA0018F9F500D9E9F500D77
:101F40001124852FDC9CB0011124672F7727DE0137
:101F5000A61BB70BAE9FB001AF9F700DBE9F700D5B
:101F60001124972FDE01AD19B1096D01C09ED0017A
:101F7000C19EB00DD09EB00D1124AB2FBB27CA1B44
:101F8000DB0BCE9FD001CF9FB00DDE9FB00D112493
:101F90002230310591F03CF42115310559F0213002
:101FA0003105C1F014C02430310569F04CF0263001
:101FB000310569F49E2DFB2E0DC0952F8B2F0AC085
:101FC000F72E952F02C09B2FF52E8E2D03C0F52ED8
:101FD000872F9E2DE92FF0E0E650F94F7491EF2DF9
:101FE000F0E0E650F94F6491E82FF0E0E650F94F49
:101FF0008491DF91CF911F910F91FF90EF90DF902F
:10200000CF9008950895CF93DF93762FE901682F3D
:10201000842F0E94680F798368838A83DF91CF9130
:10202000089520918102822F869590E0009729F4EF
:102030002170226020938102089585972CF0822FD1
:102040008170886480938102089588E090E00C9408
:10205000A733CF93DF9300D000D0CDB7DEB7AB016D
:10206000BC0149835A836B837C830E941110498190
:102070005A816B817C8188E090E00F900F900F90E7
:102080000F90DF91CF910C94C533E1E8F2E083E04B
:102090008083109282028FEF809383028093840268
:1020A0001092850260817181828193810C94291044
:1020B00080914F0280FF08C08CEC95E09F938F9336
:1020C0000E9475060F900F9080914F0280FF0FC005
:1020D0008091810281701F928F938FEA95E09F9388
:1020E0008F930E9475060F900F900F900F90809124
:1020F0004F0280FF0FC08091810286951F928F93BF
:1021000084E995E09F938F930E9475060F900F903E
:102110000F900F9080914F0280FF0EC0809182023D
:102120001F928F938AE795E09F938F930E94750685
:102130000F900F900F900F9080914F0280FF0EC074
:10214000809183021F928F9380E695E09F938F93F7
:102150000E9475060F900F900F900F9080914F0284
:1021600080FF0EC0809184021F928F9386E495E0D9
:102170009F938F930E9475060F900F900F900F9072
:1021800080914F0280FF0EC0809185021F928F9335
:102190008AE295E09F938F930E9475060F900F90AF
:1021A0000F900F9008958091810280FF02C0869564
:1021B000089580E0089580918502833018F48F5F40
:1021C00080938502609181027091820280918302E6
:1021D000909184020C94291080918502882319F033
:1021E000815080938502609181027091820280917A
:1021F0008302909184020C94291060910C0170E08C
:102200008091810280FF0AC08091990123E0829F22
:10221000C00111248A579D4F0C94D3162091980128
:1022200030910B01231780F7822F90E0FC01EE0F15
:10223000FF1FE80FF91FEA57FD4F1182108212822B
:102240002F5FF0CF9091810290FF16C0909198017E
:1022500050910B01951770F4292F30E0F901EE0F22
:10226000FF1FE20FF31FEA57FD4F81836083428314
:102270009F5FF0CF0C94FD100895CF93DF9300D0B3
:102280001F92CDB7DEB79091810290FF0AC09E01E8
:102290002F5F3F4F0E9403104B8169818A810E940A
:1022A00022110F900F900F90DF91CF910895CF934F
:1022B000DF93EC01EC81F0E0EB50FA4F4491609138
:1022C0008302809182020E943D118C818F5F8C83FA
:1022D000DF91CF910895CF93DF93EC014091840279
:1022E000609183028C810E943D118C818F5F8C8371
:1022F000DF91CF9108950F931F93CF93DF9300D079
:102300001F92CDB7DEB78C018091950181110AC073
:102310009E012F5F3F4F4FEF6FEF0E9403108A81A6
:1023200080939501F8018481813051F028F082304A
:1023300061F4409195010AC08091950140E007C089
:102340006091950140E080E003C040E080E060E003
:102350000E942211F801848190E0019663E070E010
:102360000E944B3384830F900F900F90DF91CF9199
:102370001F910F9108955F926F927F928F929F921B
:10238000AF92BF92CF92DF92EF92FF920F931F9383
:10239000CF93DF9300D000D0CDB7DEB7D82EB62EC6
:1023A000C42EA22E9091810290FFADC0E92FE69538
:1023B000AE2FB0E0A15CBE4F8C918093A1019E7FB7
:1023C000923061F49E012F5F3F4F8D2D0E940310CC
:1023D0004B8169818A810E94221163C0823019F485
:1023E000C09084025EC0863019F4D090820259C039
:1023F0008930D9F3893109F054C0E9519E2E909467
:10240000292D2170922E2170822EE695F0E0EB505E
:10241000F94F05911491512C1127FCE4EF2EF3E0B4
:10242000FF2E60910A015616D0F5652C712C609E26
:10243000C001619E900D709E900D112470E00E946D
:1024400037338D2D882011F0860F01C0861B9091A7
:102450004F0290FF13C01F930F931F929F921F92E2
:102460008F931F925F92FF92EF928C830E9475066A
:102470000FB6F894DEBF0FBECDBF8C81909198014E
:10248000690E711C9301220F331F260D371D2A5729
:102490003D4F4C2D6B2D0E9403105394C2CF0E94D0
:1024A000FD10D0928202B0928302C0928402AA20D0
:1024B000C9F06091810270918202809183029091B3
:1024C00084020E942910809184021F928F93809130
:1024D00083021F928F93809182021F928F9387E2D3
:1024E00093E008C01F92CF921F92BF921F92DF927B
:1024F00080E093E09F938F930E9475060FB6F89447
:10250000DEBF0FBECDBF0F900F900F900F90DF91E9
:10251000CF911F910F91FF90EF90DF90CF90BF90E0
:10252000AF909F908F907F906F905F900895909163
:102530008202282F409184026091830288E0890FF3
:102540000C94BB1181E00C94971290918202282F79
:10255000409184026091830288EF890F0C94BB1133
:1025600081E00C94A5126091830228E0620F08F4C8
:102570006FEF282F40918402809182020C94BB114E
:1025800081E00C94B3126091830228E0621B08F48E
:1025900060E0282F40918402809182020C94BB114C
:1025A00081E00C94C3124091840228E0420F08F4A9
:1025B0004FEF282F60918302809182020C94BB110F
:1025C00081E00C94D3124091840228E0421B08F46D
:1025D00040E0282F60918302809182020C94BB110D
:1025E00081E00C94E31220E00C94BB11FF920F9356
:1025F0001F93CF93DF93EC01F12C0FEF10E060916C
:102600000A01F616E8F44091980150E04F0D511D73
:102610009A01220F331F240F351F2A573D4F70E0B8
:10262000C8010E944B33962F8C81409184026091A7
:102630008302F99E800D11240E940310F394DFCFD2
:102640000E94FD109A818C8190FF02C08F5F01C0B3
:1026500081508C83DF91CF911F910F91FF9008954E
:10266000BF92CF92DF92EF92FF920F931F93CF937F
:10267000DF93FC01828180FD03C0CC24C39402C09F
:10268000CC24CA94D12C80910A01D816E0F5ED2C07
:10269000F12C809198019701280F311DE901CC0F91
:1026A000DD1FC20FD31FCA57DD4F198218821A824D
:1026B00004E010E0B12C809197018B0D87FF03C0DF
:1026C00090910A01890F992787FD9095E816F906E0
:1026D00091F480918402809FA001819F500D11246C
:1026E00055954795559547959E0160918302809138
:1026F00082020E940310BC0C015011090115110542
:10270000D1F6D394C0CF0E94FD108091970131E0A3
:10271000C31206C0811102C080910A01815007C016
:1027200090E0019660910A0170E00E944B33809323
:102730009701DF91CF911F910F91FF90EF90DF9064
:10274000CF90BF900895CF932091980130910B01C5
:10275000231770F4822F90E0FC01EE0FFF1FE80FAB
:10276000F91FEA57FD4F1182108212822F5FF0CFBE
:10277000C0E060910A01C617B0F52C2F30E070E080
:10278000C9010E944B3340919801480F80919601F6
:10279000992787FD909550E028173907C4F080915C
:1027A0000901992787FD90958217930784F09A0174
:1027B000220F331F240F351F2A573D4F40918402AB
:1027C00060918302809182020E9403100AC0FA0184
:1027D000EE0FFF1FE40FF51FEA57FD4F1182108225
:1027E0001282CF5FC6CF0E94FD1040910801209158
:1027F0009601240F2093960180910901840F809304
:102800000901181654F4332727FD309580910A01E9
:1028100090E00197281739071CF041954093080173
:10282000CF9108950F931F93CF93DF93EC012C81E9
:102830003D812F5F3F4F217033273D832C8310E074
:1028400005E580910A011817F0F44091980150E0D5
:10285000410F511D9A01220F331F240F351F2A5794
:102860003D4F412F46958C819D81840F911D817034
:102870004091840260918302809F802D11240E94E8
:1028800003101F5FDECFDF91CF911F910F910C944A
:10289000FD100F931F93CF93DF938C01C0E0D0E026
:1028A00040910A01842F90E0C817D9072CF5809138
:1028B00098019E01280F311DC901220F331F280FD7
:1028C000391F2A573D4F4695842F90E0F8014481E7
:1028D000C817D9071CF4442331F002C0411103C0CA
:1028E0004091840201C040E06091830280918202A5
:1028F0000E9403102196D4CF0E94FD10F80124817C
:1029000030E02F5F3F4F217033272483DF91CF9139
:102910001F910F91089560918102669570E04BE0E0
:1029200050E08DE091E00E949233892B19F481E010
:102930008093A2010E94D22690939B0180939A01DA
:1029400080914F0280FF08C087EE92E09F938F93A3
:102950000E9475060F900F9008951092A201809129
:102960004F0280FF08C08EEC92E09F938F930E94ED
:1029700075060F900F9008959091810290FF4EC0C0
:102980009170811102C0926003C0853220F098647A
:102990009093810204C0880F892B80938102662363
:1029A00091F06091810270918202809183029091F6
:1029B00084020E9429108091810286951F928F9334
:1029C00080E794E007C08091810286951F928F93E3
:1029D00082E594E09F938F930E9475060F900F906D
:1029E0000F900F9060918102669570E04BE050E08F
:1029F0008DE091E00E949233892B19F00E94AD1472
:102A000002C00E948B1481E080939D01409184025A
:102A100060918302809182020C94F3120895682FD2
:102A20008091810286958F5F853208F081E00C9459
:102A3000BC1481E00C940F15682F8091810286955B
:102A4000815009F484E20C94BC1481E00C941C15B0
:102A500061E00C94BC14CF93DF93C1E8D2E088818D
:102A6000816088831F9281E08F9384EE93E09F932F
:102A70008F930E9475060F900F900F900F90888192
:102A80008695DF91CF910C94281560E00C94BC14CE
:102A90008091A001811161C080914F02816080937B
:102AA0004F0283E195E09F938F930E94750680917A
:102AB0004F020F900F9080FF08C08DEF94E09F931E
:102AC0008F930E9475060F900F900E940D25811123
:102AD00010C080914F0280FF08C085ED94E09F9365
:102AE0008F930E9475060F900F900E9490250E9470
:102AF00045100E942510609381027093820280939A
:102B00008302909384026E7FC1F480914F0280FF14
:102B100008C08CE894E09F938F930E9475060F90F5
:102B20000F900E9445100E942510609381027093BF
:102B3000820280938302909384020E9411100E946B
:102B400058101092A2018091810280FF03C08695E7
:102B50000E94451581E08093A0010895CF93DF93F3
:102B6000C1E8D2E08881816088831F9281E08F93E1
:102B70008BEA93E09F938F930E9475060F900F90BE
:102B80000F900F9088818695DF91CF910C94451519
:102B9000CF93DF93C1E8D2E088818E7F88836881FC
:102BA00079818A819B810E942910888181701F927E
:102BB0008F9383E793E09F938F930E9475060E9403
:102BC000AD142FEF80E792E0215080409040E1F774
:102BD00000C000000F900F900F900F90DF91CF91E9
:102BE0000C94FD1080918102809581701F928F93CB
:102BF0008BE194E09F938F930E94750680918102F0
:102C00000F900F900F900F9080FD0C94C8150C94AE
:102C10002B150F931F93CF93DF938091A2018823ED
:102C200009F489C08091A101E0918102E695E81B39
:102C3000E0939C01823049F4F0E0EF50FA4FE491C8
:102C4000CE2FD0E007E511E146C0863049F4F0E030
:102C5000E251FA4FE491CE2FD0E00BE611E13BC0F8
:102C6000893049F4E695F0E0E551FA4FC491D0E09F
:102C700006EF12E130C08F3049F4E695F0E0E851FC
:102C8000FA4FC491D0E000E313E125C0853141F44F
:102C9000F0E0EB51FA4FC491D0E003EA13E11BC01E
:102CA000883181F0833239F4E3EEF5E0C591D491B7
:102CB0000BE711E110C0843251F0C0EDD7E002E023
:102CC00010E109C0C8EED3E002E114E104C0C4EF92
:102CD000D1E009E414E180919D01882389F01092EC
:102CE0009D010E94D2269E0120953095280F391F04
:102CF00030939B0120939A0110929F0110929E01A4
:102D000080919A0190919B010E94DE268C179D076D
:102D100090F080919A0190919B018C0F9D1F909350
:102D20009B0180939A018AE991E0F801DF91CF91AC
:102D30001F910F910994DF91CF911F910F910895E9
:102D40003EB1242F209523233EB1342B4FB7F89466
:102D5000FC01680F791FE617F70789F0819198E069
:102D60003EB9000000C087FF2EB9880F000000C0E8
:102D700000C000C02EB900C09A9591F7ECCF4FBFAC
:102D800008952DB1242B2DB99B01220F331F260F3F
:102D9000371FB9010E94A01687EC90E00197F1F768
:102DA00000C00000089544E00C94C1160F931F93D7
:102DB000CF93DF93C62FD42F022FFC01828188236B
:102DC000C9F06093A5010E94D2269093A40180933C
:102DD000A30180E28C0F883008F050C0C77081E0FA
:102DE00001C0880FCA95EAF7DF91CF911F910F912B
:102DF0000C94FB1A1091A501161330C08091A30109
:102E00009091A4010E94DE26883C910538F5C0E22D
:102E1000CD0F1D17B9F080E2810F883040F4177094
:102E200081E001C0880F1A95EAF70E94021BC830A2
:102E300048F481E09D2F977001C0880F9A95EAF7BA
:102E40000E94FB1A802F0E94E81AC830B8F4D7708D
:102E500081E001C0880FDA95EAF70AC080E28C0FA2
:102E6000883060F4C77081E001C0880FCA95EAF726
:102E7000DF91CF911F910F910C94021BDF91CF91A5
:102E80001F910F9108959C01CB01203F4CE5340721
:102E9000F9F078F4283DFCE53F07B9F0293D4CE511
:102EA000340711F1273D3C4531F526E241EE61EE54
:102EB0001EC0223FFCE53F0799F070F0233F3C45E0
:102EC000D1F427E245EE66EE12C027E245EE0EC0D1
:102ED00026E241EE60EE0BC027E245EE64EE07C04D
:102EE00026E241EE62EE03C028E241E065EE0E9478
:102EF000D61680E00895FC018281882319F0109293
:102F0000A501089581E008959093AB018093AA01F3
:102F10000895E091AA01F091AB01309721F0019062
:102F2000F081E02D099480E00895FF920F931F93A4
:102F3000CF93DF93EC01E091AA01F091AB013097C0
:102F400009F43FC080912A01882341F08091BC029E
:102F500087FF04C08881898385E088830280F381AC
:102F6000E02DCE01099580914F0282FF2AC080FF9B
:102F700004C082E098E00E94DC0588E0F82E0CEFA7
:102F800017E080914F0280FF0BC088811F928F93C2
:102F90001F930F930E9475060F900F900F900F9044
:102FA000FA942196F110EDCF80914F0280FF09C075
:102FB0008AEF97E0DF91CF911F910F91FF900C94D2
:102FC000DC05DF91CF911F910F91FF900895E09163
:102FD000AA01F091AB01309739F022E0DC012C938B
:102FE0000480F581E02D099408952091A801309185
:102FF000A9018217930771F09093A9018093A8010A
:10300000E091AA01F091AB01309721F00680F781A1
:10301000E02D099408952091A6013091A70182170F
:10302000930771F09093A7018093A601E091AA0104
:10303000F091AB01309721F00084F185E02D0994E7
:10304000089585B7806885BF85B7806885BF089576
:10305000089508950C94291808950C942C180E9432
:1030600021180E9428180C942A1881E008950E94C3
:10307000C9260E94450E0E9452270E94072A0E94DC
:103080004815ECEBF2E08081806880830C942D1869
:10309000CF93C82F80914F0282FF1EC080FF04C0D3
:1030A0008BE198E00E94DC0580914F0280FF0CC00C
:1030B0001F92CF9326E138E03F932F930E9475062D
:1030C0000F900F900F900F9080914F0280FF04C0DF
:1030D00084E198E00E94DC058C2FCF910C94FB08D2
:1030E0005F926F927F928F929F92AF92BF92CF9298
:1030F000DF92EF92FF920F931F93CF93DF93CDB7A1
:10310000DEB72A970FB6F894DEBF0FBECDBF0E9480
:103110008F0E0E943518811111C08FEF89838A8329
:103120001B820E94D2268160782F9D838C834981E7
:103130005A816B818D810E942E1957C09DEAC92E3C
:1031400091E0D92E00E010E0AA24A394B12C502ED7
:10315000802F0E94F50D3C01F601E190F1906F0186
:10316000E826F926E114F10431F40F5F1F4F053012
:10317000110569F7D2CF80914F0281FD0E94FE0DAB
:1031800020E030E04501022E02C0880C991C0A9410
:10319000E2F7C4018E219F21892B09F12E835F82E2
:1031A0006820792081E0672809F480E088870E9400
:1031B000D2268160782F9A8789874E815F816885C2
:1031C0008A850E942E19F801EE0FFF1FE355FE4F6E
:1031D00080819181882599259183808306C02F5F06
:1031E0003F4F2F30310571F6C0CF0E9466291091F4
:1031F000AC010E9489171817D9F00E948917809393
:10320000AC012A960FB6F894DEBF0FBECDBFDF919A
:10321000CF911F910F91FF90EF90DF90CF90BF90D3
:10322000AF909F908F907F906F905F900C94481814
:103230002A960FB6F894DEBF0FBECDBFDF91CF91B7
:103240001F910F91FF90EF90DF90CF90BF90AF90C4
:103250009F908F907F906F905F900895CF93DF93B2
:10326000CDB7DEB72B970FB6F894DEBF0FBECDBF3C
:103270004F83588769877A878B87DE01119686E0AE
:10328000FD0111928A95E9F785E0FE0137960190DC
:103290000D928A95E1F749815A816B817C818D81FC
:1032A0009E810E94DB202B960FB6F894DEBF0FBEE6
:1032B000CDBFDF91CF910895FC01808191810E9463
:1032C0009A230895882309F41AC18238C1F40E9410
:1032D000891781FD14C169E380911801909119014A
:1032E0000E9421260E9425242FEF81EE94E0215098
:1032F00080409040E1F700C0000069E319C08338C6
:10330000F9F40E94891780FDFAC063E580911801E5
:10331000909119010E9421260E9425242FEF81EE11
:1033200094E0215080409040E1F700C0000063E548
:1033300080911801909119010E942C260C9425244B
:103340008438C1F40E94891782FDD9C067E4809156
:103350001801909119010E9421260E9425242FEF27
:1033600081EE94E0215080409040E1F700C00000E1
:1033700067E4DECF9CEF980F913A40F4682F80917C
:103380001801909119010E942126D8CF90E2980F40
:10339000983050F4877091E001C0990F8A95EAF750
:1033A000892F0E94DC23CACF9BE5980F933070F4DD
:1033B000853A29F0863A31F482E890E005C081E848
:1033C00090E002C083E890E00C94F51798E5980F20
:1033D000973108F08EC0883A09F445C0893A09F45B
:1033E00045C08A3A09F445C08B3A09F445C08C3A85
:1033F00009F445C08B3B09F445C08C3B09F445C03A
:103400008D3A09F445C0803B09F445C08E3A09F471
:1034100045C08F3A09F445C0813B09F445C0823B61
:1034200009F445C0833B09F445C0843B09F445C019
:10343000853B09F445C0863B09F445C0873B09F448
:1034400045C0883B09F445C0893B09F445C08D3B24
:1034500009F445C08E3B09F445C08A3B09F045C0DC
:103460008AE292E044C082EE90E041C089EE90E0B2
:103470003EC08AEE90E03BC085EB90E038C086EB22
:1034800090E035C083EB90E032C084EB90E02FC039
:1034900087EB90E02CC08CEC90E029C08DEC90E0A4
:1034A00026C083E891E023C08AE891E020C082E949
:1034B00091E01DC084E991E01AC081E292E017C05A
:1034C00083E292E014C084E292E011C085E292E0CF
:1034D0000EC086E292E00BC087E292E008C08FE661
:1034E00090E005C080E790E002C080E090E00C949E
:1034F0000B18803F20F00E94EC270C94D9280895E7
:10350000882309F464C0823879F40E94891781FF06
:103510005EC069E380911801909119010E942126F3
:103520000E94252469E310C08338B1F40E948917F2
:1035300080FF4DC063E580911801909119010E94B0
:1035400021260E94252463E580911801909119019C
:103550000E942C260C942524843879F40E94891723
:1035600082FF35C067E480911801909119010E9493
:1035700021260E94252467E4E7CF9CEF980F913A1B
:1035800010F4682FE1CF90E2980F983050F48770D4
:1035900091E001C0990F8A95EAF7892F0E94E223F2
:1035A000D9CF9BE5980F933020F480E090E00C9405
:1035B000F51798E5980F973120F480E090E00C948F
:1035C0000B18803F20F00E9454280C94D9280895AD
:1035D000CF93C82F0E946219C93349F42FEF83ECAF
:1035E00099E0215080409040E1F700C000008C2F0E
:1035F000CF910C94801A882321F00E94DC230C9434
:1036000025240895882321F00E94E2230C94252488
:1036100008958F929F92BF92CF92DF92EF92FF9286
:103620000F931F93CF93DF9300D0CDB7DEB74C013C
:10363000562F472FFC01B580B2949FE0B922E2805B
:10364000EE2031F079836A830E94F9235A814981FF
:1036500049835A830E94D22349815A81882389F061
:10366000EE2079F080E2850F883058F082E00E94E9
:1036700070240E94D223FF24F394F82649815A81B2
:1036800001C0F12CC42EC2948FE0C822D12CF601C7
:10369000E159FF4F0C948133842F807F142F1F70CA
:1036A000882311F01295107FEE20C1F0112309F448
:1036B000D7C180E2850F883010F0511105C0812FED
:1036C0005A830E94DC2304C0812F5A830E94EC237A
:1036D0005A815A830E9425245A81C2C1852F5A8358
:1036E0000E94801A5A81112309F404C280E2850FD6
:1036F000883010F0511104C0812F0E94E22303C0D2
:10370000812F0E94F2230E942524F4C1842F807F00
:10371000142F1F70803211F01295107F552319F06D
:103720005130D9F026C0EE2079F0BB2049F0F1E00D
:10373000BF1206C00E940C24812B0E941224DAC101
:103740000E940C24812B40C1BB2021F021E0B21645
:1037500009F4D0C10E941B243CC1EE2029F085E071
:103760008B1508F4C7C12FC194E09B1508F4C2C1A2
:1037700030C1EE2051F0BB2009F425C1F401858150
:1037800080FF6EC18F7085831EC1BB2009F421C1EB
:1037900078C1842F86958695837090E0009719F004
:1037A000019761F0A7C1EE2021F0852F942F93702F
:1037B00002C080E090E00E94F517ACC1EE2021F03D
:1037C000852F942F937002C080E090E00E940B1828
:1037D000A1C1EE20F9F0553F51F0563F71F0543F32
:1037E000A9F48091B6029091B70281600BC08091DC
:1037F000B6029091B702826005C08091B6029091A6
:10380000B70284609093B7028093B602852F0E941E
:10381000EC2722C0553F51F0563F91F0543FC9F478
:103820008091B6029091B7028E7F05C08091B6025A
:103830009091B7028D7F9093B7028093B60209C032
:103840002091B6023091B7022B7F3093B7022093BC
:10385000B602852F0E9454280E94D9285BC1842F6C
:10386000837009F04AC0E11051C1E52FE295E69559
:10387000E770EE0FEE0F652F6F70862F90E0A0E0DF
:10388000B0E00E2E04C0880F991FAA1FBB1F0A9418
:10389000D2F754FF10C00FE010E020E030E004C089
:1038A000000F111F221F331FEA95D2F700951095C4
:1038B0002095309503C000E010E0980146954695AC
:1038C000437050E0BC01CD01602B712B822B932BF8
:1038D0004230510561F04330510561F041305105EE
:1038E00019F00E942E2212C10E941C220FC10E94B8
:1038F00040220CC10E941A2209C1EE2019F0842F27
:10390000817001C08695882309F400C1E52FE295F6
:10391000E695E770EE0FEE0F652F6F70862F90E043
:10392000A0E0B0E00E2E04C0880F991FAA1FBB1F95
:103930000A94D2F754FF10C00FE010E020E030E00E
:1039400004C0000F111F221F331FEA95D2F7009504
:1039500010952095309503C000E010E09801469541
:103960004695437050E0BC01CD01602B712B822B3A
:10397000932B4230510561F04330510561F04130E5
:10398000510519F00E94DB22C1C00E94C922BEC0AD
:103990000E94ED22BBC00E945422B8C0052F10E047
:1039A000F801E05EF109E531F10508F055C0E15894
:1039B000FF4F0C948133152F1F70842F8F71EE20D1
:1039C00031F00E947422812F0E94FB1A93C00E9442
:1039D0008F22812F0E94021B8DC0EE2049F0F4E05F
:1039E000FB1508F487C0842F8F710E94AE2282C01D
:1039F00025E02B1508F47EC0F6CFEE2039F0842F99
:103A00008F710E94742276C0EE20C9F3842F8F71CB
:103A10000E948F226FC0EE2029F0842F8F710E94A8
:103A2000652268C00E94602265C0EE2051F0142F0C
:103A30001F71812F0E94742263E0812F0E945B24FA
:103A400059C081E00E94702481E08B1508F052C0BB
:103A500082E00E9470244EC0EE2031F0BB2079F24B
:103A6000852F0E94621946C0BB2081F2593349F468
:103A70009FEFE3ECF9E09150E040F040E1F700C047
:103A80000000852F0E94801A35C04F70652FC40139
:103A90000E94460B0E9488213DC0E1103BC04F7040
:103AA00050E042305105B1F04CF44115510579F028
:103AB00041305105F9F40E94532A2CC0443051057D
:103AC00079F05CF045305105A9F480E00AC00E940D
:103AD000242A20C00E94BD2A1DC00E94D92A1AC0D3
:103AE00085E00E94112B16C04F70652FC4010E9403
:103AF000490B10C028E0C216D10441F05CF09AE0F6
:103B0000C91AD108E2E0CE16D10420F40E94891728
:103B10000E94FB08FF20F1F00E94CE2380FD1AC016
:103B2000F40112820E94C8230E947422C4010E94E0
:103B3000B81D0E94C8230F900F90DF91CF911F9165
:103B40000F91FF90EF90DF90CF90BF909F908F905C
:103B50000C948F220F900F90DF91CF911F910F91B6
:103B6000FF90EF90DF90CF90BF909F908F9008953F
:103B70000F931F93CF93DF93EC01288139818B81C1
:103B80009C81892B31F03F3F11F080E003C02F3F33
:103B9000E1F781E0811113C0CE010E940D09882355
:103BA00071F0688179818A810E94A5238C010E942D
:103BB000FF220E941922B801CE010E94091BDF9149
:103BC000CF911F910F9108950E94F9230E9409241B
:103BD0000E9425240E94FB290E94D92880E090E0C1
:103BE0000E94F51780E090E00C940B18809118016A
:103BF000909119010E9437260C94E41D0E94E9233C
:103C00000C94F61DE92FE295EF70F0E03297EE305C
:103C1000F105B8F4EC56FF4F0C948133803F59F016
:103C200018F4803E70F407C0843F59F404C0803E0D
:103C300010F0813F31F481E0089593FB882780F9EB
:103C4000089580E008950E949A230E94021E08951C
:103C5000CF93DF9300D000D01F92CDB7DEB70F9087
:103C60000F900F900F900F90DF91CF910895CF9309
:103C7000DF9300D000D000D0CDB7DEB726960FB6C8
:103C8000F894DEBF0FBECDBFDF91CF9108951F9393
:103C9000CF93DF93C091B80116E08091B901C817A6
:103CA00099F0D0E01C9FF0011D9FF00D1124E65407
:103CB000FE4F4081518162817381848195810E9490
:103CC000371E2196C770E9CFDF91CF911F910895DC
:103CD0004091EA015091EB016091EC017091ED018E
:103CE0008091EE019091EF010C94371ECF9380915B
:103CF000EF0182958F7009F05FC08091EC018823FD
:103D000009F45AC02091B801A091B9016091EA016B
:103D10007091EB018091ED019091EE0131E06F3FE8
:103D200009F030E0B32FC6E02A1709F445C0009728
:103D300021F07F3F21F44B2F03C041E001C040E060
:103D400030E040FD35C0C29FF001C39FF00D11244B
:103D5000E654FE4F418174132BC04081641328C088
:103D60004281411125C0438154814817590710F4FD
:103D700041505109481B590B483C5105C8F48091EA
:103D8000EF018F7080618093EF0186E0829FF001E8
:103D9000839FF00D1124E154FE4F80818F7080616C
:103DA00080838AEE91E00E94B81DCF910C94471E4B
:103DB0002F5F3F4F2770B8CFCF910895CF92DF92FA
:103DC000EF92FF920F931F93CF93DF93CDB7DEB7A0
:103DD00062970FB6F894DEBF0FBECDBF8C0185E0B1
:103DE000F801DE011D9601900D928A95E1F7D80148
:103DF0004C9111965C91119712966C9112971396B3
:103E0000ED90FC9014977091EA01E091EB01209104
:103E1000ED013091EE012115310531F0EF3F31F424
:103E200081E07F3F19F403C081E001C080E0B82F3A
:103E3000B170CB2E80FD6BC1D090EC01DD2009F478
:103E4000F5C0F091EF01E216F30638F0C701821BCE
:103E5000930B883C910548F09DC0209530952E0D20
:103E60003F1D283C310508F095C08F2F807F09F059
:103E700052C0E51314C0741312C0D62E61110FC0C6
:103E8000FF70F061F093EF010E94681E8AEE91E0EE
:103E90000E94B81D8091EF01F80185837CC1EF2855
:103EA00031F05F3F31F481E04F3F19F403C081E00E
:103EB00001C080E080FD03C081E0862701C080E072
:103EC000F82FF170FF2E80FF1CC08091B801209167
:103ED000B90136E0821709F438C190E0389FF0014B
:103EE000399FF00D1124E654FE4F7181571306C01F
:103EF0007081471303C07281671303C001968770F6
:103F0000E9CFD62E662309F446C18091EF01816086
:103F10008093EF0155C0E51308C0741306C061110A
:103F200004C0D8011596FC93AEC04D875E878D8581
:103F30009E856A8B0E94231E6A89882329F1D62ECA
:103F4000662311F12091EF01822F82958F7090E00E
:103F500002970CF462C08091EA019091EB0198877E
:103F60008F831986FB86EA862C87CE01079653C07D
:103F7000E51741F14D875E878D859E856A8B0E948E
:103F8000231E6A89811130C0C8010E94B81DDD243A
:103F9000D39401C18F2F807F59F77E2DF98AE88A4B
:103FA00089890E94281E8AEE91E00E94B81DEAEEDF
:103FB000F1E086E0DF011D928A95E9F70E94681E14
:103FC000D12CE9C07413D6CF6111D4CFD801159686
:103FD000FC93C8010E94B81DEAEEF1E086E0DF0123
:103FE0001D928A95E9F7D7C0D62E662369F22091F3
:103FF000EF01822F82958F7090E0029774F080918C
:10400000EA019091EB019A8389831B82FD82EC8205
:104010002E83CE0101960E94B81D86E0F801AAEE1B
:10402000B1E001900D928A95E1F78AC0E216F3069D
:1040300028F0C701821B930B9C0104C0209530958A
:104040002E0D3F1D283C310508F053C0D62E6623A7
:1040500009F49ACFE5132CC074132AC08091EF01A4
:1040600080FD1DC0982F92959F70C9F0D8011596BC
:104070008C9315979F3039F09F5F9295907F8F704A
:10408000892B15968C93C8010E94B81D86E0F80113
:10409000AAEEB1E001900D928A95E1F753C086E057
:1040A000F801AAEEB1E001900D928A95E1F773C094
:1040B0004D875E878D859E850E94231E882381F013
:1040C00096E0F801AAEEB1E001900D929A95E1F721
:1040D0008A8B0E94761E0E94681E8A89D82E5BC039
:1040E0008091EF0181608093EF01C8010E94B81DAB
:1040F00052C07E2DF98AE88A89890E94281EEAEE3C
:10410000F1E086E0DF011D928A95E9F71BC0662386
:1041100009F43ACF4D875E878D859E850E94231EC8
:10412000D82E882309F430CF86E0F801AAEEB1E05A
:1041300001900D928A95E1F78AEE91E00E945C1958
:104140000E94761E0E94681E26C04D875E878D8560
:104150009E850E949A23292F22952F7030E02230CD
:1041600031052CF49F7041F0811106C00CC0243041
:1041700031052CF49F7049F4805E883020F0C8012E
:104180000E94B81DCF2CDC2C06C0D80115969C913E
:10419000907F91F7F8CF8D2D62960FB6F894DEBF21
:1041A0000FBECDBFDF91CF911F910F91FF90EF9088
:1041B000DF90CF9008951F93CF93DF93CDB7DEB7F5
:1041C0002C970FB6F894DEBF0FBECDBF4F83588734
:1041D00069877A878B879C87CE0107960E94DE1EAF
:1041E0008823C1F02F8138858A859B85892B31F002
:1041F0003F3F11F080E003C02F3FE1F781E08111E4
:1042000047C04F81588569857A858B859C850E943A
:10421000371E3EC086E0FE013796DE011196019002
:104220000D928A95E1F7FF81E8854A855B85411506
:10423000510531F0EF3F31F481E0FF3F19F403C045
:1042400081E001C080E080FD23C02091B90130E011
:10425000C9010196877099276091B80170E08617AF
:104260009707F1F1F983EA835D834C8396E0929F8F
:10427000D001939FB00D1124A654BE4FFE0131967C
:1042800001900D929A95E1F78093B9010E94471E23
:1042900016E08091B8019091B901891779F1189FC2
:1042A000C001112486549E4F0E94DE1E882331F1E6
:1042B000E091B8011E9FF0011124E654FE4F4081A9
:1042C000518162817381848195810E94371E809122
:1042D000B80190E00196877099278093B801D9CFF3
:1042E0000E94FE1D1092B9011092B801EAEEF1E0B1
:1042F00086E0DF011D928A95E9F7CACF2C960FB6AA
:10430000F894DEBF0FBECDBFDF91CF911F9108950E
:10431000EF92FF920F931F93CF93DF939C0100972F
:1043200009F471C0F12CEE24E394E9012196F9011E
:104330008491843740F4843008F056C0813081F095
:10434000823021F160C0853709F449C0C0F19CE793
:10435000980F903708F057C08F770E94801A46C098
:1043600089010E5F1F4FFE01849190E2980F9830F3
:1043700050F48770FE2D01C0FF0F8A95EAF78F2F4A
:104380000E94FC2315C00E94621914C089010E5FAF
:104390001F4FFE01849190E2980F983068F4877067
:1043A000FE2D01C0FF0F8A95EAF78F2F0E9402248D
:1043B0000E942524E8011AC00E94801AFBCF2E5FBC
:1043C0003F4FFE01C491CC2341F08FE99FE001975C
:1043D000F1F700C00000C150F6CFE90107C0FE01AF
:1043E000F490E901229602C00E9462198F2D882361
:1043F00041F0EFE9FFE03197F1F700C00000815094
:10440000F6CF9E0192CFDF91CF911F910F91FF9038
:10441000EF90089508950C940A220E940B22609355
:1044200026027093270280932802909329020C940D
:10443000E41D08950C940D220F931F930091260202
:10444000109127022091280230912902602B712BB4
:10445000822B932B1F910F910C940D220F931F937E
:104460000091260210912702209128023091290202
:1044700060237123822393231F910F910C940D22AB
:104480000F931F930091260210912702209128027A
:104490003091290260277127822793271F910F915E
:1044A0000C940D220C9461070E9452226093220208
:1044B0007093230280932402909325020C94E41DB0
:1044C00060E070E0CB010C94542241E050E060E0E9
:1044D00070E004C0440F551F661F771F8A95D2F7FE
:1044E000CB01BA010C94542241E050E060E070E04E
:1044F00004C0440F551F661F771F8A95D2F780911D
:10450000220290912302A0912402B0912502482B0F
:10451000592B6A2B7B2BCB01BA010C94542241E01E
:1045200050E060E070E004C0440F551F661F771F25
:104530008A95D2F7409550956095709580912202AA
:1045400090912302A0912402B0912502482359237F
:104550006A237B23CB01BA010C94542241E050E042
:1045600060E070E004C0440F551F661F771F8A95F6
:10457000D2F78091220290912302A0912402B0915F
:104580002502482759276A277B27CB01BA010C94BB
:1045900054220F931F930091220210912302209125
:1045A000240230912502602B712B822B932B1F91BB
:1045B0000F910C9454220F931F930091220210919B
:1045C000230220912402309125026023712382234B
:1045D00093231F910F910C9454220F931F930091DA
:1045E000220210912302209124023091250260279B
:1045F0007127822793271F910F910C9454220895BD
:104600002FE0929F800D1124482F469546954695A0
:104610008770B1E001C0BB0F8A95EAF785E0489F3B
:10462000A001112440515E4F80E090E070E0FA015B
:10463000E80FF91FA0819B01082E02C0369527952F
:104640000A94E2F72170332721952A272B232A2762
:10465000208301968530910551F708952FE0929FB0
:10466000800D1124682F669566956695982F977032
:1046700085E0689FB001112460517E4F40E050E01A
:1046800080E0FB01E40FF51F208130E0092E02C01D
:10469000369527950A94E2F721703327042E01C03E
:1046A000220F0A94EAF7822B4F5F5F4F4530510586
:1046B00041F70895CF92DF92EF92FF920F931F93ED
:1046C000CF93DF93EC01C0902602D0902702E090B8
:1046D0002802F09029028091220290912302A09159
:1046E0002402B0912502C82AD92AEA2AFB2A0FE11E
:1046F00010E0B701A601002E04C076956795579586
:1047000047950A94D2F740FD05C00150110988F77A
:1047100080E007C0BE01802F0E94640B0197A9F3BF
:10472000802FDF91CF911F910F91FF90EF90DF903D
:10473000CF900895CF93DF93EC010E945A23BE01DE
:104740000E94640BDF91CF9108951F93CF93DF9365
:10475000EB019091B701992321F0CB010E949A239C
:1047600013C0882349F0CB010E945A23182F682FC9
:10477000CE010E94002304C0CB010E942E23182FDB
:10478000BE01812F0E94640BDF91CF911F9108958C
:1047900080912A02859585958595089580912A02B4
:1047A0008770089590912A02977081E009F480E063
:1047B000089580914E02089590914E02982B909307
:1047C0004E020895809590914E02982390934E0248
:1047D000089510924E02089590914D02982B909357
:1047E0004D020895809590914D02982390934D022B
:1047F000089510924D02089590914C02982B909339
:104800004C020895809590914C02982390934C020D
:10481000089510924C02089580912B0208950895F6
:104820000C940F2490912B02981721F080932B0267
:104830000C941024089580912B02882329F0109263
:104840002B0280E00C9410240895E0911801F0915F
:10485000190180914E028083E0911801F0911901B5
:10486000808190914D02892B8083E0911801F09115
:104870001901808190914C02892B808390912B02A9
:10488000992381F0E0911801F09119018081892B21
:10489000808380911801909119010E9492258111C5
:1048A0000E941B2480911801909119010C94951776
:1048B00008950C94582498E0899F90011124622B4C
:1048C00060932A020E94742280912A028595859520
:1048D00085950C94592410922A0280E00C94592456
:1048E00040912A028095842380932A02982F977002
:1048F00079F450E0282F332727FD309542175307CE
:1049000039F08595859585950E948F220C946B24AE
:10491000089590937501809374010895CF92DF926A
:10492000EF92FF920F931F936C01EE24FF24C114AA
:10493000D104E104F10421F46B017C0180E001C0A9
:1049400080E133272F2D1E2D0D2D01151105210579
:10495000310519F0885F6801790197018601A4E0AB
:104960003695279517950795AA95D1F70115110545
:104970002105310519F08C5F6801790197018601E5
:10498000F2E03695279517950795FA95D1F7011519
:1049900011052105310519F08E5F68017901B70114
:1049A000A6017695679557954795452B462B472B3E
:1049B00009F08F5F1F910F91FF90EF90DF90CF90E4
:1049C00008958295982F9C7C96959695837344E0E4
:1049D000849F90011124922B892F8A7A8695957550
:1049E000990F892B08951F93CF93DF931F92CDB713
:1049F000DEB799830E94E124182F9981892F0E94A4
:104A0000E124212F30E0322F2227A901482BCA01AF
:104A10000F90DF91CF911F91089580E090E00E9468
:104A2000AD3321E08D3E9E4F09F020E0822F0895A6
:104A300082E090E00C949F3383E090E00C949F33ED
:104A400084E090E00C949F33682F84E090E00C9415
:104A5000B33386E090E00C949F33682F86E090E0BB
:104A60000C94B333AB01BC018FE090E00C94C533E0
:104A7000AB01BC0183E190E00C94C53360E070E0D1
:104A8000CB010C94382560E070E0CB010E94322508
:104A90000C943E256DEE7EEF80E090E00E94D133D5
:104AA00060E082E090E00E94B33360E083E090E059
:104AB0000E94B3331092260210922702109228020D
:104AC0001092290260E084E090E00E94B33360E03D
:104AD00085E090E00E94B33360E086E090E00E94C1
:104AE000B3336FEF87E090E00E94B33340E050E0D3
:104AF000BA0188E090E00E94C53360E08DE090E06C
:104B00000E94B33340E050E0BA0188E190E00E9497
:104B1000C53360E087E190E00E94B3330C944325F5
:104B20000C944A25029620912A01211102C026E008
:104B300005C02091BC0227FFFACF2EE1FC0180E0E6
:104B4000215028F091919923D9F38F5FF9CF0895DF
:104B500020E030E04FEFFC01E20FF31F52815617C7
:104B600099F04F3F19F4511101C0422F2F5F3F4F71
:104B70002630310581F74F3F39F0FC01E40FF11D7C
:104B800047FDFA9562830895089520E030E0FC0126
:104B9000E20FF31F4281461301C012822F5F3F4F85
:104BA00026303105A1F70895262F269526952695BE
:104BB0002E3178F4FC01E20FF11D677021E030E046
:104BC000062E01C0220F0A94EAF78281822B82838B
:104BD000089580914F0280FF0CC01F926F938CE468
:104BE00098E09F938F930E9475060F900F900F90FF
:104BF0000F900895262F2695269526952E3180F420
:104C0000FC01E20FF11D677021E030E0062E01C0CB
:104C1000220F0A94EAF7209582812823228308959F
:104C200080914F0280FF0CC01F926F938EE298E03C
:104C30009F938F930E9475060F900F900F900F9087
:104C4000089520912A01222329F02091BC0227FDFA
:104C50000C94D4250C94A82520912A01222329F014
:104C60002091BC0227FD0C94FA250C94C5252091B7
:104C70002A01FC013296222331F08091BC0287FF89
:104C800002C08EE101C086E0DF011D928A95E9F73E
:104C9000089508950C9449260E944A268091C302E3
:104CA000843049F11092500220E488E190E00FB680
:104CB000F894A895809360000FBE2093600080E078
:104CC0000E94840880E00E94FB080E944A2683B765
:104CD000817F846083BF83B7816083BF7894889528
:104CE00083B78E7F83BF88E10FB6F894809360000E
:104CF000109260000FBE089508950895CF930E940A
:104D00007C260E948F0E0E947D26C0E08C2F0E9480
:104D1000F50D892B29F4CF5FC530C1F780E001C0C4
:104D200081E0CF91089508950C9493260E94FE1D72
:104D30000E94072A0E9489170E94FB080C9494265F
:104D40001F920F920FB60F9211248F939F93AF93E0
:104D5000BF9380915002811113C08091B80290914D
:104D6000B902A091BA02B091BB024196A11DB11D3A
:104D70008093B8029093B902A093BA02B093BB0299
:104D8000BF91AF919F918F910F900FBE0F901F9089
:104D9000189582E084BD93E095BD9AEF97BD80930E
:104DA0006E0008952FB7F8948091B8029091B902DF
:104DB000A091BA02B091BB022FBF0895CF92DF92AB
:104DC000EF92FF920F931F932FB7F8944091B80280
:104DD0005091B9026091BA027091BB022FBF6A0173
:104DE0007B01EE24FF248C0120E030E0C016D106C8
:104DF000E206F30610F441505109481B590BCA0151
:104E00001F910F91FF90EF90DF90CF9008957894CD
:104E10001F920F920FB60F9211248F939F93AF930F
:104E2000BF938091B8029091B902A091BA02B0915B
:104E3000BB020196A11DB11D8093B8029093B902E7
:104E4000A093BA02B093BB02BF91AF919F918F9193
:104E50000F900FBE0F901F90189581E08093E00097
:104E600080E28093D8001092C9008FE19EE4019700
:104E7000F1F700C0000087E090EBDC018093CC02EA
:104E80009093CD02A093CE02B093CF022CE088E1A4
:104E900090E00FB6F894A895809360000FBE209321
:104EA0006000FFCF0E940D25811102C00E94902555
:104EB0000E94182580934F020E94202590E0909335
:104EC000BD028093BC020E941C25682F70E080E028
:104ED00090E00C941A228091540280FF0BC06091E4
:104EE0001D0185E0689FB001112475956795759542
:104EF00067952AC081FF09C060911D0185E0689F08
:104F0000B0011124759567951FC082FF07C060919D
:104F10001D0185E0689FB001112416C04091530225
:104F20004423C9F060911C01461788F720911D01A8
:104F300085E0289F90011124429FC001439F900D5E
:104F4000112470E00E944B336038710540F4611504
:104F5000710539F002C065E070E0862F08958FE793
:104F6000089581E008958091540280FF08C0609107
:104F70001B0170E0759567957595679521C081FF58
:104F800006C060911B0170E07595679519C082FF9E
:104F900004C060911B0170E010C08091530288230F
:104FA000C1F060911A018617A0F790911B01989F9C
:104FB000C001112470E00E944B336038710528F461
:104FC0006115710521F0862F08958FE7089581E01E
:104FD000089561E070E0F4CF803F21F40E946B27D8
:104FE000819504C0813F29F40E946B278093580269
:104FF0000895823F21F40E946B27819504C0833F6E
:1050000029F40E946B27809357020895893F19F471
:105010000E94B32705C08A3F31F40E94B3278195CF
:105020008093590208958B3F21F40E94B327819504
:1050300004C08C3F29F40E94B32780935A0208953C
:10504000843F21F480915602816017C0853F21F48E
:1050500080915602826011C0863F21F480915602F1
:1050600084600BC0873F21F480915602886005C0A0
:10507000883F31F4809156028061809356020895F2
:105080008D3F21F48091540281600BC08E3F21F44A
:1050900080915402826005C08F3F29F480915402B0
:1050A0008460809354020895803F39F480915802BF
:1050B00087FF6CC01092580269C0813F29F480912B
:1050C00058021816BCF362C090915702823F29F42F
:1050D00097FF5CC01092570259C0833F19F419160C
:1050E000CCF354C0893F41F48091590218160CF05A
:1050F0004DC0109259024AC08A3F29F4809159024A
:1051000087FF44C0F6CF8B3F39F480915A0287FF66
:105110003DC010925A023AC08C3F29F480915A0245
:105120001816BCF333C0843F21F4809156028E7F61
:1051300017C0853F21F4809156028D7F11C0863FB4
:1051400021F4809156028B7F0BC0873F21F4809120
:105150005602877F05C0883F31F4809156028F7ECA
:105160008093560213C08D3F21F4809154028E7FAC
:105170000BC08E3F21F4809154028D7F05C08F3F7C
:1051800029F4809154028B7F8093540280915702BE
:1051900081110EC08091580281110AC0809159027C
:1051A000811106C080915A02811102C010925302EF
:1051B000089580914F0283FF7EC081E998E00E94AC
:1051C000DC05809156021F928F938CE898E09F93A4
:1051D0008F930E9475068AE898E00E94DC05209172
:1051E0005702822F992787FD90959F932F9387E8E9
:1051F00098E09F938F930E94750685E898E00E943F
:10520000DC0520915802822F992787FD90959F9366
:105210002F9382E898E09F938F930E94750680E811
:1052200098E00E94DC0520915902822F992787FD82
:1052300090959F932F938DE798E09F938F930E9473
:1052400075068BE798E00E94DC0520915A02822FB8
:10525000992787FD90959F932F9388E798E09F93D8
:105260008F930E94750685E798E00E94DC05809187
:1052700053021F928F9382E798E09F938F930E942F
:10528000750680E798E00E94DC05809154021F9229
:105290008F938DE698E09F938F930E9475068AE620
:1052A00098E00E94DC058DB79EB74C960FB6F89437
:1052B0009EBF0FBE8DBF85E592E00E94E7170E945A
:1052C000D226909352028093510208951F93CF9358
:1052D000DF9380915102909152020E94DE2640910C
:1052E0005302442321F020911E0130E006C020919A
:1052F0001F015AE0259F900111248217930708F49B
:1053000076C08091570210915802D0915902C091F5
:105310005A02811107C0111105C0D11103C0CC235D
:1053200009F465C04F3F19F04F5F409353021816C0
:1053300024F40E946B27809357028091570287FFC5
:1053400005C00E946B27819580935702111624F4A3
:105350000E946B27809358028091580287FF05C0F6
:105360000E946B2781958093580220915702222337
:10537000D9F0409158024423B9F055EB2503900130
:105380001124332319F03093570203C081E0809336
:10539000570225EB4203C00111249093580291114A
:1053A00003C081E0809358021D1624F40E94B327A5
:1053B000809359028091590287FF05C00E94B3274C
:1053C0008195809359021C1624F40E94B327809380
:1053D0005A0280915A0287FF05C00E94B327819527
:1053E00080935A02DF91CF911F910C94D928DF91BD
:1053F000CF911F910895E5E5F2E086E0DF011D926F
:105400008A95E9F7109253021092540208950E946F
:105410000D25811102C00E9490250E9429258093AC
:10542000BE02282F269530E02630310524F0817009
:105430008A608093BE028091BE0280FF02C0869582
:1054400001C080E00C9484082091BE02322F369572
:10545000832F90E0059744F491E0930F990F822FEA
:105460008170892B8093BE028091BE0281608093FF
:10547000BE020E942D2580914F0280FF0FC08091B7
:10548000BE0286951F928F938BE199E09F938F9335
:105490000E9475060F900F900F900F908091BE02A2
:1054A00086950C9484088091BE02982F969591F071
:1054B0009158990F8170892B8093BE028E7F91E065
:1054C00009F490E08091BE0290FB80F98093BE02C7
:1054D0000E942D2580914F0280FF0FC08091BE0257
:1054E00086951F928F9383E099E09F938F930E94FC
:1054F00075060F900F900F900F908091BE028695C9
:105500000C9484088091BE0280FD1DC08160809350
:10551000BE02813019F483E08093BE028091BE0206
:105520000E942D2580914F0280FF08C08BED98E0EE
:105530009F938F930E9475060F900F908091BE02EB
:1055400086950C94840808958091BE0280FF14C053
:105550008E7F8093BE020E942D2580914F0280FF96
:1055600008C088EC98E09F938F930E9475060F9077
:105570000F9080E00C9484080895CF93C091BE02F0
:10558000C17080914F0280FF0CC01F92CF938DEEAF
:1055900098E09F938F930E9475060F900F900F9045
:1055A0000F90CC2319F0CF910C94A42ACF910C9496
:1055B000822A3091BE02232F26952F5F2F77822FCC
:1055C00090E0317006972CF4220F232B2093BE021B
:1055D00002C03093BE028091BE028E7F91E009F43A
:1055E00090E08091BE0290FB80F98093BE020E9401
:1055F0002D2580914F0280FF0FC08091BE028695BD
:105600001F928F9384EB98E09F938F930E9475066F
:105610000F900F900F900F908091BE0286950C9482
:105620008408863008F085E0880F9091BE02917062
:10563000982B9093BE029E7F21E009F420E0809198
:10564000BE0220FB80F98093BE020E942D2580912E
:10565000BE0286950C94840880917E0208959FB7BF
:10566000F89410925D029FBF9091C302943009F0AC
:1056700058C09091E9009F702091EC0020FF02C07B
:1056800020E801C020E0292B93E09093E90090915D
:10569000EB0090FF43C09091EE0097FF3FC09091C8
:1056A0005B02992321F09091E80095FF37C010929A
:1056B0005B0296E03091E80035FD15C03091C302E1
:1056C000343061F53091EB0035FD28C0915021F464
:1056D00081E080935B0222C0EFE9FFE03197F1F7B0
:1056E00000C00000E7CF8093F1008091E80085FDC5
:1056F0000AC08091E80080FFFCCF8091E8008E779F
:105700008093E80006C08FB7F89491E090935D0213
:105710008FBF2F702093E90080E008952F702093B1
:10572000E9008FEF08950F931F93CF93DF9300D07D
:105730001F92CDB7DEB78C010E94612E823011F02E
:10574000843021F584E089831B830A8382E080937F
:10575000E9008FEF9091E800815095FD06C095ED2E
:105760009A95F1F700008111F5CF8091E80085FF4F
:105770000DC040E050E063E070E0CE0101960E9471
:105780007E2E8091E8008E778093E8000F900F9036
:105790000F90DF91CF911F910F910895CF93DF93D9
:1057A00000D01F92CDB7DEB72091C302243031F56F
:1057B00023E02983805891099B838A8382E0809328
:1057C000E9008FEF9091E800815095FD06C095EDBE
:1057D0009A95F1F700008111F5CF8091E80085FFDF
:1057E0000DC040E050E063E070E0CE0101960E9401
:1057F0007E2E8091E8008E778093E8000F900F90C6
:105800000F90DF91CF910895CF93DF93EC010E9429
:10581000612E823011F08430F9F482E08093E90047
:105820008FEF9091E800815095FD06C095ED9A9517
:10583000F1F700008111F5CF8091E80085FF0CC0E1
:1058400040E050E066E070E0CE010E947E2E809144
:10585000E8008E778093E800DF91CF910895CF9391
:10586000DF93EC010E94612E823011F08430D9F573
:1058700080912A01811103C068E081E006C0809117
:10588000BC0287FFF9CF60E282E08093E9008FEFEE
:105890009091E800815095FD06C095ED9A95F1F73D
:1058A00000008111F5CF8091E80085FF1CC0809138
:1058B0002A01811105C040E050E068E070E003C0BB
:1058C00070E040E050E0CE010E947E2E8091E80022
:1058D0008E778093E80080E2FE01AEE5B2E00190B1
:1058E0000D928A95E1F7DF91CF91089588E599E0CF
:1058F0000E94DC058091C202811109C00E94103013
:105900000E946D308091E20084608093E2000895EF
:1059100084E599E00E94DC051092C202089580E5BA
:1059200099E00C94DC058CE499E00C94DC0588E4A7
:1059300099E00E94DC050C94962680915C028F5FB2
:1059400080935C0262E30E942B33911135C0109268
:105950005C0280915D02882379F18091C3028430DA
:1059600049F58091E9008F709091EC0090FF02C0A2
:1059700090E801C090E0982B83E08093E90080914B
:10598000EB0080FF14C08091EE0087FF10C0809173
:10599000E80085FF03C01092F100F9CF8091E80084
:1059A00080FF05C08091E8008E778093E8009F70AB
:1059B0009093E90010925D02089542E061EC81E06D
:1059C0000E948A2F42E261EC82E00E948A2F42E22A
:1059D00061EC83E00C948A2F8091C502833009F436
:1059E00060C030F4813071F0823009F499C00895BC
:1059F0008A3009F485C08B3009F46BC0893009F016
:105A0000A7C020C08091C402813A09F0A1C0809152
:105A1000E800877F8093E8008091C8029091C902D6
:105A2000892B21F060E080E090E003C060E28EE529
:105A300092E070E00E94C72E8091E8008B778093FF
:105A4000E80008958091C402813209F081C08091FC
:105A5000C8029091C902029708F07AC08091E800CC
:105A6000877F8093E8008091E80082FD05C08091E7
:105A7000C3028111F8CF6CC02091F3008091F20035
:105A800090E0922B029729F48091F1008B7F813076
:105A900021F48091F10080937E028091E8008B7761
:105AA00053C08091C402813A09F052C08091C8026B
:105AB0009091C902892B09F04BC08091E800877F43
:105AC0008093E8008091E80080FFFCCF80912A015C
:105AD00036C08091C4028132D9F58091C80290917C
