:100000000C9436050C947A050C947A050C947A05B8
:100010000C947A050C947A050C947A050C947A0564
:100020000C947A050C947A050C943F2C0C94112DA9
:100030000C941A250C947A050C947A050C947A0584
:100040000C947A050C947A050C947A050C947A0534
:100050000C947A050C9481250C947A050C947A05FD
:100060000C947A050C947A050C947A050C947A0514
:100070000C947A050C947A050C947A050C947A0504
:100080000C947A050C947A050C947A050C947A05F4
:100090000C947A050C947A050C947A050C947A05E4
:1000A0000C947A050C947A050C947A0572087808F9
:1000B0007C087F08830887088B088F0894089808B5
:1000C0009C08A008A308A708AB08AF08B308B808A5
:1000D000141A141A471A471A8D1AF81BF81BF81B22
:1000E000AF1AF81B4E1B4E1BC31BCB1BF81BF21B7E
:1000F0005B1B5B1B5B1B5B1B5B1B5B1B5B1B5B1B50
:100100005B1B5B1B5B1B5B1B5B1B5B1B5B1B5B1B3F
:100110006A1B7A1B811B881B921B881C881C9B1CDA
:100120009B1C911C9B1C9B1C9B1C881C881C971C4B
:100130009B1C9B1C971C762D9D2D8B2E9D2D8B2EF5
:10014000E52D082E8B2E5E2E6D2E29001E001F0021
:100150002000210022002300240025002600270083
:100160002D002E0000002A002B00000014001A00B1
:100170000800150017001C0018000C0012001300E6
:100180002F0030003100F45C00000400160007006E
:1001900009000A000B000D000E000F0033003400B0
:1001A00028000000E10000001D001B0006001900EF
:1001B000050011001000360037000000E500520075
:1001C0003800E000E3000000E200000000002C0026
:1001D000000000000000F55C0151500051004F008C
:1001E00035003A003B003C003D003E003F0040002F
:1001F0004100420043004400450000004C00010063
:1002000000000100010001000100010001001E00CA
:100210001F0020000100AA00A900005C01000000EE
:100220000100010001000100010001002100220085
:100230002300010001000100000001000000010096
:10024000010001000100010001002400250026003A
:1002500000004C000100010001000100000001004D
:10026000000000000100000000000000E5000100A7
:1002700001000100010044454255473A206469737A
:1002800061626C65642E0A0044454255473A206518
:100290006E61626C65642E0A000A00253031366298
:1002A000003A200025303258000A722F6320303186
:1002B00032333435363738394142434445460A00F3
:1002C0007267626C696768742074696D6572206416
:1002D000697361626C652E0A007267626C69676897
:1002E000742074696D657220656E61626C65642E40
:1002F0000A007267626C69676874207365742068AD
:100300007376205B4E4F454550524F4D5D3A202548
:10031000752C25752C25750A007267626C696768F3
:10032000742073657420687376205B454550524F86
:100330004D5D3A2025752C25752C25750A007267B0
:10034000626C69676874207261696E626F7720738E
:100350006574206873763A2025642C25642C256406
:100360002C25750A007267626C696768742064697D
:100370007361626C65205B454550524F4D5D3A207C
:100380007267626C696768745F636F6E6669672E17
:10039000656E61626C65203D2025750A007267629A
:1003A0006C6967687420656E61626C65205B4E4F96
:1003B000454550524F4D5D3A207267626C696768DF
:1003C000745F636F6E6669672E656E61626C65202F
:1003D0003D2025750A007267626C69676874206544
:1003E0006E61626C65205B454550524F4D5D3A2011
:1003F0007267626C696768745F636F6E6669672EA7
:10040000656E61626C65203D2025750A0072676229
:100410006C6967687420746F67676C65205B45451D
:1004200050524F4D5D3A207267626C696768745F25
:10043000636F6E6669672E656E61626C65203D2034
:1004400025750A007267626C69676874206D6F6455
:1004500065205B4E4F454550524F4D5D3A20257506
:100460000A007267626C69676874206D6F6465204A
:100470005B454550524F4D5D3A2025750A00726725
:10048000626C696768745F696E6974207267626C18
:10049000696768745F636F6E6669672E6D6F646508
:1004A000203D20302E205772697465206465666196
:1004B000756C742076616C75657320746F2045458A
:1004C00050524F4D2E0A007267626C696768745F04
:1004D000696E6974206565636F6E6669672069730C
:1004E000206E6F7420656E61626C65642E0A007206
:1004F00067626C696768745F696E697420737461A0
:100500007274210A007267626C696768745F696E51
:1005100069742063616C6C65642E0A007267626C9A
:10052000696768745F636F6E6669672E737065656F
:1005300064203D2025640A007267626C69676874F4
:100540005F636F6E6669672E76616C203D2025645F
:100550000A007267626C696768745F636F6E6669D0
:10056000672E736174203D2025640A007267626CF7
:10057000696768745F636F6E6669672E687565206A
:100580003D2025640A007267686C696768745F6360
:100590006F6E6669672E6D6F6465203D2025640A65
:1005A000007267626C696768745F636F6E66696723
:1005B0002E656E61626C65203D2025640A007267BD
:1005C000626C696768745F636F6E666967206570E7
:1005D000726F6D0A0000047F3F1F6432146432148E
:1005E000783C1E1E140A052223252628292A2C2D94
:1005F0002F3032333536383A3B3D3E404243454753
:10060000494A4C4E5051535557595A5C5E6062648A
:100610006668696B6D6F71737577797B7D7F818398
:100620008587898A8C8E90929496989A9C9E9FA199
:10063000A3A5A7A8AAACAEAFB1B3B4B6B8B9BBBCBA
:10064000BEBFC1C2C3C5C6C7C9CACBCCCDCED0D12F
:10065000D2D2D3D4D5D6D7D7D8D9D9DADADBDBDB27
:10066000DCDCDCDCDCDDDDDDDDDCDCDCDCDCDBDBC8
:10067000DBDADAD9D9D8D7D7D6D5D4D3D2D2D1D01C
:10068000CECDCCCBCAC9C7C6C5C3C2C1BFBEBCBB19
:10069000B9B8B6B4B3B1AFAEACAAA8A7A5A3A19F91
:1006A0009E9C9A98969492908E8C8A898785838155
:1006B0007F7D7B79777573716F6D6B696866646236
:1006C000605E5C5A5957555351504E4C4A49474504
:1006D0004342403E3D3B3A3836353332302F2D2CA5
:1006E0002A292826252322FFAA7F55400000000042
:1006F00000000000000001010101010101010102EF
:1007000002020202020202030303030303030404BE
:100710000404040505050505060606060607070781
:1007200007080808080909090A0A0A0B0B0B0C0C30
:100730000C0D0D0D0E0E0E0F0F10101011111212C8
:1007400013131414151516161717181819191A1A41
:100750001B1C1C1D1D1E1F1F20212122232324259D
:100760002526272828292A2B2C2C2D2E2F303131D5
:1007700032333435363738393A3B3C3D3E3F4041E1
:1007800042434445464748494B4C4D4E4F505253C7
:1007900054555758595A5C5D5E606163646567687B
:1007A0006A6B6C6E6F7172747677797A7C7D7F81FB
:1007B00082848687898B8D8E9092949597999B9D44
:1007C0009FA1A2A4A6A8AAACAEB0B2B4B6B9BBBD54
:1007D000BFC1C3C5C8CACCCED0D3D5D7DADCDEE121
:1007E000E3E6E8EAEDEFF2F4F7F9FCFF0A00253062
:1007F000325820006B6579626F6172645F72657058
:100800006F72743A20000A0025303258006B657907
:10081000626F6172645F7365745F6C65643A200037
:1008200064656C5F6B65795F6269743A2063616EC1
:1008300027742064656C3A20253032580A006164C0
:10084000645F6B65795F6269743A2063616E2774D7
:10085000206164643A20253032580A006261636B7B
:100860006C6967687420737465703A2025750A0096
:100870006261636B6C696768742064697361626C40
:10088000650A006261636B6C6967687420656E61FC
:10089000626C650A006261636B6C696768742074DE
:1008A0006F67676C653A2025750A006261636B6C3F
:1008B000696768742064656372656173653A2025B1
:1008C000750A006261636B6C6967687420696E63A6
:1008D00072656173653A2025750A005B735D004B94
:1008E0006579626F6172642073746172742E0A009C
:1008F0005B575D005B535D005B525D005B445D00D8
:100900005B435D000403300000000A0344005A000A
:1009100036003000000010034B0042004400460047
:1009200061006E00730000000403090409025B000B
:10093000030100A0FA0904000001030101000921DC
:10094000110100012240000705810308000A090483
:1009500001000103000000092111010001227100C2
:100960000705820320000A090402000203000000B8
:100970000921110100012222000705830320000143
:10098000070503032000011201100100000008ED1B
:10099000FE60220100010203010631FF0974A1017A
:1009A0000975150026FF0095207508810209761546
:1009B0000026FF00952075089102C005010980A15D
:1009C0000185031601002603001A81002A830075A1
:1009D0001095018100C0050C0901A10185041601D3
:1009E00000269C021A01002A9C02751095018100C4
:1009F000C005010906A1018505050719E029E715CC
:100A00000025019508750181020508190129059540
:100A100005750191029501750391010507190029DA
:100A2000EF1500250195F075018102C00501090649
:100A3000A101050719E029E71500250195087501B1
:100A4000810295017508810105081901290595059F
:100A5000750191029501750391010507190029FFA0
:100A6000150026FF00950675088100C011241FBEE1
:100A7000CFEFDAE0DEBFCDBF04B603FE24C0809125
:100A8000AD029091AE02A091AF02B091B00287305A
:100A9000904BA740B04BB9F41092AD021092AE0249
:100AA0001092AF021092B00214BE84B7877F84BF49
:100AB00088E10FB6F89480936000109260000FBE3A
:100AC000E0E0F8E3099511E0A0E0B1E0EAE3FFE53A
:100AD00002C005900D92A636B107D9F712E0A6E63E
:100AE000B1E001C01D92AD3AB107E1F70E945D2966
:100AF0000C949B2F0C940000FF93EF93E091660100
:100B0000F0916701309709F00995EF91FF910895F1
:100B1000FC018591803011F0EFDFFBCF0895FF27B6
:100B2000E0E230E247FF0CC0419597FF09C0EDE2DB
:100B30006095709580959095611D711D811D911D29
:100B400027FF02C0219530E350E2AA27660F771FE6
:100B5000881F991FAA1FA41710F0A41B63955A950C
:100B6000A9F7AA3008F0A95FA05DAF93F3956115CE
:100B700071058105910541F7ED3211F4EF93F3957D
:100B8000F21718F43F93F395FBCF8F91B5DFFA95E9
:100B9000E1F70895E991F9918591803021F085324E
:100BA00019F0AADFF9CF089520E0E8945591553265
:100BB000C1F3503311F4689455915A3348F45053AB
:100BC00090F3220F022E220F220F200D250FF4CFBB
:100BD0000EF4219589919991533619F3533729F1E0
:100BE000533559F1BC0188279927E8945C3621F4E4
:100BF0008991999168945591543639F446EF7EF075
:100C000077FF0DC08FEF9FEF0AC055374AE039F0EC
:100C1000583540E121F0523642E009F00895FF9343
:100C2000EF937DDFEF91FF91B7CFFF93EF93FC013F
:100C300081918030B9F360DFFBCFFF93EF9368DFE2
:100C4000F1CFDF93CF93CDB7DEB72596A3DFCF915A
:100C5000DF9108950C946D06229A2A9A08950E94B5
:100C600066060C942C0681FF02C02A9801C02A9ABD
:100C70000C94E307843F2CE5920731F0853F9C45B7
:100C800039F48FE098E002C080E491E00E941407FC
:100C900081E00895CF92DF92EF92FF926B017C0189
:100CA0000E940823882331F0813049F444ED6FEF2E
:100CB0008FEF03C04EEB6FEF81E10E94DC11C701A3
:100CC000B601FF90EF90DF90CF9008950E944C25E1
:100CD00090936901809368010895809100018823B1
:100CE000A1F080916801909169010E9458250B97AD
:100CF00060F0109200014EEB6FEF81E10E94DC1179
:100D000081E00E942E140C94971408950F931F9362
:100D1000CF93DF938C01EB019A9581159F4138F5B4
:100D200010FF03C080EEFB01099511FF03C081EEA7
:100D3000FE01099512FF03C082EEFE01099513FF23
:100D400003C083EEFE0109950115104180F084EE89
:100D5000FE01099585EEFE01099586EEFE010995D5
:100D600087EEFE01DF91CF911F910F910994DF91E2
:100D7000CF911F910F910895877091E001C0990F55
:100D80008A95EAF7892F0E9466220C949F22877029
:100D900091E001C0990F8A95EAF7892F0E94662297
:100DA0000C949F22877091E001C0990F8A95EAF711
:100DB000892F0E946C220C949F22877091E001C0C1
:100DC000990F8A95EAF7892F0E946C220C949F2232
:100DD000CF93DF93EC01805E9109089710F0209784
:100DE00019F467EC76E002C06CEB76E0CE010E946D
:100DF00086068C2FDF91CF910C943B18CF93DF9315
:100E0000EC010E945319CE01805E9109089710F001
:100E1000209719F46DED76E002C062ED76E0CE0128
:100E2000DF91CF910C948606CF93DF93EC010E9463
:100E3000E806CE01DF91CF910C94FE0681E0089583
:100E40000C943A061F93CF93DF9300D000D01F92EB
:100E5000CDB7DEB749835A832091A40189819A8155
:100E6000211112C0662349F00E94D421182F682F47
:100E700089819A810E947A2103C00E94A821182F9B
:100E800069817A81812F04C00E94D42169817A818D
:100E90000F900F900F900F900F90DF91CF911F91B7
:100EA0000C94330AFC0140815181628173818481F9
:100EB0000C9422070C942A06E82FE295EF70F0E0DC
:100EC00092A18F7021E030E0082E01C0220F0A9419
:100ED000EAF72095922392A30895CF92DF92EF92A2
:100EE000FF92863030F4811105C0909180009F7D83
:100EF00004C085E090918000906290938000282F3C
:100F000030E0AFEFBFEF0E94C02E25E030E040E0C0
:100F100050E00E94132FC9012C3764E1360728F4F2
:100F200069E070E00E94EB2E29C0DA01C9018A5005
:100F3000974DAF4FBF4F6627782F892F9A2F25EFF8
:100F400038E241E050E00E94132F69017A01CA01A2
:100F5000B9010E94CF2E9B01AC01C701B6010E94CE
:100F6000CF2EBB27A92F982F872F009721E0A2070C
:100F7000B10511F0BC0102C06FEF7FEF70938B00E1
:100F800060938A00FF90EF90DF90CF900895269AAB
:100F900086E30E945C0782E28093800089E180936F
:100FA00081008FEF9FEF90938700809386000C94D1
:100FB000E5250E948723811102C00E940A240E9415
:100FC000C7070C942F0608950C94330608950E94C9
:100FD000781C0E94E6072FEF84E39CE021508040BC
:100FE0009040E1F700C000000C94A7250F931F93D9
:100FF000CF93DF938C010E945207EC01B8010E944D
:101000002007882309F425C2B801CE010E942C16BE
:10101000882309F41EC2CA3CFCE5DF0741F4F8014D
:101020008281882309F415C20E94D91112C2CB3CD7
:101030008CE5D80708F040C1C33C9CE5D90761F4B2
:10104000F8018281882309F404C20E94532282722B
:10105000E1F00E940E14FDC1C43CECE5DE07C0F0D7
:10106000C63C9CE5D90709F4F8C008F00AC1C43CA5
:10107000FCE5DF0709F0F9C0F8018281882309F453
:10108000E8C10E945322827221F30E940214E1C13E
:10109000C531FCE5DF0708F0ABC0C2308CE5D807EE
:1010A00008F478C0F8018281882309F47AC00E948C
:1010B0008723811102C00E940A240E949A2390E093
:1010C00090939E0280939D02FE01E350FC45E23125
:1010D000F10520F4EA5AFF4F0C94352F80919D02C0
:1010E000816003C080919D02826080939D024BC00D
:1010F00080919D028460F9CF80919D0213C0809100
:101100009D028061F2CF80919D028062EECF80913E
:101110009D028064EACF80919D028068E6CF809135
:101120009D0284608860E1CF80919D028E7FDDCF3B
:1011300080919D028D7FD9CF80919D028B7FD5CFED
:1011400080919D0213C080919D028F7ECECF8091B1
:101150009D028F7DCACF80919D028F7BC6CF8091EB
:101160009D028F77C2CF80919D028B7F877FBDCFFD
:1011700090919D0297FB882780F921E0822780FBD0
:1011800097F990939D0280919D020E949E230E9458
:10119000781C5FC1C1159CE5D90751F0C130DC4511
:1011A00079F0C801DF91CF911F910F910C941E0728
:1011B000F8018281882309F44CC10E94E70749C1E4
:1011C000F8018281882309F444C190913C02892F5F
:1011D0008095817080FB90F990933C02882319F0F0
:1011E00088E892E002C086E792E00E94880531C15B
:1011F000C631FCE5DF0729F50E945322382FF8019C
:1012000022818091110190911201222371F03A7A8A
:1012100021E009F420E020936A01222311F065E324
:1012200001C069E20E949B2409C020916A01222327
:1012300011F065E301C069E20E94A6240E949F228A
:1012400008C1C23CDC4509F0ACCFF801828188239B
:1012500009F4FFC00E94DB14FCC0F80182818823DE
:1012600009F4F7C00E949911F4C0C53CDC4509F0AF
:1012700098CFF8018281882309F4EBC00E948B117A
:10128000E8C0F8018281C83CFCE5DF0731F488231F
:1012900009F4DFC00E94B911DCC0C93CDC4530F460
:1012A000882309F4D6C00E94A911D3C0882309F469
:1012B000D0C00E94C911CDC0C13DECE5DE0791F45C
:1012C000F8018281882309F4C4C00E94BC0F8F30CA
:1012D00028F00E94BC0F843108F4D7CE8FE00E9422
:1012E0001114B7C0C23DFCE5DF0708F05AC0CD3C81
:1012F0008CE5D80739F4F8018281882309F4A9C064
:1013000081E0EDCFCE3C9CE5D907C0F4CB3CECE5C9
:10131000DE0741F4F8018281882309F49AC00E9413
:10132000C40F97C0CC3CDC4509F03BCFF80182816B
:10133000882309F48EC00E94D50F8BC0F8018281EA
:10134000CF3CFCE5DF0771F4882309F482C00E94DA
:10135000BC0F863028F00E94BC0F883008F495CE70
:1013600086E0BDCFC03DDC4570F4882309F471C030
:101370000E94BC0F823028F00E94BC0F853008F418
:1013800084CE82E0ACCF882309F463C00E94BC0FF6
:10139000893028F00E94BC0F8E3008F476CE89E0A8
:1013A0009ECFC53DECE5DE0739F4F8018281882344
:1013B00009F44FC083E293CFC63DFCE5DF0740F55B
:1013C000F8018281C33DFCE5DF0729F4882309F495
:1013D00040C088E184CFC43DDC4568F48823C9F16E
:1013E0000E94BC0F853128F00E94BC0F873108F4A1
:1013F0004CCE85E174CF882361F10E94BC0F893106
:1014000028F00E94BC0F823208F43FCE89E167CFFA
:10141000CD3DECE5DE0741F4F80182818823C9F077
:1014200082E00E94052A15C0CE3DFCE5DF0739F4B5
:10143000F8018281882369F00E940A240AC0CC3D09
:10144000DC4509F0AECEF8018281882311F080E0FE
:10145000E8CF80E0DF91CF911F910F91089580E058
:1014600090E0089508959FE0799FF00111249BE496
:10147000899FE00DF11D1124E60FF11DEE0FFF1FF6
:10148000E65BFE4F859194910895880F991F8756CA
:101490009D4FFC01859194910895CF93DF930E9415
:1014A000330A0E943F0CEC01811521E5920708F0F8
:1014B00044C0C11580E5D80708F031C1C83ED10548
:1014C00010F5C03ED10508F0D6C1C83AD10578F470
:1014D000C53AD10508F0A6C0C130D10509F4CBC189
:1014E00008F47CC1C430D10508F0C5C177C1CF3B39
:1014F000D10508F4A2C0C03CD10508F46FC1CE01EB
:10150000805C9109FBC0C11520E3D20780F4C115AE
:1015100080E2D80708F0F0C0C03FD10508F45EC1F2
:10152000CF3FD10511F008F0A6C1D065A4C1C11507
:1015300020E4D20708F0F0C0E5C0C11589E5D8075E
:1015400060F5C11528E5D20708F034C1C11584E55E
:10155000D80778F4C11523E5D20708F011C1C115E9
:1015600082E5D80708F0F7C0DC2FCC27C16FD06A1E
:1015700082C1C11525E5D20708F417C1C11586E55A
:10158000D80708F02BC18C2F0E94BB0C8F71C82F7D
:10159000D0E0DC2FCC27D0626EC1CD3B2CE5D2074A
:1015A00009F413C1F0F4CB3B2CE5D20709F407C1D1
:1015B00008F008C1C1152AE5D20708F00FC18C2F29
:1015C0008F700E94BB0C34E0D695C7953A95E1F731
:1015D000CF70D0E0DC2FCC27D06A8F70806EC82B04
:1015E0004AC1C03C8CE5D80709F4F5C060F4CE3B95
:1015F0008CE5D80709F4ECC0CF3BDC4509F0EEC020
:10160000C0E0D2ED38C1CE0190568115904208F06D
:10161000E5C08D2F8F710E94BB0CDD27D0628F71CA
:10162000D82B29C1C53AD10509F4DBC0C63AD1058A
:1016300009F4DAC0C3E8D0E41EC1C83AD10509F400
:10164000D6C0C93AD10509F4D5C0CA3AD10509F4C2
:10165000D4C0CB3AD10509F4D3C0CC3AD10509F4B2
:10166000D2C0CB3BD10509F4D1C0CC3BD10509F4A4
:10167000D0C0CD3AD10509F4CFC0C03BD10509F4A3
:10168000CEC0CE3AD10509F4CDC0CF3AD10509F488
:10169000CCC0C13BD10509F4CBC0C23BD10509F494
:1016A000CAC0C33BD10509F4C9C0C43BD10509F484
:1016B000C8C0C53BD10509F4C7C0C63BD10509F474
:1016C000C6C0C73BD10509F4C5C0C83BD10509F464
:1016D000C4C0C93BD10509F4C3C0CD3BD10509F451
:1016E000C2C0CE3BD10509F4C1C0CA3BD10509F047
:1016F000C0C0CAE2D6E4BFC0CE019F700E94450AB6
:10170000EC01B9C0CE019927D3FF03C0EC01D86C1E
:10171000B2C0EC01D06CAFC0DF70D06AACC02C2F6F
:10172000237081E090E002C0880F991F2A95E2F7AC
:101730009C689E01F4E036952795FA95E1F72370B1
:10174000922BCF70C695C69520E2C29FE00111246E
:10175000C82BD92B90C08C2F8695869520E2829F2E
:10176000C00111249E0123703327C1E0D0E002C0E4
:10177000CC0FDD1F2A95E2F7C82BD92BDC687BC084
:101780008C2F8695869520E2829FC00111249E01B0
:1017900023703327C1E0D0E002C0CC0FDD1F2A95B3
:1017A000E2F7C82BD92BDA6866C0DC2FCC27C46FD0
:1017B000D06A61C0DC2FCC27C06FD06A5CC0C0E0AB
:1017C000D4ED59C0C0E0D5ED56C0C0E0D1ED53C056
:1017D000C0E0D0ED50C0C0E0D3ED4DC0C0E0D0E0DF
:1017E0004AC0C1E8D0E447C0C2E8D0E444C0C2EE79
:1017F000D4E441C0C9EED4E43EC0CAEED4E43BC058
:10180000C5EBD4E438C0C6EBD4E435C0C3EBD4E4B4
:1018100032C0C4EBD4E42FC0C7EBD4E42CC0CCEC72
:10182000D4E429C0CDECD4E426C0C3E8D5E423C079
:10183000CAE8D5E420C0C2E9D5E41DC0C4E9D5E4B6
:101840001AC0C1E2D6E417C0C3E2D6E414C0C4E2B1
:10185000D6E411C0C5E2D6E40EC0C6E2D6E40BC0A1
:10186000C7E2D6E408C0CFE6D4E405C0C0E7D4E4BC
:1018700002C0C0E0D4E4CE01DF91CF910895823858
:10188000910549F1B0F48133910509F459C048F448
:101890008932910509F44FC08A32910509F455C087
:1018A00008958533910509F441C08933910599F074
:1018B0000895833E910531F138F4803E910591F011
:1018C000823E9105A9F00895863E910501F1873E7B
:1018D000910539F1089520919D0220FD3BC021FD25
:1018E00039C0089580919D0280FF34C089E341C0D2
:1018F00080919D0282FF32C080919D0284FF2CC0A6
:1019000080E037C080919D0282FD28C0F5CF809194
:101910009D0283FF25C080919D0284FDF1CF87EE5B
:1019200028C080919D0283FD1BC0F5CF80919D0250
:1019300085FF18C019C080919D0285FF15C012C097
:1019400080919D0286FF12C013C080919D0286FF88
:101950000FC00CC080EE0DC083EE0BC082EE09C03C
:1019600086EE07C085E305C089E203C081E301C0BC
:101970008AE290E0089590919D0292FF0DC0282F79
:101980002871283019F4877F846006C0282F2471BD
:10199000243011F48B7F886093FF0DC0282F2871AD
:1019A000283119F4877E846106C0282F24712431E0
:1019B00011F48B7E886194FD877E0895E82FF0E016
:1019C000EE0FFF1FE559FE4F808191810895CF9260
:1019D000DF92EF92FF920F931F93CF93DF9389EAE9
:1019E00092E00E9488052BE6E22E21E0F22EC0E074
:1019F000D0E034EAC32E32E0D32E0BE912E0DF93BD
:101A0000CF93DF92CF920E94210681EA92E00E945A
:101A10008805F701819191917F010E946D239F9329
:101A20008F931F930F930E94210689E992E00E94F1
:101A3000880521968DB79EB708960FB6F8949EBF7D
:101A40000FBE8DBFC530D105D1F6DF91CF911F916B
:101A50000F91FF90EF90DF90CF900895EDE2F1E0CD
:101A600021E030E08191A82FA295AF70B0E091966F
:101A70004C9191978F70B90102C0660F771F8A95BC
:101A8000E2F7CB018095482391964C9371E0E233C5
:101A9000F70741F7AEE1B1E021E030E08D91E82FAA
:101AA000E295EF70F0E041A18F70B90102C0660FBE
:101AB000771F8A95E2F7CB01962F9095492341A392
:101AC00092A1982B92A371E0AD32B70739F7E5E701
:101AD000F1E0ABE6B1E0119211921D921D9281E00E
:101AE000EF37F807C1F785E00E94160E0C94D9076E
:101AF0002F923F925F926F927F928F929F92AF92BE
:101B0000BF92CF92DF92EF92FF920F931F93CF93EA
:101B1000DF935DE2252E51E0352EA5E7B1E0B12C33
:101B200021E030E04D016D907C90119711961C9250
:101B30001E92E10169911E01E62FE295EF70F0E03F
:101B400081A16F70A90102C0440F551F6A95E2F789
:101B5000BA01842B81A382A1A42EA0948A2182A3FE
:101B600050EA5A95F1F74EE1E42E41E0F42E40E0C0
:101B700050E0E70159907E01852D82958F7090E0AD
:101B8000EC0108A1CD90DC90119710E0852D8F70AD
:101B900002C0159507958A95E2F700FD08C0C901B6
:101BA000042E02C0880F991F0A94E2F702C080E059
:101BB00090E0C82AD92A1196DC92CE924F5F5F4FEF
:101BC0004F305105B1F681A18A2181A382A1862BD4
:101BD00082A3129641E0F401808191816816790612
:101BE00009F440E0B42AF2E32F16F1E03F0609F0D1
:101BF00099CF2B2D45E06BE671E085E791E00E94DF
:101C0000170E0E945A078B2DDF91CF911F910F91D4
:101C1000FF90EF90DF90CF90BF90AF909F908F900C
:101C20007F906F905F903F902F9008950895FF925E
:101C30000F931F93CF93DF93D82FC92FF62E072F23
:101C4000142F222349F081E0809381010E944C25CA
:101C50009093800180937F01809181018823D9F046
:101C600080917F01909180010E945825069798F0FD
:101C7000ED2FFC2FAF2DB02F80E090E0412F50E0F2
:101C80008417950734F4219131912D933D9301965A
:101C9000F7CF10928101DF91CF911F910F91FF90AB
:101CA0000895CF92DF92EF92FF920F931F93CF93FD
:101CB000DF93D62EC72EE82EF82EE82FF0E0711114
:101CC00006C0E451F94F6491762F862F7BC0072F11
:101CD00010E026E0629FC0011124CFEFD0E0BE01EA
:101CE0000E94EB2E9B016BEA6203A001639F500DE3
:101CF00011244D0D511D4D0D511DD42EDD0CD40E52
:101D0000CE01801B910B8E9FA0018F9F500D9E9F37
:101D1000500D1124852FDC9CB0011124672F7727EB
:101D2000DE01A61BB70BAE9FB001AF9F700DBE9F2B
:101D3000700D1124972FDE01AD19B1096D01C09E00
:101D4000D001C19EB00DD09EB00D1124AB2FBB278A
:101D5000CA1BDB0BCE9FD001CF9FB00DDE9FB00D15
:101D600011242230310591F03CF42115310559F050
:101D700021303105C1F014C02430310569F04CF038
:101D80002630310569F49E2DFB2E0DC0952F8B2F2B
:101D90000AC0F72E952F02C09B2FF52E8E2D03C063
:101DA000F52E872F9E2DE92FF0E0E451F94F749125
:101DB000EF2DF0E0E451F94F6491E82FF0E0E451A9
:101DC000F94F8491DF91CF911F910F91FF90EF9088
:101DD000DF90CF9008950895CF93DF93762FE90198
:101DE000682F842F0E94510E798368838A83DF9144
:101DF000CF91089520916402822F869590E00097FC
:101E000029F42170226020936402089585972CF0B4
:101E1000822F8170886480936402089588E090E046
:101E20000C945B2FCF93DF9300D000D0CDB7DEB7FB
:101E3000AB01BC0149835A836B837C830E94FA0EF9
:101E400049815A816B817C8188E090E00F900F90EE
:101E50000F900F90DF91CF910C94792FE4E6F2E090
:101E600083E08083109265028FEF809366028093F7
:101E700067021092680260817181828193810C9463
:101E8000120F80913C0280FF08C08EEB95E09F937B
:101E90008F930E9421060F900F9080913C0280FF4B
:101EA0000FC08091640281701F928F9381EA95E048
:101EB0009F938F930E9421060F900F900F900F9089
:101EC00080913C0280FF0FC08091640286951F9232
:101ED0008F9386E895E09F938F930E9421060F9041
:101EE0000F900F900F9080913C0280FF0EC0809168
:101EF00065021F928F938CE695E09F938F930E94CB
:101F000021060F900F900F900F9080913C0280FF60
:101F10000EC0809166021F928F9382E595E09F9399
:101F20008F930E9421060F900F900F900F90809139
:101F30003C0280FF0EC0809167021F928F9388E35E
:101F400095E09F938F930E9421060F900F900F9022
:101F50000F9080913C0280FF0EC0809168021F921A
:101F60008F938CE195E09F938F930E9421060F90B1
:101F70000F900F900F9008958091640280FF02C02F
:101F80008695089580E0089580916802833018F462
:101F90008F5F809368026091640270916502809106
:101FA0006602909167020C94120F80916802882358
:101FB00019F081508093680260916402709165020B
:101FC00080916602909167020C94120F6091050156
:101FD00070E08091640280FF0AC08091860123E056
:101FE000829FC001112487599D4F0C94BC152091EC
:101FF000850130910401231780F7822F90E0FC01C6
:10200000EE0FFF1FE80FF91FE759FD4F11821082F5
:1020100012822F5FF0CF9091640290FF16C09091D2
:10202000850150910401951770F4292F30E0F901D2
:10203000EE0FFF1FE20FF31FE759FD4F818360830F
:1020400042839F5FF0CF0C94E60F0895CF93DF9308
:1020500000D01F92CDB7DEB79091640290FF0AC006
:102060009E012F5F3F4F0E94EC0E4B8169818A8158
:102070000E940B100F900F900F90DF91CF91089559
:10208000CF93DF93EC01EC81F0E0E951FA4F4491FA
:1020900060916602809165020E9426108C818F5F9C
:1020A0008C83DF91CF910895CF93DF93EC01409122
:1020B0006702609166028C810E9426108C818F5F7E
:1020C0008C83DF91CF9108950F931F93CF93DF936C
:1020D00000D01F92CDB7DEB78C01809182018111B3
:1020E0000AC09E012F5F3F4F4FEF6FEF0E94EC0E33
:1020F0008A8180938201F8018481813051F028F037
:10210000823061F4409182010AC08091820140E0F6
:1021100007C06091820140E080E003C040E080E0C1
:1021200060E00E940B10F801848190E0019663E06A
:1021300070E00E94FF2E84830F900F900F90DF912C
:10214000CF911F910F9108955F926F927F928F921E
:102150009F92AF92BF92CF92DF92EF92FF920F9336
:102160001F93CF93DF9300D000D0CDB7DEB7D82E2A
:10217000B62EC42EA22E9091640290FFADC0E92F1E
:10218000E695AE2FB0E0AE5CBE4F8C9180938E0191
:102190009E7F923061F49E012F5F3F4F8D2D0E94F4
:1021A000EC0E4B8169818A810E940B1063C08230E2
:1021B00019F4C09067025EC0863019F4D0906502B1
:1021C00059C08930D9F3893109F054C0E9519E2EA4
:1021D0009094292D2170922E2170822EE695F0E0A8
:1021E000E951F94F05911491512C1127FEE3EF2E7F
:1021F000F3E0FF2E609103015616D0F5652C712C8B
:10220000609EC001619E900D709E900D112470E043
:102210000E94EB2E8D2D882011F0860F01C0861BA9
:1022200090913C0290FF13C01F930F931F929F92B7
:102230001F928F931F925F92FF92EF928C830E9466
:1022400021060FB6F894DEBF0FBECDBF8C819091F2
:102250008501690E711C9301220F331F260D371D56
:1022600027593D4F4C2D6B2D0E94EC0E5394C2CF3D
:102270000E94E60FD0926502B0926602C092670299
:10228000AA20C9F060916402709165028091660293
:10229000909167020E94120F809167021F928F93A4
:1022A000809166021F928F93809165021F928F9397
:1022B00089E193E008C01F92CF921F92BF921F92B4
:1022C000DF9282EF92E09F938F930E9421060FB6D8
:1022D000F894DEBF0FBECDBF0F900F900F900F9000
:1022E000DF91CF911F910F91FF90EF90DF90CF90F2
:1022F000BF90AF909F908F907F906F905F90089568
:1023000090916502282F409167026091660288E0F3
:10231000890F0C94A41081E00C94801190916502B7
:10232000282F409167026091660288EF890F0C9414
:10233000A41081E00C948E116091660228E0620F77
:1023400008F46FEF282F40916702809165020C948A
:10235000A41081E00C949C116091660228E0621B3D
:1023600008F460E0282F40916702809165020C9488
:10237000A41081E00C94AC114091670228E0420F58
:1023800008F44FEF282F60916602809165020C944B
:10239000A41081E00C94BC114091670228E0421B1C
:1023A00008F440E0282F60916602809165020C9449
:1023B000A41081E00C94CC1120E00C94A410FF92A6
:1023C0000F931F93CF93DF93EC01F12C0FEF10E0ED
:1023D00060910301F616E8F44091850150E04F0D3D
:1023E000511D9A01220F331F240F351F27593D4FCE
:1023F00070E0C8010E94FF2E962F8C8140916702E9
:1024000060916602F99E800D11240E94EC0EF394F7
:10241000DFCF0E94E60F9A818C8190FF02C08F5F10
:1024200001C081508C83DF91CF911F910F91FF905C
:102430000895BF92CF92DF92EF92FF920F931F9376
:10244000CF93DF93FC01828180FD03C0CC24C39431
:1024500002C0CC24CA94D12C80910301D816E0F597
:10246000ED2CF12C809185019701280F311DE90198
:10247000CC0FDD1FC20FD31FC759DD4F1982188241
:102480001A8204E010E0B12C809184018B0D87FF4B
:1024900003C090910301890F992787FD9095E81655
:1024A000F90691F480916702809FA001819F500DF1
:1024B000112455954795559547959E016091660263
:1024C000809165020E94EC0EBC0C015011090115AF
:1024D0001105D1F6D394C0CF0E94E60F80918401FC
:1024E00031E0C31206C0811102C080910301815006
:1024F00007C090E001966091030170E00E94FF2EFA
:1025000080938401DF91CF911F910F91FF90EF9005
:10251000DF90CF90BF900895CF93209185013091A7
:102520000401231770F4822F90E0FC01EE0FFF1FCF
:10253000E80FF91FE759FD4F1182108212822F5FB9
:10254000F0CFC0E060910301C617B0F52C2F30E04A
:1025500070E0C9010E94FF2E40918501480F8091D3
:102560008301992787FD909550E028173907C4F01B
:1025700080910201992787FD90958217930784F037
:102580009A01220F331F240F351F27593D4F4091C9
:10259000670260916602809165020E94EC0E0AC09B
:1025A000FA01EE0FFF1FE40FF51FE759FD4F1182EF
:1025B00010821282CF5FC6CF0E94E60F40910101C8
:1025C00020918301240F2093830180910201840FC5
:1025D00080930201181654F4332727FD309580911B
:1025E000030190E00197281739071CF041954093AB
:1025F0000101CF9108950F931F93CF93DF93EC01C7
:102600002C813D812F5F3F4F217033273D832C83E9
:1026100010E005E5809103011817F0F44091850161
:1026200050E0410F511D9A01220F331F240F351F17
:1026300027593D4F412F46958C819D81840F911DD7
:1026400081704091670260916602809F802D112405
:102650000E94EC0E1F5FDECFDF91CF911F910F9193
:102660000C94E60F0F931F93CF93DF938C01C0E080
:10267000D0E040910301842F90E0C817D9072CF5D2
:10268000809185019E01280F311DC901220F331F42
:10269000280F391F27593D4F4695842F90E0F801A8
:1026A0004481C817D9071CF4442331F002C04111FA
:1026B00003C04091670201C040E0609166028091D2
:1026C00065020E94EC0E2196D4CF0E94E60FF8011D
:1026D000248130E02F5F3F4F217033272483DF9127
:1026E000CF911F910F91089560916402669570E0FB
:1026F0004BE050E086E091E00E94462F892B19F4D0
:1027000081E080938F010E944C25909388018093F3
:10271000870180913C0280FF08C089ED92E09F9381
:102720008F930E9421060F900F90089510928F01B1
:1027300080913C0280FF08C080EC92E09F938F93D1
:102740000E9421060F900F9008959091640290FFCF
:102750004EC09170811102C0926003C0853220F09A
:1027600098649093640204C0880F892B809364025C
:10277000662391F060916402709165028091660217
:10278000909167020E94120F8091640286951F92B9
:102790008F9382E694E007C08091640286951F9231
:1027A0008F9384E494E09F938F930E9421060F906F
:1027B0000F900F900F9060916402669570E04BE06F
:1027C00050E086E091E00E94462F892B19F00E948C
:1027D000961302C00E94741381E080938A01409195
:1027E000670260916602809165020C94DC11089585
:1027F000682F8091640286958F5F853208F081E0B2
:102800000C94A51381E00C94F813682F8091640256
:102810008695815009F484E20C94A51381E00C9410
:10282000051461E00C94A513CF93DF93C4E6D2E0C6
:102830008881816088831F9281E08F9386ED93E089
:102840009F938F930E9421060F900F900F900F90EF
:1028500088818695DF91CF910C94111460E00C94DF
:10286000A51380918D01811161C080913C0281602E
:1028700080933C0285E095E09F938F930E94210610
:1028800080913C020F900F9080FF08C08FEE94E083
:102890009F938F930E9421060F900F900E94872391
:1028A000811110C080913C0280FF08C087EC94E049
:1028B0009F938F930E9421060F900F900E940A24ED
:1028C0000E942E0F0E940E0F6093640270936502A7
:1028D00080936602909367026E7FC1F480913C0200
:1028E00080FF08C08EE794E09F938F930E9421069B
:1028F0000F900F900E942E0F0E940E0F60936402A3
:102900007093650280936602909367020E94FA0EAC
:102910000E94410F10928F018091640280FF03C0DA
:1029200086950E942E1481E080938D010895CF93A7
:10293000DF93C4E6D2E08881816088831F9281E0C2
:102940008F938DE993E09F938F930E9421060F90C0
:102950000F900F900F9088818695DF91CF910C9406
:102960002E14CF93DF93C4E6D2E088818E7F8883D4
:10297000688179818A819B810E94120F8881817090
:102980001F928F9385E693E09F938F930E94210679
:102990000E9496132FEF80E792E0215080409040F4
:1029A000E1F700C000000F900F900F900F90DF91A3
:1029B000CF910C94E60F80916402809581701F92F4
:1029C0008F938DE094E09F938F930E9421068091D6
:1029D00064020F900F900F900F9080FD0C94B11433
:1029E0000C9414140F931F93CF93DF9380918F0156
:1029F000882309F489C080918E01E0916402E695F4
:102A0000E81BE0938901823049F4F0E0ED51FA4F80
:102A1000E491CE2FD0E000E410E146C0863049F4C6
:102A2000F0E0E052FA4FE491CE2FD0E004E510E15F
:102A30003BC0893049F4E695F0E0E352FA4FC49187
:102A4000D0E00FED11E130C08F3049F4E695F0E0B1
:102A5000E652FA4FC491D0E009E112E125C0853178
:102A600041F4F0E0E952FA4FC491D0E00CE812E1F1
:102A70001BC0883181F0833239F4E5EDF5E0C59172
:102A8000D49104E610E110C0843251F0C0EDD7E0DB
:102A90000BEE1EE009C0C8EED3E00BEF12E104C05C
:102AA000C4EFD1E002E313E180918A01882389F029
:102AB00010928A010E944C259E0120953095280F86
:102AC000391F309388012093870110928C01109256
:102AD0008B0180918701909188010E9458258C1765
:102AE0009D0790F080918701909188018C0F9D1F28
:102AF000909388018093870187E891E0F801DF9146
:102B0000CF911F910F910994DF91CF911F910F9158
:102B100008953EB1242F209523233EB1342B4FB787
:102B2000F894FC01680F791FE617F70789F0819187
:102B300098E03EB9000000C087FF2EB9880F000062
:102B400000C000C000C02EB900C09A9591F7ECCF2C
:102B50004FBF08952DB1242B2DB99B01220F331F98
:102B6000260F371FB9010E94891587EC90E0019765
:102B7000F1F700C00000089544E00C94AA150F93EB
:102B80001F93CF93DF93C62FD42F022FFC01828196
:102B90008823C9F0609392010E944C259093910183
:102BA0008093900180E28C0F883008F050C0C7708D
:102BB00081E001C0880FCA95EAF7DF91CF911F919C
:102BC0000F910C94C71910919201161330C0809187
:102BD0009001909191010E945825883C910538F50B
:102BE000C0E2CD0F1D17B9F080E2810F883040F4AC
:102BF000177081E001C0880F1A95EAF70E94CE197C
:102C0000C83048F481E09D2F977001C0880F9A95D5
:102C1000EAF70E94C719802F0E94B419C830B8F48F
:102C2000D77081E001C0880FDA95EAF70AC080E228
:102C30008C0F883060F4C77081E001C0880FCA959E
:102C4000EAF7DF91CF911F910F910C94CE19DF918C
:102C5000CF911F910F9108959C01CB01203F4CE52E
:102C60003407F9F078F4283DFCE53F07B9F0293D39
:102C70004CE5340711F1273D3C4531F526E241EEA4
:102C800061EE1EC0223FFCE53F0799F070F0233F44
:102C90003C45D1F427E245EE66EE12C027E245EE50
:102CA0000EC026E241EE60EE0BC027E245EE64EE78
:102CB00007C026E241EE62EE03C028E241E065EE85
:102CC0000E94BF1580E00895FC018281882319F0DD
:102CD00010929201089581E0089590939801809355
:102CE00097010895E0919701F0919801309721F0B4
:102CF0000190F081E02D099480E00895FF920F93F8
:102D00001F93CF93DF93EC01E0919701F09198012D
:102D1000309709F43FC080911D01882341F08091D4
:102D20009D0287FF04C08881898385E088830280B3
:102D3000F381E02DCE01099580913C0282FF2AC0EB
:102D400080FF04C084EF97E00E94880588E0F82E99
:102D50000EEE17E080913C0280FF0BC088811F922D
:102D60008F931F930F930E9421060F900F900F9047
:102D70000F90FA942196F110EDCF80913C0280FFE4
:102D800009C08CEE97E0DF91CF911F910F91FF90DA
:102D90000C948805DF91CF911F910F91FF900895BA
:102DA00020919501309196018217930771F09093CD
:102DB000960180939501E0919701F09198013097E9
:102DC00021F00680F781E02D099408952091930168
:102DD000309194018217930771F09093940180933E
:102DE0009301E0919701F0919801309721F00084D0
:102DF000F185E02D0994089585B7806885BF85B772
:102E0000806885BF0895089508950C940417089567
:102E10000C9407170E94FC160E9403170C940517C8
:102E200081E008950E9443250E942E0D0E94CC252A
:102E30000E94E5250E943114EDE9F2E0808180686E
:102E400080830C940817CF93C82F80913C0282FF97
:102E50001EC080FF04C08DE098E00E94880580912C
:102E60003C0280FF0CC01F92CF9328E038E03F93D4
:102E70002F930E9421060F900F900F900F9080913A
:102E80003C0280FF04C086E098E00E9488058C2FF9
:102E9000CF910C94E4075F926F927F928F929F92F2
:102EA000AF92BF92CF92DF92EF92FF920F931F9358
:102EB000CF93DF93CDB7DEB72A970FB6F894DEBF76
:102EC0000FBECDBF0E94780D0E941017811111C056
:102ED0008FEF89838A831B820E944C258160782F23
:102EE0009D838C8349815A816B818D810E94071853
:102EF00057C09AE9C92E91E0D92E00E010E0AA242B
:102F0000A394B12C502E802F0E94DE0C3C01F601C0
:102F1000E190F1906F01E826F926E114F10431F413
:102F20000F5F1F4F0530110569F7D2CF80913C022A
:102F300081FD0E94E70C20E030E04501022E02C036
:102F4000880C991C0A94E2F7C4018E219F21892BD9
:102F500009F12E835F826820792081E0672809F4D7
:102F600080E088870E944C258160782F9A87898726
:102F70004E815F8168858A850E940718F801EE0FEF
:102F8000FF1FE656FE4F8081918188259925918308
:102F9000808306C02F5F3F4F2F30310571F6C0CFC1
:102FA000109199010E9472161817D9F00E9472169A
:102FB000809399012A960FB6F894DEBF0FBECDBF5D
:102FC000DF91CF911F910F91FF90EF90DF90CF9005
:102FD000BF90AF909F908F907F906F905F900C9478
:102FE00023172A960FB6F894DEBF0FBECDBFDF9130
:102FF000CF911F910F91FF90EF90DF90CF90BF90F6
:10300000AF909F908F907F906F905F900895CF9337
:10301000DF93CDB7DEB72B970FB6F894DEBF0FBEA8
:10302000CDBF4F83588769877A878B87DE011196DA
:1030300086E0FD0111928A95E9F785E0FE01379659
:1030400001900D928A95E1F749815A816B817C81CB
:103050008D819E810E94551F2B960FB6F894DEBF7E
:103060000FBECDBFDF91CF910895FC01808191818A
:103070000E9414220895882309F414C18238C1F4EF
:103080000E94721681FD0EC169E380911101909139
:1030900012010E949B240E949F222FEF81EE94E058
:1030A000215080409040E1F700C0000069E319C062
:1030B0008338F9F40E94721680FDF4C063E58091B4
:1030C0001101909112010E949B240E949F222FEFD8
:1030D00081EE94E0215080409040E1F700C0000074
:1030E00063E580911101909112010E94A6240C9435
:1030F0009F228438C1F40E94721682FDD3C067E417
:1031000080911101909112010E949B240E949F22A4
:103110002FEF81EE94E0215080409040E1F700C015
:10312000000067E4DECF9CEF980F913A40F4682FDF
:1031300080911101909112010E949B24D8CF90E2BE
:10314000980F983050F4877091E001C0990F8A95DC
:10315000EAF7892F0E945622CACF9BE5980F933039
:1031600070F4853A29F0863A31F482E890E005C09F
:1031700081E890E002C083E890E00C94D01698E5D6
:10318000980F973108F08EC0883A09F445C0893A03
:1031900009F445C08A3A09F445C08B3A09F445C0A0
:1031A0008C3A09F445C08B3B09F445C08C3B09F4CB
:1031B00045C08D3A09F445C0803B09F445C08E3ABC
:1031C00009F445C08F3A09F445C0813B09F445C074
:1031D000823B09F445C0833B09F445C0843B09F4B4
:1031E00045C0853B09F445C0863B09F445C0873B93
:1031F00009F445C0883B09F445C0893B09F445C042
:103200008D3B09F445C08E3B09F445C08A3B09F06B
:1032100045C08AE292E044C082EE90E041C089EE6F
:1032200090E03EC08AEE90E03BC085EB90E038C075
:1032300086EB90E035C083EB90E032C084EB90E009
:103240002FC087EB90E02CC08CEC90E029C08DEC77
:1032500090E026C083E891E023C08AE891E020C096
:1032600082E991E01DC084E991E01AC081E292E018
:1032700017C083E292E014C084E292E011C085E2BC
:1032800092E00EC086E292E00BC087E292E008C0B6
:103290008FE690E005C080E790E002C080E090E01B
:1032A0000C94E6160895882309F45DC0823879F4F9
:1032B0000E94721681FF57C069E3809111019091BD
:1032C00012010E949B240E949F2269E310C0833850
:1032D000B1F40E94721680FF46C063E5809111012F
:1032E000909112010E949B240E949F2263E580918D
:1032F0001101909112010E94A6240C949F228438FF
:1033000079F40E94721682FF2EC067E48091110149
:10331000909112010E949B240E949F2267E4E7CFB4
:103320009CEF980F913A10F4682FE1CF90E2980F3C
:10333000983050F4877091E001C0990F8A95EAF7B0
:10334000892F0E945C22D9CF9BE5980F933020F4FF
:1033500080E090E00C94D016885A873120F480E009
:1033600090E00C94E6160895CF93C82F0E943B1866
:10337000C93349F42FEF83EC99E02150804090400D
:10338000E1F700C000008C2FCF910C9453198823D3
:1033900021F00E9456220C949F220895882321F048
:1033A0000E945C220C949F2208958F929F92AF926C
:1033B000BF92CF92DF92EF92FF920F931F93CF9322
:1033C000DF931F92CDB7DEB74C01E62E472FFC01ED
:1033D000A580A2949FE0A922B280BB2021F079832E
:1033E0000E947322498149830E944C22498188238B
:1033F00081F0BB2071F080E28E0D883050F082E0C9
:103400000E94EA220E944C22FF24F394F82649816C
:1034100001C0F12CC42EC2948FE0C822D12CF60139
:10342000E859FF4F0C94352F842F807F142F1F7085
:10343000882311F01295107FBB2099F0112309F415
:103440008CC180E28E0D883010F0E11004C0812F15
:103450000E94562203C0812F0E9466220E949F2252
:103460007CC18E2D0E945319112309F4C1C180E241
:103470008E0D883010F0E11004C0812F0E945C2274
:1034800003C0812F0E946C220E949F22B1C1842F11
:10349000807F142F1F70803211F01295107FEE2064
:1034A00021F0F1E0EF16D9F026C0BB2079F0AA2078
:1034B00049F021E0A21206C00E948622812B0E94C0
:1034C0008C2296C10E948622812B20C0AA2021F046
:1034D00081E0A81609F48CC10E949522F7C0BB2098
:1034E00029F095E09A1508F483C10FC0E4E0EA15CD
:1034F00008F47EC1EBC0BB2061F0AA2031F0F401DA
:10350000858180FF2AC18F708583812F0E94C71912
:103510006FC1AA2009F4DAC032C1242F269526955E
:10352000237030E02115310521F02130310561F0A3
:103530005FC1BB2021F08E2D942F937002C080E0DC
:1035400090E00E94D01664C1BB2021F08E2D942FF4
:10355000937002C080E090E00E94E61659C1842F6B
:10356000837009F04AC0B1104FC15E2D5295569537
:103570005770550F550F6E2D6F70862F90E0A0E09D
:10358000B0E0052E04C0880F991FAA1FBB1F0A9424
:10359000D2F7E4FE10C00FE010E020E030E004C0FD
:1035A000000F111F221F331F5A95D2F70095109557
:1035B0002095309503C000E010E0980146954695AF
:1035C000437050E0BC01CD01602B712B822B932BFB
:1035D0004230510561F04330510561F041305105F1
:1035E00019F00E94A82010C10E9496200DC10E94CF
:1035F000BA200AC10E94942007C1BB2019F0842F71
:10360000817001C08695882309F4FEC05E2D529515
:1036100056955770550F550F6E2D6F70862F90E091
:10362000A0E0B0E0052E04C0880F991FAA1FBB1FA1
:103630000A94D2F7E4FE10C00FE010E020E030E082
:1036400004C0000F111F221F331F5A95D2F7009597
:1036500010952095309503C000E010E09801469544
:103660004695437050E0BC01CD01602B712B822B3D
:10367000932B4230510561F04330510561F04130E8
:10368000510519F00E945521BFC00E944321BCC0C2
:103690000E946721B9C00E94CE20B6C00E2D10E056
:1036A000F801E05EF109E531F10508F052C0E85893
:1036B000FF4F0C94352F1E2D1F70842F8F71BB2050
:1036C00019F00E94EE2021CF0E940921812F0E9433
:1036D000CE198EC0BB2049F0F4E0FA1508F488C07A
:1036E000842F8F710E94282183C025E02A1508F4B9
:1036F0007FC0F6CFBB2039F0842F8F710E94EE205F
:1037000077C0BB20C9F3842F8F710E94092170C03C
:10371000BB2029F0842F8F710E94DF2069C00E9496
:10372000DA2066C0BB2051F0142F1F71812F0E9438
:10373000EE2063E0812F0E94D5225AC081E00E94D2
:10374000EA2281E08A1508F053C082E00E94EA2252
:103750004FC0BB2031F0AA2079F28E2D0E943B1879
:1037600047C0AA2081F299E3E91209C0EFEFF3EC18
:1037700029E0E150F0402040E1F700C000008E2D2C
:103780000E94531935C04F706E2DC4010E942F0A3C
:103790000E9402203DC0B1103BC04F7050E042304B
:1037A0005105B1F04CF44115510579F04130510506
:1037B000F9F40E9431262CC04430510579F05CF0B8
:1037C00045305105A9F480E00AC00E94022620C0BD
:1037D0000E949B261DC00E94B7261AC085E00E9449
:1037E000EF2616C04F706E2DC4010E94320A10C021
:1037F00088E0C816D10441F05CF0EAE0CE1AD108A6
:10380000F2E0CF16D10420F40E9472160E94E40761
:10381000FF20F1F00E94482280FD1AC0F4011282BC
:103820000E9442220E94EE20C4010E94361C0E9487
:1038300042220F90DF91CF911F910F91FF90EF9057
:10384000DF90CF90BF90AF909F908F900C94092104
:103850000F90DF91CF911F910F91FF90EF90DF902C
:10386000CF90BF90AF909F908F9008950F931F932C
:10387000CF93DF93EC01288139818B819C81892B47
:1038800031F03F3F11F080E003C02F3FE1F781E0CE
:10389000811113C0CE010E94F607882371F0688160
:1038A00079818A810E941F228C010E9479210E94C5
:1038B0009320B801CE010E94D519DF91CF911F91BD
:1038C0000F9108950E9473220E9483220E949F22DA
:1038D00080E090E00E94D01680E090E00C94E61624
:1038E00080911101909112010E94B1240C94621CEC
:1038F0000E9463220C94701CE92FE295EF70F0E0B7
:103900003297EE30F105B8F4E357FF4F0C94352FA2
:10391000803F59F018F4803E70F407C0843F59F49A
:1039200004C0803E10F0813F31F481E0089593FBA4
:10393000882780F9089580E008950E9414220E944B
:103940007C1C0895CF93DF9300D000D01F92CDB799
:10395000DEB70F900F900F900F900F90DF91CF91E7
:103960000895CF93DF9300D000D000D0CDB7DEB75D
:1039700026960FB6F894DEBF0FBECDBFDF91CF9174
:1039800008951F93CF93DF93C091A50116E0809116
:10399000A601C81799F0D0E01C9FF0011D9FF00D03
:1039A0001124E955FE4F40815181628173818481E8
:1039B00095810E94B11C2196C770E9CFDF91CF910C
:1039C0001F9108954091D7015091D8016091D9017C
:1039D0007091DA018091DB019091DC010C94B11CB3
:1039E000CF938091DC0182958F7009F05FC0809148
:1039F000D901882309F45AC02091A501A091A601FC
:103A00006091D7017091D8018091DA019091DB012A
:103A100031E06F3F09F030E0B32FC6E02A1709F418
:103A200045C0009721F07F3F21F44B2F03C041E0B8
:103A300001C040E030E040FD35C0C29FF001C39FAF
:103A4000F00D1124E955FE4F418174132BC04081C4
:103A5000641328C04281411125C043815481481715
:103A6000590710F441505109481B590B483C510566
:103A7000C8F48091DC018F7080618093DC0186E066
:103A8000829FF001839FF00D1124E455FE4F808149
:103A90008F708061808387ED91E00E94361CCF910A
:103AA0000C94C11C2F5F3F4F2770B8CFCF91089562
:103AB000CF92DF92EF92FF920F931F93CF93DF93FA
:103AC000CDB7DEB762970FB6F894DEBF0FBECDBF9D
:103AD0008C0185E0F801DE011D9601900D928A951A
:103AE000E1F7D8014C9111965C91119712966C9167
:103AF00012971396ED90FC9014977091D701E09176
:103B0000D8012091DA013091DB012115310531F026
:103B1000EF3F31F481E07F3F19F403C081E001C041
:103B200080E0B82FB170CB2E80FD6BC1D090D90151
:103B3000DD2009F4F5C0F091DC01E216F30638F05F
:103B4000C701821B930B883C910548F09DC02095CE
:103B500030952E0D3F1D283C310508F095C08F2F64
:103B6000807F09F052C0E51314C0741312C0D62E22
:103B700061110FC0FF70F061F093DC010E94E21C44
:103B800087ED91E00E94361C8091DC01F80185836D
:103B90007CC1EF2831F05F3F31F481E04F3F19F4F1
:103BA00003C081E001C080E080FD03C081E0862782
:103BB00001C080E0F82FF170FF2E80FF1CC08091C3
:103BC000A5012091A60136E0821709F438C190E0E2
:103BD000389FF001399FF00D1124E955FE4F718196
:103BE000571306C07081471303C07281671303C067
:103BF00001968770E9CFD62E662309F446C18091DD
:103C0000DC0181608093DC0155C0E51308C07413AA
:103C100006C0611104C0D8011596FC93AEC04D8753
:103C20005E878D859E856A8B0E949D1C6A8988238C
:103C300029F1D62E662311F12091DC01822F829585
:103C40008F7090E002970CF462C08091D701909140
:103C5000D80198878F831986FB86EA862C87CE0148
:103C6000079653C0E51741F14D875E878D859E8588
:103C70006A8B0E949D1C6A89811130C0C8010E9414
:103C8000361CDD24D39401C18F2F807F59F77E2D00
:103C9000F98AE88A89890E94A21C87ED91E00E9436
:103CA000361CE7EDF1E086E0DF011D928A95E9F729
:103CB0000E94E21CD12CE9C07413D6CF6111D4CF7D
:103CC000D8011596FC93C8010E94361CE7EDF1E07F
:103CD00086E0DF011D928A95E9F7D7C0D62E6623CC
:103CE00069F22091DC01822F82958F7090E002971B
:103CF00074F08091D7019091D8019A8389831B82B7
:103D0000FD82EC822E83CE0101960E94361C86E055
:103D1000F801A7EDB1E001900D928A95E1F78AC014
:103D2000E216F30628F0C701821B930B9C0104C026
:103D3000209530952E0D3F1D283C310508F053C0CD
:103D4000D62E662309F49ACFE5132CC074132AC02B
:103D50008091DC0180FD1DC0982F92959F70C9F065
:103D6000D80115968C9315979F3039F09F5F9295E7
:103D7000907F8F70892B15968C93C8010E94361CFA
:103D800086E0F801A7EDB1E001900D928A95E1F788
:103D900053C086E0F801A7EDB1E001900D928A953D
:103DA000E1F773C04D875E878D859E850E949D1CBF
:103DB000882381F096E0F801A7EDB1E001900D9223
:103DC0009A95E1F78A8B0E94F01C0E94E21C8A8976
:103DD000D82E5BC08091DC0181608093DC01C8013A
:103DE0000E94361C52C07E2DF98AE88A89890E9479
:103DF000A21CE7EDF1E086E0DF011D928A95E9F76C
:103E00001BC0662309F43ACF4D875E878D859E855A
:103E10000E949D1CD82E882309F430CF86E0F8013B
:103E2000A7EDB1E001900D928A95E1F787ED91E061
:103E30000E9435180E94F01C0E94E21C26C04D878B
:103E40005E878D859E850E941422292F22952F70D2
:103E500030E0223031052CF49F7041F0811106C012
:103E60000CC0243031052CF49F7049F4805E8830FA
:103E700020F0C8010E94361CCF2CDC2C06C0D801D3
:103E800015969C91907F91F7F8CF8D2D62960FB685
:103E9000F894DEBF0FBECDBFDF91CF911F910F9180
:103EA000FF90EF90DF90CF9008951F93CF93DF9313
:103EB000CDB7DEB72C970FB6F894DEBF0FBECDBFDF
:103EC0004F83588769877A878B879C87CE010796AF
:103ED0000E94581D8823C1F02F8138858A859B85D3
:103EE000892B31F03F3F11F080E003C02F3FE1F715
:103EF00081E0811147C04F81588569857A858B851E
:103F00009C850E94B11C3EC086E0FE013796DE0112
:103F1000119601900D928A95E1F7FF81E8854A8517
:103F20005B854115510531F0EF3F31F481E0FF3FF2
:103F300019F403C081E001C080E080FD23C020911E
:103F4000A60130E0C9010196877099276091A5010B
:103F500070E086179707F1F1F983EA835D834C835C
:103F600096E0929FD001939FB00D1124A955BE4FAA
:103F7000FE01319601900D929A95E1F78093A6018A
:103F80000E94C11C16E08091A5019091A60189179D
:103F900079F1189FC001112489559E4F0E94581D28
:103FA000882331F1E091A5011E9FF0011124E9550C
:103FB000FE4F4081518162817381848195810E948D
:103FC000B11C8091A50190E001968770992780939C
:103FD000A501D9CF0E94781C1092A6011092A501CC
:103FE000E7EDF1E086E0DF011D928A95E9F7CACF9F
:103FF0002C960FB6F894DEBF0FBECDBFDF91CF91E8
:104000001F910895EF92FF920F931F93CF93DF9329
:104010009C01009709F471C0F12CEE24E394E901AE
:104020002196F9018491843740F4843008F056C019
:10403000813081F0823021F160C0853709F449C0B8
:10404000C0F19CE7980F903708F057C08F770E9417
:10405000531946C089010E5F1F4FFE01849190E203
:10406000980F983050F48770FE2D01C0FF0F8A958D
:10407000EAF78F2F0E94762215C00E943B1814C0C9
:1040800089010E5F1F4FFE01849190E2980F9830D6
:1040900068F48770FE2D01C0FF0F8A95EAF78F2F15
:1040A0000E947C220E949F22E8011AC00E9453199C
:1040B000FBCF2E5F3F4FFE01C491CC2341F08FE92F
:1040C0009FE00197F1F700C00000C150F6CFE90171
:1040D00007C0FE01F490E901229602C00E943B183D
:1040E0008F2D882341F0EFE9FFE03197F1F700C011
:1040F00000008150F6CF9E0192CFDF91CF911F91AA
:104100000F91FF90EF90089508950C9484200E94E1
:10411000852060931302709314028093150290938C
:1041200016020C94621C08950C9487200F931F9321
:104130000091130210911402209115023091160281
:10414000602B712B822B932B1F910F910C94872046
:104150000F931F93009113021091140220911502E6
:104160003091160260237123822393231F910F91B4
:104170000C9487200F931F93009113021091140247
:10418000209115023091160260277127822793270C
:104190001F910F910C9487200C944A060E94CC200A
:1041A00060930F0270931002809311029093120299
:1041B0000C94621C60E070E0CB010C94CE2041E0D6
:1041C00050E060E070E004C0440F551F661F771F89
:1041D0008A95D2F7CB01BA010C94CE2041E050E091
:1041E00060E070E004C0440F551F661F771F8A957A
:1041F000D2F780910F0290911002A0911102B0911C
:104200001202482B592B6A2B7B2BCB01BA010C9441
:10421000CE2041E050E060E070E004C0440F551F44
:10422000661F771F8A95D2F74095509560957095D7
:1042300080910F0290911002A0911102B091120290
:10424000482359236A237B23CB01BA010C94CE2047
:1042500041E050E060E070E004C0440F551F661F6D
:10426000771F8A95D2F780910F0290911002A0914A
:104270001102B0911202482759276A277B27CB01E8
:10428000BA010C94CE200F931F9300910F0210914E
:1042900010022091110230911202602B712B822B9F
:1042A000932B1F910F910C94CE200F931F9300918D
:1042B0000F0210911002209111023091120260231E
:1042C0007123822393231F910F910C94CE200F937F
:1042D0001F9300910F021091100220911102309152
:1042E000120260277127822793271F910F910C9448
:1042F000CE2008952FE0929F800D1124482F4695DF
:10430000469546958770B1E001C0BB0F8A95EAF7E4
:1043100085E0489FA001112443525E4F80E090E069
:1043200070E0FA01E80FF91FA0819B01082E02C07E
:10433000369527950A94E2F72170332721952A278D
:104340002B232A27208301968530910551F7089564
:104350002FE0929F800D1124682F669566956695D3
:10436000982F977085E0689FB001112463527E4FAB
:1043700040E050E080E0FB01E40FF51F208130E0D9
:10438000092E02C0369527950A94E2F7217033274B
:10439000042E01C0220F0A94EAF7822B4F5F5F4F71
:1043A0004530510541F70895CF92DF92EF92FF9289
:1043B0000F931F93CF93DF93EC01C0901302D09023
:1043C0001402E0901502F090160280910F02909175
:1043D0001002A0911102B0911202C82AD92AEA2A29
:1043E000FB2A0FE110E0B701A601002E04C076956C
:1043F0006795579547950A94D2F740FD05C001503F
:10440000110988F780E007C0BE01802F0E944D0A85
:104410000197A9F3802FDF91CF911F910F91FF900A
:10442000EF90DF90CF900895CF93DF93EC010E943F
:10443000D421BE010E944D0ADF91CF9108951F93B0
:10444000CF93DF93EB019091A401992321F0CB014D
:104450000E94142213C0882349F0CB010E94D4216A
:10446000182F682FCE010E947A2104C0CB010E9430
:10447000A821182FBE01812F0E944D0ADF91CF91F4
:104480001F910895809117028595859585950895CA
:10449000809117028770089590911702977081E0BC
:1044A00009F480E0089580913B02089590913B02C9
:1044B000982B90933B020895809590913B0298230E
:1044C00090933B02089510923B02089590913A0216
:1044D000982B90933A020895809590913A029823F0
:1044E00090933A02089510923A02089590913902F9
:1044F000982B9093390208958095909139029823D2
:10450000909339020895109239020895809118020B
:10451000089508950C94892290911802981721F01B
:10452000809318020C948A2208958091180288239F
:1045300029F01092180280E00C948A220895E091EC
:104540001101F091120180913B028083E0911101F1
:10455000F0911201808190913A02892B8083E09141
:104560001101F0911201808190913902892B808391
:1045700090911802992381F0E0911101F0911201BC
:104580008081892B808380911101909112010E947A
:104590000C2481110E9495228091110190911201A9
:1045A0000C947E1608950C94D22298E0899F900175
:1045B0001124622B609317020E94EE208091170253
:1045C0008595859585950C94D3221092170280E0ED
:1045D0000C94D32240911702809584238093170274
:1045E000982F977079F450E0282F332727FD3095C6
:1045F0004217530739F08595859585950E940921C5
:104600000C94E522089590936701809366010895C4
:10461000CF92DF92EF92FF920F931F936C01EE24E3
:10462000FF24C114D104E104F10421F46B017C01E5
:1046300080E001C080E133272F2D1E2D0D2D0115A7
:1046400011052105310519F0885F6801790197018D
:104650008601A4E03695279517950795AA95D1F779
:10466000011511052105310519F08C5F68017901EB
:1046700097018601F2E03695279517950795FA95EB
:10468000D1F7011511052105310519F08E5F68017B
:104690007901B701A6017695679557954795452B02
:1046A000462B472B09F08F5F1F910F91FF90EF90E2
:1046B000DF90CF9008958295982F9C7C9695969543
:1046C000837344E0849F90011124922B892F8A7A6E
:1046D00086959575990F892B08951F93CF93DF9336
:1046E0001F92CDB7DEB799830E945B23182F998163
:1046F000892F0E945B23212F30E0322F2227A9012E
:10470000482BCA010F90DF91CF911F91089580E04F
:1047100090E00E94612F21E08D3E9E4F09F020E045
:10472000822F089582E090E00C94532F83E090E074
:104730000C94532F84E090E00C94532F682F84E066
:1047400090E00C94672F86E090E00C94532F682F34
:1047500086E090E00C94672FAB01BC018FE090E005
:104760000C94792FAB01BC0183E190E00C94792F7C
:1047700060E070E0CB010C94B22360E070E0CB010C
:104780000E94AC230C94B8236DEE7EEF80E090E0A5
:104790000E94852F60E082E090E00E94672F60E039
:1047A00083E090E00E94672F10921302109214028F
:1047B000109215021092160260E084E090E00E94D0
:1047C000672F60E085E090E00E94672F60E086E060
:1047D00090E00E94672F6FEF87E090E00E94672FC4
:1047E00040E050E0BA0188E090E00E94792F60E05C
:1047F0008DE090E00E94672F40E050E0BA0188E130
:1048000090E00E94792F60E087E190E00E94672F9E
:104810000C94BD230C94C423029620911D012111F8
:1048200002C026E005C020919D0227FFFACF2EE1AD
:10483000FC0180E0215028F091919923D9F38F5FFA
:10484000F9CF089520E030E04FEFFC01E20FF31FB5
:104850005281561799F04F3F19F4511101C0422F60
:104860002F5F3F4F2630310581F74F3F39F0FC0174
:10487000E40FF11D47FDFA9562830895089520E045
:1048800030E0FC01E20FF31F4281461301C01282A7
:104890002F5F3F4F26303105A1F70895262F26952B
:1048A000269526952E3178F4FC01E20FF11D6770F4
:1048B00021E030E0062E01C0220F0A94EAF782813F
:1048C000822B8283089580913C0280FF0CC01F924E
:1048D0006F938EE398E09F938F930E9421060F9031
:1048E0000F900F900F900895262F269526952695C8
:1048F0002E3180F4FC01E20FF11D677021E030E001
:10490000062E01C0220F0A94EAF7209582812823FF
:104910002283089580913C0280FF0CC01F926F9308
:1049200080E298E09F938F930E9421060F900F9052
:104930000F900F90089520911D01222329F02091BE
:104940009D0227FD0C944E240C94222420911D01DD
:10495000222329F020919D0227FD0C9474240C94AD
:104960003F2420911D01FC013296222331F08091D9
:104970009D0287FF02C08EE101C086E0DF011D922B
:104980008A95E9F7089508950C94C3240E94C424DD
:104990008091A402843049F110923D0220E488E124
:1049A00090E00FB6F894A895809360000FBE209316
:1049B000600080E00E946D0780E00E94E4070E9492
:1049C000C42483B7817F846083BF83B7816083BF42
:1049D0007894889583B78E7F83BF88E10FB6F8946B
:1049E00080936000109260000FBE089508950895AE
:1049F000CF930E94F6240E94780D0E94F724C0E015
:104A00008C2F0E94DE0C892B29F4CF5FC530C1F7B3
:104A100080E001C081E0CF91089508950C940D25A8
:104A20000E94781C0E94E5250E9472160E94E407ED
:104A30000C940E251F920F920FB60F9211248F9394
:104A40009F93AF93BF9380913D02811113C08091DA
:104A5000990290919A02A0919B02B0919C0241967A
:104A6000A11DB11D8093990290939A02A0939B027D
:104A7000B0939C02BF91AF919F918F910F900FBE09
:104A80000F901F90189582E084BD93E095BD9AEF3A
:104A900097BD80936E0008952FB7F8948091990286
:104AA00090919A02A0919B02B0919C022FBF089511
:104AB000CF92DF92EF92FF920F931F932FB7F8944C
:104AC0004091990250919A0260919B0270919C02D0
:104AD0002FBF6A017B01EE24FF248C0120E030E02F
:104AE000C016D106E206F30610F441505109481BE6
:104AF000590BCA011F910F91FF90EF90DF90CF905B
:104B0000089578941F920F920FB60F9211248F93ED
:104B10009F93AF93BF938091990290919A02A09135
:104B20009B02B0919C020196A11DB11D8093990238
:104B300090939A02A0939B02B0939C02BF91AF9175
:104B40009F918F910F900FBE0F901F90189581E04D
:104B50008093E00080E28093D8001092C9008FE13A
:104B60009EE40197F1F700C0000087E090EBDC01C4
:104B70008093AD029093AE02A093AF02B093B002C7
:104B80002CE088E190E00FB6F894A895809360003F
:104B90000FBE20936000FFCF0E948723811102C0C7
:104BA0000E940A240E94922380933C020E949A232E
:104BB00090E090939E0280939D020E949623682F1E
:104BC00070E080E090E00C9494200E948723811193
:104BD00002C00E940A240E94A32380939F02282FD0
:104BE000269530E02630310524F081708A6080936C
:104BF0009F0280919F0280FF02C0869501C080E0E5
:104C00000C946D0720919F02322F3695832F90E0F0
:104C1000059744F491E0930F990F822F8170892BAF
:104C200080939F0280919F02816080939F020E94E7
:104C3000A72380913C0280FF0FC080919F02869540
:104C40001F928F9383EC98E09F938F930E9421068D
:104C50000F900F900F900F9080919F0286950C946B
:104C60006D0780919F02982F969591F09158990F1A
:104C70008170892B80939F028E7F91E009F490E0F0
:104C800080919F0290FB80F980939F020E94A7234E
:104C900080913C0280FF0FC080919F0286951F92F9
:104CA0008F938BEA98E09F938F930E9421060F9039
:104CB0000F900F900F9080919F0286950C946D0736
:104CC00080919F0280FD1DC0816080939F02813092
:104CD00019F483E080939F0280919F020E94A72392
:104CE00080913C0280FF08C083E898E09F938F93F7
:104CF0000E9421060F900F9080919F0286950C9440
:104D00006D07089580919F0280FF14C08E7F80936D
:104D10009F020E94A72380913C0280FF08C080E789
:104D200098E09F938F930E9421060F900F9080E050
:104D30000C946D070895CF93C0919F02C17080912C
:104D40003C0280FF0CC01F92CF9385E998E09F93AF
:104D50008F930E9421060F900F900F900F90CC23FD
:104D600019F0CF910C948226CF910C94602630914B
:104D70009F02232F26952F5F2F77822F90E031708F
:104D800006972CF4220F232B20939F0202C030930E
:104D90009F0280919F028E7F91E009F490E08091C4
:104DA0009F0290FB80F980939F020E94A72380912D
:104DB0003C0280FF0FC080919F0286951F928F93C7
:104DC0008CE598E09F938F930E9421060F900F909F
:104DD0000F900F9080919F0286950C946D078630FE
:104DE00008F085E0880F90919F029170982B909326
:104DF0009F029E7F21E009F420E080919F0220FB2A
:104E000080F980939F020E94A72380919F0286953C
:104E10000C946D0780916102089508959FB7F894EE
:104E2000109240029FBF9091A402943009F058C0A4
:104E30009091E9009F702091EC0020FF02C020E8D3
:104E400001C020E0292B93E09093E9009091EB00C2
:104E500090FF43C09091EE0097FF3FC090913E02BB
:104E6000992321F09091E80095FF37C010923E02FF
:104E700096E03091E80035FD15C03091A402343041
:104E800061F53091EB0035FD28C0915021F481E0AF
:104E900080933E0222C0EFE9FFE03197F1F700C0B6
:104EA0000000E7CF8093F1008091E80085FD0AC003
:104EB0008091E80080FFFCCF8091E8008E7780939E
:104EC000E80006C08FB7F89491E0909340028FBF3E
:104ED0002F702093E90080E008952F702093E9005F
:104EE0008FEF08950F931F93CF93DF9300D01F92FE
:104EF000CDB7DEB78C010E94152A823011F08430C4
:104F000021F584E089831B830A8382E08093E90092
:104F10008FEF9091E800815095FD06C095ED9A9530
:104F2000F1F700008111F5CF8091E80085FF0DC0F9
:104F300040E050E063E070E0CE0101960E94322A2A
:104F40008091E8008E778093E8000F900F900F908B
:104F5000DF91CF911F910F910895CF93DF9300D0F0
:104F60001F92CDB7DEB72091A402243031F523E0A3
:104F70002983805891099B838A8382E08093E9008A
:104F80008FEF9091E800815095FD06C095ED9A95C0
:104F9000F1F700008111F5CF8091E80085FF0DC089
:104FA00040E050E063E070E0CE0101960E94322ABA
:104FB0008091E8008E778093E8000F900F900F901B
:104FC000DF91CF910895CF93DF93EC010E94152AD2
:104FD000823011F08430D9F580911D01811103C018
:104FE00068E081E006C080919D0287FFF9CF60E212
:104FF00082E08093E9008FEF9091E800815095FD69
:1050000006C095ED9A95F1F700008111F5CF8091DA
:10501000E80085FF1CC080911D01811105C040E0A2
:1050200050E068E070E003C070E040E050E0CE0186
:105030000E94322A8091E8008E778093E80080E217
:10504000FE01A1E4B2E001900D928A95E1F7DF91B3
:10505000CF91089580E099E00E9488058091A30295
:10506000811109C00E94C42B0E94212C8091E20072
:1050700084608093E20008958CEF98E00E94880598
:105080001092A302089588EF98E00C94880584EFAD
:1050900098E00C94880580EF98E00E9488050C94B5
:1050A000102580913F028F5F80933F0262E30E9450
:1050B000DF2E911135C010923F028091400288236B
:1050C00079F18091A402843049F58091E9008F70D4
:1050D0009091EC0090FF02C090E801C090E0982B06
:1050E00083E08093E9008091EB0080FF14C0809101
:1050F000EE0087FF10C08091E80085FF03C010928A
:10510000F100F9CF8091E80080FF05C08091E800B0
:105110008E778093E8009F709093E9001092400290
:10512000089542E061EC81E00E943E2B42E261EC96
:1051300082E00E943E2B42E261EC83E00C943E2B25
:105140008091A602833009F460C030F4813071F0A0
:10515000823009F499C008958A3009F485C08B30F3
:1051600009F46BC0893009F0A7C020C08091A50266
:10517000813A09F0A1C08091E800877F8093E80020
:105180008091A9029091AA02892B21F060E080E031
:1051900090E003C060E281E492E070E00E947B2A2C
:1051A0008091E8008B778093E80008958091A502B4
:1051B000813209F081C08091A9029091AA020297E0
:1051C00008F07AC08091E800877F8093E8008091A2
:1051D000E80082FD05C08091A4028111F8CF6CC067
:1051E0002091F3008091F20090E0922B029729F435
:1051F0008091F1008B7F813021F48091F1008093C8
:1052000061028091E8008B7753C08091A502813ABA
:1052100009F052C08091A9029091AA02892B09F04D
:105220004BC08091E800877F8093E8008091E80080
:1052300080FFFCCF80911D0136C08091A502813294
:10524000D9F58091A9029091AA02892BA9F58091A4
:10525000E800877F8093E8000E94732B8091A7026B
:1052600080931D010C94781C8091A502813221F558
:105270008091E800877F8093E8000E94732B8091E3
:10528000A8028093620208958091A502813AA1F458
:105290008091E800877F8093E8008091E80080FF9C
:1052A000FCCF809162028093F1008091E8008E77BC
:1052B0008093E8000C94732B089584B7877F84BF94
:1052C00088E10FB6F89480936000109260000FBEE2
:1052D00080E880936100109261000E940A170E948A
:1052E000C42B0E94212C8091E20084608093E20014
:1052F0008EE097E20E94032378940E94A32E0E94DE
:10530000121783E191E00E946D168FED98E00E94E4
:1053100088058091A402853089F48BED98E00E9485
:1053200088050E94C6248091A202882391F30E94DE
:10533000F824882371F30E941C2AEBCF0E944B179C
:105340000E94F214E6CF0C94A529292F332723308D
:105350003105A9F06CF42130310509F448C0223040
:10536000310509F049C08BE590E02CE239E048C0F6
:1053700021323105F9F02232310549F13DC099273A
:105380008130910571F02CF4892BB1F5E8E2F9E058
:105390000DC08230910541F0039771F5E4E0F9E02A
:1053A00005C0E6E1F9E002C0EAE0F9E0849190E0AE
:1053B0009F0126C063307105F8F4FB01EE0FFF1F5B
:1053C000E05AFE4F2081318189E090E019C06330BE
:1053D000710590F4FB01EE0FFF1FE65AFE4F20818E
:1053E0003181FB01E95AFE4F808190E009C082E1E2
:1053F00090E027E839E004C080E090E020E030E071
:10540000FA013183208308950895CF93C82F0E9415
:10541000042AC0936302CF9108958091A40284303E
:1054200011F482E0089581E0089580916302811172
:1054300002C00C940D2A089580E189BD82E189BDE6
:1054400009B400FEFDCF8091D8008F7D8093D800F5
:105450008091E00082608093E0008091E00081FD17
:10546000FCCF0895CF92DF92EF92FF920F931F939C
:10547000CF93DF937C018B01EA010E94942B811171
:1054800031C0209731F088819981081B190BE80EF3
:10549000F91EC12CD12C0115110519F18091E800DC
:1054A00085FD14C08091E8008E778093E8002097F6
:1054B00041F0888199818C0D9D1D9983888385E0B9
:1054C00011C00E94942B882331F30CC0F701819105
:1054D0007F018093F10001501109FFEFCF1ADF0A1D
:1054E000DACF80E0DF91CF911F910F91FF90EF9085
:1054F000DF90CF9008952091AB023091AC02261737
:10550000370748F06115710539F42091E8002E77CE
:105510002093E80001C0B901FC0120E0611571058C
:10552000B9F18091A402882309F440C0853009F4C0
:105530003FC08091E80083FD3DC08091E80082FF7C
:1055400006C08091E80082FF26C080E00895809127
:10555000E80080FFE3CF2091F3008091F20090E01B
:10556000922B6115710551F08830910538F4219125
:105570002093F100615071090196F3CF21E0089763
:1055800009F020E08091E8008E778093E800C6CF94
:105590002111C7CFD6CF8091A402882339F085305E
:1055A00039F08091E80083FFCCCF04C082E00895F9
:1055B00083E0089581E008952091AB023091AC0220
:1055C0002617370748F06115710539F42091E80076
:1055D0002E772093E80001C0B901FC0120E061159D
:1055E0007105C1F18091A402882309F441C085307E
:1055F00009F440C08091E80083FD3EC08091E8003E
:1056000082FF06C08091E80082FF27C080E00895F5
:105610008091E80080FFE3CF2091F3008091F200B9
:1056200090E0922B6115710559F08830910540F496
:1056300024912093F1003196615071090196F2CFC7
:1056400021E0089709F020E08091E8008E778093B0
:10565000E800C5CF2111C6CFD5CF8091A402882301
:1056600039F0853039F08091E80083FFCBCF04C05A
:1056700082E0089583E0089581E00895982F97309F
:1056800058F59093E900981739F07091EC0020914B
:10569000ED005091F00003C0242F762F50E021FF41
:1056A00019C03091EB003E7F3093EB003091ED005C
:1056B0003D7F3093ED003091EB0031603093EB0093
:1056C0007093EC002093ED005093F0002091EE00D9
:1056D00027FF07C09F5FD3CF8F708093E90081E0E1
:1056E000089580E008958091A50287FD05C080910E
:1056F000E80080FF0EC012C08091E80082FD05C066
:105700008091A4028111F8CF08958091E8008B77F1
:1057100008C08091A4028111EACF08958091E80029
:105720008E778093E80008958091E4009091E500E1
:1057300045E62091EC0020FF21C02091E80020FDEB
:1057400021C02091A402222389F0253089F02091E4
:10575000EB0025FD0FC02091E4003091E5002817F3
:10576000390739F3415041F0C901E3CF82E0089590
:1057700083E0089581E0089584E008952091E80091
:1057800022FFDFCF80E008950E94322C0E943A2C45
:10579000E0EEF0E0808181608083E8EDF0E08081E0
:1057A0008F77808319BCA7EDB0E08C918E7F8C93AE
:1057B00080818F7E80831092A30208950F931F93A0
:1057C000CF93DF930E94322C0E943A2CC8EDD0E098
:1057D00088818F77888388818068888388818F7D9E
:1057E000888319BC1092A4021092A0021092A20207
:1057F0001092A10200EE10E0F80180818B7F80837F
:1058000088818160888342E060E080E00E943E2BD6
:10581000E1EEF0E080818E7F8083E2EEF0E0808137
:1058200081608083808188608083F80180818E7FA1
:105830008083888180618883DF91CF911F910F9150
:105840000895E8EDF0E080818F7E8083E7EDF0E061
:1058500080818160808384E082BF81E08093A302A5
:105860000C94DE2BE8EDF0E080818E7F8083109237
:10587000E20008951092DA001092E10008951F925C
:105880000F920FB60F9211242F933F934F935F9374
:105890006F937F938F939F93AF93BF93EF93FF93F8
:1058A0008091E10082FF0BC08091E20082FF07C07F
:1058B0008091E1008B7F8093E1000E9451288091CC
:1058C000DA0080FF1FC08091D80080FF1BC080914C
:1058D000DA008E7F8093DA008091D90080FF0DC0BE
:1058E00080E189BD82E189BD09B400FEFDCF81E080
:1058F0008093A4020E942A2805C019BC1092A40219
:105900000E943C288091E10080FF19C08091E20054
:1059100080FF15C08091E2008E7F8093E20080912D
:10592000E20080618093E2008091D80080628093E1
:10593000D80019BC85E08093A4020E94472880917A
:10594000E10084FF30C08091E20084FF2CC080E140
:1059500089BD82E189BD09B400FEFDCF8091D800E8
:105960008F7D8093D8008091E1008F7E8093E1004D
:105970008091E2008F7E8093E2008091E20081605E
:105980008093E2008091A002882311F084E007C098
:105990008091E30087FF02C083E001C081E0809333
:1059A000A4020E944B288091E10083FF29C08091CE
:1059B000E20083FF25C08091E100877F8093E100B2
:1059C00082E08093A4021092A0028091E1008E7F79
:1059D0008093E1008091E2008E7F8093E2008091CD
:1059E000E20080618093E20042E060E080E00E949B
:1059F0003E2B8091F00088608093F0000E94432845
:105A0000FF91EF91BF91AF919F918F917F916F9196
:105A10005F914F913F912F910F900FBE0F901F906C
:105A200018951F920F920FB60F9211242F933F9348
:105A30004F935F936F937F938F939F93AF93BF9396
:105A4000CF93EF93FF93C091E900CF708091EC006A
:105A50001092E9008091F000877F8093F0007894A5
:105A60000E944D2D1092E9008091F0008860809393
:105A7000F000C093E900FF91EF91CF91BF91AF91FA
:105A80009F918F917F916F915F914F913F912F9156
:105A90000F900FBE0F901F9018951F93CF93DF9319
:105AA000CDB7DEB7AA970FB6F894DEBF0FBECDBF55
:105AB000E5EAF2E08091F100819322E0ED3AF2070D
:105AC000C9F70E94A0288091E80083FF24C120919B
:105AD000A5023091A602832F90E08A30910508F04C
