:100000000C9483050C94C7050C94C7050C94C70584
:100010000C94C7050C94C7050C94C7050C94C70530
:100020000C94C7050C94C7050C94B52F0C9487301D
:100030000C94CA250C94C7050C94C7050C94C705ED
:100040000C94C7050C94C7050C94C7050C94C70500
:100050000C94C7050C9431260C94C7050C94C70565
:100060000C94C7050C94C7050C94C7050C94C705E0
:100070000C94C7050C94C7050C94C7050C94C705D0
:100080000C94C7050C94C7050C94C7050C94C705C0
:100090000C94C7050C94C7050C94C7050C94C705B0
:1000A0000C94C7050C94C7050C94C705B808BE0886
:1000B000C208C508C908CD08D108D508DA08DE0885
:1000C000E208E608E908ED08F108F508F908FE0875
:1000D000761A761AB01AB01AF31A131BA41CA41CB1
:1000E000591BA41CF81BF81B6F1C771CA41C9E1C1E
:1000F000051C051C051C051C051C051C051C051CF8
:10010000051C051C051C051C051C051C051C051CE7
:10011000171C271C2E1C351C3F1C381D381D4B1D61
:100120004B1D411D4B1D4B1D4B1D381D381D471DC3
:100130004B1D4B1D471DEC30133101321331013281
:100140005B317E310132D431E33129001E001F00C2
:100150002000210022002300240025002600270083
:100160002D002E0000002A002B00000014001A00B1
:100170000800150017001C0018000C0012001300E6
:100180002F00300031003900000004001600070085
:1001900009000A000B000D000E000F0033003400B0
:1001A00028000000E10000001D001B0006001900EF
:1001B000050011001000360037000000E500520075
:1001C0003800E000E3000000E200000000002C0026
:1001D000000000000000F45C0151500051004F008D
:1001E00035003A003B003C003D003E003F0040002F
:1001F0004100420043004400450000004C00010063
:1002000000000100010001000100010001000100E7
:1002100001000100010001000100005C010000007C
:1002200001000100010001000100010001000100C6
:1002300001000100010001000000010000000100B8
:1002400001000100010001000100010001000100A6
:100250000000010001000100010001000000010098
:10026000000000000100000000000000010001008B
:1002700001000100010044454255473A206469737A
:1002800061626C65642E0A0044454255473A206518
:100290006E61626C65642E0A000A00253031366298
:1002A000003A200025303258000A722F6320303186
:1002B00032333435363738394142434445460A00F3
:1002C0007267626C696768742074696D6572206416
:1002D000697361626C652E0A007267626C69676897
:1002E000742074696D657220656E61626C65642E40
:1002F0000A007267626C69676874207365742068AD
:100300007376205B4E4F454550524F4D5D3A202548
:10031000752C25752C25750A007267626C696768F3
:10032000742073657420687376205B454550524F86
:100330004D5D3A2025752C25752C25750A007267B0
:10034000626C69676874207261696E626F7720738E
:100350006574206873763A2025642C25642C256406
:100360002C25750A007267626C696768742064697D
:100370007361626C65205B454550524F4D5D3A207C
:100380007267626C696768745F636F6E6669672E17
:10039000656E61626C65203D2025750A007267629A
:1003A0006C6967687420656E61626C65205B4E4F96
:1003B000454550524F4D5D3A207267626C696768DF
:1003C000745F636F6E6669672E656E61626C65202F
:1003D0003D2025750A007267626C69676874206544
:1003E0006E61626C65205B454550524F4D5D3A2011
:1003F0007267626C696768745F636F6E6669672EA7
:10040000656E61626C65203D2025750A0072676229
:100410006C6967687420746F67676C65205B45451D
:1004200050524F4D5D3A207267626C696768745F25
:10043000636F6E6669672E656E61626C65203D2034
:1004400025750A007267626C69676874206D6F6455
:1004500065205B4E4F454550524F4D5D3A20257506
:100460000A007267626C69676874206D6F6465204A
:100470005B454550524F4D5D3A2025750A00726725
:10048000626C696768745F696E6974207267626C18
:10049000696768745F636F6E6669672E6D6F646508
:1004A000203D20302E205772697465206465666196
:1004B000756C742076616C75657320746F2045458A
:1004C00050524F4D2E0A007267626C696768745F04
:1004D000696E6974206565636F6E6669672069730C
:1004E000206E6F7420656E61626C65642E0A007206
:1004F00067626C696768745F696E697420737461A0
:100500007274210A007267626C696768745F696E51
:1005100069742063616C6C65642E0A007267626C9A
:10052000696768745F636F6E6669672E737065656F
:1005300064203D2025640A007267626C69676874F4
:100540005F636F6E6669672E76616C203D2025645F
:100550000A007267626C696768745F636F6E6669D0
:10056000672E736174203D2025640A007267626CF7
:10057000696768745F636F6E6669672E687565206A
:100580003D2025640A007267686C696768745F6360
:100590006F6E6669672E6D6F6465203D2025640A65
:1005A000007267626C696768745F636F6E66696723
:1005B0002E656E61626C65203D2025640A007267BD
:1005C000626C696768745F636F6E666967206570E7
:1005D000726F6D0A0000047F3F1F6432146432148E
:1005E000783C1E1E140A052223252628292A2C2D94
:1005F0002F3032333536383A3B3D3E404243454753
:10060000494A4C4E5051535557595A5C5E6062648A
:100610006668696B6D6F71737577797B7D7F818398
:100620008587898A8C8E90929496989A9C9E9FA199
:10063000A3A5A7A8AAACAEAFB1B3B4B6B8B9BBBCBA
:10064000BEBFC1C2C3C5C6C7C9CACBCCCDCED0D12F
:10065000D2D2D3D4D5D6D7D7D8D9D9DADADBDBDB27
:10066000DCDCDCDCDCDDDDDDDDDCDCDCDCDCDBDBC8
:10067000DBDADAD9D9D8D7D7D6D5D4D3D2D2D1D01C
:10068000CECDCCCBCAC9C7C6C5C3C2C1BFBEBCBB19
:10069000B9B8B6B4B3B1AFAEACAAA8A7A5A3A19F91
:1006A0009E9C9A98969492908E8C8A898785838155
:1006B0007F7D7B79777573716F6D6B696866646236
:1006C000605E5C5A5957555351504E4C4A49474504
:1006D0004342403E3D3B3A3836353332302F2D2CA5
:1006E0002A292826252322FFAA7F55400000000042
:1006F00000000000000001010101010101010102EF
:1007000002020202020202030303030303030404BE
:100710000404040505050505060606060607070781
:1007200007080808080909090A0A0A0B0B0B0C0C30
:100730000C0D0D0D0E0E0E0F0F10101011111212C8
:1007400013131414151516161717181819191A1A41
:100750001B1C1C1D1D1E1F1F20212122232324259D
:100760002526272828292A2B2C2C2D2E2F303131D5
:1007700032333435363738393A3B3C3D3E3F4041E1
:1007800042434445464748494B4C4D4E4F505253C7
:1007900054555758595A5C5D5E606163646567687B
:1007A0006A6B6C6E6F7172747677797A7C7D7F81FB
:1007B00082848687898B8D8E9092949597999B9D44
:1007C0009FA1A2A4A6A8AAACAEB0B2B4B6B9BBBD54
:1007D000BFC1C3C5C8CACCCED0D3D5D7DADCDEE121
:1007E000E3E6E8EAEDEFF2F4F7F9FCFF0A00253062
:1007F000325820006B6579626F6172645F72657058
:100800006F72743A20000A0025303258006B657907
:10081000626F6172645F7365745F6C65643A200037
:1008200064656C5F6B65795F6269743A2063616EC1
:1008300027742064656C3A20253032580A006164C0
:10084000645F6B65795F6269743A2063616E2774D7
:10085000206164643A20253032580A00290A0025B4
:1008600075002F002575005D2800256400200025F7
:100870006400200025640020002564007C002530F1
:100880003258006D6F7573656B6579205B62746EAD
:100890007C782079207620685D287265702F6163EE
:1008A0006C293A205B006261636B6C696768742035
:1008B000737465703A2025750A006261636B6C6918
:1008C0006768742064697361626C650A00626163C1
:1008D0006B6C6967687420656E61626C650A0062A2
:1008E00061636B6C6967687420746F67676C653AE5
:1008F0002025750A006261636B6C69676874206407
:10090000656372656173653A2025750A00626163EB
:100910006B6C6967687420696E6372656173653AB0
:100920002025750A005B735D004B6579626F61720B
:10093000642073746172742E0A005B575D005B5310
:100940005D005B525D005B445D005B435D00040342
:10095000300000000A0344005A0036003000000056
:1009600010034B0042004400460061006E0073001B
:1009700000000403090409025B00030100A0FA0956
:1009800004000001030101000921110100012240BE
:10099000000705810308000A0904010001030000A3
:1009A0000009211101000122C00007058203200077
:1009B0000A090402000203000000092111010001DC
:1009C00022220007058303200001070503032000FE
:1009D000011201100100000008EDFE60220100017B
:1009E0000203010631FF0974A1010975150026FFF4
:1009F000009520750881020976150026FF009520D4
:100A000075089102C005010902A10185020901A131
:100A100000050919012905150025019505750181B4
:100A20000295017503810105010930093115812500
:100A30007F95027508810609381581257F95017516
:100A4000088106050C0A38021581257F9501750875
:100A50008106C0C005010980A10185031601002699
:100A600003001A81002A8300751095018100C005DA
:100A70000C0901A1018504160100269C021A01003F
:100A80002A9C02751095018100C005010906A1018B
:100A90008505050719E029E7150025019508750169
:100AA0008102050819012905950575019102950135
:100AB000750391010507190029EF1500250195F02F
:100AC00075018102C005010906A101050719E02988
:100AD000E7150025019508750181029501750881CA
:100AE0000105081901290595057501910295017502
:100AF0000391010507190029FF150026FF0095063F
:100B000075088100C00011241FBECFEFDAE0DEBF00
:100B1000CDBF04B603FE24C08091BF029091C002F5
:100B2000A091C102B091C2028730904BA740B04B58
:100B3000B9F41092BF021092C0021092C10210923A
:100B4000C20214BE84B7877F84BF88E10FB6F894D1
:100B500080936000109260000FBEE0E0F8E309951A
:100B600011E0A0E0B1E0E6E2F6E602C005900D92E9
:100B7000AC36B107D9F712E0ACE6B1E001C01D9286
:100B8000AF3BB107E1F70E94D32C0C9411330C94C6
:100B90000000FF93EF93E0916C01F0916D013097AD
:100BA00009F00995EF91FF910895FC01859180303E
:100BB00011F0EFDFFBCF0895FF27E0E230E247FFBF
:100BC0000CC0419597FF09C0EDE260957095809546
:100BD0009095611D711D811D911D27FF02C02195FA
:100BE00030E350E2AA27660F771F881F991FAA1FBC
:100BF000A41710F0A41B63955A95A9F7AA3008F022
:100C0000A95FA05DAF93F39561157105810591050D
:100C100041F7ED3211F4EF93F395F21718F43F9387
:100C2000F395FBCF8F91B5DFFA95E1F70895E99140
:100C3000F9918591803021F0853219F0AADFF9CF42
:100C4000089520E0E89455915532C1F3503311F4E2
:100C5000689455915A3348F4505390F3220F022E62
:100C6000220F220F200D250FF4CF0EF4219589912C
:100C70009991533619F3533729F1533559F1BC0182
:100C800088279927E8945C3621F489919991689492
:100C90005591543639F446EF7EF077FF0DC08FEF53
:100CA0009FEF0AC055374AE039F0583540E121F04E
:100CB000523642E009F00895FF93EF937DDFEF9104
:100CC000FF91B7CFFF93EF93FC0181918030B9F38F
:100CD00060DFFBCFFF93EF9368DFF1CFDF93CF931C
:100CE000CDB7DEB72596A3DFCF91DF9108950C94A1
:100CF000B306229A2A9A08950E94AC060C947906AB
:100D000081FF02C02A9801C02A9A0C942908843FC6
:100D10009C4521F480E491E00E945A0781E0089507
:100D2000CF92DF92EF92FF926B017C010E94B82379
:100D3000882331F0813049F444ED6FEF8FEF03C029
:100D40004EEB6FEF81E10E942212C701B601FF90C6
:100D5000EF90DF90CF9008950E94FC2590936F0153
:100D600080936E010895809100018823A1F0809105
:100D70006E0190916F010E9408260B9760F010920F
:100D800000014EEB6FEF81E10E94221281E00E9490
:100D900074140C94DD1408950F931F93CF93DF9375
:100DA0008C01EB019A9581159F4138F510FF03C026
:100DB00080EEFB01099511FF03C081EEFE0109954C
:100DC00012FF03C082EEFE01099513FF03C083EEFC
:100DD000FE0109950115104180F084EEFE01099590
:100DE00085EEFE01099586EEFE01099587EEFE016E
:100DF000DF91CF911F910F910994DF91CF911F91B6
:100E00000F910895877091E001C0990F8A95EAF7D4
:100E1000892F0E9416230C944F23877091E001C004
:100E2000990F8A95EAF7892F0E9416230C944F2375
:100E3000877091E001C0990F8A95EAF7892F0E9487
:100E40001C230C944F23877091E001C0990F8A9561
:100E5000EAF7892F0E941C230C944F23CF93DF9332
:100E6000EC01805E9109089710F0209719F46DE06D
:100E700077E002C062E077E0CE010E94CC068C2FC2
:100E8000DF91CF910C948C18CF93DF93EC010E94EB
:100E9000AA19CE01805E9109089710F0209719F4E5
:100EA00063E277E002C068E177E0CE01DF91CF91A5
:100EB0000C94CC06CF93DF93EC010E942E07CE0159
:100EC000DF91CF910C94440781E008950C9487063C
:100ED0001F93CF93DF9300D000D01F92CDB7DEB722
:100EE00049835A832091AA0189819A81211112C0D4
:100EF000662349F00E948422182F682F89819A81E5
:100F00000E942A2203C00E945822182F69817A81E8
:100F1000812F04C00E94842269817A810F900F90F2
:100F20000F900F900F90DF91CF911F910C94790A41
:100F3000FC01408151816281738184810C94680736
:100F40000C947706E82FE295EF70F0E092A18F7095
:100F500021E030E0082E01C0220F0A94EAF7209524
:100F6000922392A30895CF92DF92EF92FF92863060
:100F700030F4811105C0909180009F7D04C085E010
:100F800090918000906290938000282F30E0AFEF26
:100F9000BFEF0E94363225E030E040E050E00E9492
:100FA0008932C9012C3764E1360728F469E070E022
:100FB0000E94613229C0DA01C9018A50974DAF4FB2
:100FC000BF4F6627782F892F9A2F25EF38E241E00F
:100FD00050E00E94893269017A01CA01B9010E9478
:100FE00045329B01AC01C701B6010E944532BB27C7
:100FF000A92F982F872F009721E0A207B10511F0A4
:10100000BC0102C06FEF7FEF70938B0060938A008A
:10101000FF90EF90DF90CF900895269A86E30E948C
:10102000A20782E28093800089E1809381008FEFA4
:101030009FEF90938700809386000C9431290E9443
:101040003724811102C00E94BA240E940D080C941A
:101050007C0608950C94800608950E94281D0E9425
:101060002C082FEF84E39CE0215080409040E1F772
:1010700000C000000C9457260F931F93CF93DF936B
:101080008C010E949807EC01B8010E946607882332
:1010900009F425C2B801CE010E947216882309F412
:1010A0001EC2CA3CFCE5DF0741F4F80182818823B7
:1010B00009F415C20E941F1212C2CB3C8CE5D8075E
:1010C00008F040C1C33C9CE5D90761F4F801828176
:1010D000882309F404C20E9403238272E1F00E9473
:1010E0005414FDC1C43CECE5DE07C0F0C63C9CE5F1
:1010F000D90709F4F8C008F00AC1C43CFCE5DF07D1
:1011000009F0F9C0F8018281882309F4E8C10E943E
:101110000323827221F30E944814E1C1C531FCE52A
:10112000DF0708F0ABC0C2308CE5D80708F478C000
:10113000F8018281882309F47AC00E943724811142
:1011400002C00E94BA240E944A2490E09093B00208
:101150008093AF02FE01E350FC45E231F10520F43B
:10116000EA5AFF4F0C94AB328091AF02816003C00A
:101170008091AF0282608093AF024BC08091AF023A
:101180008460F9CF8091AF0213C08091AF0280617B
:10119000F2CF8091AF028062EECF8091AF02806487
:1011A000EACF8091AF028068E6CF8091AF02846081
:1011B0008860E1CF8091AF028E7FDDCF8091AF025A
:1011C0008D7FD9CF8091AF028B7FD5CF8091AF0239
:1011D00013C08091AF028F7ECECF8091AF028F7D02
:1011E000CACF8091AF028F7BC6CF8091AF028F773D
:1011F000C2CF8091AF028B7F877FBDCF9091AF022E
:1012000097FB882780F921E0822780FB97F990934C
:10121000AF028091AF020E944E240E94281D5FC140
:10122000C1159CE5D90751F0C130DC4579F0C80102
:10123000DF91CF911F910F910C946407F801828187
:10124000882309F44CC10E942D0849C1F80182810C
:10125000882309F444C190914202892F80958170BE
:1012600080FB90F990934202882319F088E892E07D
:1012700002C086E792E00E94D50531C1C631FCE587
:10128000DF0729F50E940323382FF801228180917E
:10129000110190911201222371F03A7A21E009F4B0
:1012A00020E020937001222311F065E301C069E280
:1012B0000E944B2509C020917001222311F065E3A3
:1012C00001C069E20E9456250E944F2308C1C23C1A
:1012D000DC4509F0ACCFF8018281882309F4FFC016
:1012E0000E942115FCC0F8018281882309F4F7C00F
:1012F0000E94DF11F4C0C53CDC4509F098CFF8012D
:101300008281882309F4EBC00E94D111E8C0F80162
:101310008281C83CFCE5DF0731F4882309F4DFC093
:101320000E94FF11DCC0C93CDC4530F4882309F47D
:10133000D6C00E94EF11D3C0882309F4D0C00E9408
:101340000F12CDC0C13DECE5DE0791F4F8018281BA
:10135000882309F4C4C00E9402108F3028F00E9434
:101360000210843108F4D7CE8FE00E945714B7C022
:10137000C23DFCE5DF0708F05AC0CD3C8CE5D8073C
:1013800039F4F8018281882309F4A9C081E0EDCF06
:10139000CE3C9CE5D907C0F4CB3CECE5DE0741F43C
:1013A000F8018281882309F49AC00E940A1097C02C
:1013B000CC3CDC4509F03BCFF8018281882309F45D
:1013C0008EC00E941B108BC0F8018281CF3CFCE5CF
:1013D000DF0771F4882309F482C00E94021086306E
:1013E00028F00E940210883008F495CE86E0BDCF28
:1013F000C03DDC4570F4882309F471C00E940210DE
:10140000823028F00E940210853008F484CE82E0F9
:10141000ACCF882309F463C00E940210893028F001
:101420000E9402108E3008F476CE89E09ECFC53D32
:10143000ECE5DE0739F4F8018281882309F44FC016
:1014400083E293CFC63DFCE5DF0740F5F8018281DA
:10145000C33DFCE5DF0729F4882309F440C088E197
:1014600084CFC43DDC4568F48823C9F10E94021092
:10147000853128F00E940210873108F44CCE85E1B6
:1014800074CF882361F10E940210893128F00E94F4
:101490000210823208F43FCE89E167CFCD3DECE502
:1014A000DE0741F4F80182818823C9F082E00E94BE
:1014B0007B2D15C0CE3DFCE5DF0739F4F8018281B4
:1014C000882369F00E94BA240AC0CC3DDC4509F0AB
:1014D000AECEF8018281882311F080E0E8CF80E071
:1014E000DF91CF911F910F91089580E090E00895D2
:1014F00008959FE0799FF00111249BE4899FE00DFE
:10150000F11D1124E60FF11DEE0FFF1FE65BFE4FEC
:10151000859194910895880F991F87569D4FFC01DE
:10152000859194910895CF93DF930E94790A0E9448
:10153000850CEC01811521E5920708F044C0C11526
:1015400080E5D80708F031C1C83ED10510F5C03E8E
:10155000D10508F0D6C1C83AD10578F4C53AD1050D
:1015600008F0A6C0C130D10509F4CBC108F47CC194
:10157000C430D10508F0C5C177C1CF3BD10508F40F
:10158000A2C0C03CD10508F46FC1CE01805C9109B6
:10159000FBC0C11520E3D20780F4C11580E2D80753
:1015A00008F0F0C0C03FD10508F45EC1CF3FD105BF
:1015B00011F008F0A6C1D065A4C1C11520E4D2077E
:1015C00008F0F0C0E5C0C11589E5D80760F5C11580
:1015D00028E5D20708F034C1C11584E5D80778F4AE
:1015E000C11523E5D20708F011C1C11582E5D8075E
:1015F00008F0F7C0DC2FCC27C16FD06A82C1C115BB
:1016000025E5D20708F417C1C11586E5D80708F00B
:101610002BC18C2F0E94010D8F71C82FD0E0DC2FC1
:10162000CC27D0626EC1CD3B2CE5D20709F413C1A3
:10163000F0F4CB3B2CE5D20709F407C108F008C150
:10164000C1152AE5D20708F00FC18C2F8F700E94B8
:10165000010D34E0D695C7953A95E1F7CF70D0E00B
:10166000DC2FCC27D06A8F70806EC82B4AC1C03C5B
:101670008CE5D80709F4F5C060F4CE3B8CE5D807BB
:1016800009F4ECC0CF3BDC4509F0EEC0C0E0D2ED80
:1016900038C1CE0190568115904208F0E5C08D2FDB
:1016A0008F710E94010DDD27D0628F71D82B29C167
:1016B000C53AD10509F4DBC0C63AD10509F4DAC050
:1016C000C3E8D0E41EC1C83AD10509F4D6C0C93A6E
:1016D000D10509F4D5C0CA3AD10509F4D4C0CB3A32
:1016E000D10509F4D3C0CC3AD10509F4D2C0CB3B23
:1016F000D10509F4D1C0CC3BD10509F4D0C0CD3A15
:10170000D10509F4CFC0C03BD10509F4CEC0CE3A13
:10171000D10509F4CDC0CF3AD10509F4CCC0C13B05
:10172000D10509F4CBC0C23BD10509F4CAC0C33B03
:10173000D10509F4C9C0C43BD10509F4C8C0C53BF3
:10174000D10509F4C7C0C63BD10509F4C6C0C73BE3
:10175000D10509F4C5C0C83BD10509F4C4C0C93BD3
:10176000D10509F4C3C0CD3BD10509F4C2C0CE3BBD
:10177000D10509F4C1C0CA3BD10509F0C0C0CAE215
:10178000D6E4BFC0CE019F700E948B0AEC01B9C0A5
:10179000CE019927D3FF03C0EC01D86CB2C0EC0195
:1017A000D06CAFC0DF70D06AACC02C2F237081E04A
:1017B00090E002C0880F991F2A95E2F79C689E016D
:1017C000F4E036952795FA95E1F72370922BCF70C8
:1017D000C695C69520E2C29FE0011124C82BD92BE3
:1017E00090C08C2F8695869520E2829FC00111249F
:1017F0009E0123703327C1E0D0E002C0CC0FDD1F73
:101800002A95E2F7C82BD92BDC687BC08C2F8695F4
:10181000869520E2829FC00111249E012370332708
:10182000C1E0D0E002C0CC0FDD1F2A95E2F7C82B43
:10183000D92BDA6866C0DC2FCC27C46FD06A61C0B0
:10184000DC2FCC27C06FD06A5CC0C0E0D4ED59C09B
:10185000C0E0D5ED56C0C0E0D1ED53C0C0E0D0ED42
:1018600050C0C0E0D3ED4DC0C0E0D0E04AC0C1E8F8
:10187000D0E447C0C2E8D0E444C0C2EED4E441C0E2
:10188000C9EED4E43EC0CAEED4E43BC0C5EBD4E418
:1018900038C0C6EBD4E435C0C3EBD4E432C0C4EBEB
:1018A000D4E42FC0C7EBD4E42CC0CCECD4E429C0E2
:1018B000CDECD4E426C0C3E8D5E423C0CAE8D5E41F
:1018C00020C0C2E9D5E41DC0C4E9D5E41AC0C1E214
:1018D000D6E417C0C3E2D6E414C0C4E2D6E411C013
:1018E000C5E2D6E40EC0C6E2D6E40BC0C7E2D6E439
:1018F00008C0CFE6D4E405C0C0E7D4E402C0C0E02D
:10190000D4E4CE01DF91CF9108958238910549F159
:10191000B0F48133910509F459C048F48932910536
:1019200009F44FC08A32910509F455C008958533F2
:10193000910509F441C08933910599F00895833EDA
:10194000910531F138F4803E910591F0823E910588
:10195000A9F00895863E910501F1873E910539F180
:1019600008952091AF0220FD3BC021FD39C00895AC
:101970008091AF0280FF34C089E341C08091AF0203
:1019800082FF32C08091AF0284FF2CC080E037C05C
:101990008091AF0282FD28C0F5CF8091AF0283FF16
:1019A00025C08091AF0284FDF1CF87EE28C08091E1
:1019B000AF0283FD1BC0F5CF8091AF0285FF18C039
:1019C00019C08091AF0285FF15C012C08091AF028F
:1019D00086FF12C013C08091AF0286FF0FC00CC0FB
:1019E00080EE0DC083EE0BC082EE09C086EE07C00C
:1019F00085E305C089E203C081E301C08AE290E08B
:101A000008959091AF0292FF0DC0282F28712830C1
:101A100019F4877F846006C0282F2471243011F4C4
:101A20008B7F886093FF0DC0282F2871283119F40F
:101A3000877E846106C0282F2471243111F48B7EA7
:101A4000886194FD877E0895E82FF0E0EE0FFF1F78
:101A5000EF58FE4F808191810895CF92DF92EF92EF
:101A6000FF920F931F93CF93DF9389EA92E00E9436
:101A7000D50521E7E22E21E0F22EC0E0D0E034EAE5
:101A8000C32E32E0D32E0BE912E0DF93CF93DF9227
:101A9000CF920E946E0681EA92E00E94D505F7017E
:101AA000819191917F010E941D249F938F931F9399
:101AB0000F930E946E0689E992E00E94D505219657
:101AC0008DB79EB708960FB6F8949EBF0FBE8DBF18
:101AD000C530D105D1F6DF91CF911F910F91FF90C5
:101AE000EF90DF90CF900895E3E3F1E021E030E064
:101AF0008191A82FA295AF70B0E091964C919197EB
:101B00008F70B90102C0660F771F8A95E2F7CB018B
:101B10008095482391964C9371E0E833F70741F79D
:101B2000A4E2B1E021E030E08D91E82FE295EF7082
:101B3000F0E041A18F70B90102C0660F771F8A954E
:101B4000E2F7CB01962F9095492341A392A1982BC0
:101B500092A371E0A333B70739F7EBE7F1E0A1E710
:101B6000B1E0119211921D921D9281E0E538F807C3
:101B7000C1F785E00E945C0E0C941F082F923F92E3
:101B80005F926F927F928F929F92AF92BF92CF920D
:101B9000DF92EF92FF920F931F93CF93DF9353E364
:101BA000252E51E0352EABE7B1E0B12C21E030E03D
:101BB0004D016D907C90119711961C921E92E1013F
:101BC00069911E01E62FE295EF70F0E081A16F7040
:101BD000A90102C0440F551F6A95E2F7BA01842B90
:101BE00081A382A1A42EA0948A2182A350EA5A95AF
:101BF000F1F744E2E42E41E0F42E40E050E0E7014A
:101C000059907E01852D82958F7090E0EC0108A19E
:101C1000CD90DC90119710E0852D8F7002C0159546
:101C200007958A95E2F700FD08C0C901042E02C09D
:101C3000880F991F0A94E2F702C080E090E0C82A5A
:101C4000D92A1196DC92CE924F5F5F4F4F305105EB
:101C5000B1F681A18A2181A382A1862B82A312964B
:101C600041E0F401808191816816790609F440E031
:101C7000B42AF8E32F16F1E03F0609F099CF2B2D97
:101C800045E061E771E08BE791E00E945D0E0E9404
:101C9000A0078B2DDF91CF911F910F91FF90EF90B7
:101CA000DF90CF90BF90AF909F908F907F906F907C
:101CB0005F903F902F9008950895FF920F931F9388
:101CC000CF93DF93D82FC92FF62E072F142F22235F
:101CD00049F081E0809387010E94FC259093860162
:101CE00080938501809187018823D9F080918501B7
:101CF000909186010E940826069798F0ED2FFC2F00
:101D0000AF2DB02F80E090E0412F50E08417950771
:101D100034F4219131912D933D930196F7CF109298
:101D20008701DF91CF911F910F91FF900895CF927E
:101D3000DF92EF92FF920F931F93CF93DF93D62EF4
:101D4000C72EE82EF82EE82FF0E0711106C0E451FE
:101D5000F94F6491762F862F7BC0072F10E026E085
:101D6000629FC0011124CFEFD0E0BE010E9461321A
:101D70009B016BEA6203A001639F500D11244D0D7E
:101D8000511D4D0D511DD42EDD0CD40ECE01801BE6
:101D9000910B8E9FA0018F9F500D9E9F500D11247F
:101DA000852FDC9CB0011124672F7727DE01A61B4D
:101DB000B70BAE9FB001AF9F700DBE9F700D112489
:101DC000972FDE01AD19B1096D01C09ED001C19EF2
:101DD000B00DD09EB00D1124AB2FBB27CA1BDB0B5F
:101DE000CE9FD001CF9FB00DDE9FB00D11242230C9
:101DF000310591F03CF42115310559F021303105C0
:101E0000C1F014C02430310569F04CF026303105A2
:101E100069F49E2DFB2E0DC0952F8B2F0AC0F72E37
:101E2000952F02C09B2FF52E8E2D03C0F52E872FE8
:101E30009E2DE92FF0E0E451F94F7491EF2DF0E081
:101E4000E451F94F6491E82FF0E0E451F94F8491A7
:101E5000DF91CF911F910F91FF90EF90DF90CF9086
:101E600008950895CF93DF93762FE901682F842F8B
:101E70000E94970E798368838A83DF91CF910895BA
:101E800020917402822F869590E0009729F42170AA
:101E9000226020937402089585972CF0822F817020
:101EA000886480937402089588E090E00C94D132A5
:101EB000CF93DF9300D000D0CDB7DEB7AB01BC012C
:101EC00049835A836B837C830E94400F49815A81E6
:101ED0006B817C8188E090E00F900F900F900F90C5
:101EE000DF91CF910C94EF32E4E7F2E083E080835E
:101EF000109275028FEF8093760280937702109292
:101F0000780260817181828193810C94580F809155
:101F1000420280FF08C08EEB95E09F938F930E9452
:101F20006E060F900F908091420280FF0FC080914B
:101F3000740281701F928F9381EA95E09F938F9333
:101F40000E946E060F900F900F900F9080914202AA
:101F500080FF0FC08091740286951F928F9386E850
:101F600095E09F938F930E946E060F900F900F90B5
:101F70000F908091420280FF0EC0809175021F92E7
:101F80008F938CE695E09F938F930E946E060F903F
:101F90000F900F900F908091420280FF0EC08091B1
:101FA00076021F928F9382E595E09F938F930E9414
:101FB0006E060F900F900F900F908091420280FF5D
:101FC0000EC0809177021F928F9388E395E09F93D4
:101FD0008F930E946E060F900F900F900F9080913C
:101FE000420280FF0EC0809178021F928F938CE195
:101FF00095E09F938F930E946E060F900F900F9025
:102000000F9008958091740280FF02C08695089514
:1020100080E0089580917802833018F48F5F809378
:1020200078026091740270917502809176029091AD
:1020300077020C94580F80917802882319F0815010
:10204000809378026091740270917502809176029B
:10205000909177020C94580F6091050170E0809187
:10206000740280FF0AC080918C0123E0829FC0012E
:10207000112487589D4F0C94021620918B013091AA
:102080000401231780F7822F90E0FC01EE0FFF1F61
:10209000E80FF91FE758FD4F1182108212822F5F5F
:1020A000F0CF9091740290FF16C090918B015091E7
:1020B0000401951770F4292F30E0F901EE0FFF1F8E
:1020C000E20FF31FE758FD4F8183608342839F5FD8
:1020D000F0CF0C942C100895CF93DF9300D01F9273
:1020E000CDB7DEB79091740290FF0AC09E012F5FBA
:1020F0003F4F0E94320F4B8169818A810E945110AB
:102100000F900F900F90DF91CF910895CF93DF93B1
:10211000EC01EC81F0E0E951FA4F449160917602D4
:10212000809175020E946C108C818F5F8C83DF918F
:10213000CF910895CF93DF93EC01409177026091A6
:1021400076028C810E946C108C818F5F8C83DF9172
:10215000CF9108950F931F93CF93DF9300D01F92D9
:10216000CDB7DEB78C018091880181110AC09E0134
:102170002F5F3F4F4FEF6FEF0E94320F8A818093A6
:102180008801F8018481813051F028F0823061F4B7
:10219000409188010AC08091880140E007C06091A9
:1021A000880140E080E003C040E080E060E00E9401
:1021B0005110F801848190E0019663E070E00E9484
:1021C000753284830F900F900F90DF91CF911F9104
:1021D0000F9108955F926F927F928F929F92AF922C
:1021E000BF92CF92DF92EF92FF920F931F93CF9304
:1021F000DF9300D000D0CDB7DEB7D82EB62EC42ED8
:10220000A22E9091740290FFADC0E92FE695AE2FFB
:10221000B0E0A85CBE4F8C91809394019E7F923079
:1022200061F49E012F5F3F4F8D2D0E94320F4B8135
:1022300069818A810E94511063C0823019F4C09074
:1022400077025EC0863019F4D090750259C089308B
:10225000D9F3893109F054C0E9519E2E9094292D6B
:102260002170922E2170822EE695F0E0E951F94F0F
:1022700005911491512C1127FEE3EF2EF3E0FF2E70
:10228000609103015616D0F5652C712C609EC0013B
:10229000619E900D709E900D112470E00E9461323D
:1022A0008D2D882011F0860F01C0861B909142026F
:1022B00090FF13C01F930F931F929F921F928F93B3
:1022C0001F925F92FF92EF928C830E946E060FB670
:1022D000F894DEBF0FBECDBF8C8190918B01690E4B
:1022E000711C9301220F331F260D371D27583D4FB8
:1022F0004C2D6B2D0E94320F5394C2CF0E942C1094
:10230000D0927502B0927602C0927702AA20C9F0EC
:1023100060917402709175028091760290917702BB
:102320000E94580F809177021F928F9380917602BE
:102330001F928F93809175021F928F9389E193E092
:1023400008C01F92CF921F92BF921F92DF9282EF1E
:1023500092E09F938F930E946E060FB6F894DEBFB3
:102360000FBECDBF0F900F900F900F90DF91CF91C8
:102370001F910F91FF90EF90DF90CF90BF90AF90A3
:102380009F908F907F906F905F90089590917502CD
:10239000282F409177026091760288E0890F0C9493
:1023A000EA1081E00C94C61190917502282F40919B
:1023B00077026091760288EF890F0C94EA1081E031
:1023C0000C94D4116091760228E0620F08F46FEF4C
:1023D000282F40917702809175020C94EA1081E0D9
:1023E0000C94E2116091760228E0621B08F460E030
:1023F000282F40917702809175020C94EA1081E0B9
:102400000C94F2114091770228E0420F08F44FEF4C
:10241000282F60917602809175020C94EA1081E079
:102420000C9402124091770228E0421B08F440E02D
:10243000282F60917602809175020C94EA1081E059
:102440000C94121220E00C94EA10FF920F931F9349
:10245000CF93DF93EC01F12C0FEF10E060910301BB
:10246000F616E8F440918B0150E04F0D511D9A0192
:10247000220F331F240F351F27583D4F70E0C8012E
:102480000E947532962F8C8140917702609176027E
:10249000F99E800D11240E94320FF394DFCF0E9429
:1024A0002C109A818C8190FF02C08F5F01C08150F7
:1024B0008C83DF91CF911F910F91FF900895BF9270
:1024C000CF92DF92EF92FF920F931F93CF93DF9300
:1024D000FC01828180FD03C0CC24C39402C0CC24C3
:1024E000CA94D12C80910301D816E0F5ED2CF12C83
:1024F00080918B019701280F311DE901CC0FDD1F61
:10250000C20FD31FC758DD4F198218821A8204E008
:1025100010E0B12C80918A018B0D87FF03C0909150
:102520000301890F992787FD9095E816F90691F424
:1025300080917702809FA001819F500D11245595B5
:102540004795559547959E01609176028091750259
:102550000E94320FBC0C0150110901151105D1F672
:10256000D394C0CF0E942C1080918A0131E0C31215
:1025700006C0811102C080910301815007C090E024
:1025800001966091030170E00E94753280938A0188
:10259000DF91CF911F910F91FF90EF90DF90CF903F
:1025A000BF900895CF9320918B01309104012317A0
:1025B00070F4822F90E0FC01EE0FFF1FE80FF91F6F
:1025C000E758FD4F1182108212822F5FF0CFC0E0DA
:1025D00060910301C617B0F52C2F30E070E0C901FF
:1025E0000E94753240918B01480F80918901992793
:1025F00087FD909550E028173907C4F080910201BB
:10260000992787FD90958217930784F09A01220FEE
:10261000331F240F351F27583D4F4091770260919B
:102620007602809175020E94320F0AC0FA01EE0F05
:10263000FF1FE40FF51FE758FD4F11821082128231
:10264000CF5FC6CF0E942C104091010120918901DB
:10265000240F2093890180910201840F809302014D
:10266000181654F4332727FD30958091030190E02C
:102670000197281739071CF0419540930101CF912C
:1026800008950F931F93CF93DF93EC012C813D812D
:102690002F5F3F4F217033273D832C8310E005E5EA
:1026A000809103011817F0F440918B0150E0410F25
:1026B000511D9A01220F331F240F351F27583D4FFC
:1026C000412F46958C819D81840F911D8170409191
:1026D000770260917602809F802D11240E94320F34
:1026E0001F5FDECFDF91CF911F910F910C942C10C3
:1026F0000F931F93CF93DF938C01C0E0D0E0409104
:102700000301842F90E0C817D9072CF580918B0125
:102710009E01280F311DC901220F331F280F391FB9
:1027200027583D4F4695842F90E0F8014481C81703
:10273000D9071CF4442331F002C0411103C0409179
:10274000770201C040E060917602809175020E949C
:10275000320F2196D4CF0E942C10F801248130E052
:102760002F5F3F4F217033272483DF91CF911F913B
:102770000F91089560917402669570E04BE050E00F
:1027800086E091E00E94BC32892B19F481E08093AD
:1027900095010E94FC2590938E0180938D0180917C
:1027A000420280FF08C089ED92E09F938F930E94C0
:1027B0006E060F900F90089510929501809142023D
:1027C00080FF08C080EC92E09F938F930E946E067A
:1027D0000F900F9008959091740290FF4EC09170E9
:1027E000811102C0926003C0853220F098649093FA
:1027F000740204C0880F892B80937402662391F0C1
:1028000060917402709175028091760290917702C6
:102810000E94580F8091740286951F928F9382E6D2
:1028200094E007C08091740286951F928F9384E490
:1028300094E09F938F930E946E060F900F900F90DD
:102840000F9060917402669570E04BE050E086E076
:1028500091E00E94BC32892B19F00E94DC1302C067
:102860000E94BA1381E080939001409177026091B9
:102870007602809175020C9422120895682F80913F
:10288000740286958F5F853208F081E00C94EB131B
:1028900081E00C943E14682F8091740286958150DB
:1028A00009F484E20C94EB1381E00C944B1461E086
:1028B0000C94EB13CF93DF93C4E7D2E0888181605F
:1028C00088831F9281E08F9386ED93E09F938F938F
:1028D0000E946E060F900F900F900F908881869542
:1028E000DF91CF910C94571460E00C94EB1380911E
:1028F0009301811161C08091420281608093420204
:1029000085E095E09F938F930E946E06809142022E
:102910000F900F9080FF08C08FEE94E09F938F93ED
:102920000E946E060F900F900E943724811110C0F4
:102930008091420280FF08C087EC94E09F938F93C0
:102940000E946E060F900F900E94BA240E94740F8E
:102950000E94540F60937402709375028093760204
:10296000909377026E7FC1F48091420280FF08C08D
:102970008EE794E09F938F930E946E060F900F90C6
:102980000E94740F0E94540F60937402709375023A
:1029900080937602909377020E94400F0E94870FE7
:1029A000109295018091740280FF03C086950E9469
:1029B000741481E0809393010895CF93DF93C4E76B
:1029C000D2E08881816088831F9281E08F938DE9B6
:1029D00093E09F938F930E946E060F900F900F903D
:1029E0000F9088818695DF91CF910C947414CF93CA
:1029F000DF93C4E7D2E088818E7F88836881798104
:102A00008A819B810E94580F888181701F928F93C9
:102A100085E693E09F938F930E946E060E94DC13DD
:102A20002FEF80E792E0215080409040E1F700C016
:102A300000000F900F900F900F90DF91CF910C94AA
:102A40002C1080917402809581701F928F938DE07D
:102A500094E09F938F930E946E06809174020F9072
:102A60000F900F900F9080FD0C94F7140C945A1453
:102A70000F931F93CF93DF9380919501882309F4DF
:102A800089C080919401E0917402E695E81BE0937F
:102A90008F01823049F4F0E0ED51FA4FE491CE2FEE
:102AA000D0E006E810E146C0863049F4F0E0E0529C
:102AB000FA4FE491CE2FD0E00AE910E13BC0893013
:102AC00049F4E695F0E0E352FA4FC491D0E005E214
:102AD00012E130C08F3049F4E695F0E0E652FA4F4B
:102AE000C491D0E00FE512E125C0853141F4F0E05A
:102AF000E952FA4FC491D0E002ED12E11BC08831D7
:102B000081F0833239F4E5EDF5E0C591D4910AEA1C
:102B100010E110C0843251F0C0EDD7E001E31FE0B6
:102B200009C0C8EED3E001E413E104C0C4EFD1E072
:102B300008E713E180919001882389F010929001B9
:102B40000E94FC259E0120953095280F391F309357
:102B50008E0120938D01109292011092910180912B
:102B60008D0190918E010E9408268C179D0790F090
:102B700080918D0190918E018C0F9D1F90938E01FD
:102B800080938D018DE891E0F801DF91CF911F9145
:102B90000F910994DF91CF911F910F9108953EB14C
:102BA000242F209523233EB1342B4FB7F894FC01FA
:102BB000680F791FE617F70789F0819198E03EB911
:102BC000000000C087FF2EB9880F000000C000C0C1
:102BD00000C02EB900C09A9591F7ECCF4FBF089571
:102BE0002DB1242B2DB99B01220F331F260F371F28
:102BF000B9010E94CF1587EC90E00197F1F700C072
:102C00000000089544E00C94F0150F931F93CF93A8
:102C1000DF93C62FD42F022FFC0182818823C9F0B5
:102C2000609398010E94FC259093970180939601F0
:102C300080E28C0F883008F050C0C77081E001C07E
:102C4000880FCA95EAF7DF91CF911F910F910C94ED
:102C5000251A10919801161330C080919601909119
:102C600097010E940826883C910538F5C0E2CD0FF7
:102C70001D17B9F080E2810F883040F4177081E0B1
:102C800001C0880F1A95EAF70E942C1AC83048F440
:102C900081E09D2F977001C0880F9A95EAF70E94F6
:102CA000251A802F0E94121AC830B8F4D77081E01C
:102CB00001C0880FDA95EAF70AC080E28C0F8830ED
:102CC00060F4C77081E001C0880FCA95EAF7DF9110
:102CD000CF911F910F910C942C1ADF91CF911F91DE
:102CE0000F9108959C01CB01203F4CE53407F9F08A
:102CF00078F4283DFCE53F07B9F0293D4CE5340761
:102D000011F1273D3C4531F526E241EE61EE1EC052
:102D1000223FFCE53F0799F070F0233F3C45D1F49A
:102D200027E245EE66EE12C027E245EE0EC026E22F
:102D300041EE60EE0BC027E245EE64EE07C026E2EE
:102D400041EE62EE03C028E241E065EE0E94051606
:102D500080E00895FC018281882319F01092980187
:102D6000089581E0089590939E0180939D010895B8
:102D7000E0919D01F0919E01309721F00190F0814A
:102D8000E02D099480E00895FF920F931F93CF9355
:102D9000DF93EC01E0919D01F0919E01309709F4E1
:102DA0003FC080912301882341F08091AF0287FFCB
:102DB00004C08881898385E088830280F381E02DC7
:102DC000CE0109958091420282FF2AC080FF04C093
:102DD00084EF97E00E94D50588E0F82E0EEE17E00C
:102DE0008091420280FF0BC088811F928F931F93B6
:102DF0000F930E946E060F900F900F900F90FA9411
:102E00002196F110EDCF8091420280FF09C08CEE37
:102E100097E0DF91CF911F910F91FF900C94D50512
:102E2000DF91CF911F910F91FF900895E0919D0147
:102E3000F0919E01309739F022E0DC012C93048060
:102E4000F581E02D0994089520919B0130919C011A
:102E50008217930771F090939C0180939B01E091FE
:102E60009D01F0919E01309721F00680F781E02DC1
:102E7000099408952091990130919A01821793073E
:102E800071F090939A0180939901E0919D01F091E6
:102E90009E01309721F00084F185E02D099408957A
:102EA00085B7806885BF85B7806885BF0895089518
:102EB00008950C94581708950C945B170E945017AE
:102EC0000E9457170C94591781E008950E94F3252A
:102ED0000E94740D0E947C260E9431290E94771462
:102EE0000C945C17CF93C82F8091420282FF1EC0C2
:102EF00080FF04C08DE098E00E94D50580914202D9
:102F000080FF0CC01F92CF9328E038E03F932F93AF
:102F10000E946E060F900F900F900F9080914202CA
:102F200080FF04C086E098E00E94D5058C2FCF91E9
:102F30000C942A085F926F927F928F929F92AF9229
:102F4000BF92CF92DF92EF92FF920F931F93CF9396
:102F5000DF93CDB7DEB72A970FB6F894DEBF0FBE6A
:102F6000CDBF0E94BE0D0E946417811111C08FEF6A
:102F700089838A831B820E94FC258160782F9D8330
:102F80008C8349815A816B818D810E94581857C06A
:102F900090EAC92E91E0D92E00E010E0AA24A39473
:102FA000B12C502E802F0E94240D3C01F601E1909F
:102FB000F1906F01E826F926E114F10431F40F5F76
:102FC0001F4F0530110569F7D2CF8091420281FD74
:102FD0000E942D0D20E030E04501022E02C0880C39
:102FE000991C0A94E2F7C4018E219F21892B09F1D3
:102FF0002E835F826820792081E0672809F480E0D1
:1030000088870E94FC258160782F9A8789874E8166
:103010005F8168858A850E945818F801EE0FFF1FAE
:10302000E056FE4F80819181882599259183808388
:1030300006C02F5F3F4F2F30310571F6C0CF0E9481
:10304000902810919F010E94B8161817D9F00E947D
:10305000B81680939F012A960FB6F894DEBF0FBE74
:10306000CDBFDF91CF911F910F91FF90EF90DF9037
:10307000CF90BF90AF909F908F907F906F905F9018
:103080000C9472172A960FB6F894DEBF0FBECDBF10
:10309000DF91CF911F910F91FF90EF90DF90CF9034
:1030A000BF90AF909F908F907F906F905F900895AA
:1030B000CF93DF93CDB7DEB72B970FB6F894DEBF73
:1030C0000FBECDBF4F83588769877A878B87DE0114
:1030D000119686E0FD0111928A95E9F785E0FE01DF
:1030E000379601900D928A95E1F749815A816B815B
:1030F0007C818D819E810E9405202B960FB6F894CD
:10310000DEBF0FBECDBFDF91CF910895FC0180815E
:1031100091810E94C4220895882309F41AC182383B
:10312000C1F40E94B81681FD14C169E380911101B8
:10313000909112010E944B250E944F232FEF81EEA8
:1031400094E0215080409040E1F700C0000069E326
:1031500019C08338F9F40E94B81680FDFAC063E5FF
:1031600080911101909112010E944B250E944F23E2
:103170002FEF81EE94E0215080409040E1F700C0B5
:10318000000063E580911101909112010E94562583
:103190000C944F238438C1F40E94B81682FDD9C024
:1031A00067E480911101909112010E944B250E94C9
:1031B0004F232FEF81EE94E0215080409040E1F7C3
:1031C00000C0000067E4DECF9CEF980F913A40F416
:1031D000682F80911101909112010E944B25D8CF48
:1031E00090E2980F983050F4877091E001C0990FE9
:1031F0008A95EAF7892F0E940623CACF9BE5980F8C
:10320000933070F4853A29F0863A31F482E890E000
:1032100005C081E890E002C083E890E00C94241798
:1032200098E5980F973108F08EC0883A09F445C0A8
:10323000893A09F445C08A3A09F445C08B3A09F441
:1032400045C08C3A09F445C08B3B09F445C08C3B22
:1032500009F445C08D3A09F445C0803B09F445C0E6
:103260008E3A09F445C08F3A09F445C0813B09F410
:1032700045C0823B09F445C0833B09F445C0843B0B
:1032800009F445C0853B09F445C0863B09F445C0B7
:10329000873B09F445C0883B09F445C0893B09F4E4
:1032A00045C08D3B09F445C08E3B09F445C08A3BBF
:1032B00009F045C08AE292E044C082EE90E041C04D
:1032C00089EE90E03EC08AEE90E03BC085EB90E056
:1032D00038C086EB90E035C083EB90E032C084EBE1
:1032E00090E02FC087EB90E02CC08CEC90E029C0E0
:1032F0008DEC90E026C083E891E023C08AE891E05D
:1033000020C082E991E01DC084E991E01AC081E209
:1033100092E017C083E292E014C084E292E011C010
:1033200085E292E00EC086E292E00BC087E292E076
:1033300008C08FE690E005C080E790E002C080E022
:1033400090E00C943A17803F20F00E9416270C94CE
:1033500003280895882309F464C0823879F40E9410
:10336000B81681FF5EC069E380911101909112014E
:103370000E944B250E944F2369E310C08338B1F4AB
:103380000E94B81680FF4DC063E5809111019091B5
:1033900012010E944B250E944F2363E58091110189
:1033A000909112010E9456250C944F23843879F491
:1033B0000E94B81682FF35C067E480911101909198
:1033C00012010E944B250E944F2367E4E7CF9CEF38
:1033D000980F913A10F4682FE1CF90E2980F98304F
:1033E00050F4877091E001C0990F8A95EAF7892F10
:1033F0000E940C23D9CF9BE5980F933020F480E0F6
:1034000090E00C94241798E5980F973120F480E011
:1034100090E00C943A17803F20F00E947E270C9495
:1034200003280895CF93C82F0E948C18C93349F4FC
:103430002FEF83EC99E0215080409040E1F700C0ED
:1034400000008C2FCF910C94AA19882321F00E94A0
:1034500006230C944F230895882321F00E940C2307
:103460000C944F2308958F929F92BF92CF92DF9238
:10347000EF92FF920F931F93CF93DF9300D0CDB7BE
:10348000DEB74C01562F472FFC01B580B2949FE068
:10349000B922E280EE2031F079836A830E942323EF
:1034A0005A81498149835A830E94FC2249815A8169
:1034B000882389F0EE2079F080E2850F883058F07B
:1034C00082E00E949A230E94FC22FF24F394F826B3
:1034D00049815A8101C0F12CC42EC2948FE0C822C8
:1034E000D12CF601E859FF4F0C94AB32842F807F2A
:1034F000142F1F70882311F01295107FEE20C1F059
:10350000112309F4D7C180E2850F883010F05111E2
:1035100005C0812F5A830E94062304C0812F5A833D
:103520000E9416235A815A830E944F235A81C2C196
:10353000852F5A830E94AA195A81112309F404C2C3
:1035400080E2850F883010F0511104C0812F0E9455
:103550000C2303C0812F0E941C230E944F23F4C11F
:10356000842F807F142F1F70803211F01295107FEE
:10357000552319F05130D9F026C0EE2079F0BB2048
:1035800049F0F1E0BF1206C00E943623812B0E9451
:103590003C23DAC10E943623812B40C1BB2021F09D
:1035A00021E0B21609F4D0C10E9445233CC1EE20AF
:1035B00029F085E08B1508F4C7C12FC194E09B1555
:1035C00008F4C2C130C1EE2051F0BB2009F425C17E
:1035D000F401858180FF6EC18F7085831EC1BB2081
:1035E00009F421C178C1842F86958695837090E077
:1035F000009719F0019761F0A7C1EE2021F0852F07
:10360000942F937002C080E090E00E942417ACC118
:10361000EE2021F0852F942F937002C080E090E07F
:103620000E943A17A1C1EE20F9F0553F51F0563FE4
:1036300071F0543FA9F48091A9029091AA0281608F
:103640000BC08091A9029091AA02826005C080916E
:10365000A9029091AA0284609093AA028093A90281
:10366000852F0E94162722C0553F51F0563F91F0FA
:10367000543FC9F48091A9029091AA028E7F05C09F
:103680008091A9029091AA028D7F9093AA028093C3
:10369000A90209C02091A9023091AA022B7F309380
:1036A000AA022093A902852F0E947E270E94032848
:1036B0005BC1842F837009F04AC0E11051C1E52F2E
:1036C000E295E695E770EE0FEE0F652F6F70862F8F
:1036D00090E0A0E0B0E00E2E04C0880F991FAA1F52
:1036E000BB1F0A94D2F754FF10C00FE010E020E097
:1036F00030E004C0000F111F221F331FEA95D2F7DC
:10370000009510952095309503C000E010E09801D9
:1037100046954695437050E0BC01CD01602B712B5E
:10372000822B932B4230510561F04330510561F0FB
:103730004130510519F00E94582112C10E944621C2
:103740000FC10E946A210CC10E94442109C1EE20D0
:1037500019F0842F817001C08695882309F400C177
:10376000E52FE295E695E770EE0FEE0F652F6F708F
:10377000862F90E0A0E0B0E00E2E04C0880F991FC5
:10378000AA1FBB1F0A94D2F754FF10C00FE010E02D
:1037900020E030E004C0000F111F221F331FEA9504
:1037A000D2F7009510952095309503C000E010E009
:1037B000980146954695437050E0BC01CD01602BC1
:1037C000712B822B932B4230510561F04330510510
:1037D00061F04130510519F00E940522C1C00E94DC
:1037E000F321BEC00E941722BBC00E947E21B8C038
:1037F000052F10E0F801E05EF109E531F10508F070
:1038000055C0E858FF4F0C94AB32152F1F70842F12
:103810008F71EE2031F00E949E21812F0E94251A87
:1038200093C00E94B921812F0E942C1A8DC0EE20D6
:1038300049F0F4E0FB1508F487C0842F8F710E94D3
:10384000D82182C025E02B1508F47EC0F6CFEE20EB
:1038500039F0842F8F710E949E2176C0EE20C9F32B
:10386000842F8F710E94B9216FC0EE2029F0842F20
:103870008F710E948F2168C00E948A2165C0EE204E
:1038800051F0142F1F71812F0E949E2163E0812F20
:103890000E94852359C081E00E949A2381E08B1504
:1038A00008F052C082E00E949A234EC0EE2031F010
:1038B000BB2079F2852F0E948C1846C0BB2081F274
:1038C000593349F49FEFE3ECF9E09150E040F040C8
:1038D000E1F700C00000852F0E94AA1935C04F7083
:1038E000652FC4010E94750A0E94B2203DC0E110FC
:1038F0003BC04F7050E042305105B1F04CF44115DF
:10390000510579F041305105F9F40E947D292CC010
:103910004430510579F05CF045305105A9F480E060
:103920000AC00E944E2920C00E94E7291DC00E94A3
:10393000032A1AC085E00E943B2A16C04F70652FEB
:10394000C4010E94780A10C028E0C216D10441F0D8
:103950005CF09AE0C91AD108E2E0CE16D10420F456
:103960000E94B8160E942A08FF20F1F00E94F82257
:1039700080FD1AC0F40112820E94F2220E949E2150
:10398000C4010E94E21C0E94F2220F900F90DF916E
:10399000CF911F910F91FF90EF90DF90CF90BF904C
:1039A0009F908F900C94B9210F900F90DF91CF9141
:1039B0001F910F91FF90EF90DF90CF90BF909F905D
:1039C0008F9008950F931F93CF93DF93EC0128817D
:1039D00039818B819C81892B31F03F3F11F080E050
:1039E00003C02F3FE1F781E0811113C0CE010E9497
:1039F0003C08882371F0688179818A810E94CF22F6
:103A00008C010E9429220E944321B801CE010E940C
:103A1000331ADF91CF911F910F9108950E942323B4
:103A20000E9433230E944F230E9425290E940328CD
:103A300080E090E00E94241780E090E00C943A1718
:103A400080911101909112010E9461250C940E1D2C
:103A50000E9413230C94201DE92FE295EF70F0E0F3
:103A60003297EE30F105B8F4E357FF4F0C94AB32C8
:103A7000803F59F018F4803E70F407C0843F59F439
:103A800004C0803E10F0813F31F481E0089593FB43
:103A9000882780F9089580E008950E94C4220E943A
:103AA0002C1D0895CF93DF9300D000D01F92CDB787
:103AB000DEB70F900F900F900F900F90DF91CF9186
:103AC0000895CF93DF9300D000D000D0CDB7DEB7FC
:103AD00026960FB6F894DEBF0FBECDBFDF91CF9113
:103AE00008951F93CF93DF93C091AB0116E08091AF
:103AF000AC01C81799F0D0E01C9FF0011D9FF00D9C
:103B00001124E355FE4F408151816281738184818C
:103B100095810E94611D2196C770E9CFDF91CF91F9
:103B20001F9108954091DD015091DE016091DF0108
:103B30007091E0018091E1019091E2010C94611D8E
:103B4000CF938091E20182958F7009F05FC08091E0
:103B5000DF01882309F45AC02091AB01A091AC0188
:103B60006091DD017091DE018091E0019091E101B1
:103B700031E06F3F09F030E0B32FC6E02A1709F4B7
:103B800045C0009721F07F3F21F44B2F03C041E057
:103B900001C040E030E040FD35C0C29FF001C39F4E
:103BA000F00D1124E355FE4F418174132BC0408169
:103BB000641328C04281411125C0438154814817B4
:103BC000590710F441505109481B590B483C510505
:103BD000C8F48091E2018F7080618093E20186E0F9
:103BE000829FF001839FF00D1124EE54FE4F8081DF
:103BF0008F70806180838DED91E00E94E21CCF91F7
:103C00000C94711D2F5F3F4F2770B8CFCF9108954F
:103C1000CF92DF92EF92FF920F931F93CF93DF9398
:103C2000CDB7DEB762970FB6F894DEBF0FBECDBF3B
:103C30008C0185E0F801DE011D9601900D928A95B8
:103C4000E1F7D8014C9111965C91119712966C9105
:103C500012971396ED90FC9014977091DD01E0910E
:103C6000DE012091E0013091E1012115310531F0B3
:103C7000EF3F31F481E07F3F19F403C081E001C0E0
:103C800080E0B82FB170CB2E80FD6BC1D090DF01EA
:103C9000DD2009F4F5C0F091E201E216F30638F0F8
:103CA000C701821B930B883C910548F09DC020956D
:103CB00030952E0D3F1D283C310508F095C08F2F03
:103CC000807F09F052C0E51314C0741312C0D62EC1
:103CD00061110FC0FF70F061F093E2010E94921D2C
:103CE0008DED91E00E94E21C8091E201F801858354
:103CF0007CC1EF2831F05F3F31F481E04F3F19F490
:103D000003C081E001C080E080FD03C081E0862720
:103D100001C080E0F82FF170FF2E80FF1CC0809161
:103D2000AB012091AC0136E0821709F438C190E074
:103D3000389FF001399FF00D1124E355FE4F71813A
:103D4000571306C07081471303C07281671303C005
:103D500001968770E9CFD62E662309F446C180917B
:103D6000E20181608093E20155C0E51308C074133D
:103D700006C0611104C0D8011596FC93AEC04D87F2
:103D80005E878D859E856A8B0E944D1D6A8988237A
:103D900029F1D62E662311F12091E201822F82951E
:103DA0008F7090E002970CF462C08091DD019091D9
:103DB000DE0198878F831986FB86EA862C87CE01E1
:103DC000079653C0E51741F14D875E878D859E8527
:103DD0006A8B0E944D1D6A89811130C0C8010E9402
:103DE000E21CDD24D39401C18F2F807F59F77E2DF3
:103DF000F98AE88A89890E94521D8DED91E00E941E
:103E0000E21CEDEDF1E086E0DF011D928A95E9F715
:103E10000E94921DD12CE9C07413D6CF6111D4CF6A
:103E2000D8011596FC93C8010E94E21CEDEDF1E06B
:103E300086E0DF011D928A95E9F7D7C0D62E66236A
:103E400069F22091E201822F82958F7090E00297B3
:103E500074F08091DD019091DE019A8389831B8249
:103E6000FD82EC822E83CE0101960E94E21C86E048
:103E7000F801ADEDB1E001900D928A95E1F78AC0AD
:103E8000E216F30628F0C701821B930B9C0104C0C5
:103E9000209530952E0D3F1D283C310508F053C06C
:103EA000D62E662309F49ACFE5132CC074132AC0CA
:103EB0008091E20180FD1DC0982F92959F70C9F0FE
:103EC000D80115968C9315979F3039F09F5F929586
:103ED000907F8F70892B15968C93C8010E94E21CED
:103EE00086E0F801ADEDB1E001900D928A95E1F721
:103EF00053C086E0F801ADEDB1E001900D928A95D6
:103F0000E1F773C04D875E878D859E850E944D1DAC
:103F1000882381F096E0F801ADEDB1E001900D92BB
:103F20009A95E1F78A8B0E94A01D0E94921D8A89B2
:103F3000D82E5BC08091E20181608093E201C801CC
:103F40000E94E21C52C07E2DF98AE88A89890E946B
:103F5000521DEDEDF1E086E0DF011D928A95E9F753
:103F60001BC0662309F43ACF4D875E878D859E85F9
:103F70000E944D1DD82E882309F430CF86E0F80129
:103F8000ADEDB1E001900D928A95E1F78DED91E0F4
:103F90000E9486180E94A01D0E94921D26C04D8777
:103FA0005E878D859E850E94C422292F22952F70C1
:103FB00030E0223031052CF49F7041F0811106C0B1
:103FC0000CC0243031052CF49F7049F4805E883099
:103FD00020F0C8010E94E21CCF2CDC2C06C0D801C6
:103FE00015969C91907F91F7F8CF8D2D62960FB624
:103FF000F894DEBF0FBECDBFDF91CF911F910F911F
:10400000FF90EF90DF90CF9008951F93CF93DF93B1
:10401000CDB7DEB72C970FB6F894DEBF0FBECDBF7D
:104020004F83588769877A878B879C87CE0107964D
:104030000E94081E8823C1F02F8138858A859B85C0
:10404000892B31F03F3F11F080E003C02F3FE1F7B3
:1040500081E0811147C04F81588569857A858B85BC
:104060009C850E94611D3EC086E0FE013796DE0100
:10407000119601900D928A95E1F7FF81E8854A85B6
:104080005B854115510531F0EF3F31F481E0FF3F91
:1040900019F403C081E001C080E080FD23C02091BD
:1040A000AC0130E0C9010196877099276091AB019E
:1040B00070E086179707F1F1F983EA835D834C83FB
:1040C00096E0929FD001939FB00D1124A355BE4F4F
:1040D000FE01319601900D929A95E1F78093AC0123
:1040E0000E94711D16E08091AB019091AC0189177F
:1040F00079F1189FC001112483559E4F0E94081E1C
:10410000882331F1E091AB011E9FF0011124E355AA
:10411000FE4F4081518162817381848195810E942B
:10412000611D8091AB0190E0019687709927809383
:10413000AB01D9CF0E94281D1092AC011092AB01A7
:10414000EDEDF1E086E0DF011D928A95E9F7CACF37
:104150002C960FB6F894DEBF0FBECDBFDF91CF9186
:104160001F910895EF92FF920F931F93CF93DF93C8
:104170009C01009709F471C0F12CEE24E394E9014D
:104180002196F9018491843740F4843008F056C0B8
:10419000813081F0823021F160C0853709F449C057
:1041A000C0F19CE7980F903708F057C08F770E94B6
:1041B000AA1946C089010E5F1F4FFE01849190E24B
:1041C000980F983050F48770FE2D01C0FF0F8A952C
:1041D000EAF78F2F0E94262315C00E948C1814C066
:1041E00089010E5F1F4FFE01849190E2980F983075
:1041F00068F48770FE2D01C0FF0F8A95EAF78F2FB4
:104200000E942C230E944F23E8011AC00E94AA1981
:10421000FBCF2E5F3F4FFE01C491CC2341F08FE9CD
:104220009FE00197F1F700C00000C150F6CFE9010F
:1042300007C0FE01F490E901229602C00E948C188A
:104240008F2D882341F0EFE9FFE03197F1F700C0AF
:1042500000008150F6CF9E0192CFDF91CF911F9148
:104260000F91FF90EF90089508950C9434210E94CF
:1042700035216093190270931A0280931B02909368
:104280001C020C940E1D08950C9437210F931F935C
:104290000091190210911A0220911B0230911C0208
:1042A000602B712B822B932B1F910F910C94372134
:1042B0000F931F930091190210911A0220911B0273
:1042C00030911C0260237123822393231F910F914D
:1042D0000C9437210F931F930091190210911A0229
:1042E00020911B0230911C0260277127822793279F
:1042F0001F910F910C9437210C9490060E947C2101
:10430000609315027093160280931702909318021F
:104310000C940E1D60E070E0CB010C947E2141E016
:1043200050E060E070E004C0440F551F661F771F27
:104330008A95D2F7CB01BA010C947E2141E050E07E
:1043400060E070E004C0440F551F661F771F8A9518
:10435000D2F78091150290911602A0911702B091A8
:104360001802482B592B6A2B7B2BCB01BA010C94DA
:104370007E2141E050E060E070E004C0440F551F32
:10438000661F771F8A95D2F7409550956095709576
:104390008091150290911602A0911702B091180217
:1043A000482359236A237B23CB01BA010C947E2135
:1043B00041E050E060E070E004C0440F551F661F0C
:1043C000771F8A95D2F78091150290911602A091DD
:1043D0001702B0911802482759276A277B27CB017B
:1043E000BA010C947E210F931F9300911502109136
:1043F00016022091170230911802602B712B822B2C
:10440000932B1F910F910C947E210F931F9300917A
:1044100015021091160220911702309118026023A4
:104420007123822393231F910F910C947E210F936C
:104430001F930091150210911602209117023091DE
:10444000180260277127822793271F910F910C94E0
:104450007E2108952FE0929F800D1124482F4695CC
:10446000469546958770B1E001C0BB0F8A95EAF783
:1044700085E0489FA00111244D515E4F80E090E0FF
:1044800070E0FA01E80FF91FA0819B01082E02C01D
:10449000369527950A94E2F72170332721952A272C
:1044A0002B232A27208301968530910551F7089503
:1044B0002FE0929F800D1124682F66956695669572
:1044C000982F977085E0689FB00111246D517E4F41
:1044D00040E050E080E0FB01E40FF51F208130E078
:1044E000092E02C0369527950A94E2F721703327EA
:1044F000042E01C0220F0A94EAF7822B4F5F5F4F10
:104500004530510541F70895CF92DF92EF92FF9227
:104510000F931F93CF93DF93EC01C0901902D090BB
:104520001A02E0901B02F0901C02809115029091FB
:104530001602A0911702B0911802C82AD92AEA2AB5
:10454000FB2A0FE110E0B701A601002E04C076950A
:104550006795579547950A94D2F740FD05C00150DD
:10456000110988F780E007C0BE01802F0E94930ADE
:104570000197A9F3802FDF91CF911F910F91FF90A9
:10458000EF90DF90CF900895CF93DF93EC010E94DE
:104590008422BE010E94930ADF91CF9108951F9358
:1045A000CF93DF93EB019091AA01992321F0CB01E6
:1045B0000E94C42213C0882349F0CB010E948422A8
:1045C000182F682FCE010E942A2204C0CB010E941E
:1045D0005822182FBE01812F0E94930ADF91CF919C
:1045E0001F91089580911D02859585958595089563
:1045F00080911D028770089590911D02977081E04F
:1046000009F480E00895809141020895909141025B
:10461000982B9093410208958095909141029823A0
:1046200090934102089510924102089590914002A2
:10463000982B909340020895809590914002982382
:1046400090934002089510924002089590913F0285
:10465000982B90933F020895809590913F02982364
:1046600090933F02089510923F02089580911E0298
:10467000089508950C94392390911E02981721F003
:1046800080931E020C943A23089580911E02882381
:1046900029F010921E0280E00C943A230895E091D4
:1046A0001101F0911201809141028083E09111018A
:1046B000F0911201808190914002892B8083E091DA
:1046C0001101F0911201808190913F02892B80832A
:1046D00090911E02992381F0E0911101F091120155
:1046E0008081892B808380911101909112010E9419
:1046F000BC2481110E9445238091110190911201E7
:104700000C94C41608950C94822398E0899F90011C
:104710001124622B60931D020E949E2180911D0234
:104720008595859585950C94832310921D0280E0D4
:104730000C94832340911D028095842380931D0255
:10474000982F977079F450E0282F332727FD309564
:104750004217530739F08595859585950E94B921B3
:104760000C949523089590936D0180936C010895A6
:10477000CF92DF92EF92FF920F931F936C01EE2482
:10478000FF24C114D104E104F10421F46B017C0184
:1047900080E001C080E133272F2D1E2D0D2D011546
:1047A00011052105310519F0885F6801790197012C
:1047B0008601A4E03695279517950795AA95D1F718
:1047C000011511052105310519F08C5F680179018A
:1047D00097018601F2E03695279517950795FA958A
:1047E000D1F7011511052105310519F08E5F68011A
:1047F0007901B701A6017695679557954795452BA1
:10480000462B472B09F08F5F1F910F91FF90EF9080
:10481000DF90CF9008958295982F9C7C96959695E1
:10482000837344E0849F90011124922B892F8A7A0C
:1048300086959575990F892B08951F93CF93DF93D4
:104840001F92CDB7DEB799830E940B24182F998150
:10485000892F0E940B24212F30E0322F2227A9011B
:10486000482BCA010F90DF91CF911F91089580E0EE
:1048700090E00E94D73221E08D3E9E4F09F020E06B
:10488000822F089582E090E00C94C93283E090E09A
:104890000C94C93284E090E00C94C932682F84E013
:1048A00090E00C94DD3286E090E00C94C932682FE1
:1048B00086E090E00C94DD32AB01BC018FE090E02B
:1048C0000C94EF32AB01BC0183E190E00C94EF3229
:1048D00060E070E0CB010C94622460E070E0CB01FA
:1048E0000E945C240C9468246DEE7EEF80E090E0E2
:1048F0000E94FB3260E082E090E00E94DD3260E0E6
:1049000083E090E00E94DD321092190210921A02A8
:1049100010921B0210921C0260E084E090E00E9462
:10492000DD3260E085E090E00E94DD3260E086E00C
:1049300090E00E94DD326FEF87E090E00E94DD3270
:1049400040E050E0BA0188E090E00E94EF3260E081
:104950008DE090E00E94DD3240E050E0BA0188E155
:1049600090E00E94EF3260E087E190E00E94DD324B
:104970000C946D240C94742402962091230121112F
:1049800002C026E005C02091AF0227FFFACF2EE13A
:10499000FC0180E0215028F091919923D9F38F5F99
:1049A000F9CF089520E030E04FEFFC01E20FF31F54
:1049B0005281561799F04F3F19F4511101C0422FFF
:1049C0002F5F3F4F2630310581F74F3F39F0FC0113
:1049D000E40FF11D47FDFA9562830895089520E0E4
:1049E00030E0FC01E20FF31F4281461301C0128246
:1049F0002F5F3F4F26303105A1F70895262F2695CA
:104A0000269526952E3178F4FC01E20FF11D677092
:104A100021E030E0062E01C0220F0A94EAF78281DD
:104A2000822B828308958091420280FF0CC01F92E6
:104A30006F938EE398E09F938F930E946E060F9082
:104A40000F900F900F900895262F26952695269566
:104A50002E3180F4FC01E20FF11D677021E030E09F
:104A6000062E01C0220F0A94EAF72095828128239E
:104A7000228308958091420280FF0CC01F926F93A1
:104A800080E298E09F938F930E946E060F900F90A4
:104A90000F900F90089520912301222329F0209157
:104AA000AF0227FD0C94FE240C94D2242091230104
:104AB000222329F02091AF0227FD0C9424250C9489
:104AC000EF2420912301FC013296222331F08091C2
:104AD000AF0287FF02C08EE101C086E0DF011D92B8
:104AE0008A95E9F7089508950C9473250E9474251A
:104AF0008091B602843049F11092430220E488E1AB
:104B000090E00FB6F894A895809360000FBE2093B4
:104B1000600080E00E94B30780E00E942A080E94A3
:104B2000742583B7817F846083BF83B7816083BF2F
:104B30007894889583B78E7F83BF88E10FB6F89409
:104B400080936000109260000FBE0895089508954C
:104B5000CF930E94A6250E94BE0D0E94A725C0E00B
:104B60008C2F0E94240D892B29F4CF5FC530C1F70B
:104B700080E001C081E0CF91089508950C94BD2597
:104B80000E94281D0E9431290E94B8160E942A08FE
:104B90000C94BE251F920F920FB60F9211248F9383
:104BA0009F93AF93BF9380914302811113C0809173
:104BB000AB029091AC02A091AD02B091AE024196D1
:104BC000A11DB11D8093AB029093AC02A093AD02E6
:104BD000B093AE02BF91AF919F918F910F900FBE96
:104BE0000F901F90189582E084BD93E095BD9AEFD9
:104BF00097BD80936E0008952FB7F8948091AB0213
:104C00009091AC02A091AD02B091AE022FBF089579
:104C1000CF92DF92EF92FF920F931F932FB7F894EA
:104C20004091AB025091AC026091AD027091AE0226
:104C30002FBF6A017B01EE24FF248C0120E030E0CD
:104C4000C016D106E206F30610F441505109481B84
:104C5000590BCA011F910F91FF90EF90DF90CF90F9
:104C6000089578941F920F920FB60F9211248F938C
:104C70009F93AF93BF938091AB029091AC02A091B0
:104C8000AD02B091AE020196A11DB11D8093AB02A1
:104C90009093AC02A093AD02B093AE02BF91AF91DE
:104CA0009F918F910F900FBE0F901F90189581E0EC
:104CB0008093E00080E28093D8001092C9008FE1D9
:104CC0009EE40197F1F700C0000087E090EBDC0163
:104CD0008093BF029093C002A093C102B093C2021E
:104CE0002CE088E190E00FB6F894A89580936000DE
:104CF0000FBE20936000FFCF0E943724811102C0B5
:104D00000E94BA240E944224809342020E944A24B4
:104D100090E09093B0028093AF020E944624682FE7
:104D200070E080E090E00C9444218091470280FF85
:104D30000BC06091160185E0689FB0011124759544
:104D40006795759567952AC081FF09C06091160126
:104D500085E0689FB0011124759567951FC082FF9B
:104D600007C06091160185E0689FB001112416C04C
:104D7000409146024423C9F060911501461788F717
:104D80002091160185E0289F90011124429FC001C7
:104D9000439F900D112470E00E94753260387105B8
:104DA00040F46115710539F002C065E070E0862FAE
:104DB00008958FE7089581E008958091470280FF6C
:104DC00008C06091140170E07595679575956795B9
:104DD00021C081FF06C06091140170E07595679550
:104DE00019C082FF04C06091140170E010C080916E
:104DF00046028823C1F0609113018617A0F79091B5
:104E00001401989FC001112470E00E94753260382F
:104E1000710528F46115710521F0862F08958FE73B
:104E2000089581E0089561E070E0F4CF803F21F4BF
:104E30000E949526819504C0813F29F40E94952601
:104E400080934B020895823F21F40E94952681951C
:104E500004C0833F29F40E94952680934A02089556
:104E6000893F19F40E94DD2605C08A3F31F40E9473
:104E7000DD26819580934C0208958B3F21F40E949A
:104E8000DD26819504C08C3F29F40E94DD268093A5
:104E90004D020895843F21F480914902816017C03A
:104EA000853F21F480914902826011C0863F21F440
:104EB0008091490284600BC0873F21F480914902B0
:104EC000886005C0883F31F48091490280618093F9
:104ED000490208958D3F21F48091470281600BC003
:104EE0008E3F21F480914702826005C08F3F29F4F4
:104EF000809147028460809347020895803F39F48F
:104F000080914B0287FF6CC010924B0269C0813FB9
:104F100029F480914B021816BCF362C090914A02AA
:104F2000823F29F497FF5CC010924A0259C0833F28
:104F300019F41916CCF354C0893F41F480914C0206
:104F400018160CF04DC010924C024AC08A3F29F44A
:104F500080914C0287FF44C0F6CF8B3F39F480919B
:104F60004D0287FF3DC010924D023AC08C3F29F49C
:104F700080914D021816BCF333C0843F21F4809118
:104F800049028E7F17C0853F21F4809149028D7FB1
:104F900011C0863F21F4809149028B7F0BC0873F6F
:104FA00021F480914902877F05C0883F31F48091C8
:104FB00049028F7E8093490213C08D3F21F4809176
:104FC00047028E7F0BC08E3F21F4809147028D7F78
:104FD00005C08F3F29F4809147028B7F8093470261
:104FE00080914A0281110EC080914B0281110AC04A
:104FF00080914C02811106C080914D02811102C046
:105000001092460208958091420283FF7EC083E899
:1050100098E00E94D505809149021F928F938EE7F8
:1050200098E09F938F930E946E068CE798E00E9411
:10503000D50520914A02822F992787FD90959F934D
:105040002F9389E798E09F938F930E946E0687E7DE
:1050500098E00E94D50520914B02822F992787FD69
:1050600090959F932F9384E798E09F938F930E944E
:105070006E0682E798E00E94D50520914C02822FAF
:10508000992787FD90959F932F938FE698E09F93A4
:105090008F930E946E068DE698E00E94D5052091C0
:1050A0004D02822F992787FD90959F932F938AE633
:1050B00098E09F938F930E946E0687E698E00E9487
:1050C000D505809146021F928F9384E698E09F93C6
:1050D0008F930E946E0682E698E00E94D50580912B
:1050E00047021F928F938FE598E09F938F930E94C2
:1050F0006E068CE598E00E94D5058DB79EB74C965C
:105100000FB6F8949EBF0FBE8DBF88E492E00E9458
:1051100016170E94FC25909345028093440208953F
:105120001F93CF93DF9380914402909145020E9498
:10513000082640914602442321F02091170130E0D7
:1051400006C0209118015AE0259F90011124821772
:10515000930708F476C080914A0210914B02D091D7
:105160004C02C0914D02811107C0111105C0D1112F
:1051700003C0CC2309F465C04F3F19F04F5F409343
:105180004602181624F40E94952680934A028091C4
:105190004A0287FF05C00E949526819580934A02A6
:1051A000111624F40E94952680934B0280914B02A5
:1051B00087FF05C00E949526819580934B02209120
:1051C0004A022223D9F040914B024423B9F055EB17
:1051D000250390011124332319F030934A0203C0B0
:1051E00081E080934A0225EB4203C0011124909391
:1051F0004B02911103C081E080934B021D1624F4F1
:105200000E94DD2680934C0280914C0287FF05C0EE
:105210000E94DD26819580934C021C1624F40E9486
:10522000DD2680934D0280914D0287FF05C00E94CC
:10523000DD26819580934D02DF91CF911F910C94D3
:105240000328DF91CF911F910895E8E4F2E086E012
:10525000DF011D928A95E9F71092460210924702EB
:1052600008950E943724811102C00E94BA240E942E
:1052700053248093B102282F269530E02630310543
:1052800024F081708A608093B1028091B10280FF26
:1052900002C0869501C080E00C94B3072091B10252
:1052A000322F3695832F90E0059744F491E0930FC9
:1052B000990F822F8170892B8093B1028091B10266
:1052C00081608093B1020E9457248091420280FF46
:1052D0000FC08091B10286951F928F938DE099E067
:1052E0009F938F930E946E060F900F900F900F90D8
:1052F0008091B10286950C94B3078091B102982FEA
:10530000969591F09158990F8170892B8093B102F5
:105310008E7F91E009F490E08091B10290FB80F9DA
:105320008093B1020E9457248091420280FF0FC0F7
:105330008091B10286951F928F9385EF98E09F939D
:105340008F930E946E060F900F900F900F90809198
:10535000B10286950C94B3078091B10280FD1DC007
:1053600081608093B102813019F483E08093B102AF
:105370008091B1020E9457248091420280FF08C0B0
:105380008DEC98E09F938F930E946E060F900F9084
:105390008091B10286950C94B30708958091B10273
:1053A00080FF14C08E7F8093B1020E9457248091A9
:1053B000420280FF08C08AEB98E09F938F930E947F
:1053C0006E060F900F9080E00C94B3070895CF9372
:1053D000C091B102C1708091420280FF0CC01F9247
:1053E000CF938FED98E09F938F930E946E060F905E
:1053F0000F900F900F90CC2319F0CF910C94CE29E1
:10540000CF910C94AC293091B102232F26952F5FB8
:105410002F77822F90E0317006972CF4220F232BE8
:105420002093B10202C03093B1028091B1028E7F0D
:1054300091E009F490E08091B10290FB80F98093B3
:10544000B1020E9457248091420280FF0FC08091D8
:10545000B10286951F928F9386EA98E09F938F936F
:105460000E946E060F900F900F900F908091B102E6
:1054700086950C94B307863008F085E0880F9091EC
:10548000B1029170982B9093B1029E7F21E009F4B4
:1054900020E08091B10220FB80F98093B1020E944C
:1054A00057248091B10286950C94B30780917102C4
:1054B00008959FB7F894109250029FBF9091B60242
:1054C000943009F058C09091E9009F702091EC0051
:1054D00020FF02C020E801C020E0292B93E0909338
:1054E000E9009091EB0090FF43C09091EE0097FF90
:1054F0003FC090914E02992321F09091E80095FFD2
:1055000037C010924E0296E03091E80035FD15C08C
:105510003091B602343061F53091EB0035FD28C092
:10552000915021F481E080934E0222C0EFE9FFE028
:105530003197F1F700C00000E7CF8093F100809130
:10554000E80085FD0AC08091E80080FFFCCF8091D3
:10555000E8008E778093E80006C08FB7F89491E05A
:10556000909350028FBF2F702093E90080E0089540
:105570002F702093E9008FEF08950F931F93CF931F
:10558000DF9300D01F92CDB7DEB78C010E948B2D28
:10559000823011F0843021F584E089831B830A83F3
:1055A00082E08093E9008FEF9091E800815095FDB3
:1055B00006C095ED9A95F1F700008111F5CF809125
:1055C000E80085FF0DC040E050E063E070E0CE01F0
:1055D00001960E94A82D8091E8008E778093E800C4
:1055E0000F900F900F90DF91CF911F910F91089521
:1055F000CF93DF9300D01F92CDB7DEB72091B602D4
:10560000243031F523E02983805891099B838A83D4
:1056100082E08093E9008FEF9091E800815095FD42
:1056200006C095ED9A95F1F700008111F5CF8091B4
:10563000E80085FF0DC040E050E063E070E0CE017F
:1056400001960E94A82D8091E8008E778093E80053
:105650000F900F900F90DF91CF910895CF93DF932C
:10566000EC010E948B2D823011F08430F9F482E03D
:105670008093E9008FEF9091E800815095FD06C07E
:1056800095ED9A95F1F700008111F5CF8091E80032
:1056900085FF0CC040E050E066E070E0CE010E9463
:1056A000A82D8091E8008E778093E800DF91CF915C
:1056B0000895CF93DF93EC010E948B2D823011F07F
:1056C0008430D9F580912301811103C068E081E025
:1056D00006C08091AF0287FFF9CF60E282E080933D
:1056E000E9008FEF9091E800815095FD06C095ED9F
:1056F0009A95F1F700008111F5CF8091E80085FFC0
:105700001CC080912301811105C040E050E068E099
:1057100070E003C070E040E050E0CE010E94A82D90
:105720008091E8008E778093E80080E2FE01A1E599
:10573000B2E001900D928A95E1F7DF91CF91089543
:105740008AE499E00E94D5058091B502811109C0D3
:105750000E943A2F0E94972F8091E20084608093EC
:10576000E200089586E499E00E94D5051092B50202
:10577000089582E499E00C94D5058EE399E00C94A9
:10578000D5058AE399E00E94D5050C94C025809147
:105790004F028F5F80934F0262E30E945532911156
:1057A00035C010924F0280915002882379F1809188
:1057B000B602843049F58091E9008F709091EC0039
:1057C00090FF02C090E801C090E0982B83E08093A6
:1057D000E9008091EB0080FF14C08091EE0087FF0C
:1057E00010C08091E80085FF03C01092F100F9CF4E
:1057F0008091E80080FF05C08091E8008E7780935B
:10580000E8009F709093E90010925002089542E0E2
:1058100061EC81E00E94B42E42E261EC82E00E94E1
:10582000B42E42E261EC83E00C94B42E8091B80275
:10583000833009F460C030F4813071F0823009F4B3
:1058400099C008958A3009F485C08B3009F46BC083
:10585000893009F0A7C020C08091B702813A09F0D1
:10586000A1C08091E800877F8093E8008091BB020F
:105870009091BC02892B21F060E080E090E003C0B1
:1058800060E281E592E070E00E94F12D8091E800F5
:105890008B778093E80008958091B702813209F0F8
:1058A00081C08091BB029091BC02029708F07AC03F
:1058B0008091E800877F8093E8008091E80082FD76
:1058C00005C08091B6028111F8CF6CC02091F30021
:1058D0008091F20090E0922B029729F48091F100E0
:1058E0008B7F813021F48091F1008093710280914F
:1058F000E8008B7753C08091B702813A09F052C01B
:105900008091BB029091BC02892B09F04BC0809121
:10591000E800877F8093E8008091E80080FFFCCF5B
:105920008091230136C08091B7028132D9F58091F0
:10593000BB029091BC02892BA9F58091E800877F7A
:105940008093E8000E94E92E8091B90280932301A0
:105950000C94281D8091B702813221F58091E800D6
:10596000877F8093E8000E94E92E8091BA0280939D
:10597000720208958091B702813AA1F48091E80003
:10598000877F8093E8008091E80080FFFCCF8091C2
:1059900072028093F1008091E8008E778093E80096
:1059A0000C94E92E089584B7877F84BF88E10FB6F1
:1059B000F89480936000109260000FBE80E880939E
:1059C0006100109261000E945E170E943A2F0E94AF
:1059D000972F8091E20084608093E20089E59AE24B
:1059E0000E94B32378940E9419320E94661789E1BD
:1059F00091E00E94B31689E299E00E94D50580915A
:105A0000B602853089F485E299E00E94D5050E94AE
:105A100076258091B402882391F30E94A8258823DB
:105A200071F30E94922DEBCF0E949A170E943815B5
:105A3000E6CF0C941B2D292F332723303105A9F0F5
:105A40006CF42130310509F448C02230310509F0E9
:105A500049C08BE590E026E739E048C021323105A6
:105A6000F9F02232310549F13DC099278130910585
:105A700071F02CF4892BB1F5E2E7F9E00DC082302A
:105A8000910541F0039771F5EEE4F9E005C0E0E619
:105A9000F9E002C0E4E5F9E0849190E09F0126C0BE
:105AA00063307105F8F4FB01EE0FFF1FEA59FE4F5A
:105AB0002081318189E090E019C06330710590F454
:105AC000FB01EE0FFF1FE05AFE4F20813181FB01E9
:105AD000E35AFE4F808190E009C082E190E021ED21
