:100000000C9401030C9445030C9445030C94450394
:100010000C9445030C9445030C9445030C94450340
:100020000C9445030C9445030C9448280C941A290D
:100030000C9409200C9445030C9445030C9445033F
:100040000C9445030C9445030C9445030C94450310
:100050000C9445030C9470200C9445030C944503B8
:100060000C9445030C9445030C9445030C944503F0
:100070000C9445030C9445030C9445030C944503E0
:100080000C9445030C9445030C9445030C944503D0
:100090000C9445030C9445030C9445030C944503C0
:1000A0000C9445030C9445030C9445036C057205B0
:1000B000760579057D058105850589058E059205FD
:1000C00096059A059D05A105A505A905AD05B205ED
:1000D00008150815421542158515A515361736174A
:1000E000EB1536178A168A160117091736173017B7
:1000F0009716971697169716971697169716971698
:100100009716971697169716971697169716971687
:10011000A916B916C016C716D116CA17CA17DD1701
:10012000DD17D317DD17DD17DD17CA17CA17D91763
:10013000DD17DD17D9177F29A629942AA629942A25
:10014000EE29112A942A672A762A29001E001F0008
:100150002000210022002300240025002600270083
:100160002D002E0000002A002B00000014001A00B1
:100170000800150017001C0018000C0012001300E6
:100180002F00300031003900000004001600070085
:1001900009000A000B000D000E000F0033003400B0
:1001A00028000000E10000001D001B0006001900EF
:1001B000050011001000360037000000E500520075
:1001C0003800E000E3000000E200000000002C0026
:1001D000000000000000F45C0151500051004F008D
:1001E00035003A003B003C003D003E003F0040002F
:1001F0004100420043004400450000004C00010063
:100200000000AA00A9000100010001000100010096
:1002100001000100010001000100005C010000007C
:1002200001000100010001000100010001000100C6
:1002300001000100010001000000010000000100B8
:1002400001000100010001000100010001000100A6
:100250000000010001000100010001000000010098
:10026000000000000100000000000000010001008B
:1002700001000100010000047F3F1F64321464325A
:1002800014783C1E1E140A052223252628292A2C10
:100290002D2F3032333536383A3B3D3E40424345D0
:1002A00047494A4C4E5051535557595A5C5E60620B
:1002B000646668696B6D6F71737577797B7D7F811B
:1002C000838587898A8C8E90929496989A9C9E9F1B
:1002D000A1A3A5A7A8AAACAEAFB1B3B4B6B8B9BB39
:1002E000BCBEBFC1C2C3C5C6C7C9CACBCCCDCED0A8
:1002F000D1D2D2D3D4D5D6D7D7D8D9D9DADADBDB95
:10030000DBDCDCDCDCDCDDDDDDDDDCDCDCDCDCDB2B
:10031000DBDBDADAD9D9D8D7D7D6D5D4D3D2D2D174
:10032000D0CECDCCCBCAC9C7C6C5C3C2C1BFBEBC67
:10033000BBB9B8B6B4B3B1AFAEACAAA8A7A5A3A1D8
:100340009F9E9C9A98969492908E8C8A898785839A
:10035000817F7D7B79777573716F6D6B696866647A
:1003600062605E5C5A5957555351504E4C4A49474A
:10037000454342403E3D3B3A3836353332302F2DEF
:100380002C2A292826252322FFAA7F554000000079
:100390000000000000000001010101010101010154
:1003A0000202020202020202030303030303030424
:1003B00004040404050505050506060606060707E8
:1003C0000707080808080909090A0A0A0B0B0B0C99
:1003D0000C0C0D0D0D0E0E0E0F0F10101011111232
:1003E0001213131414151516161717181819191AAD
:1003F0001A1B1C1C1D1D1E1F1F202121222323240C
:10040000252526272828292A2B2C2C2D2E2F303144
:100410003132333435363738393A3B3C3D3E3F4054
:100420004142434445464748494B4C4D4E4F50523C
:100430005354555758595A5C5D5E606163646567F3
:10044000686A6B6C6E6F7172747677797A7C7D7F77
:100450008182848687898B8D8E9092949597999BC3
:100460009D9FA1A2A4A6A8AAACAEB0B2B4B6B9BBD7
:10047000BDBFC1C3C5C8CACCCED0D3D5D7DADCDEA8
:10048000E1E3E6E8EAEDEFF2F4F7F9FCFF0403300C
:100490000000000A0344005A00360030000000103B
:1004A000034B0042004400460061006E00730000F0
:1004B000000403090409023B00020100A0FA090438
:1004C0000000010301010009211101000122400087
:1004D0000705810308000A09040100010300000068
:1004E00009211101000122C0000705820320000A32
:1004F0001201100100000008EDFE6022010001025F
:10050000030105010902A10185020901A1000509F4
:10051000190129051500250195057501810295012F
:10052000750381010501093009311581257F950287
:100530007508810609381581257F950175088106A2
:10054000050C0A38021581257F950175088106C0C2
:10055000C005010980A10185031601002603001AC8
:1005600081002A8300751095018100C0050C0901E6
:10057000A1018504160100269C021A01002A9C0292
:10058000751095018100C005010906A101850505C9
:100590000719E029E7150025019508750181020575
:1005A00008190129059505750191029501750391B9
:1005B000010507190029EF1500250195F075018146
:1005C00002C005010906A101050719E029E7150088
:1005D00025019508750181029501750881010508BD
:1005E0001901290595057501910295017503910180
:1005F0000507190029FF150026FF009506750881DB
:1006000000C011241FBECFEFDAE0DEBFCDBF04B6BD
:1006100003FE24C08091A8029091A902A091AA0291
:10062000B091AB028730904BA740B04BB9F4109219
:10063000A8021092A9021092AA021092AB0214BE54
:1006400084B7877F84BF88E10FB6F89480936000F9
:10065000109260000FBEE0E0F8E3099511E0A0E021
:10066000B1E0E6E3F7E502C005900D92AC35B107C5
:10067000D9F712E0ACE5B1E001C01D92A83AB1078C
:10068000E1F70E946F250C94992B0C9400000C94B8
:10069000CF09229A2A9A08950E94CE090C94490300
:1006A00081FF02C02A9801C02A9A0C94DD04843F7D
:1006B0009C4541F4FB018281882321F080E491E094
:1006C0000E940E0481E00895CF92DF92EF92FF9294
:1006D0006B017C010E94451E882331F0813049F472
:1006E00044E767EC8FEF03C049E568E482EB0E94C2
:1006F0003C0CC701B601FF90EF90DF90CF900895BA
:100700000F931F93CF93DF938C01EB019A95811583
:100710009F4138F510FF03C080EEFB01099511FFE2
:1007200003C081EEFE01099512FF03C082EEFE01B7
:10073000099513FF03C083EEFE01099501151041D1
:1007400080F084EEFE01099585EEFE01099586EEA6
:10075000FE01099587EEFE01DF91CF911F910F9168
:100760000994DF91CF911F910F910895877091E0C7
:1007700001C0990F8A95EAF7892F0E94A81D0C9451
:10078000E11D877091E001C0990F8A95EAF7892FE2
:100790000E94A81D0C94E11D877091E001C0990F83
:1007A0008A95EAF7892F0E94AE1D0C94E11D87708F
:1007B00091E001C0990F8A95EAF7892F0E94AE1D3A
:1007C0000C94E11DCF93DF93EC01805E91090897B3
:1007D00010F0209719F461EC73E002C066EB73E04F
:1007E000CE010E9480038C2FDF91CF910C941E13B9
:1007F000CF93DF93EC010E943C14CE01805E9109FF
:10080000089710F0209719F467ED73E002C06CECC4
:1008100073E0CE01DF91CF910C948003CF93DF93EF
:10082000EC010E94E203CE01DF91CF910C94F8031A
:1008300081E008950C9457031F93CF93DF9300D06A
:1008400000D01F92CDB7DEB749835A83209196011D
:1008500089819A81211112C0662349F00E94161DD8
:10086000182F682F89819A810E94BC1C03C00E94A6
:10087000EA1C182F69817A81812F04C00E94161DFD
:1008800069817A810F900F900F900F900F90DF91F8
:10089000CF911F910C942307FC014081518162810B
:1008A000738184810C941C040C944703E82FE29517
:1008B000EF70F0E092A18F7021E030E0082E01C0CF
:1008C000220F0A94EAF72095922392A30895CF92DB
:1008D000DF92EF92FF92863030F4811105C0909143
:1008E00080009F7D04C085E090918000906290938D
:1008F0008000282F30E0AFEFBFEF0E94CA2A25E02A
:1009000030E040E050E00E94112BC9012C3764E137
:10091000360728F469E070E00E94E92A29C0DA016C
:10092000C9018A50974DAF4FBF4F6627782F892F47
:100930009A2F25EF38E241E050E00E94112B690127
:100940007A01CA01B9010E94D92A9B01AC01C701F1
:10095000B6010E94D92ABB27A92F982F872F00976D
:1009600021E0A207B10511F0BC0102C06FEF7FEFDB
:1009700070938B0060938A00FF90EF90DF90CF9090
:100980000895269A86E30E94560482E280938000AE
:1009900089E1809381008FEF9FEF90938700809390
:1009A00086000C94EE220E94981E811102C00E94C3
:1009B0001B1F0E94C1040C944C0308950C94500317
:1009C00008950E94BA170E94E0042FEF84E39CE090
:1009D000215080409040E1F700C000000C94962028
:1009E0000F931F93CF93DF938C010E944C04EC0173
:1009F000B8010E941A04882309F41BC2B801CE0171
:100A00000E946411882309F414C2CA3CFCE5DF0784
:100A100041F4F8018281882309F40BC20E94BF0DC2
:100A200008C2CB3C8CE5D80708F036C1C33C9CE536
:100A3000D90761F4F8018281882309F4FAC10E9480
:100A4000951D8272E1F00E94DA0FF3C1C43CECE51F
:100A5000DE07C0F0C63C9CE5D90709F4EEC008F0FB
:100A600000C1C43CFCE5DF0709F0EFC0F80182815A
:100A7000882309F4DEC10E94951D827221F30E9431
:100A8000CE0FD7C1C531FCE5DF0708F0A1C0C230E9
:100A90008CE5D80708F478C0F8018281882309F42E
:100AA0007AC00E94981E811102C00E941B1F0E94E2
:100AB000AB1E90E09093990280939802FE01E35060
:100AC000FC45E231F10520F4EA5AFF4F0C94332B38
:100AD00080919802816003C0809198028260809327
:100AE00098024BC0809198028460F9CF809198025F
:100AF00013C0809198028061F2CF80919802806249
:100B0000EECF809198028064EACF8091980280684D
:100B1000E6CF8091980284608860E1CF809198024E
:100B20008E7FDDCF809198028D7FD9CF8091980202
:100B30008B7FD5CF8091980213C0809198028F7ED1
:100B4000CECF809198028F7DCACF809198028F7B03
:100B5000C6CF809198028F77C2CF809198028B7F09
:100B6000877FBDCF9091980297FB882780F921E07D
:100B7000822780FB97F990939802809198020E94B7
:100B8000AF1E0E94BA1755C1C1159CE5D90751F097
:100B9000C130DC4579F0C801DF91CF911F910F91F1
:100BA0000C941804F8018281882309F442C10E9440
:100BB000E1043FC1F8018281882309F43AC18091A0
:100BC0002E02982F909590FB80F980932E0231C1D0
:100BD000C631FCE5DF0729F50E94951D382FF80185
:100BE00022818091100190911101222371F03A7AB3
:100BF00021E009F420E020935C01222311F065E359
:100C000001C069E20E948A1F09C020915C01222371
:100C100011F065E301C069E20E94951F0E94E11D89
:100C200008C1C23CDC4509F0B6CFF80182818823B7
:100C300009F4FFC00E94E80FFCC0F80182818823FC
:100C400009F4F7C00E947F0DF4C0C53CDC4509F0F3
:100C5000A2CFF8018281882309F4EBC00E94710DB4
:100C6000E8C0F8018281C83CFCE5DF0731F4882345
:100C700009F4DFC00E949F0DDCC0C93CDC4530F4A4
:100C8000882309F4D6C00E948F0DD3C0882309F4AD
:100C9000D0C00E94AF0DCDC0C13DECE5DE0791F4A0
:100CA000F8018281882309F4C4C00E94ED0B8F30C3
:100CB00028F00E94ED0B843108F4E1CE8FE00E9411
:100CC000DD0FB7C0C23DFCE5DF0708F05AC0CD3CE0
:100CD0008CE5D80739F4F8018281882309F4A9C08A
:100CE00081E0EDCFCE3C9CE5D907C0F4CB3CECE5F0
:100CF000DE0741F4F8018281882309F49AC00E943A
:100D0000F50B97C0CC3CDC4509F045CFF80182815A
:100D1000882309F48EC00E94060C8BC0F8018281E2
:100D2000CF3CFCE5DF0771F4882309F482C00E9400
:100D3000ED0B863028F00E94ED0B883008F49FCE32
:100D400086E0BDCFC03DDC4570F4882309F471C056
:100D50000E94ED0B823028F00E94ED0B853008F4E4
:100D60008ECE82E0ACCF882309F463C00E94ED0BE5
:100D7000893028F00E94ED0B8E3008F480CE89E097
:100D80009ECFC53DECE5DE0739F4F801828188236A
:100D900009F44FC083E293CFC63DFCE5DF0740F581
:100DA000F8018281C33DFCE5DF0729F4882309F4BB
:100DB00040C088E184CFC43DDC4568F48823C9F194
:100DC0000E94ED0B853128F00E94ED0B873108F46D
:100DD00056CE85E174CF882361F10E94ED0B8931F5
:100DE00028F00E94ED0B823208F449CE89E167CFEA
:100DF000CD3DECE5DE0741F4F80182818823C9F09E
:100E000082E00E940E2615C0CE3DFCE5DF0739F4D6
:100E1000F8018281882369F00E941B1F0AC0CC3D23
:100E2000DC4509F0B8CEF8018281882311F080E01A
:100E3000E8CF80E0DF91CF911F910F91089580E07E
:100E400090E0089508959FE0799FF00111249BE4BC
:100E5000899FE00DF11D1124E60FF11DEE0FFF1F1C
:100E6000E65BFE4F859194910895880F991F8A58EB
:100E70009D4FFC01859194910895CF93DF930E943B
:100E800023070E942F09EC01811521E5920708F044
:100E900044C0C11580E5D80708F031C1C83ED1056E
:100EA00010F5C03ED10508F0D6C1C83AD10578F496
:100EB000C53AD10508F0A6C0C130D10509F4CBC1AF
:100EC00008F47CC1C430D10508F0C5C177C1CF3B5F
:100ED000D10508F4A2C0C03CD10508F46FC1CE0111
:100EE000805C9109FBC0C11520E3D20780F4C115D5
:100EF00080E2D80708F0F0C0C03FD10508F45EC119
:100F0000CF3FD10511F008F0A6C1D065A4C1C1152D
:100F100020E4D20708F0F0C0E5C0C11589E5D80784
:100F200060F5C11528E5D20708F034C1C11584E584
:100F3000D80778F4C11523E5D20708F011C1C1150F
:100F400082E5D80708F0F7C0DC2FCC27C16FD06A44
:100F500082C1C11525E5D20708F417C1C11586E580
:100F6000D80708F02BC18C2F0E94AB098F71C82FB6
:100F7000D0E0DC2FCC27D0626EC1CD3B2CE5D20770
:100F800009F413C1F0F4CB3B2CE5D20709F407C1F7
:100F900008F008C1C1152AE5D20708F00FC18C2F4F
:100FA0008F700E94AB0934E0D695C7953A95E1F76A
:100FB000CF70D0E0DC2FCC27D06A8F70806EC82B2A
:100FC0004AC1C03C8CE5D80709F4F5C060F4CE3BBB
:100FD0008CE5D80709F4ECC0CF3BDC4509F0EEC046
:100FE000C0E0D2ED38C1CE0190568115904208F094
:100FF000E5C08D2F8F710E94AB09DD27D0628F7104
:10100000D82B29C1C53AD10509F4DBC0C63AD105B0
:1010100009F4DAC0C3E8D0E41EC1C83AD10509F426
:10102000D6C0C93AD10509F4D5C0CA3AD10509F4E8
:10103000D4C0CB3AD10509F4D3C0CC3AD10509F4D8
:10104000D2C0CB3BD10509F4D1C0CC3BD10509F4CA
:10105000D0C0CD3AD10509F4CFC0C03BD10509F4C9
:10106000CEC0CE3AD10509F4CDC0CF3AD10509F4AE
:10107000CCC0C13BD10509F4CBC0C23BD10509F4BA
:10108000CAC0C33BD10509F4C9C0C43BD10509F4AA
:10109000C8C0C53BD10509F4C7C0C63BD10509F49A
:1010A000C6C0C73BD10509F4C5C0C83BD10509F48A
:1010B000C4C0C93BD10509F4C3C0CD3BD10509F477
:1010C000C2C0CE3BD10509F4C1C0CA3BD10509F06D
:1010D000C0C0CAE2D6E4BFC0CE019F700E943507EF
:1010E000EC01B9C0CE019927D3FF03C0EC01D86C45
:1010F000B2C0EC01D06CAFC0DF70D06AACC02C2F96
:10110000237081E090E002C0880F991F2A95E2F7D2
:101110009C689E01F4E036952795FA95E1F72370D7
:10112000922BCF70C695C69520E2C29FE001112494
:10113000C82BD92B90C08C2F8695869520E2829F54
:10114000C00111249E0123703327C1E0D0E002C00A
:10115000CC0FDD1F2A95E2F7C82BD92BDC687BC0AA
:101160008C2F8695869520E2829FC00111249E01D6
:1011700023703327C1E0D0E002C0CC0FDD1F2A95D9
:10118000E2F7C82BD92BDA6866C0DC2FCC27C46FF6
:10119000D06A61C0DC2FCC27C06FD06A5CC0C0E0D1
:1011A000D4ED59C0C0E0D5ED56C0C0E0D1ED53C07C
:1011B000C0E0D0ED50C0C0E0D3ED4DC0C0E0D0E005
:1011C0004AC0C1E8D0E447C0C2E8D0E444C0C2EE9F
:1011D000D4E441C0C9EED4E43EC0CAEED4E43BC07E
:1011E000C5EBD4E438C0C6EBD4E435C0C3EBD4E4DB
:1011F00032C0C4EBD4E42FC0C7EBD4E42CC0CCEC99
:10120000D4E429C0CDECD4E426C0C3E8D5E423C09F
:10121000CAE8D5E420C0C2E9D5E41DC0C4E9D5E4DC
:101220001AC0C1E2D6E417C0C3E2D6E414C0C4E2D7
:10123000D6E411C0C5E2D6E40EC0C6E2D6E40BC0C7
:10124000C7E2D6E408C0CFE6D4E405C0C0E7D4E4E2
:1012500002C0C0E0D4E4CE01DF91CF91089582387E
:10126000910549F1B0F48133910509F459C048F46E
:101270008932910509F44FC08A32910509F455C0AD
:1012800008958533910509F441C08933910599F09A
:101290000895833E910531F138F4803E910591F037
:1012A000823E9105A9F00895863E910501F1873EA1
:1012B000910539F108952091980220FD3BC021FD50
:1012C00039C008958091980280FF34C089E341C0FD
:1012D0008091980282FF32C08091980284FF2CC0D6
:1012E00080E037C08091980282FD28C0F5CF8091C0
:1012F000980283FF25C08091980284FDF1CF87EE8C
:1013000028C08091980283FD1BC0F5CF8091980280
:1013100085FF18C019C08091980285FF15C012C0C2
:101320008091980286FF12C013C08091980286FFB8
:101330000FC00CC080EE0DC083EE0BC082EE09C062
:1013400086EE07C085E305C089E203C081E301C0E2
:101350008AE290E008959091980292FF0DC0282FA4
:101360002871283019F4877F846006C0282F2471E3
:10137000243011F48B7F886093FF0DC0282F2871D3
:10138000283119F4877E846106C0282F2471243106
:1013900011F48B7E886194FD877E089508950895E9
:1013A000E82FF0E0EE0FFF1FE35AFE4F808191819E
:1013B00008950895E2E3F1E021E030E08191A82F63
:1013C000A295AF70B0E091964C9191978F70B90152
:1013D00002C0660F771F8A95E2F7CB0180954823FC
:1013E00091964C9371E0E733F70741F7A3E2B1E040
:1013F00021E030E08D91E82FE295EF70F0E041A11F
:101400008F70B90102C0660F771F8A95E2F7CB0192
:10141000962F9095492341A392A1982B92A371E016
:10142000A233B70739F7E7E6F1E0ADE5B1E0119295
:1014300011921D921D9281E0E137F807C1F785E016
:101440000E94C20A0C94D3042F923F925F926F9233
:101450007F928F929F92AF92BF92CF92DF92EF9244
:10146000FF920F931F93CF93DF9352E3252E51E00A
:10147000352EA7E6B1E0B12C21E030E04D016D90B2
:101480007C90119711961C921E92E10169911E01A8
:10149000E62FE295EF70F0E081A16F70A90102C024
:1014A000440F551F6A95E2F7BA01842B81A382A1EC
:1014B000A42EA0948A2182A350EA5A95F1F743E220
:1014C000E42E41E0F42E40E050E0E70159907E0127
:1014D000852D82958F7090E0EC0108A1CD90DC9075
:1014E000119710E0852D8F7002C0159507958A958C
:1014F000E2F700FD08C0C901042E02C0880F991F41
:101500000A94E2F702C080E090E0C82AD92A119636
:10151000DC92CE924F5F5F4F4F305105B1F681A103
:101520008A2181A382A1862B82A3129641E0F40135
:10153000808191816816790609F440E0B42AF7E3C6
:101540002F16F1E03F0609F099CF2B2D45E06DE510
:1015500071E087E691E00E94C30A0E9454048B2D3B
:10156000DF91CF911F910F91FF90EF90DF90CF907F
:10157000BF90AF909F908F907F906F905F903F90C3
:101580002F9008950895FF920F931F93CF93DF93A9
:10159000D82FC92FF62E072F142F222349F081E0D0
:1015A000809373010E943B2090937201809371019C
:1015B000809173018823D9F080917101909172011B
:1015C0000E944720069798F0ED2FFC2FAF2DB02FEB
:1015D00080E090E0412F50E08417950734F421918A
:1015E00031912D933D930196F7CF10927301DF91C6
:1015F000CF911F910F91FF900895CF92DF92EF92BC
:10160000FF920F931F93CF93DF93D62EC72EE82E12
:10161000F82EE82FF0E0711106C0E357FC4F6491FB
:10162000762F862F7BC0072F10E026E0629FC00137
:101630001124CFEFD0E0BE010E94E92A9B016BEAA2
:101640006203A001639F500D11244D0D511D4D0DDE
:10165000511DD42EDD0CD40ECE01801B910B8E9F1C
:10166000A0018F9F500D9E9F500D1124852FDC9C53
:10167000B0011124672F7727DE01A61BB70BAE9FA1
:10168000B001AF9F700DBE9F700D1124972FDE012A
:10169000AD19B1096D01C09ED001C19EB00DD09EA3
:1016A000B00D1124AB2FBB27CA1BDB0BCE9FD00183
:1016B000CF9FB00DDE9FB00D11242230310591F087
:1016C0003CF42115310559F021303105C1F014C029
:1016D0002430310569F04CF02630310569F49E2D37
:1016E000FB2E0DC0952F8B2F0AC0F72E952F02C011
:1016F0009B2FF52E8E2D03C0F52E872F9E2DE92FC3
:10170000F0E0E357FC4F7491EF2DF0E0E357FC4F0E
:101710006491E82FF0E0E357FC4F8491DF91CF9183
:101720001F910F91FF90EF90DF90CF900895089553
:10173000CF93DF93762FE901682F842F0E94FD0A53
:10174000798368838A83DF91CF91089520915D0228
:10175000822F869590E0009729F4217022602093D3
:101760005D02089585972CF0822F817088648093A4
:101770005D02089588E090E00C94592BCF93DF939D
:1017800000D000D0CDB7DEB7AB01BC0149835A838E
:101790006B837C830E94A60B49815A816B817C817B
:1017A00088E090E00F900F900F900F90DF91CF9115
:1017B0000C94772BEDE5F2E083E0808310925E02DB
:1017C0008FEF80935F0280936002109261026081CC
:1017D0007181828193810C94BE0B80915D0280FFA8
:1017E00002C08695089580E008958091610283305B
:1017F00018F48F5F8093610260915D0270915E02C8
:1018000080915F02909160020C94BE0B8091610206
:10181000882319F081508093610260915D0270917C
:101820005E0280915F02909160020C94BE0B609109
:10183000040170E080915D0280FF0AC08091780110
:1018400023E0829FC00111248E599D4F0C94F41007
:101850002091770130910301231780F7822F90E0C8
:10186000FC01EE0FFF1FE80FF91FEE59FD4F11822B
:10187000108212822F5FF0CF90915D0290FF16C010
:101880009091770150910301951770F4292F30E062
:10189000F901EE0FFF1FE20FF31FEE59FD4F818399
:1018A000608342839F5FF0CF0C94170C0895CF9311
:1018B000DF9300D01F92CDB7DEB790915D0290FF0D
:1018C0000AC09E012F5F3F4F0E94980B4B81698198
:1018D0008A810E943C0C0F900F900F90DF91CF9166
:1018E0000895CF93DF93EC01EC81F0E0E857FD4FD2
:1018F000449160915F0280915E020E94570C8C813E
:101900008F5F8C83DF91CF910895CF93DF93EC01AC
:101910004091600260915F028C810E94570C8C8123
:101920008F5F8C83DF91CF9108950F931F93CF9397
:10193000DF9300D01F92CDB7DEB78C018091740188
:1019400081110AC09E012F5F3F4F4FEF6FEF0E9442
:10195000980B8A8180937401F8018481813051F061
:1019600028F0823061F4409174010AC080917401C2
:1019700040E007C06091740140E080E003C040E0B7
:1019800080E060E00E943C0CF801848190E00196C8
:1019900063E070E00E94FD2A84830F900F900F9007
:1019A000DF91CF911F910F910895AF92BF92CF9287
:1019B000DF92EF92FF920F931F93CF93DF9300D0AC
:1019C0001F92CDB7DEB7F82ED62EE42EC22E909100
:1019D0005D0290FF6DC0E92FE695AE2FB0E0A95CE7
:1019E000BE4F8C91809380019E7F923061F49E0166
:1019F0002F5F3F4F8F2D0E94980B4B8169818A8109
:101A00000E943C0C43C0823019F4E09060023EC05A
:101A1000863019F4F0905E0239C08930D9F38931EB
:101A2000A9F5E9518E2F8170B82EE695F0E0E857C0
:101A3000FC4F05911491A12C112760910201A6166B
:101A400018F5EA2DF0E0E09FC001E19F900DF09FB6
:101A5000900D112470E00E94E92A8F2DB11002C070
:101A6000860F01C0861B90917701E90FF11D9F0140
:101A7000220F331F2E0F3F1F2E593D4F4E2D6D2D20
:101A80000E94980BA394D9CF0E94170CF0925E028B
:101A9000D0925F02E0926002CC2051F060915D0232
:101AA00070915E0280915F02909160020E94BE0B75
:101AB0000F900F900F90DF91CF911F910F91FF909A
:101AC000EF90DF90CF90BF90AF90089590915E021D
:101AD000282F4091600260915F0288E0890F0C948A
:101AE000D50C81E00C94660D90915E02282F4091F8
:101AF000600260915F0288EF890F0C94D50C81E041
:101B00000C94740D60915F0228E0620F08F46FEF8F
:101B1000282F4091600280915E020C94D50C81E0E8
:101B20000C94820D60915F0228E0621B08F460E073
:101B3000282F4091600280915E020C94D50C81E0C8
:101B40000C94920D4091600228E0420F08F44FEF90
:101B5000282F60915F0280915E020C94D50C81E089
:101B60000C94A20D4091600228E0421B08F440E072
:101B7000282F60915F0280915E020C94D50C81E069
:101B80000C94B20D20E00C94D50CFF920F931F9390
:101B9000CF93DF93EC01F12C0FEF10E06091020185
:101BA000F616E8F44091770150E04F0D511D9A016F
:101BB000220F331F240F351F2E593D4F70E0C801EF
:101BC0000E94FD2A962F8C814091600260915F02F5
:101BD000F99E800D11240E94980BF394DFCF0E9490
:101BE000170C9A818C8190FF02C08F5F01C08150D9
:101BF0008C83DF91CF911F910F91FF900895BF9239
:101C0000CF92DF92EF92FF920F931F93CF93DF93C8
:101C1000FC01828180FD03C0CC24C39402C0CC248B
:101C2000CA94D12C80910201D816E0F5ED2CF12C4C
:101C3000809177019701280F311DE901CC0FDD1F3D
:101C4000C20FD31FCE59DD4F198218821A8204E0C9
:101C500010E0B12C809176018B0D87FF03C090912D
:101C60000201890F992787FD9095E816F90691F4EE
:101C700080916002809FA001819F500D1124559595
:101C80004795559547959E0160915F0280915E0250
:101C90000E94980BBC0C0150110901151105D1F6D9
:101CA000D394C0CF0E94170C8091760131E0C3120B
:101CB00006C0811102C080910201815007C090E0EE
:101CC00001966091020170E00E94FD2A80937601E6
:101CD000DF91CF911F910F91FF90EF90DF90CF9008
:101CE000BF900895CF93209177013091030123177E
:101CF00070F4822F90E0FC01EE0FFF1FE80FF91F38
:101D0000EE59FD4F1182108212822F5FF0CFC0E09A
:101D100060910201C617B0F52C2F30E070E0C901C8
:101D20000E94FD2A40917701480F80917501992703
:101D300087FD909550E028173907C4F08091010184
:101D4000992787FD90958217930784F09A01220FB7
:101D5000331F240F351F2E593D4F40916002609173
:101D60005F0280915E020E94980B0AC0FA01EE0F9A
:101D7000FF1FE40FF51FEE59FD4F118210821282F2
:101D8000CF5FC6CF0E94170C4091000120917501D2
:101D9000240F2093750180910101840F809301012C
:101DA000181654F4332727FD30958091020190E0F6
:101DB0000197281739071CF0419540930001CF91F6
:101DC00008950F931F93CF93DF93EC012C813D81F6
:101DD0002F5F3F4F217033273D832C8310E005E5B3
:101DE000809102011817F0F44091770150E0410F03
:101DF000511D9A01220F331F240F351F2E593D4FBD
:101E0000412F46958C819D81840F911D8170409159
:101E1000600260915F02809F802D11240E94980BC8
:101E20001F5FDECFDF91CF911F910F910C94170CA4
:101E30000F931F93CF93DF938C01C0E0D0E04091CC
:101E40000201842F90E0C817D9072CF58091770103
:101E50009E01280F311DC901220F331F280F391F82
:101E60002E593D4F4695842F90E0F8014481C817C4
:101E7000D9071CF4442331F002C0411103C0409142
:101E8000600201C040E060915F0280915E020E94AA
:101E9000980B2196D4CF0E94170CF801248130E0D2
:101EA0002F5F3F4F217033272483DF91CF911F9104
:101EB0000F910895EDE5F2E080818E7F808360814F
:101EC0007181828193810E94BE0B109281012FEF5C
:101ED00080E792E0215080409040E1F700C0000090
:101EE0000C94170C60915D02669570E04BE050E039
:101EF00085E091E00E94442B892B19F481E08093C6
:101F000081010E943B2090937A018093790108958A
:101F100090915D0290FF37C09170811102C0926074
:101F200003C0853220F0986490935D0204C0880F4E
:101F3000892B80935D02662351F060915D02709160
:101F40005E0280915F02909160020E94BE0B6091E0
:101F50005D02669570E04BE050E085E091E00E9404
:101F6000442B892B19F01092810102C00E94720F3C
:101F700081E080937C014091600260915F028091DA
:101F80005E020C94C20D0895682F80915D028695C3
:101F90008F5F853208F081E00C94880F81E00C940B
:101FA000C40F682F80915D028695815009F484E208
:101FB0000C94880F81E00C94D10F61E00C94880F91
:101FC000EDE5F2E080818160808386950C94DD0FE1
:101FD00080915D0280FD0C945A0F0C94E00F60E03C
:101FE0000C94880F80917F01811133C080912E0263
:101FF000816080932E020E94981E811104C00E946D
:102000001B1F0E94DA0B0E94BA0B60935D02709353
:102010005E0280935F02909360026E7F61F40E9483
:10202000DA0B0E94BA0B60935D0270935E0280939C
:102030005F02909360020E94A60B10928101809132
:102040005D0280FF03C086950E94EF0F81E08093C0
:102050007F0108950F931F93CF93DF9380918101A8
:10206000882309F489C080918001E0915D02E695A2
:10207000E81BE0937B01823049F4F0E0EC57FD4F20
:10208000E491CE2FD0E001E71CE046C0863049F451
:10209000F0E0EF57FD4FE491CE2FD0E005E81CE0D3
:1020A0003BC0893049F4E695F0E0E258FD4FC49119
:1020B000D0E005EC1DE030C08F3049F4E695F0E04B
:1020C000E558FD4FC491D0E00FEF1DE025C08531EC
:1020D00041F4F0E0E858FD4FC491D0E002E71EE083
:1020E0001BC0883181F0833239F4E6E7F2E0C59114
:1020F000D49105E91CE010C0843251F0C0EDD7E066
:1021000007E91BE009C0C8EED3E001EE1EE004C001
:10211000C4EFD1E008E11FE080917C01882389F0C1
:1021200010927C010E943B209E0120953095280F43
:10213000391F30937A012093790110927E01109219
:102140007D018091790190917A010E9447208C173E
:102150009D0790F08091790190917A018C0F9D1FDD
:1021600090937A018093790189E791E0F801DF91FA
:10217000CF911F910F910994DF91CF911F910F91F2
:1021800008953EB1242F209523233EB1342B4FB721
:10219000F894FC01680F791FE617F70789F0819121
:1021A00098E03EB9000000C087FF2EB9880F0000FC
:1021B00000C000C000C02EB900C09A9591F7ECCFC6
:1021C0004FBF08952DB1242B2DB99B01220F331F32
:1021D000260F371FB9010E94C11087EC90E00197CC
:1021E000F1F700C00000089544E00C94E2100F9352
:1021F0001F93CF93DF93C62FD42F022FFC01828130
:102200008823C9F0609384010E943B20909383014E
:102210008093820180E28C0F883008F050C0C77034
:1022200081E001C0880FCA95EAF7DF91CF911F9135
:102230000F910C94B71410918401161330C0809143
:102240008201909183010E944720883C910538F5D6
:10225000C0E2CD0F1D17B9F080E2810F883040F445
:10226000177081E001C0880F1A95EAF70E94BE142A
:10227000C83048F481E09D2F977001C0880F9A956F
:10228000EAF70E94B714802F0E94A414C830B8F453
:10229000D77081E001C0880FDA95EAF70AC080E2C2
:1022A0008C0F883060F4C77081E001C0880FCA9538
:1022B000EAF7DF91CF911F910F910C94BE14DF913B
:1022C000CF911F910F9108959C01CB01203F4CE5C8
:1022D0003407F9F078F4283DFCE53F07B9F0293DD3
:1022E0004CE5340711F1273D3C4531F526E241EE3E
:1022F00061EE1EC0223FFCE53F0799F070F0233FDE
:102300003C45D1F427E245EE66EE12C027E245EEE9
:102310000EC026E241EE60EE0BC027E245EE64EE11
:1023200007C026E241EE62EE03C028E241E065EE1E
:102330000E94F71080E00895FC018281882319F043
:1023400010928401089581E0089590938A0180930A
:1023500089010895E0918901F0918A01309721F077
:102360000190F081E02D099480E00895E0918901C9
:10237000F0918A01309799F020912201222359F09F
:102380002091980227FF07C0DC012C9111962C9315
:10239000119725E02C930280F381E02D0994089594
:1023A000E0918901F0918A01309739F022E0DC0157
:1023B0002C930480F581E02D0994089520918701E4
:1023C000309188018217930771F090938801809370
:1023D0008701E0918901F0918A01309721F0068010
:1023E000F781E02D099408952091850130918601AF
:1023F0008217930771F09093860180938501E09195
:102400008901F0918A01309721F00084F185E02D57
:102410000994089585B7806885BF85B7806885BFB2
:102420000895089508950C94121208950C941512AD
:102430000E940A120E9411120C94131281E0089556
:102440000E9432200E94DA090E94BB200E94EE22E4
:102450000E94F20F0C9416125F926F927F928F92ED
:102460009F92AF92BF92CF92DF92EF92FF920F9323
:102470001F93CF93DF93CDB7DEB72A970FB6F894AB
:10248000DEBF0FBECDBF0E94240A0E941E12811122
:1024900011C08FEF89838A831B820E943B20816059
:1024A000782F9D838C8349815A816B818D810E9415
:1024B000EA1257C09CE8C92E91E0D92E00E010E046
:1024C000AA24A394B12C502E802F0E94D0093C0145
:1024D000F601E190F1906F01E826F926E114F1048C
:1024E00031F40F5F1F4F0530110569F7D2CF80918E
:1024F0002E0281FD0E94D90920E030E04501022E24
:1025000002C0880C991C0A94E2F7C4018E219F2115
:10251000892B09F12E835F826820792081E067286A
:1025200009F480E088870E943B208160782F9A8799
:1025300089874E815F8168858A850E94EA12F80149
:10254000EE0FFF1FE457FE4F80819181882599256A
:102550009183808306C02F5F3F4F2F30310571F686
:10256000C0CF0E944D2210918B010E94AA11181712
:10257000D9F00E94AA1180938B012A960FB6F89485
:10258000DEBF0FBECDBFDF91CF911F910F91FF90A6
:10259000EF90DF90CF90BF90AF909F908F907F9003
:1025A0006F905F900C94DE042A960FB6F894DEBF0D
:1025B0000FBECDBFDF91CF911F910F91FF90EF9094
:1025C000DF90CF90BF90AF909F908F907F906F9053
:1025D0005F900895CF93DF93CDB7DEB72B970FB6FB
:1025E000F894DEBF0FBECDBF4F83588769877A87C7
:1025F0008B87DE01119686E0FD0111928A95E9F73D
:1026000085E0FE01379601900D928A95E1F74981A8
:102610005A816B817C818D819E810E94971A2B96B5
:102620000FB6F894DEBF0FBECDBFDF91CF910895F6
:10263000FC01808191810E94561D0895882309F430
:102640001AC18238C1F40E94AA1181FD14C169E344
:1026500080911001909111010E948A1F0E94E11D3A
:102660002FEF81EE94E0215080409040E1F700C0D0
:10267000000069E319C08338F9F40E94AA1180FDB3
:10268000FAC063E580911001909111010E948A1FA8
:102690000E94E11D2FEF81EE94E021508040904098
:1026A000E1F700C0000063E58091100190911101F5
:1026B0000E94951F0C94E11D8438C1F40E94AA1158
:1026C00082FDD9C067E480911001909111010E94B0
:1026D0008A1F0E94E11D2FEF81EE94E0215080407F
:1026E0009040E1F700C0000067E4DECF9CEF980F58
:1026F000913A40F4682F80911001909111010E944D
:102700008A1FD8CF90E2980F983050F4877091E0EC
:1027100001C0990F8A95EAF7892F0E94981DCACFA8
:102720009BE5980F933070F4853A29F0863A31F49E
:1027300082E890E005C081E890E002C083E890E084
:102740000C94DE1198E5980F973108F08EC0883A06
:1027500009F445C0893A09F445C08A3A09F445C0EC
:102760008B3A09F445C08C3A09F445C08B3B09F417
:1027700045C08C3B09F445C08D3A09F445C0803B07
:1027800009F445C08E3A09F445C08F3A09F445C0B2
:10279000813B09F445C0823B09F445C0833B09F401
:1027A00045C0843B09F445C0853B09F445C0863BE0
:1027B00009F445C0873B09F445C0883B09F445C08E
:1027C000893B09F445C08D3B09F445C08E3B09F4B3
:1027D00045C08A3B09F045C08AE292E044C082EEDF
:1027E00090E041C089EE90E03EC08AEE90E03BC0B0
:1027F00085EB90E038C086EB90E035C083EB90E04D
:1028000032C084EB90E02FC087EB90E02CC08CECC2
:1028100090E029C08DEC90E026C083E891E023C0D1
:102820008AE891E020C082E991E01DC084E991E04E
:102830001AC081E292E017C083E292E014C084E201
:1028400092E011C085E292E00EC086E292E00BC0F9
:1028500087E292E008C08FE690E005C080E790E054
:1028600002C080E090E00C94F411803F20F00E94C0
:1028700055210C9442220895882309F464C08238BB
:1028800079F40E94AA1181FF5EC069E38091100172
:10289000909111010E948A1F0E94E11D69E310C0FE
:1028A0008338B1F40E94AA1180FF4DC063E5809186
:1028B0001001909111010E948A1F0E94E11D63E5A1
:1028C00080911001909111010E94951F0C94E11DBF
:1028D000843879F40E94AA1182FF35C067E48091A0
:1028E0001001909111010E948A1F0E94E11D67E46E
:1028F000E7CF9CEF980F913A10F4682FE1CF90E268
:10290000980F983050F4877091E001C0990F8A9524
:10291000EAF7892F0E949E1DD9CF9BE5980F93302F
:1029200020F480E090E00C94DE1198E5980F973148
:1029300020F480E090E00C94F411803F20F00E949D
:10294000BD210C9442220895CF93C82F0E941E13DC
:10295000C93349F42FEF83EC99E021508040904037
:10296000E1F700C000008C2FCF910C943C14882319
:1029700021F00E94981D0C94E11D0895882321F0F8
:102980000E949E1D0C94E11D08958F929F92BF920C
:10299000CF92DF92EF92FF920F931F93CF93DF932B
:1029A00000D0CDB7DEB74C01562F472FFC01B580C4
:1029B000B2949FE0B922E280EE2031F079836A83FD
:1029C0000E94B51D5A81498149835A830E948E1DF8
:1029D00049815A81882389F0EE2079F080E2850FC1
:1029E000883058F082E00E942C1E0E948E1DFF2429
:1029F000F394F82649815A8101C0F12CC42EC29467
:102A00008FE0C822D12CF601E859FF4F0C94332BEC
:102A1000842F807F142F1F70882311F01295107F50
:102A2000EE20C1F0112309F4D7C180E2850F883070
:102A300010F0511105C0812F5A830E94981D04C0C7
:102A4000812F5A830E94A81D5A815A830E94E11D3A
:102A50005A81C2C1852F5A830E943C145A81112386
:102A600009F404C280E2850F883010F0511104C0CF
:102A7000812F0E949E1D03C0812F0E94AE1D0E94C7
:102A8000E11DF4C1842F807F142F1F70803211F05C
:102A90001295107F552319F05130D9F026C0EE2041
:102AA00079F0BB2049F0F1E0BF1206C00E94C81DBA
:102AB000812B0E94CE1DDAC10E94C81D812B40C10E
:102AC000BB2021F021E0B21609F4D0C10E94D71D2D
:102AD0003CC1EE2029F085E08B1508F4C7C12FC159
:102AE00094E09B1508F4C2C130C1EE2051F0BB2028
:102AF00009F425C1F401858180FF6EC18F70858343
:102B00001EC1BB2009F421C178C1842F869586950A
:102B1000837090E0009719F0019761F0A7C1EE2053
:102B200021F0852F942F937002C080E090E00E94E6
:102B3000DE11ACC1EE2021F0852F942F937002C0DE
:102B400080E090E00E94F411A1C1EE20F9F0553F21
:102B500051F0563F71F0543FA9F480919202909148
:102B6000930281600BC080919202909193028260E7
:102B700005C0809192029091930284609093930299
:102B800080939202852F0E94552122C0553F51F01B
:102B9000563F91F0543FC9F4809192029091930274
:102BA0008E7F05C080919202909193028D7F9093C9
:102BB00093028093920209C0209192023091930275
:102BC0002B7F3093930220939202852F0E94BD2188
:102BD0000E9442225BC1842F837009F04AC0E11039
:102BE00051C1E52FE295E695E770EE0FEE0F652FE8
:102BF0006F70862F90E0A0E0B0E00E2E04C0880F2A
:102C0000991FAA1FBB1F0A94D2F754FF10C00FE0F0
:102C100010E020E030E004C0000F111F221F331F1E
:102C2000EA95D2F7009510952095309503C000E005
:102C300010E0980146954695437050E0BC01CD01E7
:102C4000602B712B822B932B4230510561F0433066
:102C5000510561F04130510519F00E94EA1B12C183
:102C60000E94D81B0FC10E94FC1B0CC10E94D61BE6
:102C700009C1EE2019F0842F817001C08695882348
:102C800009F400C1E52FE295E695E770EE0FEE0F2F
:102C9000652F6F70862F90E0A0E0B0E00E2E04C08C
:102CA000880F991FAA1FBB1F0A94D2F754FF10C0A8
:102CB0000FE010E020E030E004C0000F111F221FE1
:102CC000331FEA95D2F7009510952095309503C0F3
:102CD00000E010E0980146954695437050E0BC0135
:102CE000CD01602B712B822B932B4230510561F06B
:102CF0004330510561F04130510519F00E94971C95
:102D0000C1C00E94851CBEC00E94A91CBBC00E94FD
:102D1000101CB8C0052F10E0F801E05EF109E531A4
:102D2000F10508F055C0E858FF4F0C94332B152FD0
:102D30001F70842F8F71EE2031F00E94301C812F84
:102D40000E94B71493C00E944B1C812F0E94BE1496
:102D50008DC0EE2049F0F4E0FB1508F487C0842F05
:102D60008F710E946A1C82C025E02B1508F47EC07A
:102D7000F6CFEE2039F0842F8F710E94301C76C080
:102D8000EE20C9F3842F8F710E944B1C6FC0EE2080
:102D900029F0842F8F710E94211C68C00E941C1C86
:102DA00065C0EE2051F0142F1F71812F0E94301C3E
:102DB00063E0812F0E94171E59C081E00E942C1EE3
:102DC00081E08B1508F052C082E00E942C1E4EC09C
:102DD000EE2031F0BB2079F2852F0E941E1346C0F1
:102DE000BB2081F2593349F49FEFE3ECF9E09150B5
:102DF000E040F040E1F700C00000852F0E943C1445
:102E000035C04F70652FC4010E941F070E94441BEC
:102E10003DC0E1103BC04F7050E042305105B1F071
:102E20004CF44115510579F041305105F9F40E94F7
:102E300027232CC04430510579F05CF04530510512
:102E4000A9F480E00AC00E940B2320C00E946623E0
:102E50001DC00E946D231AC085E00E94922316C0F7
:102E60004F70652FC4010E94220710C028E0C216CF
:102E7000D10441F05CF09AE0C91AD108E2E0CE1624
:102E8000D10420F40E94AA110E94DE04FF20F1F078
:102E90000E948A1D80FD1AC0F40112820E94841DC6
:102EA0000E94301CC4010E9474170E94841D0F9060
:102EB0000F90DF91CF911F910F91FF90EF90DF90D6
:102EC000CF90BF909F908F900C944B1C0F900F90C1
:102ED000DF91CF911F910F91FF90EF90DF90CF90F6
:102EE000BF909F908F9008950F931F93CF93DF9380
:102EF000EC01288139818B819C81892B31F03F3F06
:102F000011F080E003C02F3FE1F781E0811113C091
:102F1000CE010E94F004882371F0688179818A8152
:102F20000E94611D8C010E94BB1C0E94D51BB80130
:102F3000CE010E94C514DF91CF911F910F9108958A
:102F40000E94B51D0E94C51D0E94E11D0E94E22243
:102F50000E94422280E090E00E94DE1180E090E03A
:102F60000C94F41180911001909111010E94A01F06
:102F70000C94A0170E94A51D0C94B217E92FE2959E
:102F8000EF70F0E03297EE30F105B8F4E357FF4F01
:102F90000C94332B803F59F018F4803E70F407C036
:102FA000843F59F404C0803E10F0813F31F481E049
:102FB000089593FB882780F9089580E008950E9482
:102FC000561D0E94BE170895CF93DF9300D000D006
:102FD0001F92CDB7DEB70F900F900F900F900F900C
:102FE000DF91CF910895CF93DF9300D000D000D030
:102FF000CDB7DEB726960FB6F894DEBF0FBECDBFB5
:10300000DF91CF9108951F93CF93DF93C0919701E4
:1030100016E080919801C81799F0D0E01C9FF0014C
:103020001D9FF00D1124E756FE4F408151816281B2
:103030007381848195810E94F3172196C770E9CF2F
:10304000DF91CF911F9108954091C9015091CA011C
:103050006091CB017091CC018091CD019091CE0116
:103060000C94F317CF938091CE0182958F7009F065
:103070005FC08091CB01882309F45AC02091970149
:10308000A09198016091C9017091CA018091CC0111
:103090009091CD0131E06F3F09F030E0B32FC6E0F1
:1030A0002A1709F445C0009721F07F3F21F44B2FE8
:1030B00003C041E001C040E030E040FD35C0C29FA8
:1030C000F001C39FF00D1124E756FE4F41817413A8
:1030D0002BC04081641328C04281411125C0438127
:1030E00054814817590710F441505109481B590B96
:1030F000483C5105C8F48091CE018F708061809367
:10310000CE0186E0829FF001839FF00D1124E256EC
:10311000FE4F80818F708061808389EC91E00E94F6
:103120007417CF910C9403182F5F3F4F2770B8CFBF
:10313000CF910895CF92DF92EF92FF920F931F935A
:10314000CF93DF93CDB7DEB762970FB6F894DEBFAB
:103150000FBECDBF8C0185E0F801DE011D96019008
:103160000D928A95E1F7D8014C9111965C911197D7
:1031700012966C9112971396ED90FC9014977091A3
:10318000C901E091CA012091CC013091CD012115F6
:10319000310531F0EF3F31F481E07F3F19F403C096
:1031A00081E001C080E0B82FB170CB2E80FD6BC1F3
:1031B000D090CB01DD2009F4F5C0F091CE01E216EC
:1031C000F30638F0C701821B930B883C910548F049
:1031D0009DC0209530952E0D3F1D283C310508F0EF
:1031E00095C08F2F807F09F052C0E51314C074136F
:1031F00012C0D62E61110FC0FF70F061F093CE01A6
:103200000E94241889EC91E00E9474178091CE01ED
:10321000F80185837CC1EF2831F05F3F31F481E014
:103220004F3F19F403C081E001C080E080FD03C07E
:1032300081E0862701C080E0F82FF170FF2E80FF2B
:103240001CC0809197012091980136E0821709F403
:1032500038C190E0389FF001399FF00D1124E756F6
:10326000FE4F7181571306C07081471303C07281EE
:10327000671303C001968770E9CFD62E662309F441
:1032800046C18091CE0181608093CE0155C0E51387
:1032900008C0741306C0611104C0D8011596FC93D0
:1032A000AEC04D875E878D859E856A8B0E94DF1735
:1032B0006A89882329F1D62E662311F12091CE0147
:1032C000822F82958F7090E002970CF462C08091FB
:1032D000C9019091CA0198878F831986FB86EA8677
:1032E0002C87CE01079653C0E51741F14D875E87C5
:1032F0008D859E856A8B0E94DF176A89811130C097
:10330000C8010E947417DD24D39401C18F2F807FE0
:1033100059F77E2DF98AE88A89890E94E41789EC99
:1033200091E00E947417E9ECF1E086E0DF011D9264
:103330008A95E9F70E942418D12CE9C07413D6CFDE
:103340006111D4CFD8011596FC93C8010E9474175F
:10335000E9ECF1E086E0DF011D928A95E9F7D7C03C
:10336000D62E662369F22091CE01822F82958F702E
:1033700090E0029774F08091C9019091CA019A83FC
:1033800089831B82FD82EC822E83CE0101960E94EE
:10339000741786E0F801A9ECB1E001900D928A95CE
:1033A000E1F78AC0E216F30628F0C701821B930BEF
:1033B0009C0104C0209530952E0D3F1D283C310501
:1033C00008F053C0D62E662309F49ACFE5132CC01B
:1033D00074132AC08091CE0180FD1DC0982F929554
:1033E0009F70C9F0D80115968C9315979F3039F0CE
:1033F0009F5F9295907F8F70892B15968C93C80153
:103400000E94741786E0F801A9ECB1E001900D92DA
:103410008A95E1F753C086E0F801A9ECB1E001908C
:103420000D928A95E1F773C04D875E878D859E85E5
:103430000E94DF17882381F096E0F801A9ECB1E043
:1034400001900D929A95E1F78A8B0E9432180E94A2
:1034500024188A89D82E5BC08091CE018160809328
:10346000CE01C8010E94741752C07E2DF98AE88AE5
:1034700089890E94E417E9ECF1E086E0DF011D9202
:103480008A95E9F71BC0662309F43ACF4D875E871A
:103490008D859E850E94DF17D82E882309F430CFB2
:1034A00086E0F801A9ECB1E001900D928A95E1F770
:1034B00089EC91E00E9418130E9432180E9424188F
:1034C00026C04D875E878D859E850E94561D292FBB
:1034D00022952F7030E0223031052CF49F7041F09E
:1034E000811106C00CC0243031052CF49F7049F4C2
:1034F000805E883020F0C8010E947417CF2CDC2C2D
:1035000006C0D80115969C91907F91F7F8CF8D2D2C
:1035100062960FB6F894DEBF0FBECDBFDF91CF919C
:103520001F910F91FF90EF90DF90CF9008951F9320
:10353000CF93DF93CDB7DEB72C970FB6F894DEBFED
:103540000FBECDBF4F83588769877A878B879C874B
:10355000CE0107960E949A188823C1F02F813885E2
:103560008A859B85892B31F03F3F11F080E003C0B5
:103570002F3FE1F781E0811147C04F815885698570
:103580007A858B859C850E94F3173EC086E0FE01FC
:103590003796DE01119601900D928A95E1F7FF8131
:1035A000E8854A855B854115510531F0EF3F31F4DF
:1035B00081E0FF3F19F403C081E001C080E080FD9D
:1035C00023C02091980130E0C901019687709927A6
:1035D0006091970170E086179707F1F1F983EA830C
:1035E0005D834C8396E0929FD001939FB00D112490
:1035F000A756BE4FFE01319601900D929A95E1F7C4
:10360000809398010E94031816E080919701909191
:103610009801891779F1189FC001112487569E4F90
:103620000E949A18882331F1E09197011E9FF001C2
:103630001124E756FE4F408151816281738184815C
:1036400095810E94F3178091970190E00196877011
:10365000992780939701D9CF0E94BA1710929801A9
:1036600010929701E9ECF1E086E0DF011D928A9566
:10367000E9F7CACF2C960FB6F894DEBF0FBECDBFC8
:10368000DF91CF911F910895EF92FF920F931F93B7
:10369000CF93DF939C01009709F471C0F12CEE24C5
:1036A000E394E9012196F9018491843740F4843050
:1036B00008F056C0813081F0823021F160C085373A
:1036C00009F449C0C0F19CE7980F903708F057C043
:1036D0008F770E943C1446C089010E5F1F4FFE0188
:1036E000849190E2980F983050F48770FE2D01C0BD
:1036F000FF0F8A95EAF78F2F0E94B81D15C00E9410
:103700001E1314C089010E5F1F4FFE01849190E2C9
:10371000980F983068F48770FE2D01C0FF0F8A95CE
:10372000EAF78F2F0E94BE1D0E94E11DE8011AC01A
:103730000E943C14FBCF2E5F3F4FFE01C491CC236F
:1037400041F08FE99FE00197F1F700C00000C15000
:10375000F6CFE90107C0FE01F490E901229602C00C
:103760000E941E138F2D882341F0EFE9FFE031976F
:10377000F1F700C000008150F6CF9E0192CFDF919B
:10378000CF911F910F91FF90EF90089508950C94A1
:10379000C61B0E94C71B60930502709306028093AC
:1037A0000702909308020C94A01708950C94C91B6B
:1037B0000F931F93009105021091060220910702BA
:1037C00030910802602B712B822B932B1F910F914C
:1037D0000C94C91B0F931F930091050210910602D0
:1037E00020910702309108026023712382239323E2
:1037F0001F910F910C94C91B0F931F930091050209
:10380000109106022091070230910802602771276B
:10381000822793271F910F910C94C91B0C9464036A
:103820000E940E1C609301027093020280930302B7
:10383000909304020C94A01760E070E0CB010C940C
:10384000101C41E050E060E070E004C0440F551FE0
:10385000661F771F8A95D2F7CB01BA010C94101C12
:1038600041E050E060E070E004C0440F551F661F67
:10387000771F8A95D2F78091010290910202A09160
:103880000302B0910402482B592B6A2B7B2BCB01EE
:10389000BA010C94101C41E050E060E070E004C0FC
:1038A000440F551F661F771F8A95D2F74095509594
:1038B000609570958091010290910202A09103029F
:1038C000B0910402482359236A237B23CB01BA0118
:1038D0000C94101C41E050E060E070E004C0440F24
:1038E000551F661F771F8A95D2F78091010290912C
:1038F0000202A0910302B0910402482759276A27C7
:103900007B27CB01BA010C94101C0F931F930091DD
:103910000102109102022091030230910402602BF7
:10392000712B822B932B1F910F910C94101C0F93D2
:103930001F93009101021091020220910302309125
:10394000040260237123822393231F910F910C940F
:10395000101C0F931F9300910102109102022091FD
:1039600003023091040260277127822793271F9159
:103970000F910C94101C08952FE0929F800D11243C
:10398000482F4695469546958770B1E001C0BB0F1C
:103990008A95EAF785E0489FA001112441535E4FC4
:1039A00080E090E070E0FA01E80FF91FA0819B0130
:1039B000082E02C0369527950A94E2F72170332726
:1039C00021952A272B232A272083019685309105CC
:1039D00051F708952FE0929F800D1124682F66956E
:1039E00066956695982F977085E0689FB0011124C1
:1039F00061537E4F40E050E080E0FB01E40FF51F93
:103A0000208130E0092E02C0369527950A94E2F70E
:103A100021703327042E01C0220F0A94EAF7822B6B
:103A20004F5F5F4F4530510541F70895CF92DF92C8
:103A3000EF92FF920F931F93CF93DF93EC01C0900F
:103A40000502D0900602E0900702F09008028091F3
:103A5000010290910202A0910302B0910402C82ACF
:103A6000D92AEA2AFB2A0FE110E0B701A601002EAD
:103A700004C076956795579547950A94D2F740FD0F
:103A800005C00150110988F780E007C0BE01802FF2
:103A90000E943D070197A9F3802FDF91CF911F91DD
:103AA0000F91FF90EF90DF90CF900895CF93DF9329
:103AB000EC010E94161DBE010E943D07DF91CF91CF
:103AC00008951F93CF93DF93EB0190919601992373
:103AD00021F0CB010E94561D13C0882349F0CB0171
:103AE0000E94161D182F682FCE010E94BC1C04C016
:103AF000CB010E94EA1C182FBE01812F0E943D07B6
:103B0000DF91CF911F910895809109028595859548
:103B10008595089580910902877008959091090212
:103B2000977081E009F480E0089580912D02089556
:103B300090912D02982B90932D020895809590914D
:103B40002D02982390932D02089510922D0208952E
:103B500090912C02982B90932C020895809590912F
:103B60002C02982390932C02089510922C02089511
:103B700090912B02982B90932B0208958095909111
:103B80002B02982390932B02089510922B020895F4
:103B900080910A02089508950C94CB1D90910A0219
:103BA000981721F080930A020C94CC1D08958091FF
:103BB0000A02882329F010920A0280E00C94CC1D9E
:103BC0000895E0911001F091110180912D02808300
:103BD000E0911001F0911101808190912C02892BCC
:103BE0008083E0911001F0911101808190912B026E
:103BF000892B808390910A02992381F0E091100132
:103C0000F09111018081892B808380911001909126
:103C100011010E941D1F81110E94D71D809110016A
:103C2000909111010C94B61108950C94141E98E013
:103C3000899F90011124622B609309020E94301C1D
:103C4000809109028595859585950C94151E109295
:103C5000090280E00C94151E40910902809584238E
:103C600080930902982F977079F450E0282F33271A
:103C700027FD30954217530739F085958595859531
:103C80000E944B1C0C94271E0895CF92DF92EF9256
:103C9000FF920F931F936C01EE24FF24C114D104F3
:103CA000E104F10421F46B017C0180E001C080E1BA
:103CB00033272F2D1E2D0D2D011511052105310541
:103CC00019F0885F6801790197018601A4E03695B3
:103CD000279517950795AA95D1F701151105210587
:103CE000310519F08C5F6801790197018601F2E0D6
:103CF0003695279517950795FA95D1F70115110572
:103D00002105310519F08E5F68017901B701A6011F
:103D10007695679557954795452B462B472B09F088
:103D20008F5F1F910F91FF90EF90DF90CF900895DC
:103D300080E090E00E945F2B21E08D3E9E4F09F0D5
:103D400020E0822F089582E090E00C94512B83E0D4
:103D500090E00C94512B84E090E00C94512B682F50
:103D600084E090E00C94652B86E090E00C94512B5D
:103D7000682F86E090E00C94652BAB01BC018FE0CE
:103D800090E00C94772BAB01BC0183E190E00C94A4
:103D9000772B60E070E0CB010C94C31E60E070E014
:103DA000CB010E94BD1E0C94C91E6DEE7EEF80E01B
:103DB00090E00E94832B60E082E090E00E94652BFF
:103DC00060E083E090E00E94652B10920502109263
:103DD0000602109207021092080260E084E090E070
:103DE0000E94652B60E085E090E00E94652B60E01A
:103DF00086E090E00E94652B6FEF87E090E00E94E4
:103E0000652B40E050E0BA0188E090E00E94772BFB
:103E100060E08DE090E00E94652B40E050E0BA0148
:103E200088E190E00E94772B60E087E190E00E94BB
:103E3000652B0C94CE1E0C94D51E02962091220167
:103E4000211102C026E005C02091980227FFFACF79
:103E50002EE1FC0180E0215028F091919923D9F3C3
:103E60008F5FF9CF089520E030E04FEFFC01E20FC3
:103E7000F31F5281561799F04F3F19F4511101C0A9
:103E8000422F2F5F3F4F2630310581F74F3F39F0EA
:103E9000FC01E40FF11D47FDFA9562830895089532
:103EA00020E030E0FC01E20FF31F4281461301C025
:103EB00012822F5F3F4F26303105A1F70895262F3C
:103EC0002695269526952E3170F4FC01E20FF11D02
:103ED000677021E030E0062E01C0220F0A94EAF755
:103EE0008281822B82830895262F269526952695FA
:103EF0002E3178F4FC01E20FF11D677021E030E013
:103F0000062E01C0220F0A94EAF720958281282309
:103F10002283089520912201222329F020919802E2
:103F200027FD0C945F1F0C94331F20912201222344
:103F300029F02091980227FD0C94741F0C94501FB7
:103F400020912201FC013296222331F080919802C7
:103F500087FF02C08EE101C086E0DF011D928A95D5
:103F6000E9F7089508950C94B21F0E94B31F809141
:103F70009F02843049F110922F0220E488E190E002
:103F80000FB6F894A895809360000FBE2093600050
:103F900080E00E94670480E00E94DE040E94B31F5C
:103FA00083B7817F846083BF83B7816083BF789448
:103FB000889583B78E7F83BF88E10FB6F89480938E
:103FC0006000109260000FBE089508950895CF9389
:103FD0000E94E51F0E94240A0E94E61FC0E08C2F69
:103FE0000E94D009892B29F4CF5FC530C1F780E04A
:103FF00001C081E0CF91089508950C94FC1F0E94A8
:10400000BA170E94EE220E94AA110E94DE040C94AC
:10401000FD1F1F920F920FB60F9211248F939F9343
:10402000AF93BF9380912F02811113C080919402AE
:1040300090919502A0919602B09197024196A11D90
:10404000B11D8093940290939502A0939602B09331
:104050009702BF91AF919F918F910F900FBE0F90DC
:104060001F90189582E084BD93E095BD9AEF97BDAF
:1040700080936E0008952FB7F894809194029091E8
:104080009502A0919602B09197022FBF0895CF920A
:10409000DF92EF92FF920F931F932FB7F894409106
:1040A00094025091950260919602709197022FBFF1
:1040B0006A017B01EE24FF248C0120E030E0C01671
:1040C000D106E206F30610F441505109481B590B82
:1040D000CA011F910F91FF90EF90DF90CF9008954C
:1040E00078941F920F920FB60F9211248F939F9383
:1040F000AF93BF938091940290919502A091960204
:10410000B09197020196A11DB11D809394029093E6
:104110009502A0939602B0939702BF91AF919F91A1
:104120008F910F900FBE0F901F90189581E0809394
:10413000E00080E28093D8001092C9008FE19EE4F5
:104140000197F1F700C0000087E090EBDC0180935D
:10415000A8029093A902A093AA02B093AB022CE00C
:1041600088E190E00FB6F894A895809360000FBEA8
:1041700020936000FFCF0E94981E811102C00E9410
:104180001B1F0E94A31E80932E020E94AB1E90E074
:1041900090939902809398020E94A71E682F70E066
:1041A00080E090E00C94D61B8091330280FF0BC01E
:1041B0006091150185E0689FB001112475956795A0
:1041C000759567952AC081FF09C06091150185E04A
:1041D000689FB0011124759567951FC082FF07C0C5
:1041E0006091150185E0689FB001112416C04091CF
:1041F00032024423C9F060911401461788F72091D8
:10420000150185E0289F90011124429FC001439F22
:10421000900D112470E00E94FD2A6038710540F471
:104220006115710539F002C065E070E0862F0895D0
:104230008FE7089581E008958091330280FF08C0E0
:104240006091130170E0759567957595679521C02C
:1042500081FF06C06091130170E07595679519C0E4
:1042600082FF04C06091130170E010C0809132029F
:104270008823C1F0609112018617A0F79091130175
:10428000989FC001112470E00E94FD2A60387105DA
:1042900028F46115710521F0862F08958FE70895A0
:1042A00081E0089561E070E0F4CF803F21F40E9446
:1042B000D420819504C0813F29F40E94D4208093AA
:1042C00037020895823F21F40E94D420819504C0D2
:1042D000833F29F40E94D420809336020895893FB9
:1042E00019F40E941C2105C08A3F31F40E941C2150
:1042F00081958093380208958B3F21F40E941C2100
:10430000819504C08C3F29F40E941C2180933902BE
:104310000895843F21F480913502816017C0853F64
:1043200021F480913502826011C0863F21F4809192
:10433000350284600BC0873F21F48091350288608C
:1043400005C0883F31F48091350280618093350249
:1043500008958D3F21F48091330281600BC08E3F20
:1043600021F480913302826005C08F3F29F480914F
:1043700033028460809333020895803F39F4809142
:10438000370287FF6CC01092370269C0813F29F461
:10439000809137021816BCF362C090913602823FBA
:1043A00029F497FF5CC01092360259C0833F19F47C
:1043B0001916CCF354C0893F41F480913802181685
:1043C0000CF04DC0109238024AC08A3F29F4809107
:1043D000380287FF44C0F6CF8B3F39F48091390211
:1043E00087FF3DC0109239023AC08C3F29F480917A
:1043F00039021816BCF333C0843F21F48091350292
:104400008E7F17C0853F21F4809135028D7F11C0CA
:10441000863F21F4809135028B7F0BC0873F21F4CA
:1044200080913502877F05C0883F31F48091350245
:104430008F7E8093350213C08D3F21F4809133022B
:104440008E7F0BC08E3F21F4809133028D7F05C09B
:104450008F3F29F4809133028B7F809333028091C8
:10446000360281110EC08091370281110AC08091FD
:104470003802811106C080913902811102C0109268
:104480003202089584E392E00E94D0110E943B2002
:10449000909331028093300208951F93CF93DF935E
:1044A00080913002909131020E9447204091320267
:1044B000442321F02091160130E006C0209117011D
:1044C0005AE0259F900111248217930708F476C0C3
:1044D0008091360210913702D0913802C091390292
:1044E000811107C0111105C0D11103C0CC2309F4FB
:1044F00065C04F3F19F04F5F40933202181624F405
:104500000E94D420809336028091360287FF05C036
:104510000E94D420819580933602111624F40E94C3
:10452000D420809337028091370287FF05C00E9414
:10453000D420819580933702209136022223D9F02E
:10454000409137024423B9F055EB25039001112423
:10455000332319F03093360203C081E08093360292
:1045600025EB4203C001112490933702911103C03F
:1045700081E0809337021D1624F40E941C21809351
:1045800038028091380287FF05C00E941C21819566
:10459000809338021C1624F40E941C218093390257
:1045A0008091390287FF05C00E941C21819580936C
:1045B0003902DF91CF911F910C944222DF91CF916C
:1045C0001F910895E4E3F2E086E0DF011D928A95F1
:1045D000E9F7109232021092330208950E94981E59
:1045E000811102C00E941B1F0E94B41E80939A0278
:1045F000282F269530E02630310524F081708A601E
:1046000080939A0280919A0280FF02C0869501C031
:1046100080E00C94670420919A02322F3695832F04
:1046200090E0059744F491E0930F990F822F8170E9
:10463000892B80939A0280919A02816080939A02DA
:104640000E94B81E80919A0286950C94670480910E
:104650009A02982F969591F09158990F8170892B15
:1046600080939A028E7F91E009F490E080919A0203
:1046700090FB80F980939A020E94B81E80919A0262
:1046800086950C94670480919A0280FD11C0816028
:1046900080939A02813019F483E080939A0280918A
:1046A0009A020E94B81E80919A0286950C94670423
:1046B000089580919A0280FF08C08E7F80939A02AD
:1046C0000E94B81E80E00C946704089580919A02BD
:1046D00080FD0C9459230C94432330919A02232F8C
:1046E00026952F5F2F77822F90E0317006972CF45C
:1046F000220F232B20939A0202C030939A028091BA
:104700009A028E7F91E009F490E080919A0290FBEA
:1047100080F980939A020E94B81E80919A02869531
:104720000C946704863008F085E0880F90919A0217
:104730009170982B90939A029E7F21E009F420E0DB
:1047400080919A0220FB80F980939A020E94B81E01
:1047500080919A0286950C94670480915A0208957C
:104760000F931F93CF93DF9300D01F92CDB7DEB787
:104770008C010E941E26823011F0843021F584E0E5
:1047800089831B830A8382E08093E9008FEF9091F5
:10479000E800815095FD06C095ED9A95F1F700006F
:1047A0008111F5CF8091E80085FF0DC040E050E019
:1047B00063E070E0CE0101960E943B268091E80004
:1047C0008E778093E8000F900F900F90DF91CF913C
:1047D0001F910F910895CF93DF9300D01F92CDB713
:1047E000DEB720919F02243031F523E029838058E1
:1047F00091099B838A8382E08093E9008FEF9091F7
:10480000E800815095FD06C095ED9A95F1F70000FE
:104810008111F5CF8091E80085FF0DC040E050E0A8
:1048200063E070E0CE0101960E943B268091E80093
:104830008E778093E8000F900F900F90DF91CF91CB
:104840000895CF93DF93EC010E941E26823011F071
:104850008430F9F482E08093E9008FEF9091E800D2
:10486000815095FD06C095ED9A95F1F700008111F4
:10487000F5CF8091E80085FF0CC040E050E066E095
:1048800070E0CE010E943B268091E8008E778093F5
:10489000E800DF91CF910895CF93DF93EC010E9460
:1048A0001E26823011F08430D9F5809122018111C9
:1048B00003C068E081E006C08091980287FFF9CFCD
:1048C00060E282E08093E9008FEF9091E8008150F0
:1048D00095FD06C095ED9A95F1F700008111F5CF91
:1048E0008091E80085FF1CC080912201811105C0E4
:1048F00040E050E068E070E003C070E040E050E06D
:10490000CE010E943B268091E8008E778093E800DC
:1049100080E2FE01AAE3B2E001900D928A95E1F7F0
:10492000DF91CF91089580919E02811109C00E946C
:10493000CD270E942A288091E20084608093E200C3
:10494000089510929E020895089508950C94FF1FF3
:1049500042E061EC81E00E94472742E261EC82E0A4
:104960000C9447278091A102833009F460C030F491
:10497000813071F0823009F499C008958A3009F4C9
:1049800085C08B3009F46BC0893009F0A7C020C006
:104990008091A002813A09F0A1C08091E800877F50
:1049A0008093E8008091A4029091A502892B21F0C8
:1049B00060E080E090E003C060E28AE392E070E0B3
:1049C0000E9484268091E8008B778093E800089508
:1049D0008091A002813209F081C08091A40290915F
:1049E000A502029708F07AC08091E800877F809343
:1049F000E8008091E80082FD05C080919F0281114E
:104A0000F8CF6CC02091F3008091F20090E0922BDF
:104A1000029729F48091F1008B7F813021F48091FD
:104A2000F10080935A028091E8008B7753C0809107
:104A3000A002813A09F052C08091A4029091A5028F
:104A4000892B09F04BC08091E800877F8093E800B4
:104A50008091E80080FFFCCF8091220136C08091D8
:104A6000A0028132D9F58091A4029091A502892BF0
:104A7000A9F58091E800877F8093E8000E947C2759
:104A80008091A202809322010C94BA178091A00217
:104A9000813221F58091E800877F8093E8000E94B1
:104AA0007C278091A30280935B0208958091A002ED
:104AB000813AA1F48091E800877F8093E80080919B
:104AC000E80080FFFCCF80915B028093F100809131
:104AD000E8008E778093E8000C947C27089584B7D3
:104AE000877F84BF88E10FB6F894809360001092AE
:104AF00060000FBE80E880936100109261000E9408
:104B000018120E94CD270E942A288091E20084601A
:104B10008093E20078940E94AD2A0E94201288E1DE
:104B200091E00E94A51180919F02853069F40E9456
:104B3000B51F80919D028823B1F30E94E71F88234F
:104B400091F30E942526EFCF0E942C120E942A107A
:104B5000EACF0C94AB25292F332723303105A9F058
:104B60006CF42130310509F441C02230310509F0DF
:104B700042C08BE390E025EB34E04BC0213231059D
:104B8000F9F02232310539F136C09927813091058B
:104B900071F02CF4892B79F5E1EBF4E00DC0823053
:104BA000910541F0039739F5EDE8F4E005C0EFE930
:104BB000F4E002C0E3E9F4E0849190E09F0129C0B1
:104BC00061157105E9F061307105A9F489E090E0A3
:104BD00020EE34E01EC061157105B9F06130710539
:104BE00051F480EC90E022E035E013C082E190E0E7
:104BF00020EF34E00EC080E090E020E030E009C01B
:104C000089E090E027EC34E004C080E490E022ECFE
:104C100035E0FA013183208308950895CF93C82F9A
:104C20000E940D26C0935C02CF91089580919F024F
:104C3000843011F482E0089581E0089580915C024F
:104C4000811102C00C941626089580E189BD82E18D
:104C500089BD09B400FEFDCF8091D8008F7D80937F
:104C6000D8008091E00082608093E0008091E000B5
:104C700081FDFCCF0895CF92DF92EF92FF920F93C8
:104C80001F93CF93DF937C018B01EA010E949D2744
:104C9000811131C0209731F088819981081B190B4F
:104CA000E80EF91EC12CD12C0115110519F18091C6
:104CB000E80085FD14C08091E8008E778093E800BD
:104CC000209741F0888199818C0D9D1D998388835F
:104CD00085E011C00E949D27882331F30CC0F701A5
:104CE00081917F018093F10001501109FFEFCF1AEC
:104CF000DF0ADACF80E0DF91CF911F910F91FF9013
:104D0000EF90DF90CF9008952091A6023091A702F6
:104D10002617370748F06115710539F42091E8002E
:104D20002E772093E80001C0B901FC0120E0611555
:104D30007105B9F180919F02882309F440C0853044
:104D400009F43FC08091E80083FD3DC08091E800F8
:104D500082FF06C08091E80082FF26C080E00895AF
:104D60008091E80080FFE3CF2091F3008091F20072
:104D700090E0922B6115710551F08830910538F45F
:104D800021912093F100615071090196F3CF21E048
:104D9000089709F020E08091E8008E778093E80082
:104DA000C6CF2111C7CFD6CF80919F02882339F07B
:104DB000853039F08091E80083FFCCCF04C082E0D9
:104DC000089583E0089581E008952091A60230912E
:104DD000A7022617370748F06115710539F42091AD
:104DE000E8002E772093E80001C0B901FC0120E023
:104DF00061157105C1F180919F02882309F441C0BA
:104E0000853009F440C08091E80083FD3EC0809168
:104E1000E80082FF06C08091E80082FF27C080E0A2
:104E200008958091E80080FFE3CF2091F300809106
:104E3000F20090E0922B6115710559F088309105D0
:104E400040F424912093F10031966150710901964C
:104E5000F2CF21E0089709F020E08091E8008E77FA
:104E60008093E800C5CF2111C6CFD5CF80919F0296
:104E7000882339F0853039F08091E80083FFCBCF6B
:104E800004C082E0089583E0089581E00895982F9A
:104E9000973058F59093E900981739F07091EC002D
:104EA0002091ED005091F00003C0242F762F50E0A8
:104EB00021FF19C03091EB003E7F3093EB00309121
:104EC000ED003D7F3093ED003091EB003160309389
:104ED000EB007093EC002093ED005093F0002091D4
:104EE000EE0027FF07C09F5FD3CF8F708093E9004C
:104EF00081E0089580E008958091A00287FD05C0BB
:104F00008091E80080FF0EC012C08091E80082FD11
:104F100005C080919F028111F8CF08958091E8002B
:104F20008B7708C080919F028111EACF089580910C
:104F3000E8008E778093E80008958091E4009091D6
:104F4000E50045E62091EC0020FF21C02091E8001B
:104F500020FD21C020919F02222389F0253089F075
:104F60002091EB0025FD0FC02091E4003091E50079
:104F70002817390739F3415041F0C901E3CF82E0E6
:104F8000089583E0089581E0089584E008952091D4
:104F9000E80022FFDFCF80E008950E943B280E94B6
:104FA0004328E0EEF0E0808181608083E8EDF0E06E
:104FB00080818F77808319BCA7EDB0E08C918E7FC4
:104FC0008C9380818F7E808310929E0208950F9330
:104FD0001F93CF93DF930E943B280E944328C8ED84
:104FE000D0E088818F7788838881806888838881F2
:104FF0008F7D888319BC10929F0210929B021092A1
:105000009D0210929C0200EE10E0F80180818B7FDF
:10501000808388818160888342E060E080E00E9434
:105020004727E1EEF0E080818E7F8083E2EEF0E0C2
:10503000808181608083808188608083F8018081A5
:105040008E7F8083888180618883DF91CF911F91DB
:105050000F910895E8EDF0E080818F7E8083E7ED89
:10506000F0E080818160808384E082BF81E0809372
:105070009E020C94E727E8EDF0E080818E7F80832C
:105080001092E20008951092DA001092E100089563
:105090001F920F920FB60F9211242F933F934F93AD
:1050A0005F936F937F938F939F93AF93BF93EF9390
:1050B000FF938091E10082FF0BC08091E20082FFAC
:1050C00007C08091E1008B7F8093E1000E94AC2AB1
:1050D0008091DA0080FF1FC08091D80080FF1BC044
:1050E0008091DA008E7F8093DA008091D90080FF72
:1050F0000DC080E189BD82E189BD09B400FEFDCF0C
:1051000081E080939F020E94932405C019BC1092F5
:105110009F020E94A1248091E10080FF19C080912C
:10512000E20080FF15C08091E2008E7F8093E20054
:105130008091E20080618093E2008091D8008062DB
:105140008093D80019BC85E080939F020E94A5241B
:105150008091E10084FF30C08091E20084FF2CC088
:1051600080E189BD82E189BD09B400FEFDCF809157
:10517000D8008F7D8093D8008091E1008F7E80934E
:10518000E1008091E2008F7E8093E2008091E20056
:1051900081608093E20080919B02882311F084E07B
:1051A00007C08091E30087FF02C083E001C081E077
:1051B00080939F020E94A6248091E10083FF29C072
:1051C0008091E20083FF25C08091E100877F80937A
:1051D000E10082E080939F0210929B028091E100A7
:1051E0008E7F8093E1008091E2008E7F8093E200C9
:1051F0008091E20080618093E20042E060E080E024
:105200000E9447278091F00088608093F0000E9400
:10521000A424FF91EF91BF91AF919F918F917F91C6
:105220006F915F914F913F912F910F900FBE0F9013
:105230001F9018951F920F920FB60F9211242F9363
:105240003F934F935F936F937F938F939F93AF930E
:10525000BF93CF93EF93FF93C091E900CF708091FC
:10526000EC001092E9008091F000877F8093F000BD
:1052700078940E9456291092E9008091F00088608D
:105280008093F000C093E900FF91EF91CF91BF911F
:10529000AF919F918F917F916F915F914F913F91CE
:1052A0002F910F900FBE0F901F9018951F93CF93C3
:1052B000DF93CDB7DEB7AA970FB6F894DEBF0FBE67
:1052C000CDBFE0EAF2E08091F100819322E0E83A7C
:1052D000F207C9F70E94B2248091E80083FF24C13D
:1052E0002091A0023091A102832F90E08A30910595
:1052F00008F01AC1FC01E556FF4F0C94332B2038FF
:1053000021F0223809F010C108C080919C029091D0
:105310009D02992389F082600FC08091A4028F7052
:10532000873008F001C18093E9008091EB0085FB94
:10533000882780F91092E9009091E800977F909378
:10534000E8008093F1001092F100CCC0822F8D7F95
:1053500009F0EAC0222319F0223061F0E5C0809103
:10536000A202813009F0E0C0333009F080E0809380
:105370009D022AC08091A202811126C02091A40220
:105380002F708FEF820F863008F0CEC02093E90097
:105390008091EB0080FF18C08091EB00333011F456
:1053A000806210C080618093EB0081E090E001C0DA
:1053B000880F2A95EAF78093EA001092EA0080911C
:1053C000EB0088608093EB001092E9008091E80088
:1053D000877F8093E8000E947C27A6C02111A4C08B
:1053E0001091A2021F778091E3008078812B809337
:1053F000E3008091E800877F8093E8000E947C278B
:105400008091E80080FFFCCF8091E300806880936A
:10541000E300112311F083E001C082E080939F023A
:1054200083C02058223008F07FC08091A202909162
:10543000A3028C3D23E0920779F583E08A838AE218
:1054400089834FB7F894DE01139620E03EE051E2E5
:10545000E32FF0E050935700E49120FF03C0E29562
:10546000EF703F5FEF708E2F90E0EA3010F0C7963C
:1054700001C0C0968D939D932F5F243149F74FBF94
:105480008091E800877F8093E8006AE270E0CE01B7
:1054900001960E94842615C06091A4027091A50215
:1054A000AE014F5F5F4F0E94A9250097E9F120915F
:1054B000E800277F2093E800BC0189819A810E943F
:1054C000E5268091E8008B778093E8002DC0203896
:1054D00059F58091E800877F8093E80080919B02D6
:1054E0008093F1008091E8008E7773CF21111CC06A
:1054F0009091A2029230C0F48091E800877F80935F
:10550000E80090939B020E947C2780919B0281116E
:1055100004C08091E30087FF02C084E001C081E005
:1055200080939F020E94A8248091E80083FF0AC014
:105530008091E800877F8093E8008091EB00806293
:105540008093EB00AA960FB6F894DEBF0FBECDBFD6
:10555000DF91CF911F9108950895CF9380919F027D
:105560008823B1F08091E9008F709091EC0090FF5A
:1055700002C090E801C090E0C92FC82B1092E9004A
:105580008091E80083FD0E945629CF70C093E90006
:10559000CF910895A29FB001B39FC001A39F700D4A
:1055A000811D1124911DB29F700D811D1124911D2B
:1055B0000895DB018F939F930E94392BBF91AF9188
:1055C000A29F800D911DA39F900DB29F900D11245D
:1055D0000895AA1BBB1B51E107C0AA1FBB1FA6173A
:1055E000B70710F0A61BB70B881F991F5A95A9F78C
:1055F00080959095BC01CD01089597FB072E16F478
:10560000009407D077FD09D00E94E92A07FC05D055
:105610003EF4909581959F4F0895709561957F4FC9
:105620000895A1E21A2EAA1BBB1BFD010DC0AA1FE3
:10563000BB1FEE1FFF1FA217B307E407F50720F0FB
:10564000A21BB30BE40BF50B661F771F881F991F76
:105650001A9469F760957095809590959B01AC01BF
:10566000BD01CF010895EE0FFF1F0590F491E02DCD
:1056700009940E94CA2AA59F900DB49F900DA49FE3
:10568000800D911D11240895FC014150504030F0CF
:1056900001900616D1F73197CF01089588279927F1
:1056A0000895F999FECF92BD81BDF89A992780B5EA
:1056B0000895A6E1B0E044E050E00C948B2BA8E103
:1056C000B0E042E050E00C948B2B262FF999FECFEE
:1056D00092BD81BDF89A019700B4021639F01FBA45
:1056E00020BD0FB6F894FA9AF99A0FBE0895039662
:1056F000272F0E94662B0E94652B252F0E94662B68
:10570000242F0C94662B0196272F0E94662B0C9455
:10571000652BDC01CB01FC01F999FECF06C0F2BD7F
:10572000E1BDF89A319600B40D9241505040B8F75F
:065730000895F894FFCF7C
:10573600010210101001191A1B1C1D1E1F20212208
:105746000B022808140A321EAD234C242124EB2315
:10575600B02301F0F1C66766379431303534979639
:1057660033F4909192939500010202020206060616
:105776000909090909090F0F0F0F0F0F151515183C
:0C578600191919191919191919192324D6
:00000001FF
