:100000000C949C050C94E3050C94E3050C94E30517
:100010000C94E3050C94E3050C94E3050C94E305C0
:100020000C94E3050C94E3050C9473300C94473165
:100030000C949F270C94E3050C94E3050C94E305C2
:100040000C94E3050C94E3050C94E3050C94E30590
:100050000C94E3050C94EA270C94E3050C94E30557
:100060000C94E3050C94E3050C94E3050C94E30570
:100070000C94E3050C94E3050C94E3050C94E30560
:100080000C94E3050C94E3050C94E3050C94E30550
:100090000C94E3050C94E3050C94E3050C94E30540
:1000A0000C94E3050C94E3050C94E30529001E0071
:1000B0001F0020002100220023002400250026002C
:1000C00027002D002E0000002A002B000000140045
:1000D0001A000800150017001C0018000C00120080
:1000E00013002F0030003100285D000004001600CE
:1000F000070009000A000B000D000E000F0033007E
:10010000340028000000E10000001D001B00060074
:100110001900050011001000360037000000E5004E
:1001200052003800E000E3000000E20000000000A0
:100130002C00000000000000295D0151500051001A
:100140004F0035003A003B003C003D003E003F00C0
:1001500040004100420043004400450000004C00C4
:10016000005C00002E5D01000100010001000100A3
:1001700059005A005B004B00AA00A9000100390099
:1001800000000100010001000100010001005C000D
:100190005D005E004E004A004D000000125000005D
:1001A0000100010001000100010001005F0060008A
:1001B0006100000062002B5D4900010001000000A9
:1001C000010000000000010000000000000001002C
:1001D00001002A5D2C5D2D5D105001000100010021
:1001E0000100010001000100010001000100010007
:1001F00001000000010001000000010052000100A8
:1002000001000100010001000100010001000100E6
:100210000100010004000000500051004F000100E7
:1002200001000100010001000100010001000100C6
:100230000000010000001D001B0001000100010082
:1002400001000100010001000000010001000100A7
:10025000010001000000010000000000010000009A
:100260000000000001000100010001000100444500
:100270004255473A2064697361626C65642E0A00D6
:1002800044454255473A20656E61626C65642E0AAA
:10029000000A002530313662003A200025303258FD
:1002A000000A722F63203031323334353637383913
:1002B0004142434445460A007267626C696768744C
:1002C0002074696D65722064697361626C652E0AC1
:1002D000007267626C696768742074696D6572206A
:1002E000656E61626C65642E0A007267626C696794
:1002F00068742073657420687376205B4E4F4545A3
:1003000050524F4D5D3A2025752C25752C25750AC8
:10031000007267626C696768742073657420687323
:1003200076205B454550524F4D5D3A2025752C2572
:10033000752C25750A007267626C69676874207293
:1003400061696E626F7720736574206873763A20F6
:1003500025642C25642C25642C25750A007267629F
:100360006C696768742064697361626C65205B4EB8
:100370004F454550524F4D5D3A207267626C696738
:1003800068745F636F6E6669672E656E61626C6527
:10039000203D2025750A007267626C6967687420C9
:1003A00064697361626C65205B454550524F4D5DD9
:1003B0003A207267626C696768745F636F6E666922
:1003C000672E656E61626C65203D2025750A00729E
:1003D00067626C6967687420656E61626C65205B3A
:1003E0004E4F454550524F4D5D3A207267626C69E1
:1003F0006768745F636F6E6669672E656E61626CB5
:1004000065203D2025750A007267626C6967687413
:1004100020656E61626C65205B454550524F4D5DB5
:100420003A207267626C696768745F636F6E6669B1
:10043000672E656E61626C65203D2025750A00722D
:1004400067626C6967687420746F67676C65205BAE
:10045000454550524F4D5D3A207267626C6967683E
:10046000745F636F6E6669672E656E61626C65208E
:100470003D2025750A007267626C69676874206D9B
:100480006F6465205B4E4F454550524F4D5D3A209D
:1004900025750A007267626C69676874206D6F6405
:1004A00065205B454550524F4D5D3A2025750A0049
:1004B0007267626C696768745F696E6974207267DD
:1004C000626C696768745F636F6E6669672E6D6FD3
:1004D0006465203D20302E20577269746520646564
:1004E0006661756C742076616C75657320746F201D
:1004F000454550524F4D2E0A007267626C6967681D
:10050000745F696E6974206565636F6E66696720E4
:100510006973206E6F7420656E61626C65642E0A6B
:10052000007267626C696768745F696E69742073D2
:1005300074617274210A007267626C696768745F23
:10054000696E69742063616C6C65642E0A00726761
:10055000626C696768745F636F6E6669672E73703B
:10056000656564203D2025640A007267626C6967D6
:1005700068745F636F6E6669672E76616C203D20DC
:1005800025640A007267626C696768745F636F6EE6
:100590006669672E736174203D2025640A007267C6
:1005A000626C696768745F636F6E6669672E6875F1
:1005B00065203D2025640A007267686C696768746D
:1005C0005F636F6E6669672E6D6F6465203D2025E1
:1005D000640A007267626C696768745F636F6E6655
:1005E00069672E656E61626C65203D2025640A0096
:1005F0007267626C696768745F636F6E66696720B3
:10060000454550524F4D3A0A0032190A00047F3FC7
:100610001F643214643214783C1E1E140A0522230F
:10062000252628292A2C2D2F3032333536383A3BCF
:100630003D3E4042434547494A4C4E505153555721
:10064000595A5C5E6062646668696B6D6F71737540
:1006500077797B7D7F81838587898A8C8E90929440
:1006600096989A9C9E9FA1A3A5A7A8AAACAEAFB14D
:10067000B3B4B6B8B9BBBCBEBFC1C2C3C5C6C7C997
:10068000CACBCCCDCED0D1D2D2D3D4D5D6D7D7D851
:10069000D9D9DADADBDBDBDCDCDCDCDCDDDDDDDDA3
:1006A000DCDCDCDCDCDBDBDBDADAD9D9D8D7D7D6AB
:1006B000D5D4D3D2D2D1D0CECDCCCBCAC9C7C6C562
:1006C000C3C2C1BFBEBCBBB9B8B6B4B3B1AFAEACA8
:1006D000AAA8A7A5A3A19F9E9C9A98969492908E53
:1006E0008C8A89878583817F7D7B79777573716F2C
:1006F0006D6B6968666462605E5C5A595755535108
:10070000504E4C4A4947454342403E3D3B3A3836BD
:10071000353332302F2D2C2A292826252322FFAAD3
:100720007F55406261636B6C6967687420737465A0
:10073000703A2025750A006261636B6C69676874A2
:100740002064697361626C650A006261636B6C6945
:1007500067687420656E61626C650A006261636B34
:100760006C6967687420746F67676C653A202575DB
:100770000A006261636B6C69676874206465637208
:10078000656173653A2025750A006261636B6C6967
:1007900067687420696E6372656173653A202575B8
:1007A0000A0000010101010101010101020202022E
:1007B000020202020203030303030303030404040B
:1007C00004040404050505050506060606060707D4
:1007D00007070708080808090909090A0A0A0B0B8C
:1007E0000B0C0C0C0D0D0D0E0E0E0F0F0F1010112B
:1007F00011111212131314141515161617171818B1
:1008000019191A1A1B1B1C1D1D1E1E1F2020212218
:1008100022232424252626272829292A2B2C2D2D5E
:100820002E2F30313232333435363738393A3B3C7B
:100830003D3E3F404142434445464748494A4C4D6E
:100840004E4F50515354555658595A5B5D5E5F6137
:100850006264656668696B6C6D6F707273757778CA
:100860007A7B7D7E8082838587888A8C8E8F919328
:100870009596989A9C9EA0A2A3A5A7A9ABADAFB14F
:10088000B3B5B7BABCBEC0C2C4C6C9CBCDCFD1D434
:10089000D6D8DBDDDFE2E4E7E9EBEEF0F3F5F8FADA
:1008A000FDFF0A002530325820006B6579626F61C8
:1008B00072645F7265706F72743A20000A002530AE
:1008C0003258006B6579626F6172645F7365745F43
:1008D0006C65643A200064656C5F6B65795F626982
:1008E000743A2063616E27742064656C3A20253069
:1008F00032580A006164645F6B65795F6269743ABB
:100900002063616E2774206164643A202530325878
:100910000A00290A002575002F002575005D2800B2
:1009200025640020002564002000256400200025A7
:1009300064007C0025303258006D6F7573656B65FF
:1009400079205B62746E7C782079207620685D283F
:100950007265702F61636C293A205B005B735D00E8
:100960004B6579626F6172642073746172742E0AD0
:10097000005B575D005B535D005B525D005B445D57
:10098000005B435D000403300000000A0344005A8A
:100990000036003000000010034B004200440046C7
:1009A0000061006E00730000000403090409025B8B
:1009B00000030100A0FA090400000103010100097D
:1009C00021110100012240000705810308000A09E6
:1009D000040100010300000009211101000122BCF3
:1009E000000705820320000A090402000203000038
:1009F00000092111010001222200070583032000C4
:100A00000107050303200001120110010000000886
:100A10005A4460220100010203010631FF0974A15A
:100A2000010975150026FF009520750881020976D9
:100A3000150026FF00952075089102C005010902E6
:100A4000A10185020901A100050919012905150067
:100A50002501950575018102950175038101050147
:100A6000093009311581257F9502750881060938FD
:100A70001581257F950175088106050C0A38021538
:100A800081257F950175088106C0C005010980A1F7
:100A900001850319012AB700150126B700950175D4
:100AA000108100C0050C0901A101850419012AA0CB
:100AB00002150126A002950175108100C0050109EB
:100AC00006A1018505050719E029E715002501950F
:100AD00008750181020507190029EF150025019508
:100AE000F075018102050819012905950575019127
:100AF00002950175039101C005010906A1010507D1
:100B000019E029E715002501950875018102950175
:100B1000750881010507190029FF150026FF0095BA
:100B200006750881000508190129059505750191CB
:100B300002950175039101C011241FBECFEFDAE0C9
:100B4000DEBFCDBF04B603FE27C08091880390911D
:100B50008903A0918A03B0918B038730904BA74003
:100B6000B04BD1F4109288031092890310928A033B
:100B700010928B0314BE84B7877F84BF0FB6F8949E
:100B8000A895809160008861809360001092600059
:100B90000FBEE0E0F8E3099511E0A0E0B1E0ECE879
:100BA000F9E602C005900D92A43EB107D9F723E003
:100BB000A4EEB1E001C01D92A838B207E1F70E948F
:100BC000A82D0C9481340C940000FF93EF93E091D6
:100BD000E401F091E501309709F00995EF91FF915B
:100BE0000895FC018591803011F0EFDFFBCF08956F
:100BF000FF27E0E230E247FF0CC0419597FF09C0B4
:100C0000EDE26095709580959095611D711D811D37
:100C1000911D27FF02C0219530E350E2AA27660FFD
:100C2000771F881F991FAA1FA41710F0A41B639594
:100C30005A95A9F7AA3008F0A95FA05DAF93F39584
:100C4000611571058105910541F7ED3211F4EF93BE
:100C5000F395F21718F43F93F395FBCF8F91B5DF1F
:100C6000FA95E1F70895E991F9918591803021F0A5
:100C7000853219F0AADFF9CF089520E0E894559164
:100C80005532C1F3503311F4689455915A3348F4F6
:100C9000505390F3220F022E220F220F200D250F0A
:100CA000F4CF0EF4219589919991533619F3533766
:100CB00029F1533559F1BC0188279927E8945C360E
:100CC00021F48991999168945591543639F446EFFD
:100CD0007EF077FF0DC08FEF9FEF0AC055374AE0D7
:100CE00039F0583540E121F0523642E009F00895DC
:100CF000FF93EF937DDFEF91FF91B7CFFF93EF93DA
:100D0000FC0181918030B9F360DFFBCFFF93EF935B
:100D100068DFF1CFDF93CF93CDB7DEB72596A3DFA2
:100D2000CF91DF910895229A2A9A08950E945C0734
:100D30000C94930681FF03C02A980C9441082A9AC8
:100D4000FCCF1F93CF93DF93C82F162F442389F135
:100D500061110CC0D0E0CE010E94B307CE010E9409
:100D6000C807812FDF91CF911F910895613089F4D9
:100D700082EE90E00E94B307D0E0CE010E94B3075C
:100D8000CE010E94C80782EE90E00E94C80710E0E2
:100D9000E8CF6230E1F783EE90E00E94B307D0E045
:100DA000CE010E94B307CE010E94C80783EE90E0F7
:100DB000ECCF11E0D6CF0F931F93CF93DF93EC01CD
:100DC0008B018091E801882359F0FB0182818823FF
:100DD00039F0CC32D105B1F089E390E00E94DD0713
:100DE000FE01E852FD45E730F10560F4ED57FB4C9C
:100DF0000C945E334091040160E080E40E94A106FF
:100E00008093040181E0DF91CF911F910F910895AC
:100E10004091050162E08FE00E94A10680930501E8
:100E2000F1CF4091060161E080E50E94A106809328
:100E30000601E8CF4091070161E082E50E94A1062A
:100E400080930701DFCF4091080161E081E50E94B6
:100E5000A10680930801D6CF4091090161E08FE49B
:100E60000E94A10680930901CDCFF80182818823D9
:100E700049F28091E80191E089278093E801C2CF8F
:100E8000CF92DF92EF92FF926B017C010E942E25A0
:100E9000882371F0833028F444ED6FEF8FEF0E94C8
:100EA000CD0FC701B601FF90EF90DF90CF9008956E
:100EB0004FEF6FEF8CE1F3CF0E94CF279093E701C4
:100EC0008093E601089580910A018823A1F0809122
:100ED000E6019091E7010E94DB270B9760F01092EA
:100EE0000A014EEB6FEF81E10E94CD0F81E00E947D
:100EF00040130C94A8130895CF93DF939C013A9567
:100F000021153F4168F5EC01CC27D170DC01AA27FF
:100F1000B270AC01442754709C012227387094FFB2
:100F200011C080E1CD2B09F480E0AB2B09F0806289
:100F3000452B09F08064232B09F08068FB01DF91C9
:100F4000CF91099481E0CD2B09F480E0AB2B09F01F
:100F50008260452B09F08460232B81F38860EECFFB
:100F6000DF91CF910895CF93DF93EC01805E9109DB
:100F7000089720F066ED7EE1209711F460E77CE1B0
:100F8000CE010E947C078C2FDF91CF910C94751BB2
:100F9000CF93DF93EC010E94071CCE01805E910984
:100FA000089720F06DED7EE1209711F467E77CE172
:100FB000CE01DF91CF910C947C07CF93DF93EC01AE
:100FC0000E94B307CE01DF91CF910C94C80781E056
:100FD00008950C94DB0608950C94EB071F93CF93B0
:100FE000DF9300D000D00F92CDB7DEB749835A838C
:100FF0006B8330915D0289819A8131111DC0662316
:10100000B9F02223A9F00E94E523182F682F8981C7
:101010009A810E94912369817A81812F0F900F908C
:101020000F900F900F90DF91CF911F910C94C008FB
:101030000E94BD23182FEFCF0E94E52369817A819A
:10104000EDCFFC01262F4081518162817381848123
:101050000C94EE07CF93DF93EC0160E00E9421082F
:10106000BE01DF91CF910C94EC070E94A025811165
:1010700002C00E9446260E942D170C9496060C94DE
:10108000CB0A089581E008950C944208CF93C82FAD
:101090000E949A068C2FCF910C94440808950E94C8
:1010A000FA1E0E944E082FEF84E39CE021508040FE
:1010B0009040E1F700C000000C940E280F931F939E
:1010C000CF93DF93EC0161E00E9421088C01BE0107
:1010D0000E94E907882371F1BE01C8010E94991698
:1010E000882341F1BE01C8010E94F417882311F141
:1010F000BE01C8010E9446188823E1F0BE01C80164
:101100000E9469198823B1F0BE01C8010E94F4143D
:10111000882381F08A81882341F101308CE518070A
:1011200079F00E3D8CE51807E9F001151C45E9F44E
:101130000E944F0880E0DF91CF911F910F91089599
:101140009091F502892F8E7F90FF81608093F50248
:1011500080FF05C080E892E00E94F105EBCF8EE6AB
:1011600092E0FACF0E944626E5CFCE01DF91CF91E3
:101170001F910F910C94E70790E080E00895089587
:10118000972F70E02FE0929F600D711D1124FB01DD
:101190009BE4899FE00DF11D1124EE0FFF1FE45524
:1011A000FF4F859194910895FC01EE0FFF1FEF56BC
:1011B000FD4F859194910895CF93DF930E94C008CD
:1011C0000E94F109EC01811520E5920708F042C068
:1011D000811530E4930708F0BDC0883E910528F5DD
:1011E000803E910508F09DC0883A910588F4853AC3
:1011F000910508F08FC08130910509F492C00097E5
:1012000009F48FC0049708F08CC0D0E0C0E089C01A
:101210008F3B910508F489C0805C9109C03CD105E1
:10122000A0F30E94D408EC017CC08115904250F4D8
:10123000C11581E0D80708F074C0C03FD10528F37C
:10124000D0656FC0C11590E3D90708F079C0CE0111
:101250009F70E7CF811525E5920758F5811534E594
:10126000930708F0A6C0811542E5940750F4C11514
:1012700081E5D80708F471C0DC2FCC27C16FD06A94
:1012800050C0982F969596959E0123703327C115CF
:10129000D34508F07FC0C1E0D0E002C0CC0FDD1F15
:1012A0002A95E2F720E2929FC0011124C82BD92B86
:1012B0006FC0C11589E5D807A8F4C11598E5D9070D
:1012C00008F07CC0C11526E5D20708F09ECF8C2F10
:1012D0000E94880AC82FD0E0DC2FCC27CC27DF71F2
:1012E000D0621FC0C1153AE5D30708F46CC0CE0127
:1012F00090568115904208F088CF8D2F8F710E94F3
:10130000880A90E0982F882788279F719C012C2BB2
:10131000E901E6CFC55AD0E0CF59DE4FC881D0E011
:10132000D064CE01DF91CF910895C85AD0E0CC0FA0
:10133000DD1FCD5CDE4F0990D881C02DD464F1CF84
:10134000CE019927D3FF03C0EC01D86CEACFEC01A2
:10135000D06CE7CFDF70D06AE4CFCE01E4E09695A1
:101360008795EA95E1F783702C2F269526952370B3
:1013700090E2299F90011124382B8C2F8370C1E0BB
:10138000D0E002C0CC0FDD1F8A95E2F7C22BD32B31
:10139000DC68C7CFC1E0D0E002C0CC0FDD1F2A95CA
:1013A000E2F730E2939FC0011124C82BD92BDA68F1
:1013B000B8CFD82FCC27C46FD06AB3CFDC2FCC27BF
:1013C000C06FD06AAECF8C2F8F700E94880A34E035
:1013D000D695C7953A95E1F7CF709C2FEC01D0696F
:1013E000A0CF82389105B1F1B0F48133910509F4B1
:1013F00075C048F48932910509F469C08A329105B3
:1014000009F473C008958533910509F459C08933EF
:10141000910501F10895833E9105A9F138F4803ECC
:101420009105F9F0823E910549F10895863E9105B6
:10143000A9F1873E9105C9F1843E910519F52091E6
:101440007A0321FF1FC08091790384FD14C087EEC9
:1014500090E00895209179032370A1F080EE90E050
:1014600008952091790320FD47C030917A0330FF21
:1014700009C024FF44C090E080E004C020917903BB
:1014800022FDF7CF08952091790322FD3BC03091D2
:101490007A0330FDE3CF24FFF5CFEDCF2091790320
:1014A00023FFF0CF24FDE7CFD2CF2091790323FD96
:1014B0002CC030917A0331FFEECF84EE90E0089596
:1014C0002091790325FFDECF89E290E008952091F5
:1014D000790325FFD7CF85E390E008952091790324
:1014E00026FFD0CF8AE290E008952091790326FF6D
:1014F000C9CF81E390E0089589E390E0089583EEF9
:1015000090E0089582EE90E0089586EE90E00895D0
:101510009091790392FF06C0282F28712830F9F4A2
:10152000877F846093FF06C0282F28712831F1F44B
:10153000877E846120917A0320FF06C0382F38719E
:101540003830D9F4877F816021FF06C0282F2871A9
:101550002831D1F4877E816194FD877E0895282FFC
:1015600024712430F9F68B7F8860DCCF282F24711A
:10157000243101F78B7E8861DDCF382F3171313016
:1015800019F78E7F8860E0CF282F2171213121F754
:101590008E7E8861E1CF0C946307E82FF0E0EE0FB8
:1015A000FF1FEB5CFC4F808191810895CF92DF9209
:1015B000EF92FF920F931F93CF93DF9381EA92E014
:1015C0000E94F10585E3E82E83E0F82ED0E0C0E02C
:1015D0009CE9C92E92E0D92E03E912E0DF93CF9364
:1015E000DF92CF920E948A0689E992E00E94F1057B
:1015F000F701819191917F010E9493259F938F9391
:101600001F930F930E948A0681E992E00E94F105E0
:1016100021968DB79EB708960FB6F8949EBF0FBE61
:101620008DBFC530D105D1F6DF91CF911F910F91BC
:10163000FF90EF90DF90CF90089580EA8A95F1F7C0
:101640000895CF93DF93A3E7B1E048E751E0C1E00D
:10165000D0E08D91E82FE295EF70F0E061A18F70FE
:101660009E0101C0220F8A95EAF7922F909596234A
:1016700091A382A1822B82A34A175B0751F7A4E6AC
:10168000B1E061E070E08D91E82FE295EF70F0E05D
:1016900041A18F709B0101C0220F8A95EAF7922F1A
:1016A0009095942391A382A1822B82A381E0A337FA
:1016B000B80749F710922C0310922B0310923603AF
:1016C0001092350310922E0310922D0310923803BE
:1016D000109237031092300310922F0310923A03A6
:1016E00010923903109232031092310310923C038E
:1016F00010923B03109234031092330310923E0376
:1017000010923D0385E00E94100CDF91CF910C9464
:1017100035088F929F92AF92BF92CF92DF92EF9255
:10172000FF920F931F93CF93DF9383E7E82E81E01F
:10173000F82E0BE213E0912CAA24A394B12CF7010C
:1017400081917F01C82FC295CF70D0E099A18F7091
:10175000650101C0CC0C8A95EAF7892F8C2989A3F1
:101760008AA18C2C809488218AA30E941D0BE4E618
:10177000F1E050E040E030E020E06191A62FA2953A
:10178000AF70B0E090968C9190E06F7002C095952C
:1017900087956A95E2F780FD3EC0C501042E02C020
:1017A000880F991F0A94E2F7282B392B4F5F5F4F60
:1017B0004F30510511F789A1882289A28AA1C82A30
:1017C000CAA2F801808191812817390739F1318344
:1017D000208381E0982A0E5F1F4FF8E7EF16F1E0B3
:1017E000FF0609F0ACCF292D45E065E373E08BE2FD
:1017F00093E00E94110C0E943F08892DDF91CF9148
:101800001F910F91FF90EF90DF90CF90BF90AF901E
:101810009F908F90089590E080E0C6CF80E0DACF6F
:101820000895FF920F931F93CF93DF93F82E092F04
:10183000162FD72FC42F222349F081E08093EB018C
:101840000E94CF279093EA018093E9018091EB01F8
:101850008823A1F08091E9019091EA010E94DB27A1
:10186000069760F0EF2DF02FA12FBD2F90E080E0C4
:10187000D0E08C179D0744F01092EB01DF91CF91DF
:101880001F910F91FF900895219131912D933D93D8
:101890000196EFCFEF92FF920F931F93CF93DF93B9
:1018A000EB01E82FD11110C0442321F0F0E0EE55F8
:1018B000F84FE4916E2F7E2F8E2FDF91CF911F91E5
:1018C0000F91FF90EF9008950D2F10E0282F30E03A
:1018D000442329F02E55384FF901249130E0F6E0E9
:1018E000CF9FC0011124EFEFF0E0BF010E9414333D
:1018F000AB018C2F90E0880F991FA5E5A49FB00144
:10190000A59F700D1124861B970B982F990F980F88
:10191000BF01601B710B629FD001639FB00D729F6E
:10192000B00D11248B2F9D9FB0011124672F7727B5
:10193000EF01C61BD70BBE01629FE001639FD00D74
:10194000729FD00D11247F01E91AF108E09EB001C9
:10195000E19E700DF09E700D1124672F7727E61B16
:10196000F70BE29F8001E39F100DF29F100D1124F1
:10197000E12F722F4230510599F048F4411551057D
:1019800069F04130510581F0EB2F8D2F07C04430B5
:10199000510569F080F046305105B1F76E2F8DCFBB
:1019A000E22F7B2F812FFACFE22F7D2FF7CFEB2F66
:1019B000822F712FF3CF7B2F822FED2FEFCF41E0BE
:1019C0000C944A0C0895CF93DF93762FE901682F8A
:1019D000842F0E94DF0C798368838A83DF91CF9103
:1019E000089580913F03982F9E7F29F48170826033
:1019F00080933F0308958635E8F381708465F8CFBE
:101A000088E090E00C942234CF92DF92EF92FF9224
:101A10006B017C010E94F10CB701A60188E090E007
:101A2000FF90EF90DF90CF900C944034EFE3F3E021
:101A300083E0808311828FEF8283838314826081AD
:101A40007181828193810C94040D8091F50280FF55
:101A500076C080EF95E09F938F930E948A068091D5
:101A6000F5020F900F9080FF6AC080913F03817054
:101A70001F928F9383ED95E09F938F930E948A0628
:101A80008091F5020F900F900F900F9080FF57C03C
:101A900080913F0386951F928F9388EB95E09F93EB
:101AA0008F930E948A068091F5020F900F900F90FD
:101AB0000F9080FF44C0809140031F928F938EE966
:101AC00095E09F938F930E948A068091F5020F9074
:101AD0000F900F900F9080FF32C0809141031F92B2
:101AE0008F9384E895E09F938F930E948A0680915C
:101AF000F5020F900F900F900F9080FF20C0809103
:101B000042031F928F938AE695E09F938F930E94E2
:101B10008A068091F5020F900F900F900F9080FF32
:101B20000EC0809143031F928F938EE495E09F93A4
:101B30008F930E948A060F900F900F900F90089538
:101B400080913F0380FF02C08695089580E008954C
:101B500090914303933018F49F5F9093430388233D
:101B600051F060913F037091400380914103909147
:101B700042030C94040D089581E00C94A80D9091FB
:101B80004303992319F0915090934303882351F014
:101B900060913F0370914003809141039091420313
:101BA0000C94040D089581E00C94BF0D70E00C942A
:101BB0003D1760910F0180913F0380FF0AC0809123
:101BC0000E0123E0829FC00111248C5B9C4F0C947A
:101BD000D60D809110019091110123E0829FF001B8
:101BE0001124EC5BFC4F891750F71182108212828E
:101BF0008F5F3396F8CF90913F0390FF14C0909180
:101C000010012091110133E0939FF0011124EC5B4E
:101C1000FC4F921710F00C94D90D8183608342839E
:101C20009F5F3396F6CF0895CF93DF9300D00F9246
:101C3000CDB7DEB790913F0390FF0AC09E012F5FA2
:101C40003F4F0E94E30C4B8169818A810E94FB0D0A
:101C50000F900F900F90DF91CF910895CF93DF9366
:101C6000EC01EC81F0E0E25EF94F4491EFE3F3E048
:101C7000628181810E94140E8C818F5F8C83DF9141
:101C8000CF910895CF93DF93EC01EFE3F3E043812D
:101C900062818C810E94140E8C818F5F8C83DF9116
:101CA000CF9108950F931F93CF93DF9300D00F929E
:101CB000CDB7DEB78C018091EC0181110AC09E0185
:101CC0002F5F3F4F4FEF6FEF0E94E30C8A818093AD
:101CD000EC01F8016481613069F08091EC0140E031
:101CE000662361F040E0623011F44091EC0180E045
:101CF00060E004C06091EC0140E080E00E94FB0DD8
:101D0000F801848190E0019663E070E00E9428333E
:101D100084830F900F900F90DF91CF911F910F91BF
:101D200008954F925F926F927F928F929F92AF929F
:101D3000BF92CF92DF92EF92FF920F931F93CF93B8
:101D4000DF9300D00F92CDB7DEB7182FD62E042F19
:101D5000722E90913F0390FF46C0E92FE695AE2F7B
:101D6000B0E0A858BE4F8C91809346029E7F92307F
:101D700009F04DC09E012F5F3F4F812F0E94E30C61
:101D80004B8169818A810E94FB0D10934003D092A0
:101D9000410300934203772009F49CC060913F0304
:101DA0007091400380914103909142030E94040D81
:101DB0008091F50280FF17C0809142031F928F939C
:101DC000809141031F928F93809140031F928F93C4
:101DD00081E193E09F938F930E948A060FB6F89457
:101DE000DEBF0FBECDBF0F900F900F90DF91CF9150
:101DF0001F910F91FF90EF90DF90CF90BF90AF9029
:101E00009F908F907F906F905F904F900895823059
:101E100019F400914203B9CF863019F410914003B0
:101E2000B4CF8930D9F3893109F0AFCFE9518E2F82
:101E30008170682E8E2F80958170C82EE695F0E017
:101E4000E25EF84FE590F490412CFF2496E3A92E32
:101E500093E0B92E60911201461618F00E94D90D38
:101E600094CF842C912C8E9CC0018F9C900D9E9CB5
:101E7000900D112470E00E941433512E611028C07F
:101E8000560E8091F50280FF11C0FF92EF921F92D3
:101E9000CF921F925F921F924F92BF92AF920E9479
:101EA0008A060FB6F894DEBF0FBECDBF2091100199
:101EB000820E911C9401220F331F280D391D2C5BBB
:101EC0003C4F402F6D2D852D0E94E30C4394C2CFD3
:101ED000561AD7CF8091F50280FF85CF1F920F93BE
:101EE0001F92DF921F921F938AEE92E073CFEFE36F
:101EF000F3E09181282F4381628188E0890F0C945F
:101F0000910E81E00C94770FEFE3F3E09181282F9D
:101F10004381628188EF890F0C94910E81E00C94CB
:101F2000840FEFE3F3E0628128E0620F08F46FEFC3
:101F3000282F438181810C94910E81E00C94910FA4
:101F4000EFE3F3E0628128E0621B08F460E0282FF1
:101F5000438181810C94910E81E00C94A00FEFE3FA
:101F6000F3E0438128E0420F08F44FEF282F62810D
:101F700081810C94910E81E00C94AF0FEFE3F3E0BC
:101F8000438128E0421B08F440E0282F62818181D0
:101F90000C94910E81E00C94BE0F20E00C94910EF5
:101FA000EF92FF921F93CF93DF93EC0110E0EE24AA
:101FB000EA94F12C60911201161770F00E94D90D6D
:101FC0009A818C8190FF27C08F5F8C83DF91CF91A6
:101FD0001F91FF90EF90089520911001422F410F23
:101FE0005527551FCA019A01220F331F280F391F89
:101FF0002C5B3C4F70E0C7010E942833962F8C81E8
:102000004091420360914103199F800D11240E9469
:10201000E30C1F5FCFCF8150D8CFBF92CF92DF921A
:10202000EF92FF920F931F93CF93DF93FC01828176
:102030000FEF80FF01E010E0809112011817C0F04F
:102040000E94D90D8091EE01013009F051C081113B
:1020500002C08091120181508093EE01DF91CF91F7
:102060001F910F91FF90EF90DF90CF90BF90089558
:10207000C0911001C12ED12CCC0DDD2DD11DCE0172
:10208000880F991FC80FD91FCC5BDC4F19821882AB
:102090001A8234E0E32EF12CB12C8091EE018B0DED
:1020A000813104F18F70082E000C990BC816D906E7
:1020B00091F4809142038E9DA0018F9D500D1124BB
:1020C00055954795559547959E016091410380919F
:1020D00040030E94E30CB00EF1E0EF1AF108E9F6BC
:1020E0001F5FAACF87FFDFCF90911201890FDBCF4F
:1020F00090E001966091120170E00E942833ACCF0D
:102100000F931F93CF93DF93809110019091110152
:1021100023E0829FF0011124EC5BFC4F891740F112
:10212000C0E0D3E060911201C61740F10E94D90DC2
:1021300020910C018091ED01820F8093ED0190912F
:102140000D01920F90930D01191654F4082E000CF6
:10215000990B409112014150550B841795071CF0C3
:10216000219520930C01DF91CF911F910F9108953C
:102170001182108212828F5F3396D0CF0C2F10E025
:1021800070E0C8010E94283320911001820F482F6F
:1021900050E02091ED01022E000C330B02171307C3
:1021A000BCF020910D01022E000C330B20173107DB
:1021B0007CF08D9F900111242C5B3C4F4091420399
:1021C00060914103809140030E94E30CCF5FAACF4E
:1021D000FA01EE0FFF1FE40FF51FEC5BFC4F1182BD
:1021E00010821282F3CF8F929F92AF92BF92CF92C2
:1021F000DF92EF92FF920F931F93CF93DF93EC0147
:102200004C81042F10E09801D8010E946C339B018F
:10221000AC010E9482334B015C01E0E2F0E0E01B84
:10222000F10BA5E5B0E0AC019B010E9482336B018C
:102230007C019F01DF010E9464339B01AC010E947D
:102240008D339B01AC01280D391D4A1D5B1DC70153
:10225000B6010E943C33F22E822F90E039E23F1506
:1022600060F143E0249F9001112435952795122FAA
:10227000109500E085E5E82EEF188091120108170F
:1022800058F10E94D90D9C8181E0992319F0903278
:1022900019F48FEF80930B0180910B01890F8C83D0
:1022A000DF91CF911F910F91FF90EF90DF90CF9032
:1022B000BF90AF909F908F90089525E530E0B901D1
:1022C000681B790B9B01220F331F260F371F37FF27
:1022D000CCCF2F5F3F4FC9CF8E2D01FD8F2D209189
:1022E0001001622F600F7727771F9B01220F331F8A
:1022F000260F371F2C5B3C4F412F609141030E94FA
:10230000E30C0F5FBACF0F931F93CF93DF93EC01D2
:1023100010E000E0909112019017110609F06CF4A2
:102320000E94D90D8C8190E00196817099278C8351
:10233000DF91CF911F910F91089520911001A80175
:10234000420F511D9A01220F331F240F351F2C5BA2
:102350003C4F4C81609141038091400396959017CA
:10236000110651F04CF0442349F0409142030E9481
:10237000E30C0F5F1F4FCECF4423B9F340E0F7CFFC
:102380008F929F92AF92BF92CF92DF92EF92FF9285
:102390000F931F93CF93DF93FC01B280948081E071
:1023A000848300E015E05BE4A52E88248394EE246A
:1023B000EA94F12C7BE4C72ED12C809112010817EE
:1023C00070F0DF91CF911F910F91FF90EF90DF9010
:1023D000CF90BF90AF909F908F900C94D90DC02F4D
:1023E000D0E01C9FF0011D9FF00D1124E151FE4F24
:1023F00091101CC01382128220911001CE01820F15
:10240000911D9C01220F331F280F391F2C5B3C4F5D
:102410001C9FF0011D9FF00D1124E151FE4F4281E0
:10242000618180810E94E30C0F5FC7CF238122234B
:1024300079F12150238334818A2D821B311101C00F
:10244000822F1C9FF0011D9FF00D1124E151FE4FC2
:1024500090914203899FC0011124B6010E94143358
:102460006283211104C0332311F01482A38222E07D
:102470002B1510F21C9FF0011D9FF00D1124E1514E
:10248000FE4F809140038083809141038183B4CFCC
:102490000E94FD33823091400CF0AECF82E08B156C
:1024A00030F50E94FD33B7010E9428331C9FF001D4
:1024B0001D9FF00D1124E151FE4F808322E02B156A
:1024C000C8F40E94FD33209141032695622F70E0ED
:1024D0000E942833280F1C9FF0011D9FF00D11242E
:1024E000E151FE4F21831282A382848285CF8091A5
:1024F0004003DCCF20914103EECF60913F0366950E
:1025000070E04BE050E083E191E00E940D34892BB4
:1025100019F481E0809347020E94CF2790934002F4
:1025200080933F028091F50280FF08C081ED92E028
:102530009F938F930E948A060F900F900895109298
:1025400047028091F50280FF08C088EB92E09F93DC
:102550008F930E948A060F900F90089590913F03E9
:1025600090FF54C0917081113BC0926090933F03E3
:102570006623E9F160913F0370914003809141032C
:10258000909142030E94040D8091F50280FF0FC0DC
:1025900080913F0386951F928F9384E994E09F93E7
:1025A0008F930E948A060F900F900F900F9060916A
:1025B0003F03669570E04BE050E083E191E00E94BC
:1025C0000D34892B01F10E949F1281E08093420219
:1025D0004091420360914103809140030C94CD0FE0
:1025E0008B3210F09465C2CF880F982BBFCF8091AB
:1025F000F50280FFDCCF80913F0386951F928F9379
:1026000086E794E0CCCF0E947D12DFCF0895682F3B
:1026100090913F03969581E0890F8B3208F081E01D
:102620000C94AE1281E00C940713682F90913F0335
:1026300096958FEF890F09F48AE20C94AE1281E02F
:102640000C94151361E00C94AE1280913F038160ED
:1026500080933F038091F50280FF0DC01F9281E0BF
:102660008F9388E094E09F938F930E948A060F9047
:102670000F900F900F9080913F0386950C9422133A
:1026800060E00C94AE1280914502811160C080918F
:10269000F50280FF14C087E395E09F938F930E941B
:1026A0008A068091F5020F900F9080FF08C081E2AA
:1026B00095E09F938F930E948A060F900F900E943F
:1026C000A025811110C08091F50280FF08C089EF1C
:1026D00094E09F938F930E948A060F900F900E9420
:1026E00046260E94160D0E94000D60933F037093D2
:1026F000400380934103909342036E7FC1F4809125
:10270000F50280FF08C080EB94E09F938F930E94B6
:102710008A060F900F900E94160D0E94000D609384
:102720003F037093400380934103909342030E94C0
:10273000F10C0E94250D1092470280913F0380FF0B
:1027400003C086950E94401381E08093450208955E
:1027500080913F03816080933F038091F50280FF69
:102760000DC01F9281E08F938FEC93E09F938F9326
:102770000E948A060F900F900F900F9080913F0358
:1027800086950C94401380913F038E7F80933F0386
:1027900060913F0370914003809141039091420307
:1027A0000E94040D8091F50280FF0FC080913F03CD
:1027B00081701F928F9387E993E09F938F930E947C
:1027C0008A060F900F900F900F900E949F122FEF8C
:1027D00080E792E0215080409040E1F700C0000087
:1027E0000C94D90D8091F50280FF10C080913F03B9
:1027F000809581701F928F938FE394E09F938F93C6
:102800000E948A060F900F900F900F9080913F03C7
:1028100080FD0C94C3130C94251380913F038E7F8D
:1028200080933F038091F50280FF0CC01F921F929E
:102830008DE593E09F938F930E948A060F900F90EF
:102840000F900F900E949F122FEF80E792E021508F
:1028500080409040E1F700C000000C94D90D0F9328
:102860001F93CF93DF9380914702882309F49DC083
:1028700080914602E0913F03E695E81BE093410218
:102880008230C9F5F0E0E65EF94FE491CE2FD0E05A
:102890000EE21EE080914202882389F010924202EB
:1028A0000E94CF279E0120953095820F931F909311
:1028B000400280933F0210924402109243028091A2
:1028C0003F02909140020E94DB278C179D0708F47D
:1028D0006CC0E0913F02F0914002CE0FDF1FD09319
:1028E0004002C0933F028FE392E0F801DF91CF9165
:1028F0001F910F910994863049F4F0E0E95EF94F99
:10290000E491CE2FD0E002E41EE0C4CF893051F430
:10291000E695F0E0EC5EF94FE491CE2FD0E000EDCB
:102920001FE0B8CF8F3051F4E695F0E0EF5EF94F3D
:10293000E491CE2FD0E00DE010E1ACCF853149F429
:10294000F0E0E25FF94FE491CE2FD0E000E810E133
:10295000A1CFC8E2D0E003EF10E1883109F49ACFAB
:10296000833239F4ECE0F6E0C591D49102E51EE043
:1029700091CFC4EFD1E003E811E1843209F48ACFAA
:10298000C0EDD7E002EE1CE0853209F083CF8E2F38
:1029900063E00E940833E92FF0E0E75FF94FE4912C
:1029A000CE2FD0E000EC11E175CFDF91CF911F91D8
:1029B0000F910895FA01811101C0FB010994CF9391
:1029C000DF93C82FD62F0E94A00D8C1740F00E94D5
:1029D000A00D8D1720F4DF91CF910C9412138C2F42
:1029E000DF91CF910C9422130F931F93CF938C01FF
:1029F000FB01C281CC2309F465C00E947A24827253
:102A0000F801E25CFC45E431F10538F4E657FB4C93
:102A10000C945E330E94F213C0E08C2FCF911F9173
:102A20000F9108954FE153E162E173E10E94DA14DE
:102A3000F3CF42E153E16FE173E1F8CF4EE85FE09D
:102A400061E87FE0F3CF41E85FE06EE87FE0EECF42
:102A50004CEA5FE06DE97FE0E9CF4DE95FE06CEAC9
:102A60007FE0E4CF4AEC5FE06BEB7FE0DFCF4BEB46
:102A70005FE06AEC7FE0DACF43ED5DE06CEB7DE098
:102A8000D5CF4CEB5DE063ED7DE0D0CF81E00E94DF
:102A90002213C2CF65E082E00E94DF14BDCF68E060
:102AA00086E0FACF6EE089E0F7CF64E18FE0F4CF03
:102AB00067E185E1F1CF88E1EACF62E289E1ECCF1D
:102AC00083E2E5CFC1E0A9CF0E94A025811102C019
:102AD0000E9446260E94CE2580937403803320F006
:102AE000877088628093740390917403892F81703A
:102AF00090FF04C0892F8695869586950C94CE16F6
:102B000080917403982F969596959695953040F4FC
:102B10009F5F990F990F990F8770892B809374038A
:102B2000809174038160809374030E94D225809108
:102B3000F50280FF11C08091740386958695869575
:102B40001F928F938AE897E09F938F930E948A0643
:102B50000F900F900F900F9080917403869586953B
:102B600086950C94CE1680917403982F987F79F0F7
:102B7000885080937403887F91E009F490E08091FD
:102B8000740390FB80F9809374030E94D225809196
:102B9000F50280FF11C08091740386958695869515
:102BA0001F928F9382E797E09F938F930E948A06EC
:102BB0000F900F900F900F908091740386958695DB
:102BC00086950C94CE168091740380FD1FC08160A1
:102BD00080937403813019F489E0809374038091A9
:102BE00074030E94D2258091F50280FF08C08AE418
:102BF00097E09F938F930E948A060F900F90809189
:102C000074038695869586950C94CE1608958091CA
:102C1000740380FF14C08E7F809374030E94D225BA
:102C20008091F50280FF08C087E397E09F938F9320
:102C30000E948A060F900F9080E00C94CE160895A3
:102C4000CF93C0917403C1708091F50280FF0CC0D6
:102C50001F92CF938CE597E09F938F930E948A06F3
:102C60000F900F900F900F90CC2319F0CF910C94F0
:102C70000716CF910C94E31590917403892F8695D4
:102C8000869586958F5F8F719770863080F5880F57
:102C9000880F880F892B8093740380917403887F39
:102CA00091E009F490E08091740390FB80F98093A7
:102CB00074030E94D2258091F50280FF11C080919B
:102CC00074038695869586951F928F9383E297E08D
:102CD0009F938F930E948A060F900F900F900F90F2
:102CE000809174038695869586950C94CE16909364
:102CF0007403D3CF863008F085E090917403977009
:102D0000282F220F220F220F922B90937403987F6B
:102D100021E009F420E09091740320FB90F9909356
:102D200074030C94CE160E947A16809174030C944E
:102D3000D2259C01FB018281882349F12D3BFCE5D2
:102D40003F07C9F040F42B3BECE53E0769F02C3B14
:102D50003C4579F008952F3B9CE5390791F070F0E0
:102D6000203C3C4589F0089585E00E94931680E060
:102D7000089580E0FACF0E94B315F9CF0E94801524
:102D8000F6CF0E942016F3CF0E943C16F0CF81E0D0
:102D90000895269A2E9808952E980895CF92DF923E
:102DA000EF92FF92CF93C82F863040F5811127C054
:102DB000809180008F7D809380000E94CC162C2F04
:102DC00030E0AFEFBFEF0E946C3325E030E040E031
:102DD00050E00E943C33C9012C3764E13607A8F467
:102DE00069E070E00E94143370938B0060938A0056
:102DF000CF91FF90EF90DF90CF900895C5E0809144
:102E00008000806280938000DACF2A50374D4F4F88
:102E10005F4F942F832F722F662725EF38E241E012
:102E200050E00E943C3369017A01CA01B9010E9455
:102E3000F8329B01AC01C701B6010E94F832672F3E
:102E4000782F892F99276115710521E08207910557
:102E500059F66FEF7FEFC8CF08950E94C91682E23E
:102E60008093800089E1809381008FEF9FEF9093A2
:102E70008700809386000C9464156A9A4EB14B7F4C
:102E80005EB15460EFB7F8949B01220F331F260FF9
:102E9000371F280F391F2817390741F4EFBF8FE577
:102EA00094E00197F1F700C000000895DC016D91F6
:102EB000CD0178E05EB9000000C067FF4EB9660F33
:102EC000000000C000C000C04EB900C07A9591F764
:102ED000E2CFAF92BF92CF92DF92EF92FF920F9329
:102EE0001F93CF93DF937C015B01C42FD22FFC0192
:102EF00082818823F9F040934A020E94CF27909361
:102F000049028093480280E28C0F883008F061C04B
:102F1000C77081E001C0880FCA95EAF7DF91CF91B1
:102F20001F910F91FF90EF90DF90CF90BF90AF90E7
:102F30000C94701C10914A02141340C080914802F6
:102F4000909149020E94DB276C01B701C5010E94E4
:102F50007021C816D90690F5C0E2CD0F1D17B9F043
:102F600080E2810F883040F4177081E001C0880F43
:102F70001A95EAF70E94771CC83048F481E09D2F2B
:102F8000977001C0880F9A95EAF70E94701C802FF5
:102F90000E945D1CC830E8F4D77081E001C0880F42
:102FA000DA95EAF7DF91CF911F910F91FF90EF90A3
:102FB000DF90CF90BF90AF900C94771C80E28C0F85
:102FC000883038F4C77081E001C0880FCA95EAF7ED
:102FD000E9CFDF91CF911F910F91FF90EF90DF909C
:102FE000CF90BF90AF9008950F939C01CB01233FEA
:102FF0004CE5340759F1A8F4283DFCE53F0701F101
:10300000293D4CE53407D1F1273D3C4591F406E2DA
:1030100021EE41EE67ED7CE50E94691780E00F919B
:103020000895253FFCE53F07E9F0B0F0263F3C4519
:10303000F9F0FC018281882339F110924A02EFCF26
:1030400007E225EE45EE68ED7CE5E6CF06E221EEEF
:1030500040EE63EF7CE5E0CF07E225EE44EE64EF5F
:103060007CE5DACF06E221EE42EE65EF7CE5D4CFD7
:1030700007E225EE46EE66EF7CE5CECF08E221E0E2
:1030800045EE69ED7CE5C8CF81E0C9CFCF93DF93F2
:10309000EC01FB018281882309F419C1C230FCE5EF
:1030A000DF07C0F1C6319CE5D90730F09E012A5FE9
:1030B0003C452930310570F50E94B32590937A0381
:1030C00080937903C031ECE5DE0709F4CFC008F046
:1030D0005BC0C8308CE5D80709F4B6C088F5C430A9
:1030E000ECE5DE0709F4A8C0C0F4C2308CE5D807CF
:1030F00009F49CC0809179038260C330DC4509F4F7
:1031000098C08091790390917A030E94C1250E9412
:10311000FA1E80E0DF91CF9108958091790380615C
:10312000C630ECE5DE0709F484C08091790388603D
:10313000C730DC4508F47DC080917903806279C096
:10314000CC308CE5D80709F489C070F480917903FC
:103150008C60CA30ECE5DE0709F46BC008F478C077
:10316000809179038E7F65C0CE308CE5D80709F455
:1031700079C0809179038B7FCF30DC4508F459C04A
:10318000809179038F7E55C0CB3FECE5DE0709F4D3
:1031900057C030F5C3318CE5D80709F46FC078F417
:1031A000C131ECE5DE0709F465C0C231DC4509F048
:1031B000A8CF0E94FA1E809179038F773AC0C5315B
:1031C0008CE5D80709F462C008F476C080917A03D0
:1031D0008160CA3FDC4509F094CF80937A0391CF98
:1031E000CF3FFCE5DF0709F44DC088F480917A03F6
:1031F0008D7FCD3F9CE5D90781F380917A038E7F47
:10320000CE3FDC4550F380917A038360E6CFC13036
:10321000FDE5DF0709F459C008F444C080E0C2307E
:10322000DD4509F06ECF0E9448266BCF809179036F
:1032300081608093790365CF809179038460F9CFB1
:1032400080917A038260C9CF809179038064F1CF45
:103250000E94FA1E809179038068EBCF80917903F8
:103260008D7FE7CF80917903877FE3CF80917903CA
:103270008F7DDFCF809179038F7BDBCF80917903C6
:10328000837FD7CF80917A038C7FA7CF80917903FA
:1032900082FB992790F921E0922790FB82F990FB1D
:1032A00083F9C7CF80917A03982F909591708E7F84
:1032B000892B90FB81F991CF0E94FA1E909179039E
:1032C000892F97FB87F98058B4CF81E0ACCF81E09C
:1032D00021CFCF93DF93EB0186319C4511F50E94FE
:1032E0007A249A81992399F08A7A91E009F490E0FE
:1032F00090934B02811109C089E20E9455240E94DB
:10330000C62480E0DF91CF91089585E3F6CF8091C8
:103310004B02811104C089E20E945C24F0CF85E356
:10332000FBCF81E0EFCF909351028093500208953C
:10333000E0915002F0915102309721F00190F0811C
:10334000E02D099480E00895EF92FF920F931F9370
:10335000CF93DF93EC01E0915002F091510230974E
:1033600009F446C080913201882341F080917903AD
:1033700087FF04C08881898385E088830280F38188
:10338000E02DCE0109958091F50282FF31C080FFCA
:1033900004C08AEA98E00E94F10510E000E084EAA7
:1033A000E82E88E0F82E8091F50280FF0EC0FE0125
:1033B000E00FF11F80811F928F93FF92EF920E9486
:1033C0008A060F900F900F900F900F5F1F4F0830DD
:1033D000110549F78091F50280FF0AC082EA98E062
:1033E000DF91CF911F910F91FF90EF900C94F10519
:1033F000DF91CF911F910F91FF90EF900895E09191
:103400005002F0915102309739F022E0DC012C9308
:103410000480F581E02D0994089520914E023091A9
:103420004F022817390771F090934F0280934E0294
:10343000E0915002F0915102309721F00680F7811F
:10344000E02D0994089520914C0230914D022817E7
:10345000390771F090934D0280934C02E091500235
:10346000F0915102309721F00084F185E02D09940C
:10347000089585B7806885BF85B7806885BF089542
:10348000089508950C94401A08950C94441A0E94CB
:10349000391A0E94411A0C94421A81E008950C9442
:1034A0004D1A0E94C6270E94210B0E9432280E94BA
:1034B00064150E944313E9E7F3E08081806880830C
:1034C0008091790390917A030E94C1250C94451A4A
:1034D000CF93C82F8091F50282FF1EC080FF1CC0D1
:1034E00083EC98E00E94F1058091F50280FF14C002
:1034F0001F92CF938EEB98E09F938F930E948A0642
:103500008091F5020F900F900F900F9080FF04C0F4
:103510008CEB98E00E94F1058C2FCF910C9446081B
:103520007F928F929F92AF92BF92CF92DF92EF9253
:10353000FF920F931F93CF93DF93CDB7DEB72A97F8
:103540000FB6F894DEBF0FBECDBF0E94890B0E945C
:103550004F1A882309F475C043E5A42E42E0B42E27
:1035600010E000E0702E802F0E94CD0A6C01F50162
:10357000819091905F018816990609F45CC0809152
:10358000F50281FD0E94D60A80E0EE24E394F12C3E
:103590008C249D2494012E213F21232B09F445C026
:1035A0008E837F82CE20DF2081E0CD2809F480E069
:1035B00088870E94CF278160782F9A8789874E81DC
:1035C0005F8168858A850E94461B000F111FF801E4
:1035D000ED5AFD4F80819181E826F926F182E08243
:1035E0000E942F140E942C170E945F2A0E94981993
:1035F000909152028917B1F10E949819809352025A
:103600002A960FB6F894DEBF0FBECDBFDF91CF91E3
:103610001F910F91FF90EF90DF90CF90BF90AF90F0
:103620009F908F907F900C94681A8F5FEE0CFF1C18
:103630008F3009F0AFCF0F5F1F4F0530110509F034
:1036400091CF8FEF89838A831B820E94CF2781606D
:10365000782F9D838C8349815A816B818D810E9453
:10366000461BBECF2A960FB6F894DEBF0FBECDBF65
:10367000DF91CF911F910F91FF90EF90DF90CF904E
:10368000BF90AF909F908F907F900895CF93DF93DE
:10369000CDB7DEB72B970FB6F894DEBF0FBECDBF08
:1036A0004F83588769877A878B871E821D8285E0C2
:1036B000FE013796DE01119601900D928A95E1F791
:1036C00049815A816B817C818D819E812B960FB6B9
:1036D000F894DEBF0FBECDBFDF91CF910C94732164
:1036E000FC01808191810C942724CF93C82F8823DB
:1036F00009F48BC08238C1F40E94981981FD85C0FD
:1037000089E30E9455240E94C6242FEF81EE94E0A5
:10371000215080409040E1F700C0000089E30E9402
:103720005C24CF910C94C6248338A1F40E9498198C
:1037300080FD6BC083E50E9455240E94C6242FEFB4
:1037400081EE94E0215080409040E1F700C00000FD
:1037500083E5E5CF8438A1F40E94981982FD55C015
:1037600087E40E9455240E94C6242FEF81EE94E046
:10377000215080409040E1F700C0000087E4CFCFA7
:103780008CEF8C0F813A90F46C2F80911E019091F8
:103790001F010E946126882329F08C2F0E945C243F
:1037A0000E94C6248C2F0E945524BBCF80E28C0F30
:1037B000883048F4C77081E001C0880FCA95EAF7E5
:1037C0000E947D24AECFEBE5EC0FE33040F4F0E057
:1037D000EF52FE4F808190E0CF910C940D1AE8E5F6
:1037E000EC0FE73150F4F0E0EE0FFF1FED55FE4F08
:1037F00080819181CF910C94231AC03F30F08C2F9F
:103800000E94D728CF910C94C229CF910895882384
:1038100009F452C0823871F40E94981981FF4CC09B
:1038200089E30E9455240E94C62489E30E945C24F7
:103830000C94C624833859F40E94981980FF3CC028
:1038400083E50E9455240E94C62483E5EFCF843887
:1038500059F40E94981982FF2FC087E40E945524D2
:103860000E94C62487E4E2CF9CEF980F913AF0F2D1
:1038700090E2980F983050F4877091E001C0990F52
:103880008A95EAF7892F0E948324D2CF9BE5980F6F
:10389000933020F490E080E00C940D1A98E5980F96
:1038A000973120F490E080E00C94231A803F20F0C0
:1038B0000E943F290C94C2290895CF93C82F0E94DB
:1038C000751BC93349F42FEF87EE93E021508040F8
:1038D0009040E1F700C000008C2FCF910C94071CA2
:1038E000882321F00E947D240C94C6240895882307
:1038F00021F00E9483240C94C6240895BF92CF9295
:10390000DF92EF92FF920F931F93CF93DF936C019F
:10391000D62FC72FFC01058102950F70128111115E
:103920000E949A240E947324E82E882391F0112388
:10393000D1F08C2F807F803421F080E28D0F883091
:1039400090F082E00E9411250E94732491E0E82EFD
:10395000E926BC2EB2949FE0B922EB2DF0E0E256AE
:10396000FB4C0C945E33E12CF4CF0C2F0F70C07F16
:1039700011F00295007F1123A9F0002359F080E295
:103980008D0F883010F0D11109C0802F0E947D2446
:103990000E94C6248D2F0E94751B14C0802F0E9488
:1039A0008D24F6CF8D2F0E94071C002359F080E252
:1039B0008D0F883010F0D1112CC0802F0E948324ED
:1039C0000E94C6242B2D2850330B2430310520F4BF
:1039D0000E9498190E944608EE2009F49EC10E9498
:1039E0006F2480FD9AC1F60112820E9469240E9410
:1039F000F522C6010E94AE1E0E946924DF91CF917C
:103A00001F910F91FF90EF90DF90CF90BF900C949B
:103A10001623802F0E949324D3CFFC2FFF70FF2EFC
:103A2000C07FC03219F0F29480EFF822DD2369F0F4
:103A3000D13049F1112391F1002351F1F601858133
:103A400080FFA8CF8F70858323C0112381F00111DF
:103A500006C00E94AD248F290E94701CB3CF013094
:103A6000C1F70E94AD248F290E94B324ABCF01116E
:103A700006C00E94BC248F2D0E94771CA3CF01306A
:103A800009F4A0CFF6CF112329F0063008F09ACF21
:103A90008F2DE2CF053008F095CFEDCF002359F3FD
:103AA000D93349F4FFEF27EE33E0F15020403040A6
:103AB000E1F700C000008D2F0E94071C83CF8C2FE0
:103AC00086958695837069F0813009F07BCF8D2FC4
:103AD0009C2F9370111102C090E080E00E94231A85
:103AE00071CF8D2F9C2F9370111102C090E080E058
:103AF0000E940D1A67CF8D2F112329F00E94D7281D
:103B00000E94C2295FCF0E943F29FACF8C2F837079
:103B100009F041C0111156CF4D2F4295469547707F
:103B2000440F440F0D2F0F7010E030E020E0042E02
:103B300004C0000F111F221F331F0A94D2F760E048
:103B400070E0CB01D4FF0FC06FE070E080E090E048
:103B500004C0660F771F881F991F4A95D2F760959A
:103B6000709580959095C695C695C370602B712B06
:103B7000822B932BC23049F058F4C13019F00E94C7
:103B8000A92220CF0E9497221DCF0E94BB221ACFCC
:103B90000E94952217CF8695112311F08C2F8170EA
:103BA000882309F40FCF4D2F429546954770440F57
:103BB000440F0D2F0F7010E030E020E0042E04C001
:103BC000000F111F221F331F0A94D2F760E070E02C
:103BD000CB01D4FF0FC06FE070E080E090E004C044
:103BE000660F771F881F991F4A95D2F760957095C9
:103BF00080959095C695C695C370602B712B822BCE
:103C0000932BC23049F058F4C13019F00E946C2354
:103C1000D9CE0E945A23D6CE0E947E23D3CE0E94B4
:103C2000CF22D0CECF70112329F08C2F0E94F52205
:103C30008D2F12CF8D2F0E94771C8C2F0E94162360
:103C4000C1CED23F89F160F4D03FC9F0D13F29F114
:103C5000112309F442C001119DCE8C2F8F7121C018
:103C6000D33F39F1D43FA1F7112369F1CF718C2FE4
:103C70000E94F52263E08C2F0E94FC24A3CE112326
:103C800041F0053008F09ECE8C2F8F710E943923B1
:103C900099CE063008F096CEF7CF8C2F8F71112376
:103CA00069F20E94F5228ECE8C2F8F711123C9F3F9
:103CB000C5CF112329F08C2F8F710E94E02282CE74
:103CC0000E94DB227FCE81E00E941125023008F4A1
:103CD00079CE82E00E94112575CE002359F0D933A8
:103CE00009F0E9CE8FEF97EEE3E081509040E0409D
:103CF000E1F7DFCE8C2F8F71A1CF4C2F4F706D2F3E
:103D0000C6010E94BC080E940D225CCE4C2F4F7051
:103D10006D2FC6010E94BF0855CEDF91CF911F9134
:103D20000F91FF90EF90DF90CF90BF9008950F9389
:103D30001F93CF93DF93EC01688179818A810E9480
:103D400031248C010E9490230E949422B801CE015C
:103D5000DF91CF911F910F910C947E1CCF93DF9335
:103D6000EC018B819C81892B29F0888199818923A1
:103D70008F3F59F4DF91CF910895CE010E94971E95
:103D8000CE01DF91CF910C942A08CE010E945E08EB
:103D90008111F3CF0E947324882361F38A818823E1
:103DA00049F382E0DF91CF910C941125882321F013
:103DB0000E948D240C94C6240895882321F00E942B
:103DC00093240C94C62408950E949A240E94AA2445
:103DD0000E94C6240E946B2B0E94C22990E080E0C2
:103DE0000E940D1A90E080E00C94231A0E94632434
:103DF0000C94E41E0E948A240C94F61EE92FE2958E
:103E0000EF70E250EE3070F4F0E0E255FB4C0C94B1
:103E10005E33803F19F020F4883E20F481E008955D
:103E2000843FE1F380E00895883EC0F3813FD1F7FD
:103E3000F5CF93FB882780F908950E9427240C94DE
:103E4000FE1ECF93DF9300D000D00F92CDB7DEB728
:103E50000F900F900F900F900F90DF91CF910895DA
:103E6000CF93DF9300D000D000D0CDB7DEB7269639
:103E70000FB6F894DEBF0FBECDBFDF91CF9108958E
:103E80001F93CF93DF93C0915E0216E080915F0293
:103E90008C1304C0DF91CF911F910895D0E01C9F37
:103EA000F0011D9FF00D1124E05AFD4F408151811A
:103EB00062817381848195810E94301F2196C77031
:103EC000E5CF4091900250919102609192027091E1
:103ED000930280919402909195020C94301F1F934D
:103EE000CF93DF9380919502807FA9F48091920215
:103EF000882389F080915E02C0915F0260919002F8
:103F000070919102A0919302B0919402D62FD72381
:103F100016E0C81304C0DF91CF911F91089590E07F
:103F2000109711F0DF3F19F401968770F2CF189FB8
:103F30009001199F300D1124F901E05AFD4F418184
:103F40004713F2CF40814613EFCF42814111ECCFAE
:103F5000438154814A1B5B0B483C510528F78091F3
:103F600095028F70806180939502F901EB59FD4FA6
:103F700080818F708061808380E992E00E94AE1E14
:103F8000DF91CF911F910C94401FAF92BF92CF92BF
:103F9000DF92EF92FF920F931F93CF93DF93CDB7F2
:103FA000DEB761970FB6F894DEBF0FBECDBF8C01B0
:103FB00085E0F801DE011D9601900D928A95E1F7EA
:103FC000F80140815181E28080E9C82E82E0D82E3C
:103FD00060919302709194026115710509F461C1B9
:103FE0009091900220919102892F82238F3F09F4B2
:103FF00058C1A380B480F0909202F501E61BF70B44
:10400000FF2009F4FCC080919502382F307FE83CF6
:10401000F10508F0B2C0311179C0FE2C251323C080
:10402000941321C0E1101FC08F70806180939502AE
:104030000E94611FC6010E94AE1E80919502F80188
:1040400085838F2D61960FB6F894DEBF0FBECDBF6E
:10405000DF91CF911F910F91FF90EF90DF90CF9064
:10406000BF90AF900895AB2829F0842F85238F3F10
:1040700009F033C180E0F82FF170DF2E80FF3CC0E3
:1040800080915E0220915F0236E0821315C04D8759
:104090005E878D859E850E942724292F22952F706B
:1040A0002230F0F0243018F59F70F1F0F80195817E
:1040B000907FD1F4D12C1EC090E0389FF001399F41
:1040C000F00D1124E05AFD4F6181651306C0608137
:1040D000641303C062816E110FC001968770D5CF43
:1040E0009F7011F0882331F3805E883018F3C80187
:1040F0000E94AE1EFD2CA5CFEE2009F4A2CF809128
:104100009502816080939502F12C9BCF251306C008
:10411000941304C0F801EE2009F48DC04D875E872A
:104120008D859E850E941D1F882319F1EE2009F1BF
:1041300080919502803270F020919002309191022E
:1041400038872F831986BB86AA868C87CE0107966F
:104150000E94AE1E86E0F801A0E9B2E001900D9247
:104160008A95E1F70E946F1F0E94611FFF24F3945C
:1041700068CFC8010E94AE1EF9CF311113C07A2D4D
:10418000B98AA88A6E2D89890E94211F80E992E050
:104190000E94AE1E86E0F60111928A95E9F70E9410
:1041A000611FB2CF25130FC094130DC0E1100BC0D7
:1041B000F8018583C8010E94AE1E86E0F6011192C7
:1041C0008A95E9F73ECF4D875E878D859E850E9453
:1041D0001D1F882371F2EE2061F2809195028032DA
:1041E00008F4B8CF20919002309191023A8329834C
:1041F0001B82BD82AC828E83CE010196A9CFE83CA2
:10420000F10508F041C0FE2CEE2009F4B2CF2513D1
:104210002AC0941328C08091950280FD1BC0982F5E
:10422000907FC1F0F8018583903F31F0982F907F07
:10423000905F8F70892B8583C8010E94AE1E86E037
:10424000F801A0E9B2E001900D928A95E1F70E9491
:10425000611FF7CE86E0F801A0E9B2E001900D926F
:104260008A95E1F7EECE4D875E878D859E850E940B
:104270001D1F81116FCF80919502816080939502FF
:10428000C8010E94AE1EDDCE7A2DB98AA88A6E2D95
:1042900089890E94211F86E0F60111928A95E9F72B
:1042A000D6CFEE2009F465CF4D875E878D859E853C
:1042B0000E941D1FF82E882309F45BCF86E0F801C9
:1042C000A0E9B2E001900D928A95E1F780E992E0D1
:1042D0000E94701B0E946F1FBACF81E08E25CBCE4B
:1042E00088EC90E008951F93CF93DF93CDB7DEB7AE
:1042F0002C970FB6F894DEBF0FBECDBF4F83588703
:1043000069877A878B879C87CE0107960E94C51F95
:10431000882369F08A859B85892B39F04F815885E0
:10432000842F85238F3F09F071C016E05FC086E0BF
:10433000FE013796DE01119601900D928A95E1F704
:104340008A859B85892B89F388859F8189238F3F67
:1043500061F320915F0230E0C901019687709927CF
:1043600040915E024817190671F40E94FA1E1092DD
:104370005F0210925E0286E0E0E9F2E0DF011D924A
:104380008A95E9F7D2CF96E0929FD001939FB00D26
:104390001124A05ABD4FFE01319601900D929A95BD
:1043A000E1F780935F020E94401FBFCF819FC00151
:1043B0001124805A9D4F0E94C51F8823E9F0E09187
:1043C0005E021E9FF0011124E05AFD4F4081518191
:1043D00062817381848195810E94301F80915E0289
:1043E00090E001968770992780935E0280915E022B
:1043F00090915F028913DACF2C960FB6F894DEBF46
:104400000FBECDBFDF91CF911F91089569857A8549
:104410008B859C850E94301F88CFEF92FF920F936F
:104420001F93CF93DF938C01892B81F0F12CEE2425
:10443000E394E8012196F8018491843770F4843084
:1044400008F05FC08130B1F08230A1F1DF91CF91EF
:104450001F910F91FF90EF900895853709F44CC09C
:1044600008F43DC09CE7980F903780F78F770E9443
:10447000071C49C00E5F1F4FFE01849190E2980F08
:10448000983060F48770FE2D01C0FF0F8A95EAF71F
:104490008F2F0E949D240E94C62402C00E94751B7B
:1044A0008F2D815030F2EFE9FFE03197F1F700C036
:1044B0000000F7CF0E5F1F4FFE01849190E2980F2E
:1044C000983050F48770FE2D01C0FF0F8A95EAF7EF
:1044D0008F2F0E94A324DFCF0E94071CE1CF0E5F25
:1044E0001F4FFE01C491C150D8F28FE99FE00197A0
:1044F000F1F700C00000F7CF0E5F1F4FFE01F490F0
:10450000CFCF0E94751B8E01CBCF08950C948522CE
:104510000E9486226093CC027093CD028093CE02DB
:104520009093CF020C94E41E08950C9488220F936C
:104530001F930091CC021091CD022091CE023091B8
:10454000CF02602B712B822B932B1F910F910C9418
:1045500088220F931F930091CC021091CD022091DD
:10456000CE023091CF0260237123822393231F91C7
:104570000F910C9488220F931F930091CC021091FD
:10458000CD022091CE023091CF0260277127822781
:1045900093271F910F910C9488220C9440070E943E
:1045A000CD226093C8027093C9028093CA0290938F
:1045B000CB020C94E41E60E070E0CB010C94CF229F
:1045C0000F931F9341E050E060E070E08A019B018F
:1045D00004C0000F111F221F331F8A95D2F7C90193
:1045E000B8011F910F910C94CF220F931F9341E0BC
:1045F00050E060E070E004C0440F551F661F771F55
:104600008A95D2F78091C8029091C902A091CA02FE
:10461000B091CB028A019B01082B192B2A2B3B2B33
:10462000C901B8011F910F910C94CF220F931F93D2
:1046300041E050E060E070E004C0440F551F661F89
:10464000771F8A95D2F7CB01BA0160957095809556
:1046500090950091C8021091C9022091CA02309130
:10466000CB0260237123822393231F910F910C941B
:10467000CF220F931F9341E050E060E070E004C050
:10468000440F551F661F771F8A95D2F78091C80285
:104690009091C902A091CA02B091CB028A019B01FC
:1046A000082719272A273B27C901B8011F910F9115
:1046B0000C94CF220F931F930091C8021091C9024E
:1046C0002091CA023091CB02602B712B822B932B4D
:1046D0001F910F910C94CF220F931F930091C8024A
:1046E0001091C9022091CA023091CB02602371233C
:1046F000822393231F910F910C94CF220F931F932A
:104700000091C8021091C9022091CA023091CB02D7
:1047100060277127822793271F910F910C94CF2236
:1047200008952FE0929F800D1124982F977041E0FB
:1047300001C0440F9A95EAF786958695869595E08F
:10474000899FF0011124EA56FD4F90E080E070E06F
:104750005191DF0111979B01082E02C036952795D4
:104760000A94E2F7217021952527242325272C93ED
:1047700001968530910561F708952FE0929F800D95
:104780001124982F977086958695869525E0829FAF
:10479000F0011124EA56FD4F50E040E080E0219105
:1047A00030E0092E02C0369527950A94E2F7217071
:1047B0003327042E01C0220F0A94EAF7822B4F5FA1
:1047C0005F4F4530510559F70895BF92CF92DF9260
:1047D000EF92FF920F931F93CF93DF938C01C090C2
:1047E000C802D090C902E090CA02F090CB0280913A
:1047F000CC029091CD02A091CE02B091CF02C82AF6
:10480000D92AEA2AFB2ACFE1D0E0BC2ED701C60183
:104810000C2E04C0B695A795979587950A94D2F764
:1048200080FD0EC0219788F7B12C8B2DDF91CF91A1
:104830001F910F91FF90EF90DF90CF90BF90089560
:10484000B8018C2F0E94DC08019761F3EECFCF9363
:10485000DF93EC010E94E523BE01DF91CF910C9420
:10486000DC081F93CF93DF93EB0190915D029923B6
:1048700031F0CB01DF91CF911F910C942724882335
:1048800079F0CB010E94E523182F682FCE010E94FA
:104890009123BE01812FDF91CF911F910C94DC08F1
:1048A000CB010E94BD23182FF4CF682F80911E01E9
:1048B00090911F010C940327682F80911E01909105
:1048C0001F010C940E2780911E0190911F010C94E2
:1048D00019278091D00285958595859508958091B9
:1048E000D002877008959091D002977081E009F40A
:1048F00080E008958091F40208959091F402892B4C
:104900008093F402089580959091F40298239093F7
:10491000F40208951092F40208959091F302892B05
:104920008093F302089580959091F30298239093D9
:10493000F30208951092F30208959091F202892BE8
:104940008093F202089580959091F20298239093BB
:10495000F20208951092F20208958091D102089512
:1049600008950C94B0249091D102981721F080936F
:10497000D1020C94B12408958091D102882329F0AA
:104980001092D10280E00C94B1240895E0911E01B0
:10499000F0911F018091F4028083E0911E01F0915B
:1049A0001F0180819091F302892B8083E0911E0189
:1049B000F0911F0180819091F202892B8083909168
:1049C000D102992381F0E0911E01F0911F018081B5
:1049D000892B808380911E0190911F010E944D269A
:1049E00081110E94BC2480911E0190911F010C94A2
:1049F000A41908950C94F92498E0899F900111243A
:104A0000622B6093D0020E94F5228091D00285959E
:104A1000859585950C94FA241092D00280E00C9430
:104A2000FA249091D002809589238093D002282F78
:104A3000277071F4282F082E000C330B92171306E1
:104A400039F08595859585950E9416230C940C2543
:104A500008959093E5018093E4010895CF92DF9249
:104A6000EF92FF926C01EE24FF2420E0C114D104E8
:104A7000E104F10419F0C701B60120E1C72ED82ED8
:104A8000E92EFF24C114D104E104F10419F0285FD8
:104A9000C701B6016B017C0154E0F694E794D7940A
:104AA000C7945A95D1F7C114D104E104F10419F067
:104AB0002C5FC701B6016B017C0142E0F694E794DC
:104AC000D794C7944A95D1F7C114D104E104F104F5
:104AD00019F02E5FC701B601969587957795679572
:104AE000672B682B692B09F02F5F822FFF90EF90C7
:104AF000DF90CF900895829590E09C01220F331FA4
:104B0000220F331F2C7C95958795959587958373F8
:104B1000282B30E0C901880F991F8A7A359527958F
:104B20002575822B0895CF93DF93D92F0E947B2583
:104B3000C82F8D2F0E947B259C2FDF91CF91089548
:104B400090E080E00E94283421E08C3E9E4F09F0E6
:104B500020E0822F089582E090E00C941A3483E0E4
:104B600090E00C941A34CF9384E090E00E941A34C1
:104B7000C82F81E290E00E941A34982F8C2FCF9199
:104B80000895CF93C92F682F84E090E00E942E34BF
:104B90006C2F81E290E0CF910C942E3486E090E06F
:104BA0000C941A34682F86E090E00C942E34AB01FC
:104BB000BC018FE090E00C944034AB01BC0183E178
:104BC00090E00C94403460E070E0CB010C94DD2563
:104BD00060E070E0CB010E94D7250C94E3256CEED9
:104BE0007EEF90E080E00E944C3460E082E090E054
:104BF0000E942E3460E083E090E00E942E341092F8
:104C0000CC021092CD021092CE021092CF0260E040
:104C100084E090E00E942E3460E081E290E00E9407
:104C20002E3460E085E090E00E942E3460E086E063
:104C300090E00E942E346FEF87E090E00E942E34C7
:104C400040E050E0BA0188E090E00E94403460E02B
:104C50008DE090E00E942E3440E050E0BA0188E1FF
:104C600090E00E94403460E087E190E00E942E34A2
:104C700040E050E0BA018CE190E00E94403460E0F6
:104C800080E290E00E942E340C94E8250C94EF25ED
:104C9000682F8EE090E00C942E34FC0132968091C7
:104CA0003201882321F0809179039EE187FF96E00D
:104CB00080E0915008F4089521912223D1F38F5F71
:104CC000F8CF662301F1209132012223F1F02091E7
:104CD000790327FF1AC0462F4695469546954E31D3
:104CE00090F4677021E030E002C0220F331F6A9514
:104CF000E2F7840F911DFC01828190E02823392383
:104D000081E0232B69F480E00895FC013296089637
:104D10002191261721F0E817F907D1F7F4CF81E0A8
:104D200008959C01FC0132969FEF80E04191461767
:104D300051F09F3F19F4411101C0982F8F5F8630C9
:104D4000A9F79F3F09F40895290F311D97FD3A9562
:104D5000F90162830895FC01329608962191261389
:104D600003C0DF0111971C92E817F907B9F70895FE
:104D7000E62FE695E695E695EE3170F4E80FF92F0B
:104D8000F11D677021E030E001C0220F6A95EAF75B
:104D90008281822B828308958091F50280FF0CC06E
:104DA0001F926F9384EF98E09F938F930E948A06DF
:104DB0000F900F900F900F900895E62FE695E695CF
:104DC000E695EE3178F4E80FF92FF11D677021E0D8
:104DD00030E001C0220F6A95EAF7209582812823EE
:104DE000228308958091F50280FF0CC01F926F937B
:104DF00086ED98E09F938F930E948A060F900F9004
:104E00000F900F90089520913201222329F02091D4
:104E1000790327FD0C94B8260C9491262091320139
:104E2000222329F02091790327FD0C94DD260C9490
:104E3000AB26FC01329680913201882351F080919B
:104E4000790387FF06C08EE1DF011D928A95E9F79D
:104E5000089586E0F9CF089508950C942C270E94B8
:104E60002D2780917F03843009F43CC01092F60214
:104E700088E190E020E40FB6F894A8958093600054
:104E80000FBE2093600080E00E94CE1680E00E945A
:104E900046080E949F128091F70281110AC081E0AA
:104EA0008093F70280913F0381708093F8020E9403
:104EB0000D140E942D2783B7817F846083BF83B741
:104EC000816083BF7894889583B78E7F83BF0FB648
:104ED000F894A8958091600088618093600010929A
:104EE00060000FBE08950895CF930E942B270E9463
:104EF000890B0E947327C0E08C2F0E94CD0A892B5A
:104F000031F4CF5FC530C1F780E0CF91089581E0E3
:104F1000FCCF08950C9489270E94FA1E0E94641504
:104F20000E9498190E9446081092F7028091F80298
:104F300081110E94A8130E947D120C948A271F924F
:104F40001FB61F9211248F939F93AF93BF938091AD
:104F5000F602811113C08091750390917603A091A0
:104F60007703B09178034196A11DB11D809375031D
:104F700090937603A0937703B0937803BF91AF919A
:104F80009F918F911F901FBE1F90189582E084BD46
:104F900093E095BD9AEF97BD80936E0008952FB76B
:104FA000F8948091750390917603A0917703B09166
:104FB00078032FBF08959C014FB7F8948091750333
:104FC00090917603A0917703B09178034FBF821B35
:104FD000930B089578941F921FB61F9211248F93FC
:104FE0009F93AF93BF938091750390917603A091A7
:104FF0007703B09178030196A11DB11D80937503CD
:1050000090937603A0937703B0937803BF91AF9109
:105010009F918F911F901FBE1F90189581E08093E4
:10502000E00080E28093D8001092C9008FE19EE4F6
:105030000197F1F700C0000087E090EBDC0180935E
:10504000880390938903A0938A03B0938B0388E12C
:105050009CE00FB6F894A895809360000FBE9093E3
:105060006000FFCF0E94A025811102C00E94462649
:105070000E94AB258093F5020E94B32590937A039A
:10508000809379030E94AF25682F70E090E080E064
:105090000E9495226091C8027091C9028091CA0253
:1050A0009091CB020C94CD228091FF0280FF12C020
:1050B0006091250185E0689FB00111247595679581
:1050C0007595679560387105A8F561157105A1F1B1
:1050D000862F089581FF09C06091250185E0689FB2
:1050E000B001112475956795EDCF6091250182FD82
:1050F0000AC08091FE028823D1F090912401609132
:105100002501891728F085E0689FB0011124DACFC6
:10511000869FB001112485E0869F9001879F300D06
:105120001124692F70E0C9010E942833CBCF65E0BC
:1051300070E0CECF8FE7089581E008958091FF025F
:1051400080FF0CC06091210170E0759567957595A1
:1051500067956115710549F1862F089581FF06C095
:105160006091210170E075956795F3CF6091210101
:1051700082FD0BC09091FD029923A1F06091200166
:1051800080912101961738F0682F70E06038710522
:1051900000F38FE70895899FC001112470E00E94F9
:1051A0002833F4CF61E070E0D7CF81E00895803FED
:1051B00031F40E9454288195809303030895813F20
:1051C00019F40E945428F8CF823F31F40E945428E9
:1051D0008195809302030895833F19F40E94542817
:1051E000F8CF893F29F40E949E28809304030895F4
:1051F0008A3F21F40E949E288195F7CF8B3F31F49E
:105200000E949E2881958093050308958C3F19F490
:105210000E949E28F8CF843F31F480910103816081
:10522000809301030895853F21F4809101038260FA
:10523000F7CF863F21F4809101038460F1CF873F4F
:1052400021F4809101038860EBCF883F21F48091A5
:1052500001038061E5CF8D3F31F48091FF028160D1
:105260008093FF0208958E3F21F48091FF028260B7
:10527000F7CF8F3FB9F78091FF028460F1CF909113
:105280000203803F59F48091030387FF0DC0109201
:10529000030391110BC01092FE0208C0813F81F4FC
:1052A0008091030318169CF3992381F080910403E5
:1052B00090910503892B09F064C01092FD020895B6
:1052C000823F49F497FFF0CF1092020380910303CD
:1052D0008111ECCFE0CF833F19F41916ACF3E4CF82
:1052E00020910403893F29F41216F4F61092040366
:1052F000DBCF8A3F19F427FFD7CFF8CF20910503E2
:105300008B3F29F427FFD0CF10920503CDCF8C3FE0
:1053100019F41216CCF3C8CF843F31F48091010305
:105320008E7F80930103C0CF853F21F480910103DC
:105330008D7FF7CF863F21F4809101038B7FF1CFE2
:10534000873F21F480910103877FEBCF883F21F4D1
:10535000809101038F7EE5CF8D3F31F48091FF0274
:105360008E7F8093FF02A0CF8E3F21F48091FF02B9
:105370008D7FF7CF8F3F09F097CF8091FF028B7F12
:10538000F0CF08958091F50283FF7EC089E399E014
:105390000E94F105809101031F928F9384E399E0AD
:1053A0009F938F930E948A0682E399E00E94F10501
:1053B00080910203282F082E000C330B3F938F930C
:1053C0008FE299E09F938F930E948A068DE299E085
:1053D0000E94F10580910303282F082E000C330B47
:1053E0003F938F938AE299E09F938F930E948A065E
:1053F00088E299E00E94F10580910403282F082E8D
:10540000000C330B3F938F9385E299E09F938F932A
:105410000E948A0683E299E00E94F10580910503CB
:10542000282F082E000C330B3F938F9380E299E0D6
:105430009F938F930E948A068DE199E00E94F10567
:105440008091FE021F928F938AE199E09F938F9340
:105450000E948A0688E199E00E94F1058091FF028E
:105460001F928F9385E199E09F938F930E948A0604
:1054700082E199E00E94F1058DB79EB74C960FB678
:10548000F8949EBF0FBE8DBF0E94CF279C019091C4
:10549000020380910303982B21F03093FC022093A8
:1054A000FB029091040380910503982B21F0309327
:1054B000FA022093F90280E093E00C94FF19EF9236
:1054C000FF920F931F93CF93DF9300D000D000D0B3
:1054D000CDB7DEB786E0E0E0F3E0DE0111960190A3
:1054E0000D928A95E1F7E0900203F090030300919A
:1054F000040310910503109202031092030310920B
:105500000403109205038E2D8F2991F08091FB02E8
:105510009091FC020E94DB27AC019091FE0299233E
:1055200009F43FC0809126018417150608F447C08E
:10553000802F812B91F08091F9029091FA020E94C4
:10554000DB27AC019091FD02992309F477C080918B
:1055500022018417150608F47FC080910203909100
:105560000303892B90910403892B90910503892BC8
:1055700011F00E94C22986E0FE013196A0E0B3E05E
:1055800001900D928A95E1F726960FB6F894DEBF4A
:105590000FBECDBFDF91CF911F910F91FF90EF9084
:1055A0000895209127018AE0289F90011124241753
:1055B000350708F0BDCF9F5F9093FE0202C09F3F6A
:1055C000D1F7EE2059F00E9454289FEF1E140CF4DE
:1055D00091E0899F802D112480930203FF2059F0D0
:1055E0000E9454289FEF1F140CF491E0899F802D96
:1055F00011248093030330910203332309F498CFDD
:1056000020910303222309F493CF45EB3403C00117
:105610001124992359F09093020345EB2403900140
:105620001124332339F03093030382CF81E0809338
:105630000203F3CF81E0809303037ACF209123010B
:105640008AE0289F900111242417350708F085CFA0
:105650009F5F9093FD0202C09F3FD1F7002359F056
:105660000E949E289FEF10160CF491E0899F802DD8
:10567000112480930403112359F00E949E289FEF68
:1056800011160CF491E0899F802D1124809305035D
:1056900030910403332309F460CF209105032223C2
:1056A00009F45BCF45EB3403C0011124992359F071
:1056B0009093040345EB240390011124332339F024
:1056C000309305034ACF81E080930403F3CF81E058
:1056D0008093050342CF86E0E0E0F3E0DF011D9216
:1056E0008A95E9F71092FE021092FD021092FF02D5
:1056F00008958091290308959FB7F89410920803A4
:105700009FBF90917F03943009F048C02091E90039
:105710002F703091EC00932F917030FD90E8922B18
:1057200023E02093E9002091EB0020FF34C020917A
:10573000EE0027FF30C020910603222321F02091A4
:10574000E80025FF28C01092060326E03091E8000B
:1057500035FF14C08093F1008091E80085FD27C0DB
:105760008091E80080FFFCCF8091E8008E778093E5
:10577000E8009F709093E90080E0089530917F03E6
:10578000343049F43091EB0035FD05C0215041F42F
:1057900081E0809306039F709093E9008FEF089556
:1057A000EFE9FFE03197F1F700C00000CFCF8FB7EE
:1057B000F89421E0209308038FBFDBCFCF93DF93D2
:1057C00000D00F92CDB7DEB790917F03943019F5DA
:1057D00089837B836A8382E08093E9008FEF9091D5
:1057E000E800815095FD06C095ED9A95F1F700000F
:1057F0008111F5CF8091E80085FF0DC050E040E0B9
:1058000063E070E0CE0101960E94682E8091E8006E
:105810008E778093E8000F900F900F90DF91CF91DB
:105820000895BC0184E00C94DE2BBC0183E00C9451
:10583000DE2B9C0182E08093E9009FEF8091E800DD
:10584000915085FD06C085ED8A95F1F70000911114
:10585000F5CF8091E80085FF0CC050E040E066E0A5
:1058600070E0C9010E94682E8091E8008E778093D5
:10587000E8000895CF93DF93EC01809132018823F3
:10588000B1F18091790387FF32C060E282E08093BA
:10589000E9008FEF9091E800815095FD06C095EDED
:1058A0009A95F1F700008111F5CF8091E80085FF0E
:1058B0001BC08091320170E050E040E0811104C0D3
:1058C00050E040E068E070E0CE010E94682E8091D8
:1058D000E8008E778093E80080E2FE01A9E0B3E063
:1058E00001900D928A95E1F7DF91CF91089568E0DC
:1058F00081E0CDCF81E899E00E94F10580917E039F
:10590000811109C00E94F82F0E9455308091E20059
:1059100084608093E20008958DE799E00E94F1058C
:1059200010927E03089589E799E00C94F10585E7CC
:1059300099E00C94F10581E799E00E94F1050C943F
:105940008C27209107032F5F822F62E30E94083388
:10595000992319F02093070308951092070380916B
:1059600008038823F1F080917F038430C1F4909183
:10597000E9009F702091EC00822F817020FD80E86B
:10598000892B93E09093E9009091EB0090FF04C085
:105990009091EE0097FD08C08F708093E9001092FF
:1059A000080308951092F1009091E80095FDFACF58
:1059B0009091E80090FFF0CF9091E8009E7790934F
:1059C000E800EACF42E061EC81E00E94742F42E2FD
:1059D00061EC82E00E94742F42E261EC83E00C945F
:1059E000742F80918103833009F45FC030F48130DB
:1059F000C1F1823009F49BC008958A3009F487C050
:105A00008B3009F46DC0893009F04EC0809180035D
:105A1000813209F049C080918403909185030297F7
:105A200008F042C08091E800877F8093E800809171
:105A3000E80082FF35C09091F3008091F200029758
:105A400029F48091F1008B7F813021F48091F10065
:105A5000809329038091E8008B778093E8000C9471
:105A6000A82F80918003813AF9F48091E800877F24
:105A70008093E8008091840390918503892B61F4E1
:105A800060E289E093E070E00E94B72E8091E80028
:105A90008B778093E800089560E090E080E0F3CF9A
:105AA00080917F038111C3CF089580918003813A53
:105AB000D9F78091840390918503892BA9F7809170
:105AC000E800877F8093E8008091E80080FFFCCFAA
:105AD000809132018093F1008091E8008E77BDCFF4
