:100000000C9483050C94C7050C94C7050C94C70584
:100010000C94C7050C94C7050C94C7050C94C70530
:100020000C94C7050C94C7050C94DA2F0C94AC30D3
:100030000C94EF250C94C7050C94C7050C94C705C8
:100040000C94C7050C94C7050C94C7050C94C70500
:100050000C94C7050C9456260C94C7050C94C70540
:100060000C94C7050C94C7050C94C7050C94C705E0
:100070000C94C7050C94C7050C94C7050C94C705D0
:100080000C94C7050C94C7050C94C7050C94C705C0
:100090000C94C7050C94C7050C94C7050C94C705B0
:1000A0000C94C7050C94C7050C94C705D808DE0846
:1000B000E208E508E908ED08F108F508FA08FE0885
:1000C0000209060909090D091109150919091E096D
:1000D0009B1A9B1AD51AD51A181B381BC91CC91C88
:1000E0007E1BC91C1D1C1D1C941C9C1CC91CC31CF4
:1000F0002A1C2A1C2A1C2A1C2A1C2A1C2A1C2A1CD0
:100100002A1C2A1C2A1C2A1C2A1C2A1C2A1C2A1CBF
:100110003C1C4C1C531C5A1C641C5D1D5D1D701D39
:10012000701D661D701D701D701D5D1D5D1D6C1D9B
:10013000701D701D6C1D1131383126323831263258
:100140008031A3312632F931083229001E001F0008
:100150002000210022002300240025002600270083
:100160002D002E0000002A002B00000014001A00B1
:100170000800150017001C0018000C0012001300E6
:100180002F0030003100F45C00000400160007006E
:1001900009000A000B000D000E000F0033003400B0
:1001A00028000000E10000001D001B0006001900EF
:1001B000050011001000360037000000E500520075
:1001C0003800E000E3000000E200000000002C0026
:1001D000000000000000F55C0151500051004F008C
:1001E00035003A003B003C003D003E003F0040002F
:1001F0004100420043004400450000004C00010063
:10020000000001000100010001000100010059008F
:100210005A005B004B00AA00A900005C010000002E
:100220000100010001000100010001005C005D000F
:100230005E004E004A004D00000001000000010079
:10024000010001000100010001005F006000610089
:1002500000004C00F75C49000100010000000100B3
:10026000000000000100000000000000010001008B
:10027000F65CF85CF95C44454255473A2064697382
:1002800061626C65642E0A0044454255473A206518
:100290006E61626C65642E0A000A00253031366298
:1002A000003A200025303258000A722F6320303186
:1002B00032333435363738394142434445460A00F3
:1002C0007267626C696768742074696D6572206416
:1002D000697361626C652E0A007267626C69676897
:1002E000742074696D657220656E61626C65642E40
:1002F0000A007267626C69676874207365742068AD
:100300007376205B4E4F454550524F4D5D3A202548
:10031000752C25752C25750A007267626C696768F3
:10032000742073657420687376205B454550524F86
:100330004D5D3A2025752C25752C25750A007267B0
:10034000626C69676874207261696E626F7720738E
:100350006574206873763A2025642C25642C256406
:100360002C25750A007267626C696768742064697D
:100370007361626C65205B454550524F4D5D3A207C
:100380007267626C696768745F636F6E6669672E17
:10039000656E61626C65203D2025750A007267629A
:1003A0006C6967687420656E61626C65205B4E4F96
:1003B000454550524F4D5D3A207267626C696768DF
:1003C000745F636F6E6669672E656E61626C65202F
:1003D0003D2025750A007267626C69676874206544
:1003E0006E61626C65205B454550524F4D5D3A2011
:1003F0007267626C696768745F636F6E6669672EA7
:10040000656E61626C65203D2025750A0072676229
:100410006C6967687420746F67676C65205B45451D
:1004200050524F4D5D3A207267626C696768745F25
:10043000636F6E6669672E656E61626C65203D2034
:1004400025750A007267626C69676874206D6F6455
:1004500065205B4E4F454550524F4D5D3A20257506
:100460000A007267626C69676874206D6F6465204A
:100470005B454550524F4D5D3A2025750A00726725
:10048000626C696768745F696E6974207267626C18
:10049000696768745F636F6E6669672E6D6F646508
:1004A000203D20302E205772697465206465666196
:1004B000756C742076616C75657320746F2045458A
:1004C00050524F4D2E0A007267626C696768745F04
:1004D000696E6974206565636F6E6669672069730C
:1004E000206E6F7420656E61626C65642E0A007206
:1004F00067626C696768745F696E697420737461A0
:100500007274210A007267626C696768745F696E51
:1005100069742063616C6C65642E0A007267626C9A
:10052000696768745F636F6E6669672E737065656F
:1005300064203D2025640A007267626C69676874F4
:100540005F636F6E6669672E76616C203D2025645F
:100550000A007267626C696768745F636F6E6669D0
:10056000672E736174203D2025640A007267626CF7
:10057000696768745F636F6E6669672E687565206A
:100580003D2025640A007267686C696768745F6360
:100590006F6E6669672E6D6F6465203D2025640A65
:1005A000007267626C696768745F636F6E66696723
:1005B0002E656E61626C65203D2025640A007267BD
:1005C000626C696768745F636F6E666967206570E7
:1005D000726F6D0A0000047F3F1F6432146432148E
:1005E000783C1E1E140A052223252628292A2C2D94
:1005F0002F3032333536383A3B3D3E404243454753
:10060000494A4C4E5051535557595A5C5E6062648A
:100610006668696B6D6F71737577797B7D7F818398
:100620008587898A8C8E90929496989A9C9E9FA199
:10063000A3A5A7A8AAACAEAFB1B3B4B6B8B9BBBCBA
:10064000BEBFC1C2C3C5C6C7C9CACBCCCDCED0D12F
:10065000D2D2D3D4D5D6D7D7D8D9D9DADADBDBDB27
:10066000DCDCDCDCDCDDDDDDDDDCDCDCDCDCDBDBC8
:10067000DBDADAD9D9D8D7D7D6D5D4D3D2D2D1D01C
:10068000CECDCCCBCAC9C7C6C5C3C2C1BFBEBCBB19
:10069000B9B8B6B4B3B1AFAEACAAA8A7A5A3A19F91
:1006A0009E9C9A98969492908E8C8A898785838155
:1006B0007F7D7B79777573716F6D6B696866646236
:1006C000605E5C5A5957555351504E4C4A49474504
:1006D0004342403E3D3B3A3836353332302F2D2CA5
:1006E0002A292826252322FFAA7F55400000000042
:1006F00000000000000001010101010101010102EF
:1007000002020202020202030303030303030404BE
:100710000404040505050505060606060607070781
:1007200007080808080909090A0A0A0B0B0B0C0C30
:100730000C0D0D0D0E0E0E0F0F10101011111212C8
:1007400013131414151516161717181819191A1A41
:100750001B1C1C1D1D1E1F1F20212122232324259D
:100760002526272828292A2B2C2C2D2E2F303131D5
:1007700032333435363738393A3B3C3D3E3F4041E1
:1007800042434445464748494B4C4D4E4F505253C7
:1007900054555758595A5C5D5E606163646567687B
:1007A0006A6B6C6E6F7172747677797A7C7D7F81FB
:1007B00082848687898B8D8E9092949597999B9D44
:1007C0009FA1A2A4A6A8AAACAEB0B2B4B6B9BBBD54
:1007D000BFC1C3C5C8CACCCED0D3D5D7DADCDEE121
:1007E000E3E6E8EAEDEFF2F4F7F9FCFF0A00253062
:1007F000325820006B6579626F6172645F72657058
:100800006F72743A20000A0025303258006B657907
:10081000626F6172645F7365745F6C65643A200037
:1008200064656C5F6B65795F6269743A2063616EC1
:1008300027742064656C3A20253032580A006164C0
:10084000645F6B65795F6269743A2063616E2774D7
:10085000206164643A20253032580A00290A0025B4
:1008600075002F002575005D2800256400200025F7
:100870006400200025640020002564007C002530F1
:100880003258006D6F7573656B6579205B62746EAD
:100890007C782079207620685D287265702F6163EE
:1008A0006C293A205B006261636B6C696768742035
:1008B000737465703A2025750A006261636B6C6918
:1008C0006768742064697361626C650A00626163C1
:1008D0006B6C6967687420656E61626C650A0062A2
:1008E00061636B6C6967687420746F67676C653AE5
:1008F0002025750A006261636B6C69676874206407
:10090000656372656173653A2025750A00626163EB
:100910006B6C6967687420696E6372656173653AB0
:100920002025750A005B735D004B6579626F61720B
:10093000642073746172742E0A005B575D005B5310
:100940005D005B525D005B445D005B435D00040342
:10095000300000000A0344005A0036003000000056
:1009600010034B0042004400460061006E0073001B
:1009700000000403090409025B00030100A0FA0956
:1009800004000001030101000921110100012240BE
:10099000000705810308000A0904010001030000A3
:1009A0000009211101000122C00007058203200077
:1009B0000A090402000203000000092111010001DC
:1009C00022220007058303200001070503032000FE
:1009D000011201100100000008EDFE60220100017B
:1009E0000203010631FF0974A1010975150026FFF4
:1009F000009520750881020976150026FF009520D4
:100A000075089102C005010902A10185020901A131
:100A100000050919012905150025019505750181B4
:100A20000295017503810105010930093115812500
:100A30007F95027508810609381581257F95017516
:100A4000088106050C0A38021581257F9501750875
:100A50008106C0C005010980A10185031601002699
:100A600003001A81002A8300751095018100C005DA
:100A70000C0901A1018504160100269C021A01003F
:100A80002A9C02751095018100C005010906A1018B
:100A90008505050719E029E7150025019508750169
:100AA0008102050819012905950575019102950135
:100AB000750391010507190029EF1500250195F02F
:100AC00075018102C005010906A101050719E02988
:100AD000E7150025019508750181029501750881CA
:100AE0000105081901290595057501910295017502
:100AF0000391010507190029FF150026FF0095063F
:100B000075088100C00011241FBECFEFDAE0DEBF00
:100B1000CDBF04B603FE24C08091BF029091C002F5
:100B2000A091C102B091C2028730904BA740B04B58
:100B3000B9F41092BF021092C0021092C10210923A
:100B4000C20214BE84B7877F84BF88E10FB6F894D1
:100B500080936000109260000FBEE0E0F8E309951A
:100B600011E0A0E0B1E0E0E7F6E602C005900D92EA
:100B7000AC36B107D9F712E0ACE6B1E001C01D9286
:100B8000AF3BB107E1F70E94F82C0C9436330C947C
:100B90000000FF93EF93E0916C01F0916D013097AD
:100BA00009F00995EF91FF910895FC01859180303E
:100BB00011F0EFDFFBCF0895FF27E0E230E247FFBF
:100BC0000CC0419597FF09C0EDE260957095809546
:100BD0009095611D711D811D911D27FF02C02195FA
:100BE00030E350E2AA27660F771F881F991FAA1FBC
:100BF000A41710F0A41B63955A95A9F7AA3008F022
:100C0000A95FA05DAF93F39561157105810591050D
:100C100041F7ED3211F4EF93F395F21718F43F9387
:100C2000F395FBCF8F91B5DFFA95E1F70895E99140
:100C3000F9918591803021F0853219F0AADFF9CF42
:100C4000089520E0E89455915532C1F3503311F4E2
:100C5000689455915A3348F4505390F3220F022E62
:100C6000220F220F200D250FF4CF0EF4219589912C
:100C70009991533619F3533729F1533559F1BC0182
:100C800088279927E8945C3621F489919991689492
:100C90005591543639F446EF7EF077FF0DC08FEF53
:100CA0009FEF0AC055374AE039F0583540E121F04E
:100CB000523642E009F00895FF93EF937DDFEF9104
:100CC000FF91B7CFFF93EF93FC0181918030B9F38F
:100CD00060DFFBCFFF93EF9368DFF1CFDF93CF931C
:100CE000CDB7DEB72596A3DFCF91DF9108950C94A1
:100CF000D306229A2A9A08950E94CC060C9479066B
:100D000081FF02C02A9801C02A9A0C944908863FA4
:100D10002CE59207C9F050F4843F2CE5920789F046
:100D2000853F9C45D9F48FE098E016C0883F2CE5BC
:100D3000920781F060F0893F9C4581F48FE494E054
:100D40000BC080E491E008C080E594E005C082E536
:100D500094E002C081E594E00E947A0781E0089562
:100D6000CF92DF92EF92FF926B017C010E94DD2314
:100D7000882331F0813049F444ED6FEF8FEF03C0E9
:100D80004EEB6FEF81E10E944212C701B601FF9066
:100D9000EF90DF90CF9008950E94212690936F01ED
:100DA00080936E010895809100018823A1F08091C5
:100DB0006E0190916F010E942D260B9760F01092AA
:100DC00000014EEB6FEF81E10E94421281E00E9430
:100DD00094140C94FD1408950F931F93CF93DF93F5
:100DE0008C01EB019A9581159F4138F510FF03C0E6
:100DF00080EEFB01099511FF03C081EEFE0109950C
:100E000012FF03C082EEFE01099513FF03C083EEBB
:100E1000FE0109950115104180F084EEFE0109954F
:100E200085EEFE01099586EEFE01099587EEFE012D
:100E3000DF91CF911F910F910994DF91CF911F9175
:100E40000F910895877091E001C0990F8A95EAF794
:100E5000892F0E943B230C947423877091E001C07A
:100E6000990F8A95EAF7892F0E943B230C947423EB
:100E7000877091E001C0990F8A95EAF7892F0E9447
:100E800041230C947423877091E001C0990F8A95D7
:100E9000EAF7892F0E9441230C947423CF93DF93A8
:100EA000EC01805E9109089710F0209719F46DE22B
:100EB00077E002C062E277E0CE010E94EC068C2F60
:100EC000DF91CF910C94B118CF93DF93EC010E9486
:100ED000CF19CE01805E9109089710F0209719F480
:100EE00063E477E002C068E377E0CE01DF91CF9161
:100EF0000C94EC06CF93DF93EC010E944E07CE01D9
:100F0000DF91CF910C94640781E008950C948706DB
:100F10001F93CF93DF9300D000D01F92CDB7DEB7E1
:100F200049835A832091AA0189819A81211112C093
:100F3000662349F00E94A922182F682F89819A817F
:100F40000E944F2203C00E947D22182F69817A815E
:100F5000812F04C00E94A92269817A810F900F908D
:100F60000F900F900F90DF91CF911F910C94990AE1
:100F7000FC01408151816281738184810C948807D6
:100F80000C947706E82FE295EF70F0E092A18F7055
:100F900021E030E0082E01C0220F0A94EAF72095E4
:100FA000922392A30895CF92DF92EF92FF92863020
:100FB00030F4811105C0909180009F7D04C085E0D0
:100FC00090918000906290938000282F30E0AFEFE6
:100FD000BFEF0E945B3225E030E040E050E00E942D
:100FE000AE32C9012C3764E1360728F469E070E0BD
:100FF0000E94863229C0DA01C9018A50974DAF4F4D
:10100000BF4F6627782F892F9A2F25EF38E241E0CE
:1010100050E00E94AE3269017A01CA01B9010E9412
:101020006A329B01AC01C701B6010E946A32BB273C
:10103000A92F982F872F009721E0A207B10511F063
:10104000BC0102C06FEF7FEF70938B0060938A004A
:10105000FF90EF90DF90CF900895269A86E30E944C
:10106000C20782E28093800089E1809381008FEF44
:101070009FEF90938700809386000C9456290E94DE
:101080005C24811102C00E94DF240E942D080C9470
:101090007C0608950C94800608950E944D1D0E94C0
:1010A0004C082FEF84E39CE0215080409040E1F712
:1010B00000C000000C947C260F931F93CF93DF9306
:1010C0008C010E94B807EC01B8010E9486078823B2
:1010D00009F425C2B801CE010E949216882309F4B2
:1010E0001EC2CA3CFCE5DF0741F4F8018281882377
:1010F00009F415C20E943F1212C2CB3C8CE5D807FE
:1011000008F040C1C33C9CE5D90761F4F801828135
:10111000882309F404C20E9428238272E1F00E940D
:101120007414FDC1C43CECE5DE07C0F0C63C9CE590
:10113000D90709F4F8C008F00AC1C43CFCE5DF0790
:1011400009F0F9C0F8018281882309F4E8C10E94FE
:101150002823827221F30E946814E1C1C531FCE5A5
:10116000DF0708F0ABC0C2308CE5D80708F478C0C0
:10117000F8018281882309F47AC00E945C248111DD
:1011800002C00E94DF240E946F2490E09093B0027E
:101190008093AF02FE01E350FC45E231F10520F4FB
:1011A000EA5AFF4F0C94D0328091AF02816003C0A5
:1011B0008091AF0282608093AF024BC08091AF02FA
:1011C0008460F9CF8091AF0213C08091AF0280613B
:1011D000F2CF8091AF028062EECF8091AF02806447
:1011E000EACF8091AF028068E6CF8091AF02846041
:1011F0008860E1CF8091AF028E7FDDCF8091AF021A
:101200008D7FD9CF8091AF028B7FD5CF8091AF02F8
:1012100013C08091AF028F7ECECF8091AF028F7DC1
:10122000CACF8091AF028F7BC6CF8091AF028F77FC
:10123000C2CF8091AF028B7F877FBDCF9091AF02ED
:1012400097FB882780F921E0822780FB97F990930C
:10125000AF028091AF020E9473240E944D1D5FC1B6
:10126000C1159CE5D90751F0C130DC4579F0C801C2
:10127000DF91CF911F910F910C948407F801828127
:10128000882309F44CC10E944D0849C1F8018281AC
:10129000882309F444C190914202892F809581707E
:1012A00080FB90F990934202882319F088E892E03D
:1012B00002C086E792E00E94D50531C1C631FCE547
:1012C000DF0729F50E942823382FF8012281809119
:1012D000110190911201222371F03A7A21E009F470
:1012E00020E020937001222311F065E301C069E240
:1012F0000E94702509C020917001222311F065E33E
:1013000001C069E20E947B250E94742308C1C23C8F
:10131000DC4509F0ACCFF8018281882309F4FFC0D5
:101320000E944115FCC0F8018281882309F4F7C0AE
:101330000E94FF11F4C0C53CDC4509F098CFF801CC
:101340008281882309F4EBC00E94F111E8C0F80102
:101350008281C83CFCE5DF0731F4882309F4DFC053
:101360000E941F12DCC0C93CDC4530F4882309F41C
:10137000D6C00E940F12D3C0882309F4D0C00E94A7
:101380002F12CDC0C13DECE5DE0791F4F80182815A
:10139000882309F4C4C00E9422108F3028F00E94D4
:1013A0002210843108F4D7CE8FE00E947714B7C0A2
:1013B000C23DFCE5DF0708F05AC0CD3C8CE5D807FC
:1013C00039F4F8018281882309F4A9C081E0EDCFC6
:1013D000CE3C9CE5D907C0F4CB3CECE5DE0741F4FC
:1013E000F8018281882309F49AC00E942A1097C0CC
:1013F000CC3CDC4509F03BCFF8018281882309F41D
:101400008EC00E943B108BC0F8018281CF3CFCE56E
:10141000DF0771F4882309F482C00E94221086300D
:1014200028F00E942210883008F495CE86E0BDCFC7
:10143000C03DDC4570F4882309F471C00E9422107D
:10144000823028F00E942210853008F484CE82E099
:10145000ACCF882309F463C00E942210893028F0A1
:101460000E9422108E3008F476CE89E09ECFC53DD2
:10147000ECE5DE0739F4F8018281882309F44FC0D6
:1014800083E293CFC63DFCE5DF0740F5F80182819A
:10149000C33DFCE5DF0729F4882309F440C088E157
:1014A00084CFC43DDC4568F48823C9F10E94221032
:1014B000853128F00E942210873108F44CCE85E156
:1014C00074CF882361F10E942210893128F00E9494
:1014D0002210823208F43FCE89E167CFCD3DECE5A2
:1014E000DE0741F4F80182818823C9F082E00E947E
:1014F000A02D15C0CE3DFCE5DF0739F4F80182814F
:10150000882369F00E94DF240AC0CC3DDC4509F045
:10151000AECEF8018281882311F080E0E8CF80E030
:10152000DF91CF911F910F91089580E090E0089591
:1015300008959FE0799FF00111249BE4899FE00DBD
:10154000F11D1124E60FF11DEE0FFF1FE65BFE4FAC
:10155000859194910895880F991F87569D4FFC019E
:10156000859194910895CF93DF930E94990A0E94E8
:10157000A50CEC01811521E5920708F044C0C115C6
:1015800080E5D80708F031C1C83ED10510F5C03E4E
:10159000D10508F0D6C1C83AD10578F4C53AD105CD
:1015A00008F0A6C0C130D10509F4CBC108F47CC154
:1015B000C430D10508F0C5C177C1CF3BD10508F4CF
:1015C000A2C0C03CD10508F46FC1CE01805C910976
:1015D000FBC0C11520E3D20780F4C11580E2D80713
:1015E00008F0F0C0C03FD10508F45EC1CF3FD1057F
:1015F00011F008F0A6C1D065A4C1C11520E4D2073E
:1016000008F0F0C0E5C0C11589E5D80760F5C1153F
:1016100028E5D20708F034C1C11584E5D80778F46D
:10162000C11523E5D20708F011C1C11582E5D8071D
:1016300008F0F7C0DC2FCC27C16FD06A82C1C1157A
:1016400025E5D20708F417C1C11586E5D80708F0CB
:101650002BC18C2F0E94210D8F71C82FD0E0DC2F61
:10166000CC27D0626EC1CD3B2CE5D20709F413C163
:10167000F0F4CB3B2CE5D20709F407C108F008C110
:10168000C1152AE5D20708F00FC18C2F8F700E9478
:10169000210D34E0D695C7953A95E1F7CF70D0E0AB
:1016A000DC2FCC27D06A8F70806EC82B4AC1C03C1B
:1016B0008CE5D80709F4F5C060F4CE3B8CE5D8077B
:1016C00009F4ECC0CF3BDC4509F0EEC0C0E0D2ED40
:1016D00038C1CE0190568115904208F0E5C08D2F9B
:1016E0008F710E94210DDD27D0628F71D82B29C107
:1016F000C53AD10509F4DBC0C63AD10509F4DAC010
:10170000C3E8D0E41EC1C83AD10509F4D6C0C93A2D
:10171000D10509F4D5C0CA3AD10509F4D4C0CB3AF1
:10172000D10509F4D3C0CC3AD10509F4D2C0CB3BE2
:10173000D10509F4D1C0CC3BD10509F4D0C0CD3AD4
:10174000D10509F4CFC0C03BD10509F4CEC0CE3AD3
:10175000D10509F4CDC0CF3AD10509F4CCC0C13BC5
:10176000D10509F4CBC0C23BD10509F4CAC0C33BC3
:10177000D10509F4C9C0C43BD10509F4C8C0C53BB3
:10178000D10509F4C7C0C63BD10509F4C6C0C73BA3
:10179000D10509F4C5C0C83BD10509F4C4C0C93B93
:1017A000D10509F4C3C0CD3BD10509F4C2C0CE3B7D
:1017B000D10509F4C1C0CA3BD10509F0C0C0CAE2D5
:1017C000D6E4BFC0CE019F700E94AB0AEC01B9C045
:1017D000CE019927D3FF03C0EC01D86CB2C0EC0155
:1017E000D06CAFC0DF70D06AACC02C2F237081E00A
:1017F00090E002C0880F991F2A95E2F79C689E012D
:10180000F4E036952795FA95E1F72370922BCF7087
:10181000C695C69520E2C29FE0011124C82BD92BA2
:1018200090C08C2F8695869520E2829FC00111245E
:101830009E0123703327C1E0D0E002C0CC0FDD1F32
:101840002A95E2F7C82BD92BDC687BC08C2F8695B4
:10185000869520E2829FC00111249E0123703327C8
:10186000C1E0D0E002C0CC0FDD1F2A95E2F7C82B03
:10187000D92BDA6866C0DC2FCC27C46FD06A61C070
:10188000DC2FCC27C06FD06A5CC0C0E0D4ED59C05B
:10189000C0E0D5ED56C0C0E0D1ED53C0C0E0D0ED02
:1018A00050C0C0E0D3ED4DC0C0E0D0E04AC0C1E8B8
:1018B000D0E447C0C2E8D0E444C0C2EED4E441C0A2
:1018C000C9EED4E43EC0CAEED4E43BC0C5EBD4E4D8
:1018D00038C0C6EBD4E435C0C3EBD4E432C0C4EBAB
:1018E000D4E42FC0C7EBD4E42CC0CCECD4E429C0A2
:1018F000CDECD4E426C0C3E8D5E423C0CAE8D5E4DF
:1019000020C0C2E9D5E41DC0C4E9D5E41AC0C1E2D3
:10191000D6E417C0C3E2D6E414C0C4E2D6E411C0D2
:10192000C5E2D6E40EC0C6E2D6E40BC0C7E2D6E4F8
:1019300008C0CFE6D4E405C0C0E7D4E402C0C0E0EC
:10194000D4E4CE01DF91CF9108958238910549F119
:10195000B0F48133910509F459C048F489329105F6
:1019600009F44FC08A32910509F455C008958533B2
:10197000910509F441C08933910599F00895833E9A
:10198000910531F138F4803E910591F0823E910548
:10199000A9F00895863E910501F1873E910539F140
:1019A00008952091AF0220FD3BC021FD39C008956C
:1019B0008091AF0280FF34C089E341C08091AF02C3
:1019C00082FF32C08091AF0284FF2CC080E037C01C
:1019D0008091AF0282FD28C0F5CF8091AF0283FFD6
:1019E00025C08091AF0284FDF1CF87EE28C08091A1
:1019F000AF0283FD1BC0F5CF8091AF0285FF18C0F9
:101A000019C08091AF0285FF15C012C08091AF024E
:101A100086FF12C013C08091AF0286FF0FC00CC0BA
:101A200080EE0DC083EE0BC082EE09C086EE07C0CB
:101A300085E305C089E203C081E301C08AE290E04A
:101A400008959091AF0292FF0DC0282F2871283081
:101A500019F4877F846006C0282F2471243011F484
:101A60008B7F886093FF0DC0282F2871283119F4CF
:101A7000877E846106C0282F2471243111F48B7E67
:101A8000886194FD877E0895E82FF0E0EE0FFF1F38
:101A9000EF58FE4F808191810895CF92DF92EF92AF
:101AA000FF920F931F93CF93DF9389EA92E00E94F6
:101AB000D50521E7E22E21E0F22EC0E0D0E034EAA5
:101AC000C32E32E0D32E0BE912E0DF93CF93DF92E7
:101AD000CF920E946E0681EA92E00E94D505F7013E
:101AE000819191917F010E9442249F938F931F9334
:101AF0000F930E946E0689E992E00E94D505219617
:101B00008DB79EB708960FB6F8949EBF0FBE8DBFD7
:101B1000C530D105D1F6DF91CF911F910F91FF9084
:101B2000EF90DF90CF900895E3E3F1E021E030E023
:101B30008191A82FA295AF70B0E091964C919197AA
:101B40008F70B90102C0660F771F8A95E2F7CB014B
:101B50008095482391964C9371E0E833F70741F75D
:101B6000A4E2B1E021E030E08D91E82FE295EF7042
:101B7000F0E041A18F70B90102C0660F771F8A950E
:101B8000E2F7CB01962F9095492341A392A1982B80
:101B900092A371E0A333B70739F7EBE7F1E0A1E7D0
:101BA000B1E0119211921D921D9281E0E538F80783
:101BB000C1F785E00E947C0E0C943F082F923F9263
:101BC0005F926F927F928F929F92AF92BF92CF92CD
:101BD000DF92EF92FF920F931F93CF93DF9353E324
:101BE000252E51E0352EABE7B1E0B12C21E030E0FD
:101BF0004D016D907C90119711961C921E92E101FF
:101C000069911E01E62FE295EF70F0E081A16F70FF
:101C1000A90102C0440F551F6A95E2F7BA01842B4F
:101C200081A382A1A42EA0948A2182A350EA5A956E
:101C3000F1F744E2E42E41E0F42E40E050E0E70109
:101C400059907E01852D82958F7090E0EC0108A15E
:101C5000CD90DC90119710E0852D8F7002C0159506
:101C600007958A95E2F700FD08C0C901042E02C05D
:101C7000880F991F0A94E2F702C080E090E0C82A1A
:101C8000D92A1196DC92CE924F5F5F4F4F305105AB
:101C9000B1F681A18A2181A382A1862B82A312960B
:101CA00041E0F401808191816816790609F440E0F1
:101CB000B42AF8E32F16F1E03F0609F099CF2B2D57
:101CC00045E061E771E08BE791E00E947D0E0E94A4
:101CD000C0078B2DDF91CF911F910F91FF90EF9057
:101CE000DF90CF90BF90AF909F908F907F906F903C
:101CF0005F903F902F9008950895FF920F931F9348
:101D0000CF93DF93D82FC92FF62E072F142F22231E
:101D100049F081E0809387010E94212690938601FB
:101D200080938501809187018823D9F08091850176
:101D3000909186010E942D26069798F0ED2FFC2F9A
:101D4000AF2DB02F80E090E0412F50E08417950731
:101D500034F4219131912D933D930196F7CF109258
:101D60008701DF91CF911F910F91FF900895CF923E
:101D7000DF92EF92FF920F931F93CF93DF93D62EB4
:101D8000C72EE82EF82EE82FF0E0711106C0E451BE
:101D9000F94F6491762F862F7BC0072F10E026E045
:101DA000629FC0011124CFEFD0E0BE010E948632B5
:101DB0009B016BEA6203A001639F500D11244D0D3E
:101DC000511D4D0D511DD42EDD0CD40ECE01801BA6
:101DD000910B8E9FA0018F9F500D9E9F500D11243F
:101DE000852FDC9CB0011124672F7727DE01A61B0D
:101DF000B70BAE9FB001AF9F700DBE9F700D112449
:101E0000972FDE01AD19B1096D01C09ED001C19EB1
:101E1000B00DD09EB00D1124AB2FBB27CA1BDB0B1E
:101E2000CE9FD001CF9FB00DDE9FB00D1124223088
:101E3000310591F03CF42115310559F0213031057F
:101E4000C1F014C02430310569F04CF02630310562
:101E500069F49E2DFB2E0DC0952F8B2F0AC0F72EF7
:101E6000952F02C09B2FF52E8E2D03C0F52E872FA8
:101E70009E2DE92FF0E0E451F94F7491EF2DF0E041
:101E8000E451F94F6491E82FF0E0E451F94F849167
:101E9000DF91CF911F910F91FF90EF90DF90CF9046
:101EA00008950895CF93DF93762FE901682F842F4B
:101EB0000E94B70E798368838A83DF91CF9108955A
:101EC00020917402822F869590E0009729F421706A
:101ED000226020937402089585972CF0822F8170E0
:101EE000886480937402089588E090E00C94F63240
:101EF000CF93DF9300D000D0CDB7DEB7AB01BC01EC
:101F000049835A836B837C830E94600F49815A8185
:101F10006B817C8188E090E00F900F900F900F9084
:101F2000DF91CF910C941433E4E7F2E083E08083F7
:101F3000109275028FEF8093760280937702109251
:101F4000780260817181828193810C94780F8091F5
:101F5000420280FF08C08EEB95E09F938F930E9412
:101F60006E060F900F908091420280FF0FC080910B
:101F7000740281701F928F9381EA95E09F938F93F3
:101F80000E946E060F900F900F900F90809142026A
:101F900080FF0FC08091740286951F928F9386E810
:101FA00095E09F938F930E946E060F900F900F9075
:101FB0000F908091420280FF0EC0809175021F92A7
:101FC0008F938CE695E09F938F930E946E060F90FF
:101FD0000F900F900F908091420280FF0EC0809171
:101FE00076021F928F9382E595E09F938F930E94D4
:101FF0006E060F900F900F900F908091420280FF1D
:102000000EC0809177021F928F9388E395E09F9393
:102010008F930E946E060F900F900F900F908091FB
:10202000420280FF0EC0809178021F928F938CE154
:1020300095E09F938F930E946E060F900F900F90E4
:102040000F9008958091740280FF02C086950895D4
:1020500080E0089580917802833018F48F5F809338
:10206000780260917402709175028091760290916D
:1020700077020C94780F80917802882319F08150B0
:10208000809378026091740270917502809176025B
:10209000909177020C94780F6091050170E0809127
:1020A000740280FF0AC080918C0123E0829FC001EE
:1020B000112487589D4F0C94221620918B0130914A
:1020C0000401231780F7822F90E0FC01EE0FFF1F21
:1020D000E80FF91FE758FD4F1182108212822F5F1F
:1020E000F0CF9091740290FF16C090918B015091A7
:1020F0000401951770F4292F30E0F901EE0FFF1F4E
:10210000E20FF31FE758FD4F8183608342839F5F97
:10211000F0CF0C944C100895CF93DF9300D01F9212
:10212000CDB7DEB79091740290FF0AC09E012F5F79
:102130003F4F0E94520F4B8169818A810E9471102A
:102140000F900F900F90DF91CF910895CF93DF9371
:10215000EC01EC81F0E0E951FA4F44916091760294
:10216000809175020E948C108C818F5F8C83DF912F
:10217000CF910895CF93DF93EC0140917702609166
:1021800076028C810E948C108C818F5F8C83DF9112
:10219000CF9108950F931F93CF93DF9300D01F9299
:1021A000CDB7DEB78C018091880181110AC09E01F4
:1021B0002F5F3F4F4FEF6FEF0E94520F8A81809346
:1021C0008801F8018481813051F028F0823061F477
:1021D000409188010AC08091880140E007C0609169
:1021E000880140E080E003C040E080E060E00E94C1
:1021F0007110F801848190E0019663E070E00E9424
:102200009A3284830F900F900F90DF91CF911F919E
:102210000F9108955F926F927F928F929F92AF92EB
:10222000BF92CF92DF92EF92FF920F931F93CF93C3
:10223000DF9300D000D0CDB7DEB7D82EB62EC42E97
:10224000A22E9091740290FFADC0E92FE695AE2FBB
:10225000B0E0A85CBE4F8C91809394019E7F923039
:1022600061F49E012F5F3F4F8D2D0E94520F4B81D5
:1022700069818A810E94711063C0823019F4C09014
:1022800077025EC0863019F4D090750259C089304B
:10229000D9F3893109F054C0E9519E2E9094292D2B
:1022A0002170922E2170822EE695F0E0E951F94FCF
:1022B00005911491512C1127FEE3EF2EF3E0FF2E30
:1022C000609103015616D0F5652C712C609EC001FB
:1022D000619E900D709E900D112470E00E948632D8
:1022E0008D2D882011F0860F01C0861B909142022F
:1022F00090FF13C01F930F931F929F921F928F9373
:102300001F925F92FF92EF928C830E946E060FB62F
:10231000F894DEBF0FBECDBF8C8190918B01690E0A
:10232000711C9301220F331F260D371D27583D4F77
:102330004C2D6B2D0E94520F5394C2CF0E944C1013
:10234000D0927502B0927602C0927702AA20C9F0AC
:10235000609174027091750280917602909177027B
:102360000E94780F809177021F928F93809176025E
:102370001F928F93809175021F928F9389E193E052
:1023800008C01F92CF921F92BF921F92DF9282EFDE
:1023900092E09F938F930E946E060FB6F894DEBF73
:1023A0000FBECDBF0F900F900F900F90DF91CF9188
:1023B0001F910F91FF90EF90DF90CF90BF90AF9063
:1023C0009F908F907F906F905F900895909175028D
:1023D000282F409177026091760288E0890F0C9453
:1023E0000A1181E00C94E61190917502282F40911A
:1023F00077026091760288EF890F0C940A1181E0D0
:102400000C94F4116091760228E0620F08F46FEFEB
:10241000282F40917702809175020C940A1181E077
:102420000C9402126091760228E0621B08F460E0CE
:10243000282F40917702809175020C940A1181E057
:102440000C9412124091770228E0420F08F44FEFEB
:10245000282F60917602809175020C940A1181E018
:102460000C9422124091770228E0421B08F440E0CD
:10247000282F60917602809175020C940A1181E0F8
:102480000C94321220E00C940A11FF920F931F93C8
:10249000CF93DF93EC01F12C0FEF10E0609103017B
:1024A000F616E8F440918B0150E04F0D511D9A0152
:1024B000220F331F240F351F27583D4F70E0C801EE
:1024C0000E949A32962F8C81409177026091760219
:1024D000F99E800D11240E94520FF394DFCF0E94C9
:1024E0004C109A818C8190FF02C08F5F01C0815097
:1024F0008C83DF91CF911F910F91FF900895BF9230
:10250000CF92DF92EF92FF920F931F93CF93DF93BF
:10251000FC01828180FD03C0CC24C39402C0CC2482
:10252000CA94D12C80910301D816E0F5ED2CF12C42
:1025300080918B019701280F311DE901CC0FDD1F20
:10254000C20FD31FC758DD4F198218821A8204E0C8
:1025500010E0B12C80918A018B0D87FF03C0909110
:102560000301890F992787FD9095E816F90691F4E4
:1025700080917702809FA001819F500D1124559575
:102580004795559547959E01609176028091750219
:102590000E94520FBC0C0150110901151105D1F612
:1025A000D394C0CF0E944C1080918A0131E0C312B5
:1025B00006C0811102C080910301815007C090E0E4
:1025C00001966091030170E00E949A3280938A0123
:1025D000DF91CF911F910F91FF90EF90DF90CF90FF
:1025E000BF900895CF9320918B0130910401231760
:1025F00070F4822F90E0FC01EE0FFF1FE80FF91F2F
:10260000E758FD4F1182108212822F5FF0CFC0E099
:1026100060910301C617B0F52C2F30E070E0C901BE
:102620000E949A3240918B01480F8091890199272D
:1026300087FD909550E028173907C4F0809102017A
:10264000992787FD90958217930784F09A01220FAE
:10265000331F240F351F27583D4F4091770260915B
:102660007602809175020E94520F0AC0FA01EE0FA5
:10267000FF1FE40FF51FE758FD4F118210821282F1
:10268000CF5FC6CF0E944C1040910101209189017B
:10269000240F2093890180910201840F809302010D
:1026A000181654F4332727FD30958091030190E0EC
:1026B0000197281739071CF0419540930101CF91EC
:1026C00008950F931F93CF93DF93EC012C813D81ED
:1026D0002F5F3F4F217033273D832C8310E005E5AA
:1026E000809103011817F0F440918B0150E0410FE5
:1026F000511D9A01220F331F240F351F27583D4FBC
:10270000412F46958C819D81840F911D8170409150
:10271000770260917602809F802D11240E94520FD3
:102720001F5FDECFDF91CF911F910F910C944C1062
:102730000F931F93CF93DF938C01C0E0D0E04091C3
:102740000301842F90E0C817D9072CF580918B01E5
:102750009E01280F311DC901220F331F280F391F79
:1027600027583D4F4695842F90E0F8014481C817C3
:10277000D9071CF4442331F002C0411103C0409139
:10278000770201C040E060917602809175020E945C
:10279000520F2196D4CF0E944C10F801248130E0D2
:1027A0002F5F3F4F217033272483DF91CF911F91FB
:1027B0000F91089560917402669570E04BE050E0CF
:1027C00086E091E00E94E132892B19F481E0809348
:1027D00095010E94212690938E0180938D01809116
:1027E000420280FF08C089ED92E09F938F930E9480
:1027F0006E060F900F9008951092950180914202FD
:1028000080FF08C080EC92E09F938F930E946E0639
:102810000F900F9008959091740290FF4EC09170A8
:10282000811102C0926003C0853220F098649093B9
:10283000740204C0880F892B80937402662391F080
:102840006091740270917502809176029091770286
:102850000E94780F8091740286951F928F9382E672
:1028600094E007C08091740286951F928F9384E450
:1028700094E09F938F930E946E060F900F900F909D
:102880000F9060917402669570E04BE050E086E036
:1028900091E00E94E132892B19F00E94FC1302C0E2
:1028A0000E94DA1381E08093900140917702609159
:1028B0007602809175020C9442120895682F8091DF
:1028C000740286958F5F853208F081E00C940B14BA
:1028D00081E00C945E14682F80917402869581507B
:1028E00009F484E20C940B1481E00C946B1461E005
:1028F0000C940B14CF93DF93C4E7D2E088818160FE
:1029000088831F9281E08F9386ED93E09F938F934E
:102910000E946E060F900F900F900F908881869501
:10292000DF91CF910C94771460E00C940B1480919C
:102930009301811161C080914202816080934202C3
:1029400085E095E09F938F930E946E0680914202EE
:102950000F900F9080FF08C08FEE94E09F938F93AD
:102960000E946E060F900F900E945C24811110C08F
:102970008091420280FF08C087EC94E09F938F9380
:102980000E946E060F900F900E94DF240E94940F09
:102990000E94740F609374027093750280937602A4
:1029A000909377026E7FC1F48091420280FF08C04D
:1029B0008EE794E09F938F930E946E060F900F9086
:1029C0000E94940F0E94740F6093740270937502BA
:1029D00080937602909377020E94600F0E94A70F67
:1029E000109295018091740280FF03C086950E9429
:1029F000941481E0809393010895CF93DF93C4E70B
:102A0000D2E08881816088831F9281E08F938DE975
:102A100093E09F938F930E946E060F900F900F90FC
:102A20000F9088818695DF91CF910C949414CF9369
:102A3000DF93C4E7D2E088818E7F888368817981C3
:102A40008A819B810E94780F888181701F928F9369
:102A500085E693E09F938F930E946E060E94FC137D
:102A60002FEF80E792E0215080409040E1F700C0D6
:102A700000000F900F900F900F90DF91CF910C946A
:102A80004C1080917402809581701F928F938DE01D
:102A900094E09F938F930E946E06809174020F9032
:102AA0000F900F900F9080FD0C9417150C947A14D2
:102AB0000F931F93CF93DF9380919501882309F49F
:102AC00089C080919401E0917402E695E81BE0933F
:102AD0008F01823049F4F0E0ED51FA4FE491CE2FAE
:102AE000D0E006EA10E146C0863049F4F0E0E0525A
:102AF000FA4FE491CE2FD0E00AEB10E13BC08930D1
:102B000049F4E695F0E0E352FA4FC491D0E005E4D1
:102B100012E130C08F3049F4E695F0E0E652FA4F0A
:102B2000C491D0E00FE712E125C0853141F4F0E017
:102B3000E952FA4FC491D0E002EF12E11BC0883194
:102B400081F0833239F4E5EDF5E0C591D4910AECDA
:102B500010E110C0843251F0C0EDD7E001E51FE074
:102B600009C0C8EED3E001E613E104C0C4EFD1E030
:102B700008E913E180919001882389F01092900177
:102B80000E9421269E0120953095280F391F3093F1
:102B90008E0120938D0110929201109291018091EB
:102BA0008D0190918E010E942D268C179D0790F02B
:102BB00080918D0190918E018C0F9D1F90938E01BD
:102BC00080938D018DE891E0F801DF91CF911F9105
:102BD0000F910994DF91CF911F910F9108953EB10C
:102BE000242F209523233EB1342B4FB7F894FC01BA
:102BF000680F791FE617F70789F0819198E03EB9D1
:102C0000000000C087FF2EB9880F000000C000C080
:102C100000C02EB900C09A9591F7ECCF4FBF089530
:102C20002DB1242B2DB99B01220F331F260F371FE7
:102C3000B9010E94EF1587EC90E00197F1F700C011
:102C40000000089544E00C9410160F931F93CF9347
:102C5000DF93C62FD42F022FFC0182818823C9F075
:102C6000609398010E94212690939701809396018A
:102C700080E28C0F883008F050C0C77081E001C03E
:102C8000880FCA95EAF7DF91CF911F910F910C94AD
:102C90004A1A10919801161330C0809196019091B4
:102CA00097010E942D26883C910538F5C0E2CD0F92
:102CB0001D17B9F080E2810F883040F4177081E071
:102CC00001C0880F1A95EAF70E94511AC83048F4DB
:102CD00081E09D2F977001C0880F9A95EAF70E94B6
:102CE0004A1A802F0E94371AC830B8F4D77081E092
:102CF00001C0880FDA95EAF70AC080E28C0F8830AD
:102D000060F4C77081E001C0880FCA95EAF7DF91CF
:102D1000CF911F910F910C94511ADF91CF911F9178
:102D20000F9108959C01CB01203F4CE53407F9F049
:102D300078F4283DFCE53F07B9F0293D4CE5340720
:102D400011F1273D3C4531F526E241EE61EE1EC012
:102D5000223FFCE53F0799F070F0233F3C45D1F45A
:102D600027E245EE66EE12C027E245EE0EC026E2EF
:102D700041EE60EE0BC027E245EE64EE07C026E2AE
:102D800041EE62EE03C028E241E065EE0E942516A6
:102D900080E00895FC018281882319F01092980147
:102DA000089581E0089590939E0180939D01089578
:102DB000E0919D01F0919E01309721F00190F0810A
:102DC000E02D099480E00895FF920F931F93CF9315
:102DD000DF93EC01E0919D01F0919E01309709F4A1
:102DE0003FC080912301882341F08091AF0287FF8B
:102DF00004C08881898385E088830280F381E02D87
:102E0000CE0109958091420282FF2AC080FF04C052
:102E100084EF97E00E94D50588E0F82E0EEE17E0CB
:102E20008091420280FF0BC088811F928F931F9375
:102E30000F930E946E060F900F900F900F90FA94D0
:102E40002196F110EDCF8091420280FF09C08CEEF7
:102E500097E0DF91CF911F910F91FF900C94D505D2
:102E6000DF91CF911F910F91FF900895E0919D0107
:102E7000F0919E01309739F022E0DC012C93048020
:102E8000F581E02D0994089520919B0130919C01DA
:102E90008217930771F090939C0180939B01E091BE
:102EA0009D01F0919E01309721F00680F781E02D81
:102EB000099408952091990130919A0182179307FE
:102EC00071F090939A0180939901E0919D01F091A6
:102ED0009E01309721F00084F185E02D099408953A
:102EE00085B7806885BF85B7806885BF08950895D8
:102EF00008950C94781708950C947B170E9470170E
:102F00000E9477170C94791781E008950E94182683
:102F10000E94940D0E94A1260E9456290E94971497
:102F2000EFEAF2E08081806880830C947C17CF9375
:102F3000C82F8091420282FF1EC080FF04C08DE036
:102F400098E00E94D5058091420280FF0CC01F923C
:102F5000CF9328E038E03F932F930E946E060F90A6
:102F60000F900F900F908091420280FF04C086E086
:102F700098E00E94D5058C2FCF910C944A085F925F
:102F80006F927F928F929F92AF92BF92CF92DF9279
:102F9000EF92FF920F931F93CF93DF93CDB7DEB7DE
:102FA0002A970FB6F894DEBF0FBECDBF0E94DE0D8C
:102FB0000E948417811111C08FEF89838A831B823D
:102FC0000E9421268160782F9D838C8349815A81BC
:102FD0006B818D810E947D1857C090EAC92E91E0C7
:102FE000D92E00E010E0AA24A394B12C502E802FFB
:102FF0000E94440D3C01F601E190F1906F01E8263A
:10300000F926E114F10431F40F5F1F4F053011056B
:1030100069F7D2CF8091420281FD0E944D0D20E0E0
:1030200030E04501022E02C0880C991C0A94E2F798
:10303000C4018E219F21892B09F12E835F82682094
:10304000792081E0672809F480E088870E942126A2
:103050008160782F9A8789874E815F8168858A850C
:103060000E947D18F801EE0FFF1FE056FE4F808191
:103070009181882599259183808306C02F5F3F4FDA
:103080002F30310571F6C0CF0E94B52810919F01F5
:103090000E94D8161817D9F00E94D81680939F0165
:1030A0002A960FB6F894DEBF0FBECDBFDF91CF9149
:1030B0001F910F91FF90EF90DF90CF90BF90AF9056
:1030C0009F908F907F906F905F900C9497172A96A7
:1030D0000FB6F894DEBF0FBECDBFDF91CF911F9129
:1030E0000F91FF90EF90DF90CF90BF90AF909F90A7
:1030F0008F907F906F905F900895CF93DF93CDB7BF
:10310000DEB72B970FB6F894DEBF0FBECDBF4F834F
:10311000588769877A878B87DE01119686E0FD01E3
:1031200011928A95E9F785E0FE01379601900D929C
:103130008A95E1F749815A816B817C818D819E81DD
:103140000E942A202B960FB6F894DEBF0FBECDBF8B
:10315000DF91CF910895FC01808191810E94E92245
:103160000895882309F41AC18238C1F40E94D81640
:1031700081FD14C169E380911101909112010E94B7
:1031800070250E9474232FEF81EE94E0215080403F
:103190009040E1F700C0000069E319C08338F9F4FA
:1031A0000E94D81680FDFAC063E5809111019091CC
:1031B00012010E9470250E9474232FEF81EE94E08B
:1031C000215080409040E1F700C0000063E580910D
:1031D0001101909112010E947B250C947423843874
:1031E000C1F40E94D81682FDD9C067E48091110114
:1031F000909112010E9470250E9474232FEF81EE9E
:1032000094E0215080409040E1F700C0000067E466
:10321000DECF9CEF980F913A40F4682F8091110116
:10322000909112010E947025D8CF90E2980F9830AB
:1032300050F4877091E001C0990F8A95EAF7892FC1
:103240000E942B23CACF9BE5980F933070F4853AE8
:1032500029F0863A31F482E890E005C081E890E0F8
:1032600002C083E890E00C94441798E5980F9731DA
:1032700008F08EC0883A09F445C0893A09F445C07F
:103280008A3A09F445C08B3A09F445C08C3A09F4EE
:1032900045C08B3B09F445C08C3B09F445C08D3AD1
:1032A00009F445C0803B09F445C08E3A09F445C095
:1032B0008F3A09F445C0813B09F445C0823B09F4CB
:1032C00045C0833B09F445C0843B09F445C0853BB8
:1032D00009F445C0863B09F445C0873B09F445C065
:1032E000883B09F445C0893B09F445C08D3B09F48E
:1032F00045C08E3B09F445C08A3B09F045C08AE2CF
:1033000092E044C082EE90E041C089EE90E03EC081
:103310008AEE90E03BC085EB90E038C086EB90E011
:1033200035C083EB90E032C084EB90E02FC087EB98
:1033300090E02CC08CEC90E029C08DEC90E026C091
:1033400083E891E023C08AE891E020C082E991E01F
:103350001DC084E991E01AC081E292E017C083E2C7
:1033600092E014C084E292E011C085E292E00EC0C7
:1033700086E292E00BC087E292E008C08FE690E020
:1033800005C080E790E002C080E090E00C945A17FE
:10339000803F20F00E943B270C9428280895882322
:1033A00009F464C0823879F40E94D81681FF5EC0A7
:1033B00069E380911101909112010E9470250E9491
:1033C000742369E310C08338B1F40E94D81680FFDB
:1033D0004DC063E580911101909112010E9470250A
:1033E0000E94742363E580911101909112010E9463
:1033F0007B250C947423843879F40E94D81682FFBC
:1034000035C067E480911101909112010E947025EE
:103410000E94742367E4E7CF9CEF980F913A10F471
:10342000682FE1CF90E2980F983050F4877091E0C8
:1034300001C0990F8A95EAF7892F0E943123D9CFCD
:103440009BE5980F933020F480E090E00C944417B3
:1034500098E5980F973120F480E090E00C945A178B
:10346000803F20F00E94A3270C9428280895CF9332
:10347000C82F0E94B118C93349F42FEF83EC99E0AB
:10348000215080409040E1F700C000008C2FCF9188
:103490000C94CF19882321F00E942B230C947423C1
:1034A0000895882321F00E9431230C9474230895F9
:1034B0008F929F92BF92CF92DF92EF92FF920F93E3
:1034C0001F93CF93DF9300D0CDB7DEB74C01562FBB
:1034D000472FFC01B580B2949FE0B922E280EE2034
:1034E00031F079836A830E9448235A814981498354
:1034F0005A830E94212349815A81882389F0EE2032
:1035000079F080E2850F883058F082E00E94BF2376
:103510000E942123FF24F394F82649815A8101C097
:10352000F12CC42EC2948FE0C822D12CF601E859A8
:10353000FF4F0C94D032842F807F142F1F7088236C
:1035400011F01295107FEE20C1F0112309F4D7C1BC
:1035500080E2850F883010F0511105C0812F5A8309
:103560000E942B2304C0812F5A830E943B235A813F
:103570005A830E9474235A81C2C1852F5A830E94A4
:10358000CF195A81112309F404C280E2850F8830D3
:1035900010F0511104C0812F0E94312303C0812FEC
:1035A0000E9441230E947423F4C1842F807F142F32
:1035B0001F70803211F01295107F552319F0513091
:1035C000D9F026C0EE2079F0BB2049F0F1E0BF121F
:1035D00006C00E945B23812B0E946123DAC10E94F6
:1035E0005B23812B40C1BB2021F021E0B21609F4FE
:1035F000D0C10E946A233CC1EE2029F085E08B15E2
:1036000008F4C7C12FC194E09B1508F4C2C130C1B2
:10361000EE2051F0BB2009F425C1F401858180FF23
:103620006EC18F7085831EC1BB2009F421C178C192
:10363000842F86958695837090E0009719F0019706
:1036400061F0A7C1EE2021F0852F942F937002C066
:1036500080E090E00E944417ACC1EE2021F0852F5D
:10366000942F937002C080E090E00E945A17A1C18D
:10367000EE20F9F0553F51F0563F71F0543FA9F458
:103680008091A9029091AA0281600BC08091A90249
:103690009091AA02826005C08091A9029091AA022D
:1036A00084609093AA028093A902852F0E943B27F1
:1036B00022C0553F51F0563F91F0543FC9F48091DC
:1036C000A9029091AA028E7F05C08091A9029091D3
:1036D000AA028D7F9093AA028093A90209C020912B
:1036E000A9023091AA022B7F3093AA022093A9024B
:1036F000852F0E94A3270E9428285BC1842F8370F6
:1037000009F04AC0E11051C1E52FE295E695E77056
:10371000EE0FEE0F652F6F70862F90E0A0E0B0E007
:103720000E2E04C0880F991FAA1FBB1F0A94D2F740
:1037300054FF10C00FE010E020E030E004C0000FA4
:10374000111F221F331FEA95D2F70095109520957F
:10375000309503C000E010E098014695469543700F
:1037600050E0BC01CD01602B712B822B932B42309A
:10377000510561F04330510561F04130510519F0B8
:103780000E947D2112C10E946B210FC10E948F21D6
:103790000CC10E94692109C1EE2019F0842F8170AB
:1037A00001C08695882309F400C1E52FE295E695CE
:1037B000E770EE0FEE0F652F6F70862F90E0A0E0A0
:1037C000B0E00E2E04C0880F991FAA1FBB1F0A94D9
:1037D000D2F754FF10C00FE010E020E030E004C04A
:1037E000000F111F221F331FEA95D2F70095109585
:1037F0002095309503C000E010E09801469546956D
:10380000437050E0BC01CD01602B712B822B932BB8
:103810004230510561F04330510561F041305105AE
:1038200019F00E942A22C1C00E941822BEC00E9424
:103830003C22BBC00E94A321B8C0052F10E0F801B4
:10384000E05EF109E531F10508F055C0E858FF4F99
:103850000C94D032152F1F70842F8F71EE2031F011
:103860000E94C321812F0E944A1A93C00E94DE2128
:10387000812F0E94511A8DC0EE2049F0F4E0FB1513
:1038800008F487C0842F8F710E94FD2182C025E03B
:103890002B1508F47EC0F6CFEE2039F0842F8F71FF
:1038A0000E94C32176C0EE20C9F3842F8F710E943D
:1038B000DE216FC0EE2029F0842F8F710E94B42189
:1038C00068C00E94AF2165C0EE2051F0142F1F7117
:1038D000812F0E94C32163E0812F0E94AA2359C037
:1038E00081E00E94BF2381E08B1508F052C082E086
:1038F0000E94BF234EC0EE2031F0BB2079F2852F0D
:103900000E94B11846C0BB2081F2593349F49FEFA1
:10391000E3ECF9E09150E040F040E1F700C0000036
:10392000852F0E94CF1935C04F70652FC4010E94AA
:10393000950A0E94D7203DC0E1103BC04F7050E077
:1039400042305105B1F04CF44115510579F0413048
:103950005105F9F40E94A2292CC04430510579F098
:103960005CF045305105A9F480E00AC00E9473293B
:1039700020C00E940C2A1DC00E94282A1AC085E07F
:103980000E94602A16C04F70652FC4010E94980AD9
:1039900010C028E0C216D10441F05CF09AE0C91AC8
:1039A000D108E2E0CE16D10420F40E94D8160E947D
:1039B0004A08FF20F1F00E941D2380FD1AC0F40187
:1039C00012820E9417230E94C321C4010E94071D76
:1039D0000E9417230F900F90DF91CF911F910F91AD
:1039E000FF90EF90DF90CF90BF909F908F900C94BE
:1039F000DE210F900F90DF91CF911F910F91FF90DB
:103A0000EF90DF90CF90BF909F908F9008950F938D
:103A10001F93CF93DF93EC01288139818B819C81A7
:103A2000892B31F03F3F11F080E003C02F3FE1F7D9
:103A300081E0811113C0CE010E945C08882371F0DF
:103A4000688179818A810E94F4228C010E944E2231
:103A50000E946821B801CE010E94581ADF91CF91CF
:103A60001F910F9108950E9448230E9458230E949D
:103A700074230E944A290E94282880E090E00E9436
:103A8000441780E090E00C945A17809111019091B6
:103A900012010E9486250C94331D0E9438230C9439
:103AA000451DE92FE295EF70F0E03297EE30F10519
:103AB000B8F4E357FF4F0C94D032803F59F018F41C
:103AC000803E70F407C0843F59F404C0803E10F07B
:103AD000813F31F481E0089593FB882780F90895B0
:103AE00080E008950E94E9220E94511D0895CF931D
:103AF000DF9300D000D01F92CDB7DEB70F900F90AC
:103B00000F900F900F90DF91CF910895CF93DF9397
:103B100000D000D000D0CDB7DEB726960FB6F8940F
:103B2000DEBF0FBECDBFDF91CF9108951F93CF931E
:103B3000DF93C091AB0116E08091AC01C81799F0FA
:103B4000D0E01C9FF0011D9FF00D1124E355FE4FA6
:103B50004081518162817381848195810E94861D9B
:103B60002196C770E9CFDF91CF911F9108954091C1
:103B7000DD015091DE016091DF017091E0018091E3
:103B8000E1019091E2010C94861DCF938091E201B6
:103B900082958F7009F05FC08091DF01882309F45E
:103BA0005AC02091AB01A091AC016091DD017091F0
:103BB000DE018091E0019091E10131E06F3F09F079
:103BC00030E0B32FC6E02A1709F445C0009721F072
:103BD0007F3F21F44B2F03C041E001C040E030E0C3
:103BE00040FD35C0C29FF001C39FF00D1124E35585
:103BF000FE4F418174132BC04081641328C0428161
:103C0000411125C0438154814817590710F4415090
:103C10005109481B590B483C5105C8F48091E201F9
:103C20008F7080618093E20186E0829FF001839F24
:103C3000F00D1124EE54FE4F80818F7080618083DF
:103C40008DED91E00E94071DCF910C94961D2F5F82
:103C50003F4F2770B8CFCF910895CF92DF92EF9268
:103C6000FF920F931F93CF93DF93CDB7DEB7629789
:103C70000FB6F894DEBF0FBECDBF8C0185E0F80112
:103C8000DE011D9601900D928A95E1F7D8014C91C5
:103C900011965C91119712966C9112971396ED9074
:103CA000FC9014977091DD01E091DE012091E0011C
:103CB0003091E1012115310531F0EF3F31F481E020
:103CC0007F3F19F403C081E001C080E0B82FB170DC
:103CD000CB2E80FD6BC1D090DF01DD2009F4F5C053
:103CE000F091E201E216F30638F0C701821B930B54
:103CF000883C910548F09DC0209530952E0D3F1DC4
:103D0000283C310508F095C08F2F807F09F052C004
:103D1000E51314C0741312C0D62E61110FC0FF70CA
:103D2000F061F093E2010E94B71D8DED91E00E94D9
:103D3000071D8091E201F80185837CC1EF2831F0F5
:103D40005F3F31F481E04F3F19F403C081E001C0CF
:103D500080E080FD03C081E0862701C080E0F82F6D
:103D6000F170FF2E80FF1CC08091AB012091AC014F
:103D700036E0821709F438C190E0389FF001399F8E
:103D8000F00D1124E355FE4F7181571306C0708169
:103D9000471303C07281671303C001968770E9CF90
:103DA000D62E662309F446C18091E201816080939A
:103DB000E20155C0E51308C0741306C0611104C0C8
:103DC000D8011596FC93AEC04D875E878D859E8584
:103DD0006A8B0E94721D6A89882329F1D62E662378
:103DE00011F12091E201822F82958F7090E002976D
:103DF0000CF462C08091DD019091DE0198878F8381
:103E00001986FB86EA862C87CE01079653C0E517F4
:103E100041F14D875E878D859E856A8B0E94721D5C
:103E20006A89811130C0C8010E94071DDD24D39426
:103E300001C18F2F807F59F77E2DF98AE88A898901
:103E40000E94771D8DED91E00E94071DEDEDF1E0E0
:103E500086E0DF011D928A95E9F70E94B71DD12CFB
:103E6000E9C07413D6CF6111D4CFD8011596FC9355
:103E7000C8010E94071DEDEDF1E086E0DF011D9213
:103E80008A95E9F7D7C0D62E662369F22091E20120
:103E9000822F82958F7090E0029774F08091DD01FF
:103EA0009091DE019A8389831B82FD82EC822E83AE
:103EB000CE0101960E94071D86E0F801ADEDB1E04C
:103EC00001900D928A95E1F78AC0E216F30628F078
:103ED000C701821B930B9C0104C0209530952E0DC9
:103EE0003F1D283C310508F053C0D62E662309F447
:103EF0009ACFE5132CC074132AC08091E20180FD93
:103F00001DC0982F92959F70C9F0D80115968C937B
:103F100015979F3039F09F5F9295907F8F70892B16
:103F200015968C93C8010E94071D86E0F801ADED3F
:103F3000B1E001900D928A95E1F753C086E0F80157
:103F4000ADEDB1E001900D928A95E1F773C04D8718
:103F50005E878D859E850E94721D882381F096E084
:103F6000F801ADEDB1E001900D929A95E1F78A8BE1
:103F70000E94C51D0E94B71D8A89D82E5BC0809102
:103F8000E20181608093E201C8010E94071D52C0D6
:103F90007E2DF98AE88A89890E94771DEDEDF1E08E
:103FA00086E0DF011D928A95E9F71BC0662309F4BC
:103FB0003ACF4D875E878D859E850E94721DD82ED3
:103FC000882309F430CF86E0F801ADEDB1E001902F
:103FD0000D928A95E1F78DED91E00E94AB180E9459
:103FE000C51D0E94B71D26C04D875E878D859E85A5
:103FF0000E94E922292F22952F7030E022303105CE
:104000002CF49F7041F0811106C00CC024303105A2
:104010002CF49F7049F4805E883020F0C8010E9423
:10402000071DCF2CDC2C06C0D80115969C91907FE3
:1040300091F7F8CF8D2D62960FB6F894DEBF0FBEC4
:10404000CDBFDF91CF911F910F91FF90EF90DF9047
:10405000CF9008951F93CF93DF93CDB7DEB72C9702
:104060000FB6F894DEBF0FBECDBF4F835887698768
:104070007A878B879C87CE0107960E942D1E882306
:10408000C1F02F8138858A859B85892B31F03F3F90
:1040900011F080E003C02F3FE1F781E0811147C0BC
:1040A0004F81588569857A858B859C850E94861D00
:1040B0003EC086E0FE013796DE01119601900D921A
:1040C0008A95E1F7FF81E8854A855B8541155105B1
:1040D00031F0EF3F31F481E0FF3F19F403C081E09C
:1040E00001C080E080FD23C02091AC0130E0C90117
:1040F0000196877099276091AB0170E0861797074A
:10410000F1F1F983EA835D834C8396E0929FD001BD
:10411000939FB00D1124A355BE4FFE01319601901F
:104120000D929A95E1F78093AC010E94961D16E0DE
:104130008091AB019091AC01891779F1189FC00172
:10414000112483559E4F0E942D1E882331F1E0914A
:10415000AB011E9FF0011124E355FE4F40815181B8
:1041600062817381848195810E94861D8091AB015B
:1041700090E00196877099278093AB01D9CF0E9478
:104180004D1D1092AC011092AB01EDEDF1E086E017
:10419000DF011D928A95E9F7CACF2C960FB6F894E5
:1041A000DEBF0FBECDBFDF91CF911F910895EF927B
:1041B000FF920F931F93CF93DF939C01009709F415
:1041C00071C0F12CEE24E394E9012196F901849168
:1041D000843740F4843008F056C0813081F082305A
:1041E00021F160C0853709F449C0C0F19CE7980F00
:1041F000903708F057C08F770E94CF1946C08901C9
:104200000E5F1F4FFE01849190E2980F983050F49A
:104210008770FE2D01C0FF0F8A95EAF78F2F0E944D
:104220004B2315C00E94B11814C089010E5F1F4FA7
:10423000FE01849190E2980F983068F48770FE2D0B
:1042400001C0FF0F8A95EAF78F2F0E9451230E9429
:104250007423E8011AC00E94CF19FBCF2E5F3F4F95
:10426000FE01C491CC2341F08FE99FE00197F1F763
:1042700000C00000C150F6CFE90107C0FE01F49074
:10428000E901229602C00E94B1188F2D882341F0C7
:10429000EFE9FFE03197F1F700C000008150F6CF61
:1042A0009E0192CFDF91CF911F910F91FF90EF90E0
:1042B000089508950C9459210E945A21609319027F
:1042C00070931A0280931B0290931C020C94331D6E
:1042D00008950C945C210F931F9300911902109183
:1042E0001A0220911B0230911C02602B712B822B31
:1042F000932B1F910F910C945C210F931F930091AE
:10430000190210911A0220911B0230911C026023A5
:104310007123822393231F910F910C945C210F939F
:104320001F930091190210911A0220911B023091E3
:104330001C0260277127822793271F910F910C94ED
:104340005C210C94B0060E94A12160931502709329
:10435000160280931702909318020C94331D60E0AC
:1043600070E0CB010C94A32141E050E060E070E0EC
:1043700004C0440F551F661F771F8A95D2F7CB01E3
:10438000BA010C94A32141E050E060E070E004C069
:10439000440F551F661F771F8A95D2F7809115022B
:1043A00090911602A0911702B0911802482B592B38
:1043B0006A2B7B2BCB01BA010C94A32141E050E086
:1043C00060E070E004C0440F551F661F771F8A9598
:1043D000D2F7409550956095709580911502909117
:1043E0001602A0911702B0911802482359236A239C
:1043F0007B23CB01BA010C94A32141E050E060E0A3
:1044000070E004C0440F551F661F771F8A95D2F7CE
:104410008091150290911602A0911702B091180296
:10442000482759276A277B27CB01BA010C94A3217F
:104430000F931F93009115021091160220911702FD
:1044400030911802602B712B822B932B1F910F91AF
:104450000C94A3210F931F93009115021091160243
:104460002091170230911802602371238223932335
:104470001F910F910C94A3210F931F93009115028C
:1044800010911602209117023091180260277127AF
:10449000822793271F910F910C94A32108952FE059
:1044A000929F800D1124482F46954695469587701A
:1044B000B1E001C0BB0F8A95EAF785E0489FA001F3
:1044C00011244D515E4F80E090E070E0FA01E80F5A
:1044D000F91FA0819B01082E02C0369527950A94EA
:1044E000E2F72170332721952A272B232A272083BF
:1044F00001968530910551F708952FE0929F800D28
:104500001124682F669566956695982F977085E0BB
:10451000689FB00111246D517E4F40E050E080E073
:10452000FB01E40FF51F208130E0092E02C0369513
:1045300027950A94E2F721703327042E01C0220F39
:104540000A94EAF7822B4F5F5F4F4530510541F7E0
:104550000895CF92DF92EF92FF920F931F93CF9324
:10456000DF93EC01C0901902D0901A02E0901B0278
:10457000F0901C028091150290911602A0911702F2
:10458000B0911802C82AD92AEA2AFB2A0FE110E0C2
:10459000B701A601002E04C07695679557954795FB
:1045A0000A94D2F740FD05C00150110988F780E058
:1045B00007C0BE01802F0E94B30A0197A9F3802F84
:1045C000DF91CF911F910F91FF90EF90DF90CF90EF
:1045D0000895CF93DF93EC010E94A922BE010E94AF
:1045E000B30ADF91CF9108951F93CF93DF93EB012F
:1045F0009091AA01992321F0CB010E94E92213C0D6
:10460000882349F0CB010E94A922182F682FCE01E0
:104610000E944F2204C0CB010E947D22182FBE01B0
:10462000812F0E94B30ADF91CF911F91089580914D
:104630001D02859585958595089580911D02877049
:10464000089590911D02977081E009F480E008952B
:1046500080914102089590914102982B90934102DC
:104660000895809590914102982390934102089576
:1046700010924102089590914002982B909340022D
:104680000895809590914002982390934002089558
:1046900010924002089590913F02982B90933F0210
:1046A0000895809590913F02982390933F0208953A
:1046B00010923F02089580911E02089508950C946F
:1046C0005E2390911E02981721F080931E020C9495
:1046D0005F23089580911E02882329F010921E0204
:1046E00080E00C945F230895E0911101F091120194
:1046F000809141028083E0911101F091120180814B
:1047000090914002892B8083E0911101F091120178
:10471000808190913F02892B808390911E02992382
:1047200081F0E0911101F09112018081892B808349
:1047300080911101909112010E94E12481110E9447
:104740006A2380911101909112010C94E41608954E
:104750000C94A72398E0899F90011124622B609309
:104760001D020E94C32180911D0285958595859526
:104770000C94A82310921D0280E00C94A823409171
:104780001D028095842380931D02982F977079F4E1
:1047900050E0282F332727FD30954217530739F073
:1047A0008595859585950E94DE210C94BA23089500
:1047B00090936D0180936C010895CF92DF92EF92F8
:1047C000FF920F931F936C01EE24FF24C114D104B8
:1047D000E104F10421F46B017C0180E001C080E17F
:1047E00033272F2D1E2D0D2D011511052105310506
:1047F00019F0885F6801790197018601A4E0369578
:10480000279517950795AA95D1F70115110521054B
:10481000310519F08C5F6801790197018601F2E09A
:104820003695279517950795FA95D1F70115110536
:104830002105310519F08E5F68017901B701A601E4
:104840007695679557954795452B462B472B09F04D
:104850008F5F1F910F91FF90EF90DF90CF900895A1
:104860008295982F9C7C96959695837344E0849FBF
:1048700090011124922B892F8A7A86959575990F2C
:10488000892B08951F93CF93DF931F92CDB7DEB787
:1048900099830E943024182F9981892F0E943024F7
:1048A000212F30E0322F2227A901482BCA010F9077
:1048B000DF91CF911F91089580E090E00E94FC323B
:1048C00021E08D3E9E4F09F020E0822F089582E086
:1048D00090E00C94EE3283E090E00C94EE3284E0B1
:1048E00090E00C94EE32682F84E090E00C94023358
:1048F00086E090E00C94EE32682F86E090E00C9415
:104900000233AB01BC018FE090E00C941433AB0197
:10491000BC0183E190E00C94143360E070E0CB01C3
:104920000C94872460E070E0CB010E9481240C94F9
:104930008D246DEE7EEF80E090E00E94203360E0F9
:1049400082E090E00E94023360E083E090E00E9409
:1049500002331092190210921A0210921B02109246
:104960001C0260E084E090E00E94023360E085E099
:1049700090E00E94023360E086E090E00E94023303
:104980006FEF87E090E00E94023340E050E0BA0110
:1049900088E090E00E94143360E08DE090E00E9497
:1049A000023340E050E0BA0188E190E00E94143305
:1049B00060E087E190E00E9402330C9492240C9412
:1049C0009924029620912301211102C026E005C0FE
:1049D0002091AF0227FFFACF2EE1FC0180E02150A9
:1049E00028F091919923D9F38F5FF9CF089520E0B2
:1049F00030E04FEFFC01E20FF31F5281561799F0A0
:104A00004F3F19F4511101C0422F2F5F3F4F263005
:104A1000310581F74F3F39F0FC01E40FF11D47FDEF
:104A2000FA9562830895089520E030E0FC01E20FDA
:104A3000F31F4281461301C012822F5F3F4F263081
:104A40003105A1F70895262F2695269526952E3116
:104A500078F4FC01E20FF11D677021E030E0062ED2
:104A600001C0220F0A94EAF78281822B8283089583
:104A70008091420280FF0CC01F926F938EE398E0FA
:104A80009F938F930E946E060F900F900F900F9040
:104A90000895262F2695269526952E3180F4FC0123
:104AA000E20FF11D677021E030E0062E01C0220FF9
:104AB0000A94EAF720958281282322830895809121
:104AC000420280FF0CC01F926F9380E298E09F9398
:104AD0008F930E946E060F900F900F900F90089585
:104AE00020912301222329F02091AF0227FD0C946D
:104AF00023250C94F72420912301222329F02091CF
:104B0000AF0227FD0C9449250C9414252091230114
:104B1000FC013296222331F08091AF0287FF02C060
:104B20008EE101C086E0DF011D928A95E9F70895C4
:104B300008950C9498250E9499258091B60284309E
:104B400049F11092430220E488E190E00FB6F89416
:104B5000A895809360000FBE2093600080E00E94C3
:104B6000D30780E00E944A080E94992583B7817F7D
:104B7000846083BF83B7816083BF7894889583B74F
:104B80008E7F83BF88E10FB6F89480936000109207
:104B900060000FBE089508950895CF930E94CB251D
:104BA0000E94DE0D0E94CC25C0E08C2F0E94440D97
:104BB000892B29F4CF5FC530C1F780E001C081E0C7
:104BC000CF91089508950C94E2250E944D1D0E94F6
:104BD00056290E94D8160E944A080C94E3251F9279
:104BE0000F920FB60F9211248F939F93AF93BF93A1
:104BF00080914302811113C08091AB029091AC026D
:104C0000A091AD02B091AE024196A11DB11D80935D
:104C1000AB029093AC02A093AD02B093AE02BF91F1
:104C2000AF919F918F910F900FBE0F901F9018958D
:104C300082E084BD93E095BD9AEF97BD80936E00AE
:104C400008952FB7F8948091AB029091AC02A09197
:104C5000AD02B091AE022FBF0895CF92DF92EF92D6
:104C6000FF920F931F932FB7F8944091AB0250918E
:104C7000AC026091AD027091AE022FBF6A017B0160
:104C8000EE24FF248C0120E030E0C016D106E206BD
:104C9000F30610F441505109481B590BCA011F91EA
:104CA0000F91FF90EF90DF90CF90089578941F922E
:104CB0000F920FB60F9211248F939F93AF93BF93D0
:104CC0008091AB029091AC02A091AD02B091AE0286
:104CD0000196A11DB11D8093AB029093AC02A093ED
:104CE000AD02B093AE02BF91AF919F918F910F90A3
:104CF0000FBE0F901F90189581E08093E00080E236
:104D00008093D8001092C9008FE19EE40197F1F7DB
:104D100000C0000087E090EBDC018093BF0290931D
:104D2000C002A093C102B093C2022CE088E190E0DF
:104D30000FB6F894A895809360000FBE2093600092
:104D4000FFCF0E945C24811102C00E94DF240E94D8
:104D50006724809342020E946F2490E09093B002F7
:104D60008093AF020E946B24682F70E080E090E097
:104D70000C9469218091470280FF0BC0609116015D
:104D800085E0689FB00111247595679575956795C5
:104D90002AC081FF09C06091160185E0689FB001BB
:104DA0001124759567951FC082FF07C06091160199
:104DB00085E0689FB001112416C04091460244234B
:104DC000C9F060911501461788F72091160185E01A
:104DD000289F90011124429FC001439F900D1124F0
:104DE00070E00E949A326038710540F461157105D7
:104DF00039F002C065E070E0862F08958FE70895CE
:104E000081E008958091470280FF08C060911401FD
:104E100070E0759567957595679521C081FF06C00F
:104E20006091140170E07595679519C082FF04C008
:104E30006091140170E010C0809146028823C1F097
:104E4000609113018617A0F790911401989FC001FB
:104E5000112470E00E949A326038710528F46115BF
:104E6000710521F0862F08958FE7089581E0089558
:104E700061E070E0F4CF803F21F40E94BA26819572
:104E800004C0813F29F40E94BA2680934B02089502
:104E9000823F21F40E94BA26819504C0833F29F401
:104EA0000E94BA2680934A020895893F19F40E940D
:104EB000022705C08A3F31F40E9402278195809322
:104EC0004C0208958B3F21F40E940227819504C073
:104ED0008C3F29F40E94022780934D020895843F5D
:104EE00021F480914902816017C0853F21F48091AF
:104EF0004902826011C0863F21F48091490284609A
:104F00000BC0873F21F480914902886005C0883F2B
:104F100031F48091490280618093490208958D3F68
:104F200021F48091470281600BC08E3F21F4809173
:104F30004702826005C08F3F29F480914702846058
:104F4000809347020895803F39F480914B0287FF98
:104F50006CC010924B0269C0813F29F480914B02D2
:104F60001816BCF362C090914A02823F29F497FF61
:104F70005CC010924A0259C0833F19F41916CCF351
:104F800054C0893F41F480914C0218160CF04DC07A
:104F900010924C024AC08A3F29F480914C0287FF4C
:104FA00044C0F6CF8B3F39F480914D0287FF3DC05E
:104FB00010924D023AC08C3F29F480914D02181690
:104FC000BCF333C0843F21F4809149028E7F17C027
:104FD000853F21F4809149028D7F11C0863F21F4E5
:104FE000809149028B7F0BC0873F21F48091490259
:104FF000877F05C0883F31F4809149028F7E80937E
:10500000490213C08D3F21F4809147028E7F0BC06F
:105010008E3F21F4809147028D7F05C08F3F29F498
:10502000809147028B7F8093470280914A028111D1
:105030000EC080914B0281110AC080914C028111F7
:1050400006C080914D02811102C01092460208955F
:105050008091420283FF7EC083E898E00E94D505DC
:10506000809149021F928F938EE798E09F938F93D0
:105070000E946E068CE798E00E94D50520914A02B6
:10508000822F992787FD90959F932F9389E798E02A
:105090009F938F930E946E0687E798E00E94D50544
:1050A00020914B02822F992787FD90959F932F93F4
:1050B00084E798E09F938F930E946E0682E798E0C2
:1050C0000E94D50520914C02822F992787FD90954B
:1050D0009F932F938FE698E09F938F930E946E0685
:1050E0008DE698E00E94D50520914D02822F9927E8
:1050F00087FD90959F932F938AE698E09F938F93D7
:105100000E946E0687E698E00E94D50580914602CF
:105110001F928F9384E698E09F938F930E946E0670
:1051200082E698E00E94D505809147021F928F93F6
:105130008FE598E09F938F930E946E068CE598E030
:105140000E94D5058DB79EB74C960FB6F8949EBFBA
:105150000FBE8DBF88E492E00E9436170E94212680
:10516000909345028093440208951F93CF93DF9359
:1051700080914402909145020E942D264091460262
:10518000442321F02091170130E006C0209118013E
:105190005AE0259F900111248217930708F476C0E6
:1051A00080914A0210914B02D0914C02C0914D0265
:1051B000811107C0111105C0D11103C0CC2309F41E
:1051C00065C04F3F19F04F5F40934602181624F414
:1051D0000E94BA2680934A0280914A0287FF05C046
:1051E0000E94BA26819580934A02111624F40E94E7
:1051F000BA2680934B0280914B0287FF05C00E9424
:10520000BA26819580934B0220914A022223D9F03D
:1052100040914B024423B9F055EB25039001112432
:10522000332319F030934A0203C081E080934A028D
:1052300025EB4203C001112490934B02911103C04E
:1052400081E080934B021D1624F40E940227809374
:105250004C0280914C0287FF05C00E940227819575
:1052600080934C021C1624F40E94022780934D0266
:1052700080914D0287FF05C00E940227819580938F
:105280004D02DF91CF911F910C942828DF91CF918F
:105290001F910895E8E4F2E086E0DF011D928A950F
:1052A000E9F7109246021092470208950E945C248A
:1052B000811102C00E94DF240E9478248093B102F1
:1052C000282F269530E02630310524F081708A6041
:1052D0008093B1028091B10280FF02C0869501C027
:1052E00080E00C94D3072091B102322F3695832FA2
:1052F00090E0059744F491E0930F990F822F81700D
:10530000892B8093B1028091B10281608093B102B8
:105310000E947C248091420280FF0FC08091B102E4
:1053200086951F928F938DE099E09F938F930E94B3
:105330006E060F900F900F900F908091B10286959E
:105340000C94D3078091B102982F969591F09158C3
:10535000990F8170892B8093B1028E7F91E009F4BF
:1053600090E08091B10290FB80F98093B1020E949D
:105370007C248091420280FF0FC08091B10286950B
:105380001F928F9385EF98E09F938F930E946E06F4
:105390000F900F900F900F908091B10286950C9412
:1053A000D3078091B10280FD1DC081608093B1025E
:1053B000813019F483E08093B1028091B1020E94A0
:1053C0007C248091420280FF08C08DEC98E09F937E
:1053D0008F930E946E060F900F908091B102869578
:1053E0000C94D30708958091B10280FF14C08E7F82
:1053F0008093B1020E947C248091420280FF08C009
:105400008AEB98E09F938F930E946E060F900F9007
:1054100080E00C94D3070895CF93C091B102C1707E
:105420008091420280FF0CC01F92CF938FED98E0D5
:105430009F938F930E946E060F900F900F900F9086
:10544000CC2319F0CF910C94F329CF910C94D1294E
:105450003091B102232F26952F5F2F77822F90E076
:10546000317006972CF4220F232B2093B10202C037
:105470003093B1028091B1028E7F91E009F490E007
:105480008091B10290FB80F98093B1020E947C244C
:105490008091420280FF0FC08091B10286951F92D9
:1054A0008F9386EA98E09F938F930E946E060F90E9
:1054B0000F900F900F908091B10286950C94D307B6
:1054C000863008F085E0880F9091B1029170982B9A
:1054D0009093B1029E7F21E009F420E08091B10217
:1054E00020FB80F98093B1020E947C248091B1025C
:1054F00086950C94D3078091710208959FB7F89414
:10550000109250029FBF9091B602943009F058C09B
:105510009091E9009F702091EC0020FF02C020E8EC
:1055200001C020E0292B93E09093E9009091EB00DB
:1055300090FF43C09091EE0097FF3FC090914E02C4
:10554000992321F09091E80095FF37C010924E0208
:1055500096E03091E80035FD15C03091B602343048
:1055600061F53091EB0035FD28C0915021F481E0C8
:1055700080934E0222C0EFE9FFE03197F1F700C0BF
:105580000000E7CF8093F1008091E80085FD0AC01C
:105590008091E80080FFFCCF8091E8008E778093B7
:1055A000E80006C08FB7F89491E0909350028FBF47
:1055B0002F702093E90080E008952F702093E90078
:1055C0008FEF08950F931F93CF93DF9300D01F9217
:1055D000CDB7DEB78C010E94B02D823011F084303F
:1055E00021F584E089831B830A8382E08093E900AC
:1055F0008FEF9091E800815095FD06C095ED9A954A
:10560000F1F700008111F5CF8091E80085FF0DC012
:1056100040E050E063E070E0CE0101960E94CD2DA5
:105620008091E8008E778093E8000F900F900F90A4
:10563000DF91CF911F910F910895CF93DF9300D009
:105640001F92CDB7DEB72091B602243031F523E0AA
:105650002983805891099B838A8382E08093E900A3
:105660008FEF9091E800815095FD06C095ED9A95D9
:10567000F1F700008111F5CF8091E80085FF0DC0A2
:1056800040E050E063E070E0CE0101960E94CD2D35
:105690008091E8008E778093E8000F900F900F9034
:1056A000DF91CF910895CF93DF93EC010E94B02D4D
:1056B000823011F08430F9F482E08093E9008FEFBA
:1056C0009091E800815095FD06C095ED9A95F1F70F
:1056D00000008111F5CF8091E80085FF0CC040E00B
:1056E00050E066E070E0CE010E94CD2D8091E80090
:1056F0008E778093E800DF91CF910895CF93DF9369
:10570000EC010E94B02D823011F08430D9F58091E7
:105710002301811103C068E081E006C08091AF02DF
:1057200087FFF9CF60E282E08093E9008FEF9091EC
:10573000E800815095FD06C095ED9A95F1F70000BF
:105740008111F5CF8091E80085FF1CC08091230175
:10575000811105C040E050E068E070E003C070E0F7
:1057600040E050E0CE010E94CD2D8091E8008E7780
:105770008093E80080E2FE01A1E5B2E001900D9285
:105780008A95E1F7DF91CF9108958AE499E00E942C
:10579000D5058091B502811109C00E945F2F0E943A
:1057A000BC2F8091E20084608093E200089586E43B
:1057B00099E00E94D5051092B502089582E499E01F
:1057C0000C94D5058EE399E00C94D5058AE399E015
:1057D0000E94D5050C94E52580914F028F5F809340
:1057E0004F0262E30E947A32911135C010924F024B
:1057F00080915002882379F18091B602843049F576
:105800008091E9008F709091EC0090FF02C090E8C9
:1058100001C090E0982B83E08093E9008091EB0039
:1058200080FF14C08091EE0087FF10C08091E800D7
:1058300085FF03C01092F100F9CF8091E80080FF4E
:1058400005C08091E8008E778093E8009F70909368
:10585000E90010925002089542E061EC81E00E945C
:10586000D92E42E261EC82E00E94D92E42E261EC44
:1058700083E00C94D92E8091B802833009F460C083
:1058800030F4813071F0823009F499C008958A3083
:1058900009F485C08B3009F46BC0893009F0A7C0CA
:1058A00020C08091B702813A09F0A1C08091E80040
:1058B000877F8093E8008091BB029091BC02892B86
:1058C00021F060E080E090E003C060E281E592E0DA
:1058D00070E00E94162E8091E8008B778093E8009C
:1058E00008958091B702813209F081C08091BB0296
:1058F0009091BC02029708F07AC08091E800877FFF
:105900008093E8008091E80082FD05C08091B60296
:105910008111F8CF6CC02091F3008091F20090E0EB
:10592000922B029729F48091F1008B7F813021F432
:105930008091F100809371028091E8008B7753C0D1
:105940008091B702813A09F052C08091BB029091D8
:10595000BC02892B09F04BC08091E800877F8093BF
:10596000E8008091E80080FFFCCF8091230136C0E1
:105970008091B7028132D9F58091BB029091BC022F
:10598000892BA9F58091E800877F8093E8000E9429
:105990000E2F8091B902809323010C944D1D8091AC
:1059A000B702813221F58091E800877F8093E8007B
:1059B0000E940E2F8091BA02809372020895809106
:1059C000B702813AA1F48091E800877F8093E800D4
:1059D0008091E80080FFFCCF809172028093F100FB
:1059E0008091E8008E778093E8000C940E2F089544
:1059F00084B7877F84BF88E10FB6F89480936000F6
:105A0000109260000FBE80E88093610010926100E8
:105A10000E947E170E945F2F0E94BC2F8091E2009F
:105A200084608093E2008EE79AE20E94D823789403
:105A30000E943E320E94861789E191E00E94D316AF
:105A400089E299E00E94D5058091B602853089F4FB
:105A500085E299E00E94D5050E949B258091B402C1
:105A6000882391F30E94CD25882371F30E94B72DDE
:105A7000EBCF0E94BF170E945815E6CF0C94402D23
:105A8000292F332723303105A9F06CF4213031055B
:105A900009F448C02230310509F049C08BE590E097
:105AA00026E739E048C021323105F9F022323105CC
:105AB00049F13DC099278130910571F02CF4892B73
:105AC000B1F5E2E7F9E00DC08230910541F00397AE
:105AD00071F5EEE4F9E005C0E0E6F9E002C0E4E5C6
