:100000000C948A050C94CE050C94CE050C94CE0568
:100010000C94CE050C94CE050C94CE050C94CE0514
:100020000C94CE050C94CE050C9452300C942431D3
:100030000C9467260C94CE050C94CE050C94CE053A
:100040000C94CE050C94CE050C94CE050C94CE05E4
:100050000C94CE050C94CE260C94CE050C94CE05B3
:100060000C94CE050C94CE050C94CE050C94CE05C4
:100070000C94CE050C94CE050C94CE050C94CE05B4
:100080000C94CE050C94CE050C94CE050C94CE05A4
:100090000C94CE050C94CE050C94CE050C94CE0594
:1000A0000C94CE050C94CE050C94CE05E306EC061C
:1000B000F506FE06070710071907500956095A09E1
:1000C0005D096109650969096D09720976097A098D
:1000D0007E098109850989098D0991099609131BF2
:1000E000131B4D1B4D1B901BB01B411D411DF61BCF
:1000F000411D951C951C0C1D141D411D3B1DA21C72
:10010000A21CA21CA21CA21CA21CA21CA21CA21CFF
:10011000A21CA21CA21CA21CA21CA21CA21CB41CDD
:10012000C41CCB1CD21CDC1CD51DD51DE81DE81D34
:10013000DE1DE81DE81DE81DD51DD51DE41DE81DCB
:10014000E81DE41D8931B0319E32B0319E32F83164
:100150001B329E327132803229001E001F002000A7
:1001600021002200230024002500260027002D0066
:100170002E0000002A002B00000014001A000800C6
:10018000150017001C0018000C00120013002F00AF
:1001900030003100F45C0000040016000700090084
:1001A0000A000B000D000E000F0033003400280081
:1001B0000000E10000001D001B0006001900050002
:1001C00011001000360037000000E5005200380032
:1001D000E000E3000000E200000000002C0000004E
:1001E00000000000F55C0151500051004F00350047
:1001F0003A003B003C003D003E003F004000410013
:10020000420043004400450000004C00005C000038
:10021000FA5C0100010001000100010059005A00D0
:100220005B004B00AA00A90001003900000001009A
:10023000010001000100010001005C005D005E00A2
:100240004E004A004D0000000100000001000100C6
:1002500001000100010001005F006000610000007A
:100260006200F75C4900010001000000010000008D
:100270000000010000000000000001000100F65C29
:10028000F85CF95C44454255473A20646973616201
:100290006C65642E0A0044454255473A20656E61FC
:1002A000626C65642E0A000A002530313662003A1D
:1002B000200025303258000A722F6320303132334B
:1002C0003435363738394142434445460A0072676F
:1002D000626C696768742074696D65722064697303
:1002E00061626C652E0A007267626C6967687420CF
:1002F00074696D657220656E61626C65642E0A00BA
:100300007267626C696768742073657420687376BD
:10031000205B4E4F454550524F4D5D3A2025752C80
:1003200025752C25750A007267626C6967687420F0
:1003300073657420687376205B454550524F4D5D60
:100340003A2025752C25752C25750A007267626C7C
:1003500069676874207261696E626F772073657473
:10036000206873763A2025642C25642C25642C257E
:10037000750A007267626C696768742064697361EA
:10038000626C65205B454550524F4D5D3A20726767
:10039000626C696768745F636F6E6669672E656E0D
:1003A00061626C65203D2025750A007267626C6988
:1003B00067687420656E61626C65205B4E4F4545D1
:1003C00050524F4D5D3A207267626C696768745F86
:1003D000636F6E6669672E656E61626C65203D2095
:1003E00025750A007267626C6967687420656E61C2
:1003F000626C65205B454550524F4D5D3A207267F7
:10040000626C696768745F636F6E6669672E656E9C
:1004100061626C65203D2025750A007267626C6917
:1004200067687420746F67676C65205B4545505240
:100430004F4D5D3A207267626C696768745F636FE5
:100440006E6669672E656E61626C65203D2025755C
:100450000A007267626C69676874206D6F6465205A
:100460005B4E4F454550524F4D5D3A2025750A0071
:100470007267626C69676874206D6F6465205B45A4
:100480004550524F4D5D3A2025750A007267626CE7
:10049000696768745F696E6974207267626C696706
:1004A00068745F636F6E6669672E6D6F6465203D6B
:1004B00020302E2057726974652064656661756C02
:1004C000742076616C75657320746F2045455052B9
:1004D0004F4D2E0A007267626C696768745F696EBF
:1004E0006974206565636F6E666967206973206E45
:1004F0006F7420656E61626C65642E0A00726762BB
:100500006C696768745F696E697420737461727472
:10051000210A007267626C696768745F696E69744A
:100520002063616C6C65642E0A007267626C696797
:1005300068745F636F6E6669672E737065656420AB
:100540003D2025640A007267626C696768745F63A6
:100550006F6E6669672E76616C203D2025640A0007
:100560007267626C696768745F636F6E6669672E35
:10057000736174203D2025640A007267626C6967AC
:1005800068745F636F6E6669672E687565203D20CD
:1005900025640A007267686C696768745F636F6ED0
:1005A0006669672E6D6F6465203D2025640A0072C0
:1005B00067626C696768745F636F6E6669672E65F2
:1005C0006E61626C65203D2025640A007267626C72
:1005D000696768745F636F6E666967206570726FC4
:1005E0006D0A0000047F3F1F643214643214783CAB
:1005F0001E1E140A052223252628292A2C2D2F30D9
:1006000032333536383A3B3D3E4042434547494A0E
:100610004C4E5051535557595A5C5E60626466683F
:10062000696B6D6F71737577797B7D7F818385874A
:10063000898A8C8E90929496989A9C9E9FA1A3A54D
:10064000A7A8AAACAEAFB1B3B4B6B8B9BBBCBEBF75
:10065000C1C2C3C5C6C7C9CACBCCCDCED0D1D2D2F8
:10066000D3D4D5D6D7D7D8D9D9DADADBDBDBDCDC03
:10067000DCDCDCDDDDDDDDDCDCDCDCDCDBDBDBDABB
:10068000DAD9D9D8D7D7D6D5D4D3D2D2D1D0CECD26
:10069000CCCBCAC9C7C6C5C3C2C1BFBEBCBBB9B833
:1006A000B6B4B3B1AFAEACAAA8A7A5A3A19F9E9CB8
:1006B0009A98969492908E8C8A89878583817F7D83
:1006C0007B79777573716F6D6B6968666462605E64
:1006D0005C5A5957555351504E4C4A49474543422D
:1006E000403E3D3B3A3836353332302F2D2C2A29C7
:1006F0002826252322FFAA7F554000000000000085
:1007000000000000010101010101010101020202DA
:1007100002020202020303030303030304040404AA
:10072000040505050505060606060607070707086A
:100730000808080909090A0A0A0B0B0B0C0C0C0D16
:100740000D0D0E0E0E0F0F101010111112121313AB
:100750001414151516161717181819191A1A1B1C20
:100760001C1D1D1E1F1F2021212223232425252679
:10077000272828292A2B2C2C2D2E2F3031313233AB
:100780003435363738393A3B3C3D3E3F40414243B1
:100790004445464748494B4C4D4E4F505253545593
:1007A0005758595A5C5D5E606163646567686A6B3F
:1007B0006C6E6F7172747677797A7C7D7F818284BA
:1007C0008687898B8D8E9092949597999B9D9FA1FA
:1007D000A2A4A6A8AAACAEB0B2B4B6B9BBBDBFC104
:1007E000C3C5C8CACCCED0D3D5D7DADCDEE1E3E6C8
:1007F000E8EAEDEFF2F4F7F9FCFF0A002530325891
:1008000020006B6579626F6172645F7265706F72F0
:10081000743A20000A0025303258006B6579626F07
:100820006172645F7365745F6C65643A200064652F
:100830006C5F6B65795F6269743A2063616E2774DF
:100840002064656C3A20253032580A006164645F88
:100850006B65795F6269743A2063616E2774206109
:1008600064643A20253032580A00290A00257500B0
:100870002F002575005D28002564002000256400F8
:10088000200025640020002564007C0025303258BB
:10089000006D6F7573656B6579205B62746E7C7833
:1008A0002079207620685D287265702F61636C293D
:1008B0003A205B006261636B6C69676874207374D3
:1008C00065703A2025750A006261636B6C69676820
:1008D000742064697361626C650A006261636B6CA9
:1008E0006967687420656E61626C650A00626163A5
:1008F0006B6C6967687420746F67676C653A202554
:10090000750A006261636B6C696768742064656373
:1009100072656173653A2025750A006261636B6CCC
:100920006967687420696E6372656173653A202532
:10093000750A005B735D004B6579626F61726420BC
:1009400073746172742E0A005B575D005B535D0027
:100950005B525D005B445D005B435D00040330005F
:1009600000000A0344005A00360030000000100363
:100970004B0042004400460061006E00730000001E
:100980000403090409025B00030100A0FA09040042
:1009900000010301010009211101000122400007AB
:1009A00005810308000A0904010001030000000991
:1009B000211101000122C0000705820320000A095D
:1009C000040200020300000009211101000122229B
:1009D000000705830320000107050303200001121F
:1009E00001100100000008EDFE6022010001020379
:1009F000010631FF0974A1010975150026FF009554
:100A000020750881020976150026FF0095207508DB
:100A10009102C005010902A10185020901A1000599
:100A20000919012905150025019505750181029512
:100A300001750381010501093009311581257F9573
:100A4000027508810609381581257F950175088191
:100A500006050C0A38021581257F95017508810667
:100A6000C0C005010980A10185031601002603000D
:100A70001A81002A8300751095018100C0050C09B8
:100A800001A1018504160100269C021A01002A9C7E
:100A900002751095018100C005010906A1018505B7
:100AA000050719E029E71500250195087501810260
:100AB0000508190129059505750191029501750330
:100AC00091010507190029EF1500250195F0750121
:100AD0008102C005010906A101050719E029E715F2
:100AE00000250195087501810295017508810105B0
:100AF0000819012905950575019102950175039164
:100B0000010507190029FF150026FF009506750845
:100B10008100C00011241FBECFEFDAE0DEBFCDBFE1
:100B200004B603FE24C08091C6029091C702A09132
:100B3000C802B091C9028730904BA740B04BB9F4BE
:100B40001092C6021092C7021092C8021092C902F7
:100B500014BE84B7877F84BF88E10FB6F894809372
:100B60006000109260000FBEE0E0F8E3099511E02C
:100B7000A0E0B1E0E0E6F7E602C005900D92A237F2
:100B8000B107D9F712E0A2E7B1E001C01D92A63C7F
:100B9000B107E1F70E94702D0C94AE330C94000065
:100BA000FF93EF93E0917201F0917301309709F098
:100BB0000995EF91FF910895FC018591803011F026
:100BC000EFDFFBCF0895FF27E0E230E247FF0CC0E4
:100BD000419597FF09C0EDE26095709580959095DD
:100BE000611D711D811D911D27FF02C0219530E3FC
:100BF00050E2AA27660F771F881F991FAA1FA41704
:100C000010F0A41B63955A95A9F7AA3008F0A95FC4
:100C1000A05DAF93F395611571058105910541F7CD
:100C2000ED3211F4EF93F395F21718F43F93F39527
:100C3000FBCF8F91B5DFFA95E1F70895E991F9912E
:100C40008591803021F0853219F0AADFF9CF08951F
:100C500020E0E89455915532C1F3503311F4689473
:100C600055915A3348F4505390F3220F022E220F1D
:100C7000220F200D250FF4CF0EF421958991999123
:100C8000533619F3533729F1533559F1BC018827ED
:100C90009927E8945C3621F489919991689455914B
:100CA000543639F446EF7EF077FF0DC08FEF9FEF9B
:100CB0000AC055374AE039F0583540E121F0523644
:100CC00042E009F00895FF93EF937DDFEF91FF91EC
:100CD000B7CFFF93EF93FC0181918030B9F360DFD0
:100CE000FBCFFF93EF9368DFF1CFDF93CF93CDB7C7
:100CF000DEB72596A3DFCF91DF9108950C944B07C3
:100D0000229A2A9A08950E9444070C94800681FF33
:100D100002C02A9801C02A9A0C94C108CF93DF938D
:100D2000C82F442351F1611106C0D0E0CE010E94CA
:100D3000C607CE011FC0613071F482EE90E00E94C0
:100D4000C607D0E0CE010E94C607CE010E94DC0794
:100D500082EE90E00FC0623091F483EE90E00E944A
:100D6000C607D0E0CE010E94C607CE010E94DC0774
:100D700083EE90E00E94DC0702C081E001C080E0C9
:100D8000DF91CF9108950F931F93CF93DF938C0141
:100D9000EB0180917601882359F08A81882341F004
:100DA0000C32110509F44EC089E390E00E94F2076D
:100DB000F801E45FFC45E730F10508F043C0EA5A6A
:100DC000FF4F0C9448334091000160E080E40E94A2
:100DD0008E068093000136C04091010162E08FE0F1
:100DE0000E948E06809301012DC04091020161E0B6
:100DF00080E50E948E068093020124C04091030189
:100E000061E082E50E948E06809303011BC0409141
:100E1000040161E081E50E948E068093040112C006
:100E20004091050161E08FE40E948E0680930501E8
:100E300009C08A81882331F08091760191E0892769
:100E40008093760181E0DF91CF911F910F910895FA
:100E5000CF92DF92EF92FF926B017C010E945524AA
:100E6000882331F0813049F444ED6FEF8FEF03C0F8
:100E70004EEB6FEF81E10E94BA12C701B601FF90FD
:100E8000EF90DF90CF9008950E949926909375017E
:100E9000809374010895809106018823A1F08091C8
:100EA0007401909175010E94A5260B9760F0109235
:100EB00006014EEB6FEF81E10E94BA1281E00E94C1
:100EC0000C150C94751508950F931F93CF93DF9312
:100ED0008C01EB019A9581159F4138F510FF03C0F5
:100EE00080EEFB01099511FF03C081EEFE0109951B
:100EF00012FF03C082EEFE01099513FF03C083EECB
:100F0000FE0109950115104180F084EEFE0109955E
:100F100085EEFE01099586EEFE01099587EEFE013C
:100F2000DF91CF911F910F910994DF91CF911F9184
:100F30000F910895877091E001C0990F8A95EAF7A3
:100F4000892F0E94B3230C94EC23877091E001C099
:100F5000990F8A95EAF7892F0E94B3230C94EC230A
:100F6000877091E001C0990F8A95EAF7892F0E9456
:100F7000B9230C94EC23877091E001C0990F8A95F6
:100F8000EAF7892F0E94B9230C94EC23CF93DF93C7
:100F9000EC01805E9109089710F0209719F465EA3A
:100FA00077E002C06AE977E0CE010E9464078C2FE7
:100FB000DF91CF910C942919CF93DF93EC010E941C
:100FC000471ACE01805E9109089710F0209719F416
:100FD0006BEB77E002C060EB77E0CE01DF91CF9161
:100FE0000C946407CF93DF93EC010E94C607CE01F7
:100FF000DF91CF910C94DC0781E008950C94C30637
:101000001F93CF93DF9300D000D01F92CDB7DEB7F0
:1010100049835A832091B10189819A81211112C09B
:10102000662349F00E942123182F682F89819A8115
:101030000E94C72203C00E94F522182F69817A817D
:10104000812F04C00E94212369817A810F900F9023
:101050000F900F900F90DF91CF911F910C94110B77
:10106000FC01408151816281738184810C9400086C
:101070000C947E06E82FE295EF70F0E092A18F705D
:1010800021E030E0082E01C0220F0A94EAF72095F3
:10109000922392A30895CF92DF92EF92FF9286302F
:1010A00030F4811105C0909180009F7D04C085E0DF
:1010B00090918000906290938000282F30E0AFEFF5
:1010C000BFEF0E94D33225E030E040E050E00E94C4
:1010D0002633C9012C3764E1360728F469E070E053
:1010E0000E94FE3229C0DA01C9018A50974DAF4FE4
:1010F000BF4F6627782F892F9A2F25EF38E241E0DE
:1011000050E00E94263369017A01CA01B9010E94A8
:10111000E2329B01AC01C701B6010E94E232BB275B
:10112000A92F982F872F009721E0A207B10511F072
:10113000BC0102C06FEF7FEF70938B0060938A0059
:10114000FF90EF90DF90CF900895269A86E30E945B
:101150003A0882E28093800089E1809381008FEFDA
:101160009FEF90938700809386000C94CE290E9475
:10117000D424811102C00E9457250E94A5080C9416
:10118000830608950C94870608950E94C51D0E9449
:10119000C4082FEF84E39CE0215080409040E1F7A9
:1011A00000C000000C94F4260F931F93CF93DF939D
:1011B0008C010E943008EC01B8010E94FE078823D0
:1011C00009F425C2B801CE010E940A17882309F448
:1011D0001EC2CA3CFCE5DF0741F4F8018281882386
:1011E00009F415C20E94B71212C2CB3C8CE5D80795
:1011F00008F040C1C33C9CE5D90761F4F801828145
:10120000882309F404C20E94A0238272E1F00E94A4
:10121000EC14FDC1C43CECE5DE07C0F0C63C9CE527
:10122000D90709F4F8C008F00AC1C43CFCE5DF079F
:1012300009F0F9C0F8018281882309F4E8C10E940D
:10124000A023827221F30E94E014E1C1C531FCE5C4
:10125000DF0708F0ABC0C2308CE5D80708F478C0CF
:10126000F8018281882309F47AC00E94D424811174
:1012700002C00E9457250E94E72490E09093B70295
:101280008093B602FE01E350FC45E231F10520F403
:10129000E35AFF4F0C9448338091B602816003C03B
:1012A0008091B60282608093B6024BC08091B602F4
:1012B0008460F9CF8091B60213C08091B60280613C
:1012C000F2CF8091B6028062EECF8091B602806448
:1012D000EACF8091B6028068E6CF8091B602846042
:1012E0008860E1CF8091B6028E7FDDCF8091B6021B
:1012F0008D7FD9CF8091B6028B7FD5CF8091B602FA
:1013000013C08091B6028F7ECECF8091B6028F7DC2
:10131000CACF8091B6028F7BC6CF8091B6028F77FD
:10132000C2CF8091B6028B7F877FBDCF9091B602EE
:1013300097FB882780F921E0822780FB97F990931B
:10134000B6028091B6020E94EB240E94C51D5FC1C7
:10135000C1159CE5D90751F0C130DC4579F0C801D1
:10136000DF91CF911F910F910C94FC07F8018281BE
:10137000882309F44CC10E94C50849C1F801828143
:10138000882309F444C190914902892F8095817086
:1013900080FB90F990934902882319F086E992E046
:1013A00002C084E892E00E94DC0531C1C631FCE550
:1013B000DF0729F50E94A023382FF80122818091B0
:1013C000170190911801222371F03A7A21E009F473
:1013D00020E020937701222311F065E301C069E248
:1013E0000E94E82509C020917701222311F065E3CE
:1013F00001C069E20E94F3250E94EC2308C1C23CAF
:10140000DC4509F0ACCFF8018281882309F4FFC0E4
:101410000E94B915FCC0F8018281882309F4F7C045
:101420000E947712F4C0C53CDC4509F098CFF80162
:101430008281882309F4EBC00E946912E8C0F80198
:101440008281C83CFCE5DF0731F4882309F4DFC062
:101450000E949712DCC0C93CDC4530F4882309F4B3
:10146000D6C00E948712D3C0882309F4D0C00E943E
:10147000A712CDC0C13DECE5DE0791F4F8018281F1
:10148000882309F4C4C00E949A108F3028F00E946B
:101490009A10843108F4D7CE8FE00E94EF14B7C0C1
:1014A000C23DFCE5DF0708F05AC0CD3C8CE5D8070B
:1014B00039F4F8018281882309F4A9C081E0EDCFD5
:1014C000CE3C9CE5D907C0F4CB3CECE5DE0741F40B
:1014D000F8018281882309F49AC00E94A21097C063
:1014E000CC3CDC4509F03BCFF8018281882309F42C
:1014F0008EC00E94B3108BC0F8018281CF3CFCE506
:10150000DF0771F4882309F482C00E949A108630A4
:1015100028F00E949A10883008F495CE86E0BDCF5E
:10152000C03DDC4570F4882309F471C00E949A1014
:10153000823028F00E949A10853008F484CE82E030
:10154000ACCF882309F463C00E949A10893028F038
:101550000E949A108E3008F476CE89E09ECFC53D69
:10156000ECE5DE0739F4F8018281882309F44FC0E5
:1015700083E293CFC63DFCE5DF0740F5F8018281A9
:10158000C33DFCE5DF0729F4882309F440C088E166
:1015900084CFC43DDC4568F48823C9F10E949A10C9
:1015A000853128F00E949A10873108F44CCE85E1ED
:1015B00074CF882361F10E949A10893128F00E942B
:1015C0009A10823208F43FCE89E167CFCD3DECE539
:1015D000DE0741F4F80182818823C9F082E00E948D
:1015E000182E15C0CE3DFCE5DF0739F4F8018281E5
:1015F000882369F00E9457250AC0CC3DDC4509F0DC
:10160000AECEF8018281882311F080E0E8CF80E03F
:10161000DF91CF911F910F91089580E090E00895A0
:1016200008959FE0799FF00111249BE4899FE00DCC
:10163000F11D1124E60FF11DEE0FFF1FE85AFE4FBA
:10164000859194910895880F991F89559D4FFC01AC
:10165000859194910895CF93DF930E94110B0E947E
:101660001D0DEC01811521E5920708F044C0C1155C
:1016700080E5D80708F031C1C83ED10510F5C03E5D
:10168000D10508F0D6C1C83AD10578F4C53AD105DC
:1016900008F0A6C0C130D10509F4CBC108F47CC163
:1016A000C430D10508F0C5C177C1CF3BD10508F4DE
:1016B000A2C0C03CD10508F46FC1CE01805C910985
:1016C000FBC0C11520E3D20780F4C11580E2D80722
:1016D00008F0F0C0C03FD10508F45EC1CF3FD1058E
:1016E00011F008F0A6C1D065A4C1C11520E4D2074D
:1016F00008F0F0C0E5C0C11589E5D80760F5C1154F
:1017000028E5D20708F034C1C11584E5D80778F47C
:10171000C11523E5D20708F011C1C11582E5D8072C
:1017200008F0F7C0DC2FCC27C16FD06A82C1C11589
:1017300025E5D20708F417C1C11586E5D80708F0DA
:101740002BC18C2F0E94990D8F71C82FD0E0DC2FF8
:10175000CC27D0626EC1CD3B2CE5D20709F413C172
:10176000F0F4CB3B2CE5D20709F407C108F008C11F
:10177000C1152AE5D20708F00FC18C2F8F700E9487
:10178000990D34E0D695C7953A95E1F7CF70D0E042
:10179000DC2FCC27D06A8F70806EC82B4AC1C03C2A
:1017A0008CE5D80709F4F5C060F4CE3B8CE5D8078A
:1017B00009F4ECC0CF3BDC4509F0EEC0C0E0D2ED4F
:1017C00038C1CE0190568115904208F0E5C08D2FAA
:1017D0008F710E94990DDD27D0628F71D82B29C19E
:1017E000C53AD10509F4DBC0C63AD10509F4DAC01F
:1017F000C3E8D0E41EC1C83AD10509F4D6C0C93A3D
:10180000D10509F4D5C0CA3AD10509F4D4C0CB3A00
:10181000D10509F4D3C0CC3AD10509F4D2C0CB3BF1
:10182000D10509F4D1C0CC3BD10509F4D0C0CD3AE3
:10183000D10509F4CFC0C03BD10509F4CEC0CE3AE2
:10184000D10509F4CDC0CF3AD10509F4CCC0C13BD4
:10185000D10509F4CBC0C23BD10509F4CAC0C33BD2
:10186000D10509F4C9C0C43BD10509F4C8C0C53BC2
:10187000D10509F4C7C0C63BD10509F4C6C0C73BB2
:10188000D10509F4C5C0C83BD10509F4C4C0C93BA2
:10189000D10509F4C3C0CD3BD10509F4C2C0CE3B8C
:1018A000D10509F4C1C0CA3BD10509F0C0C0CAE2E4
:1018B000D6E4BFC0CE019F700E94230BEC01B9C0DB
:1018C000CE019927D3FF03C0EC01D86CB2C0EC0164
:1018D000D06CAFC0DF70D06AACC02C2F237081E019
:1018E00090E002C0880F991F2A95E2F79C689E013C
:1018F000F4E036952795FA95E1F72370922BCF7097
:10190000C695C69520E2C29FE0011124C82BD92BB1
:1019100090C08C2F8695869520E2829FC00111246D
:101920009E0123703327C1E0D0E002C0CC0FDD1F41
:101930002A95E2F7C82BD92BDC687BC08C2F8695C3
:10194000869520E2829FC00111249E0123703327D7
:10195000C1E0D0E002C0CC0FDD1F2A95E2F7C82B12
:10196000D92BDA6866C0DC2FCC27C46FD06A61C07F
:10197000DC2FCC27C06FD06A5CC0C0E0D4ED59C06A
:10198000C0E0D5ED56C0C0E0D1ED53C0C0E0D0ED11
:1019900050C0C0E0D3ED4DC0C0E0D0E04AC0C1E8C7
:1019A000D0E447C0C2E8D0E444C0C2EED4E441C0B1
:1019B000C9EED4E43EC0CAEED4E43BC0C5EBD4E4E7
:1019C00038C0C6EBD4E435C0C3EBD4E432C0C4EBBA
:1019D000D4E42FC0C7EBD4E42CC0CCECD4E429C0B1
:1019E000CDECD4E426C0C3E8D5E423C0CAE8D5E4EE
:1019F00020C0C2E9D5E41DC0C4E9D5E41AC0C1E2E3
:101A0000D6E417C0C3E2D6E414C0C4E2D6E411C0E1
:101A1000C5E2D6E40EC0C6E2D6E40BC0C7E2D6E407
:101A200008C0CFE6D4E405C0C0E7D4E402C0C0E0FB
:101A3000D4E4CE01DF91CF9108958238910549F128
:101A4000B0F48133910509F459C048F48932910505
:101A500009F44FC08A32910509F455C008958533C1
:101A6000910509F441C08933910599F00895833EA9
:101A7000910531F138F4803E910591F0823E910557
:101A8000A9F00895863E910501F1873E910539F14F
:101A900008952091B60220FD3BC021FD39C0089574
:101AA0008091B60280FF34C089E341C08091B602C4
:101AB00082FF32C08091B60284FF2CC080E037C024
:101AC0008091B60282FD28C0F5CF8091B60283FFD7
:101AD00025C08091B60284FDF1CF87EE28C08091A9
:101AE000B60283FD1BC0F5CF8091B60285FF18C0FA
:101AF00019C08091B60285FF15C012C08091B60250
:101B000086FF12C013C08091B60286FF0FC00CC0C2
:101B100080EE0DC083EE0BC082EE09C086EE07C0DA
:101B200085E305C089E203C081E301C08AE290E059
:101B300008959091B60292FF0DC0282F2871283089
:101B400019F4877F846006C0282F2471243011F493
:101B50008B7F886093FF0DC0282F2871283119F4DE
:101B6000877E846106C0282F2471243111F48B7E76
:101B7000886194FD877E0895E82FF0E0EE0FFF1F47
:101B8000E858FE4F808191810895CF92DF92EF92C5
:101B9000FF920F931F93CF93DF9387EB92E00E9406
:101BA000DC0528E7E22E21E0F22EC0E0D0E032EBA7
:101BB000C32E32E0D32E09EA12E0DF93CF93DF92F7
:101BC000CF920E9475068FEA92E00E94DC05F70131
:101BD000819191917F010E94BA249F938F931F93CB
:101BE0000F930E94750687EA92E00E94DC05219619
:101BF0008DB79EB708960FB6F8949EBF0FBE8DBFE7
:101C0000C530D105D1F6DF91CF911F910F91FF9093
:101C1000EF90DF90CF900895E9E3F1E021E030E02C
:101C20008191A82FA295AF70B0E091964C919197B9
:101C30008F70B90102C0660F771F8A95E2F7CB015A
:101C40008095482391964C9371E0EE33F70741F766
:101C5000AAE2B1E021E030E08D91E82FE295EF704B
:101C6000F0E041A18F70B90102C0660F771F8A951D
:101C7000E2F7CB01962F9095492341A392A1982B8F
:101C800092A371E0A933B70739F7E2E8F1E0A8E7DA
:101C9000B1E0119211921D921D9281E0EC38F8078B
:101CA000C1F785E00E94F40E0C94B7082F923F9282
:101CB0005F926F927F928F929F92AF92BF92CF92DC
:101CC000DF92EF92FF920F931F93CF93DF9359E32D
:101CD000252E51E0352EA2E8B1E0B12C21E030E014
:101CE0004D016D907C90119711961C921E92E1010E
:101CF00069911E01E62FE295EF70F0E081A16F700F
:101D0000A90102C0440F551F6A95E2F7BA01842B5E
:101D100081A382A1A42EA0948A2182A350EA5A957D
:101D2000F1F74AE2E42E41E0F42E40E050E0E70112
:101D300059907E01852D82958F7090E0EC0108A16D
:101D4000CD90DC90119710E0852D8F7002C0159515
:101D500007958A95E2F700FD08C0C901042E02C06C
:101D6000880F991F0A94E2F702C080E090E0C82A29
:101D7000D92A1196DC92CE924F5F5F4F4F305105BA
:101D8000B1F681A18A2181A382A1862B82A312961A
:101D900041E0F401808191816816790609F440E000
:101DA000B42AFEE32F16F1E03F0609F099CF2B2D60
:101DB00045E068E771E082E891E00E94F50E0E943C
:101DC00038088B2DDF91CF911F910F91FF90EF90ED
:101DD000DF90CF90BF90AF909F908F907F906F904B
:101DE0005F903F902F9008950895FF920F931F9357
:101DF000CF93DF93D82FC92FF62E072F142F22232E
:101E000049F081E080938E010E94992690938D0184
:101E100080938C0180918E018823D9F080918C0170
:101E200090918D010E94A526069798F0ED2FFC2F2A
:101E3000AF2DB02F80E090E0412F50E08417950740
:101E400034F4219131912D933D930196F7CF109267
:101E50008E01DF91CF911F910F91FF900895CF9246
:101E6000DF92EF92FF920F931F93CF93DF93D62EC3
:101E7000C72EE82EF82EE82FF0E0711106C0E650CC
:101E8000F94F6491762F862F7BC0072F10E026E054
:101E9000629FC0011124CFEFD0E0BE010E94FE324C
:101EA0009B016BEA6203A001639F500D11244D0D4D
:101EB000511D4D0D511DD42EDD0CD40ECE01801BB5
:101EC000910B8E9FA0018F9F500D9E9F500D11244E
:101ED000852FDC9CB0011124672F7727DE01A61B1C
:101EE000B70BAE9FB001AF9F700DBE9F700D112458
:101EF000972FDE01AD19B1096D01C09ED001C19EC1
:101F0000B00DD09EB00D1124AB2FBB27CA1BDB0B2D
:101F1000CE9FD001CF9FB00DDE9FB00D1124223097
:101F2000310591F03CF42115310559F0213031058E
:101F3000C1F014C02430310569F04CF02630310571
:101F400069F49E2DFB2E0DC0952F8B2F0AC0F72E06
:101F5000952F02C09B2FF52E8E2D03C0F52E872FB7
:101F60009E2DE92FF0E0E650F94F7491EF2DF0E04F
:101F7000E650F94F6491E82FF0E0E650F94F849174
:101F8000DF91CF911F910F91FF90EF90DF90CF9055
:101F900008950895CF93DF93762FE901682F842F5A
:101FA0000E942F0F798368838A83DF91CF910895F0
:101FB00020917B02822F869590E0009729F4217072
:101FC000226020937B02089585972CF0822F8170E8
:101FD000886480937B02089588E090E00C946E33CF
:101FE000CF93DF9300D000D0CDB7DEB7AB01BC01FB
:101FF00049835A836B837C830E94D80F49815A811D
:102000006B817C8188E090E00F900F900F900F9093
:10201000DF91CF910C948C33EBE7F2E083E0808387
:1020200010927C028FEF80937D0280937E0210924B
:102030007F0260817181828193810C94F00F809185
:10204000490280FF08C08CEC95E09F938F930E941B
:1020500075060F900F908091490280FF0FC080910C
:102060007B0281701F928F938FEA95E09F938F93ED
:102070000E9475060F900F900F900F90809149026B
:1020800080FF0FC080917B0286951F928F9384E919
:1020900095E09F938F930E9475060F900F900F907D
:1020A0000F908091490280FF0EC080917C021F92A8
:1020B0008F938AE795E09F938F930E9475060F9008
:1020C0000F900F900F908091490280FF0EC0809179
:1020D0007D021F928F9380E695E09F938F930E94DD
:1020E00075060F900F900F900F908091490280FF1E
:1020F0000EC080917E021F928F9386E495E09F939D
:102100008F930E9475060F900F900F900F90809103
:10211000490280FF0EC080917F021F928F938AE256
:1021200095E09F938F930E9475060F900F900F90EC
:102130000F90089580917B0280FF02C086950895DC
:1021400080E0089580917F02833018F48F5F809340
:102150007F0260917B0270917C0280917D02909160
:102160007E020C94F00F80917F02882319F0815039
:1021700080937F0260917B0270917C0280917D024E
:1021800090917E020C94F00F60910B0170E08091B1
:102190007B0280FF0AC08091930123E0829FC001EF
:1021A000112480589D4F0C949A16209192013091E1
:1021B0000A01231780F7822F90E0FC01EE0FFF1F2A
:1021C000E80FF91FE058FD4F1182108212822F5F35
:1021D000F0CF90917B0290FF16C0909192015091A8
:1021E0000A01951770F4292F30E0F901EE0FFF1F57
:1021F000E20FF31FE058FD4F8183608342839F5FAE
:10220000F0CF0C94C4100895CF93DF9300D01F92A9
:10221000CDB7DEB790917B0290FF0AC09E012F5F81
:102220003F4F0E94CA0F4B8169818A810E94E91049
:102230000F900F900F90DF91CF910895CF93DF9380
:10224000EC01EC81F0E0EB50FA4F449160917D029B
:1022500080917C020E9404118C818F5F8C83DF91BE
:10226000CF910895CF93DF93EC0140917E0260916E
:102270007D028C810E9404118C818F5F8C83DF91A1
:10228000CF9108950F931F93CF93DF9300D01F92A8
:10229000CDB7DEB78C0180918F0181110AC09E01FC
:1022A0002F5F3F4F4FEF6FEF0E94CA0F8A818093DD
:1022B0008F01F8018481813051F028F0823061F47F
:1022C00040918F010AC080918F0140E007C060916A
:1022D0008F0140E080E003C040E080E060E00E94C9
:1022E000E910F801848190E0019663E070E00E94BB
:1022F000123384830F900F900F90DF91CF911F9135
:102300000F9108955F926F927F928F929F92AF92FA
:10231000BF92CF92DF92EF92FF920F931F93CF93D2
:10232000DF9300D000D0CDB7DEB7D82EB62EC42EA6
:10233000A22E90917B0290FFADC0E92FE695AE2FC3
:10234000B0E0A25CBE4F8C9180939B019E7F923047
:1023500061F49E012F5F3F4F8D2D0E94CA0F4B816C
:1023600069818A810E94E91063C0823019F4C090AB
:102370007E025EC0863019F4D0907C0259C089304C
:10238000D9F3893109F054C0E9519E2E9094292D3A
:102390002170922E2170822EE695F0E0EB50F94FDD
:1023A00005911491512C1127FCE4EF2EF3E0FF2E40
:1023B000609109015616D0F5652C712C609EC00104
:1023C000619E900D709E900D112470E00E94FE326F
:1023D0008D2D882011F0860F01C0861B9091490237
:1023E00090FF13C01F930F931F929F921F928F9382
:1023F0001F925F92FF92EF928C830E9475060FB638
:10240000F894DEBF0FBECDBF8C8190919201690E12
:10241000711C9301220F331F260D371D20583D4F8D
:102420004C2D6B2D0E94CA0F5394C2CF0E94C41032
:10243000D0927C02B0927D02C0927E02AA20C9F0A6
:1024400060917B0270917C0280917D0290917E026E
:102450000E94F00F80917E021F928F9380917D02E7
:102460001F928F9380917C021F928F9387E293E05B
:1024700008C01F92CF921F92BF921F92DF9280E0FE
:1024800093E09F938F930E9475060FB6F894DEBF7A
:102490000FBECDBF0F900F900F900F90DF91CF9197
:1024A0001F910F91FF90EF90DF90CF90BF90AF9072
:1024B0009F908F907F906F905F90089590917C0295
:1024C000282F40917E0260917D0288E0890F0C9454
:1024D000821181E00C945E1290917C02282F409131
:1024E0007E0260917D0288EF890F0C94821181E059
:1024F0000C946C1260917D0228E0620F08F46FEF7B
:10250000282F40917E0280917C020C94821181E000
:102510000C947A1260917D0228E0621B08F460E05E
:10252000282F40917E0280917C020C94821181E0E0
:102530000C948A1240917E0228E0420F08F44FEF7B
:10254000282F60917D0280917C020C94821181E0A1
:102550000C949A1240917E0228E0421B08F440E05D
:10256000282F60917D0280917C020C94821181E081
:102570000C94AA1220E00C948211FF920F931F93E7
:10258000CF93DF93EC01F12C0FEF10E06091090184
:10259000F616E8F44091920150E04F0D511D9A015A
:1025A000220F331F240F351F20583D4F70E0C80104
:1025B0000E941233962F8C8140917E0260917D02A1
:1025C000F99E800D11240E94CA0FF394DFCF0E9460
:1025D000C4109A818C8190FF02C08F5F01C081502E
:1025E0008C83DF91CF911F910F91FF900895BF923F
:1025F000CF92DF92EF92FF920F931F93CF93DF93CF
:10260000FC01828180FD03C0CC24C39402C0CC2491
:10261000CA94D12C80910901D816E0F5ED2CF12C4B
:10262000809192019701280F311DE901CC0FDD1F28
:10263000C20FD31FC058DD4F198218821A8204E0DE
:1026400010E0B12C809191018B0D87FF03C0909118
:102650000901890F992787FD9095E816F90691F4ED
:1026600080917E02809FA001819F500D112455957D
:102670004795559547959E0160917D0280917C021A
:102680000E94CA0FBC0C0150110901151105D1F6A9
:10269000D394C0CF0E94C4108091910131E0C31245
:1026A00006C0811102C080910901815007C090E0ED
:1026B00001966091090170E00E94123380939101AC
:1026C000DF91CF911F910F91FF90EF90DF90CF900E
:1026D000BF900895CF932091920130910A01231762
:1026E00070F4822F90E0FC01EE0FFF1FE80FF91F3E
:1026F000E058FD4F1182108212822F5FF0CFC0E0B0
:1027000060910901C617B0F52C2F30E070E0C901C7
:102710000E94123340919201480F809190019927B5
:1027200087FD909550E028173907C4F08091080183
:10273000992787FD90958217930784F09A01220FBD
:10274000331F240F351F20583D4F40917E0260916A
:102750007D0280917C020E94CA0F0AC0FA01EE0F2E
:10276000FF1FE40FF51FE058FD4F11821082128207
:10277000CF5FC6CF0E94C410409107012091900105
:10278000240F2093900180910801840F8093080109
:10279000181654F4332727FD30958091090190E0F5
:1027A0000197281739071CF0419540930701CF91F5
:1027B00008950F931F93CF93DF93EC012C813D81FC
:1027C0002F5F3F4F217033273D832C8310E005E5B9
:1027D000809109011817F0F44091920150E0410FE7
:1027E000511D9A01220F331F240F351F20583D4FD2
:1027F000412F46958C819D81840F911D8170409160
:102800007E0260917D02809F802D11240E94CA0F5C
:102810001F5FDECFDF91CF911F910F910C94C410F9
:102820000F931F93CF93DF938C01C0E0D0E04091D2
:102830000901842F90E0C817D9072CF580919201E7
:102840009E01280F311DC901220F331F280F391F88
:1028500020583D4F4695842F90E0F8014481C817D9
:10286000D9071CF4442331F002C0411103C0409148
:102870007E0201C040E060917D0280917C020E9456
:10288000CA0F2196D4CF0E94C410F801248130E0F1
:102890002F5F3F4F217033272483DF91CF911F910A
:1028A0000F91089560917B02669570E04BE050E0D7
:1028B0008CE091E00E945933892B19F481E08093D8
:1028C0009C010E9499269093950180939401809198
:1028D000490280FF08C087EE92E09F938F930E9489
:1028E00075060F900F90089510929C0180914902F7
:1028F00080FF08C08EEC92E09F938F930E94750634
:102900000F900F90089590917B0290FF4EC09170B0
:10291000811102C0926003C0853220F098649093C8
:102920007B0204C0880F892B80937B02662391F081
:1029300060917B0270917C0280917D0290917E0279
:102940000E94F00F80917B0286951F928F9380E703
:1029500094E007C080917B0286951F928F9382E559
:1029600094E09F938F930E9475060F900F900F90A5
:102970000F9060917B02669570E04BE050E08CE038
:1029800091E00E945933892B19F00E94741402C0FF
:102990000E94521481E08093970140917E026091E1
:1029A0007D0280917C020C94BA120895682F809168
:1029B0007B0286958F5F853208F081E00C9483144A
:1029C00081E00C94D614682F80917B02869581500B
:1029D00009F484E20C94831481E00C94E31461E024
:1029E0000C948314CF93DF93CBE7D2E0888181608E
:1029F00088831F9281E08F9384EE93E09F938F935F
:102A00000E9475060F900F900F900F908881869509
:102A1000DF91CF910C94EF1460E00C9483148091BB
:102A20009A01811161C080914902816080934902BD
:102A300083E195E09F938F930E94750680914902F0
:102A40000F900F9080FF08C08DEF94E09F938F93BD
:102A50000E9475060F900F900E94D424811110C01F
:102A60008091490280FF08C085ED94E09F938F9389
:102A70000E9475060F900F900E9457250E940C101F
:102A80000E94EC0F60937B0270937C0280937D0226
:102A900090937E026E7FC1F48091490280FF08C04E
:102AA0008CE894E09F938F930E9475060F900F908F
:102AB0000E940C100E94EC0F60937B0270937C02CA
:102AC00080937D0290937E020E94D80F0E941F1077
:102AD00010929C0180917B0280FF03C086950E942A
:102AE0000C1581E080939A010895CF93DF93CBE793
:102AF000D2E08881816088831F9281E08F938BEA86
:102B000093E09F938F930E9475060F900F900F9004
:102B10000F9088818695DF91CF910C940C15CF93FF
:102B2000DF93CBE7D2E088818E7F888368817981CB
:102B30008A819B810E94F00F888181701F928F9300
:102B400083E793E09F938F930E9475060E9474140D
:102B50002FEF80E792E0215080409040E1F700C0E5
:102B600000000F900F900F900F90DF91CF910C9479
:102B7000C41080917B02809581701F928F938BE1AE
:102B800094E09F938F930E94750680917B020F9033
:102B90000F900F900F9080FD0C948F150C94F214F1
:102BA0000F931F93CF93DF9380919C01882309F4A7
:102BB00089C080919B01E0917B02E695E81BE09340
:102BC0009601823049F4F0E0EF50FA4FE491CE2FB5
:102BD000D0E00EE111E146C0863049F4F0E0E25168
:102BE000FA4FE491CE2FD0E002E311E13BC08930EF
:102BF00049F4E695F0E0E551FA4FC491D0E00DEBD1
:102C000012E130C08F3049F4E695F0E0E851FA4F18
:102C1000C491D0E007EF12E125C0853141F4F0E026
:102C2000EB51FA4FC491D0E00AE613E11BC08831A2
:102C300081F0833239F4E3EEF5E0C591D49102E4FA
:102C400011E110C0843251F0C0EDD7E009EC1FE073
:102C500009C0C8EED3E009ED13E104C0C4EFD1E030
:102C600000E114E180919701882389F01092970187
:102C70000E9499269E0120953095280F391F309388
:102C800095012093940110929901109298018091DE
:102C90009401909195010E94A5268C179D0790F0B4
:102CA00080919401909195018C0F9D1F90939501B7
:102CB0008093940184E991E0F801DF91CF911F9115
:102CC0000F910994DF91CF911F910F9108953EB11B
:102CD000242F209523233EB1342B4FB7F894FC01C9
:102CE000680F791FE617F70789F0819198E03EB9E0
:102CF000000000C087FF2EB9880F000000C000C090
:102D000000C02EB900C09A9591F7ECCF4FBF08953F
:102D10002DB1242B2DB99B01220F331F260F371FF6
:102D2000B9010E94671687EC90E00197F1F700C0A7
:102D30000000089544E00C9488160F931F93CF93DE
:102D4000DF93C62FD42F022FFC0182818823C9F084
:102D500060939F010E94992690939E0180939D010C
:102D600080E28C0F883008F050C0C77081E001C04D
:102D7000880FCA95EAF7DF91CF911F910F910C94BC
:102D8000C21A10919F01161330C080919D0190913D
:102D90009E010E94A526883C910538F5C0E2CD0F22
:102DA0001D17B9F080E2810F883040F4177081E080
:102DB00001C0880F1A95EAF70E94C91AC83048F472
:102DC00081E09D2F977001C0880F9A95EAF70E94C5
:102DD000C21A802F0E94AF1AC830B8F4D77081E0B1
:102DE00001C0880FDA95EAF70AC080E28C0F8830BC
:102DF00060F4C77081E001C0880FCA95EAF7DF91DF
:102E0000CF911F910F910C94C91ADF91CF911F910F
:102E10000F9108959C01CB01203F4CE53407F9F058
:102E200078F4283DFCE53F07B9F0293D4CE534072F
:102E300011F1273D3C4531F526E241EE61EE1EC021
:102E4000223FFCE53F0799F070F0233F3C45D1F469
:102E500027E245EE66EE12C027E245EE0EC026E2FE
:102E600041EE60EE0BC027E245EE64EE07C026E2BD
:102E700041EE62EE03C028E241E065EE0E949D163D
:102E800080E00895FC018281882319F010929F014F
:102E9000089581E008959093A5018093A401089579
:102EA000E091A401F091A501309721F00190F0810B
:102EB000E02D099480E00895FF920F931F93CF9324
:102EC000DF93EC01E091A401F091A501309709F4A2
:102ED0003FC080912901882341F08091B60287FF8D
:102EE00004C08881898385E088830280F381E02D96
:102EF000CE0109958091490282FF2AC080FF04C05B
:102F000082E098E00E94DC0588E0F82E0CEF17E0E4
:102F10008091490280FF0BC088811F928F931F937D
:102F20000F930E9475060F900F900F900F90FA94D8
:102F30002196F110EDCF8091490280FF09C08AEF00
:102F400097E0DF91CF911F910F91FF900C94DC05DA
:102F5000DF91CF911F910F91FF900895E091A4010F
:102F6000F091A501309739F022E0DC012C93048028
:102F7000F581E02D099408952091A2013091A301DB
:102F80008217930771F09093A3018093A201E091BF
:102F9000A401F091A501309721F00680F781E02D82
:102FA000099408952091A0013091A10182179307FF
:102FB00071F09093A1018093A001E091A401F091A0
:102FC000A501309721F00084F185E02D0994089542
:102FD00085B7806885BF85B7806885BF08950895E7
:102FE00008950C94F01708950C94F3170E94E817B5
:102FF0000E94EF170C94F11781E008950E9490262B
:103000000E940C0E0E9419270E94CE290E940F15C3
:10301000E6EBF2E08081806880830C94F417CF9314
:10302000C82F8091490282FF1EC080FF04C08BE13F
:1030300098E00E94DC058091490280FF0CC01F923D
:10304000CF9326E138E03F932F930E9475060F90AF
:103050000F900F900F908091490280FF04C084E18F
:1030600098E00E94DC058C2FCF910C94C2085F92EF
:103070006F927F928F929F92AF92BF92CF92DF9288
:10308000EF92FF920F931F93CF93DF93CDB7DEB7ED
:103090002A970FB6F894DEBF0FBECDBF0E94560E22
:1030A0000E94FC17811111C08FEF89838A831B82D4
:1030B0000E9499268160782F9D838C8349815A8153
:1030C0006B818D810E94F51857C097EAC92E91E057
:1030D000D92E00E010E0AA24A394B12C502E802F0A
:1030E0000E94BC0D3C01F601E190F1906F01E826D1
:1030F000F926E114F10431F40F5F1F4F053011057B
:1031000069F7D2CF8091490281FD0E94C50D20E070
:1031100030E04501022E02C0880C991C0A94E2F7A7
:10312000C4018E219F21892B09F12E835F826820A3
:10313000792081E0672809F480E088870E94992639
:103140008160782F9A8789874E815F8168858A851B
:103150000E94F518F801EE0FFF1FE955FE4F808120
:103160009181882599259183808306C02F5F3F4FE9
:103170002F30310571F6C0CF0E942D291091A60184
:103180000E9450171817D9F00E9450178093A6017B
:103190002A960FB6F894DEBF0FBECDBFDF91CF9158
:1031A0001F910F91FF90EF90DF90CF90BF90AF9065
:1031B0009F908F907F906F905F900C940F182A963D
:1031C0000FB6F894DEBF0FBECDBFDF91CF911F9138
:1031D0000F91FF90EF90DF90CF90BF90AF909F90B6
:1031E0008F907F906F905F900895CF93DF93CDB7CE
:1031F000DEB72B970FB6F894DEBF0FBECDBF4F835F
:10320000588769877A878B87DE01119686E0FD01F2
:1032100011928A95E9F785E0FE01379601900D92AB
:103220008A95E1F749815A816B817C818D819E81EC
:103230000E94A2202B960FB6F894DEBF0FBECDBF22
:10324000DF91CF910895FC01808191810E946123DB
:103250000895882309F41AC18238C1F40E945017D6
:1032600081FD14C169E380911701909118010E94BA
:10327000E8250E94EC232FEF81EE94E0215080405E
:103280009040E1F700C0000069E319C08338F9F409
:103290000E94501780FDFAC063E58091170190915C
:1032A00018010E94E8250E94EC232FEF81EE94E0A4
:1032B000215080409040E1F700C0000063E580911C
:1032C0001701909118010E94F3250C94EC23843887
:1032D000C1F40E94501782FDD9C067E480911701A4
:1032E000909118010E94E8250E94EC232FEF81EEB7
:1032F00094E0215080409040E1F700C0000067E476
:10330000DECF9CEF980F913A40F4682F809117011F
:10331000909118010E94E825D8CF90E2980F98303C
:1033200050F4877091E001C0990F8A95EAF7892FD0
:103330000E94A323CACF9BE5980F933070F4853A7F
:1033400029F0863A31F482E890E005C081E890E007
:1033500002C083E890E00C94BC1798E5980F973171
:1033600008F08EC0883A09F445C0893A09F445C08E
:103370008A3A09F445C08B3A09F445C08C3A09F4FD
:1033800045C08B3B09F445C08C3B09F445C08D3AE0
:1033900009F445C0803B09F445C08E3A09F445C0A4
:1033A0008F3A09F445C0813B09F445C0823B09F4DA
:1033B00045C0833B09F445C0843B09F445C0853BC7
:1033C00009F445C0863B09F445C0873B09F445C074
:1033D000883B09F445C0893B09F445C08D3B09F49D
:1033E00045C08E3B09F445C08A3B09F045C08AE2DE
:1033F00092E044C082EE90E041C089EE90E03EC091
:103400008AEE90E03BC085EB90E038C086EB90E020
:1034100035C083EB90E032C084EB90E02FC087EBA7
:1034200090E02CC08CEC90E029C08DEC90E026C0A0
:1034300083E891E023C08AE891E020C082E991E02E
:103440001DC084E991E01AC081E292E017C083E2D6
:1034500092E014C084E292E011C085E292E00EC0D6
:1034600086E292E00BC087E292E008C08FE690E02F
:1034700005C080E790E002C080E090E00C94D21795
:10348000803F20F00E94B3270C94A0280895882341
:1034900009F464C0823879F40E94501781FF5EC03D
:1034A00069E380911701909118010E94E8250E941C
:1034B000EC2369E310C08338B1F40E94501780FFF9
:1034C0004DC063E580911701909118010E94E82595
:1034D0000E94EC2363E580911701909118010E94EE
:1034E000F3250C94EC23843879F40E94501782FF62
:1034F00035C067E480911701909118010E94E8257A
:103500000E94EC2367E4E7CF9CEF980F913A10F408
:10351000682FE1CF90E2980F983050F4877091E0D7
:1035200001C0990F8A95EAF7892F0E94A923D9CF64
:103530009BE5980F933020F480E090E00C94BC174A
:1035400098E5980F973120F480E090E00C94D21722
:10355000803F20F00E941B280C94A0280895CF9350
:10356000C82F0E942919C93349F42FEF83EC99E041
:10357000215080409040E1F700C000008C2FCF9197
:103580000C94471A882321F00E94A3230C94EC2367
:103590000895882321F00E94A9230C94EC23089518
:1035A0008F929F92BF92CF92DF92EF92FF920F93F2
:1035B0001F93CF93DF9300D0CDB7DEB74C01562FCA
:1035C000472FFC01B580B2949FE0B922E280EE2043
:1035D00031F079836A830E94C0235A8149814983EB
:1035E0005A830E94992349815A81882389F0EE20C9
:1035F00079F080E2850F883058F082E00E9437240D
:103600000E949923FF24F394F82649815A8101C02E
:10361000F12CC42EC2948FE0C822D12CF601E159BE
:10362000FF4F0C944833842F807F142F1F70882302
:1036300011F01295107FEE20C1F0112309F4D7C1CB
:1036400080E2850F883010F0511105C0812F5A8318
:103650000E94A32304C0812F5A830E94B3235A815E
:103660005A830E94EC235A81C2C1852F5A830E943B
:10367000471A5A81112309F404C280E2850F883069
:1036800010F0511104C0812F0E94A92303C0812F83
:103690000E94B9230E94EC23F4C1842F807F142F51
:1036A0001F70803211F01295107F552319F05130A0
:1036B000D9F026C0EE2079F0BB2049F0F1E0BF122E
:1036C00006C00E94D323812B0E94D923DAC10E9415
:1036D000D323812B40C1BB2021F021E0B21609F495
:1036E000D0C10E94E2233CC1EE2029F085E08B1579
:1036F00008F4C7C12FC194E09B1508F4C2C130C1C2
:10370000EE2051F0BB2009F425C1F401858180FF32
:103710006EC18F7085831EC1BB2009F421C178C1A1
:10372000842F86958695837090E0009719F0019715
:1037300061F0A7C1EE2021F0852F942F937002C075
:1037400080E090E00E94BC17ACC1EE2021F0852FF4
:10375000942F937002C080E090E00E94D217A1C124
:10376000EE20F9F0553F51F0563F71F0543FA9F467
:103770008091B0029091B10281600BC08091B00243
:103780009091B102826005C08091B0029091B10227
:1037900084609093B1028093B002852F0E94B3277A
:1037A00022C0553F51F0563F91F0543FC9F48091EB
:1037B000B0029091B1028E7F05C08091B0029091CD
:1037C000B1028D7F9093B1028093B00209C0209125
:1037D000B0023091B1022B7F3093B1022093B0023E
:1037E000852F0E941B280E94A0285BC1842F837014
:1037F00009F04AC0E11051C1E52FE295E695E77066
:10380000EE0FEE0F652F6F70862F90E0A0E0B0E016
:103810000E2E04C0880F991FAA1FBB1F0A94D2F74F
:1038200054FF10C00FE010E020E030E004C0000FB3
:10383000111F221F331FEA95D2F70095109520958E
:10384000309503C000E010E098014695469543701E
:1038500050E0BC01CD01602B712B822B932B4230A9
:10386000510561F04330510561F04130510519F0C7
:103870000E94F52112C10E94E3210FC10E9407227C
:103880000CC10E94E12109C1EE2019F0842F817042
:1038900001C08695882309F400C1E52FE295E695DD
:1038A000E770EE0FEE0F652F6F70862F90E0A0E0AF
:1038B000B0E00E2E04C0880F991FAA1FBB1F0A94E8
:1038C000D2F754FF10C00FE010E020E030E004C059
:1038D000000F111F221F331FEA95D2F70095109594
:1038E0002095309503C000E010E09801469546957C
:1038F000437050E0BC01CD01602B712B822B932BC8
:103900004230510561F04330510561F041305105BD
:1039100019F00E94A222C1C00E949022BEC00E9443
:10392000B422BBC00E941B22B8C0052F10E0F801D2
:10393000E05EF109E531F10508F055C0E158FF4FAF
:103940000C944833152F1F70842F8F71EE2031F0A7
:103950000E943B22812F0E94C21A93C00E945622CD
:10396000812F0E94C91A8DC0EE2049F0F4E0FB15AA
:1039700008F487C0842F8F710E94752282C025E0D1
:103980002B1508F47EC0F6CFEE2039F0842F8F710E
:103990000E943B2276C0EE20C9F3842F8F710E94D3
:1039A00056226FC0EE2029F0842F8F710E942C22A6
:1039B00068C00E94272265C0EE2051F0142F1F71AD
:1039C000812F0E943B2263E0812F0E94222459C054
:1039D00081E00E94372481E08B1508F052C082E01C
:1039E0000E9437244EC0EE2031F0BB2079F2852FA3
:1039F0000E94291946C0BB2081F2593349F49FEF38
:103A0000E3ECF9E09150E040F040E1F700C0000045
:103A1000852F0E94471A35C04F70652FC4010E9440
:103A20000D0B0E944F213DC0E1103BC04F7050E094
:103A300042305105B1F04CF44115510579F0413057
:103A40005105F9F40E941A2A2CC04430510579F02E
:103A50005CF045305105A9F480E00AC00E94EB29D2
:103A600020C00E94842A1DC00E94A02A1AC085E09E
:103A70000E94D82A16C04F70652FC4010E94100BF7
:103A800010C028E0C216D10441F05CF09AE0C91AD7
:103A9000D108E2E0CE16D10420F40E9450170E9413
:103AA000C208FF20F1F00E94952380FD1AC0F401A6
:103AB00012820E948F230E943B22C4010E947F1D1C
:103AC0000E948F230F900F90DF91CF911F910F9144
:103AD000FF90EF90DF90CF90BF909F908F900C94CD
:103AE00056220F900F90DF91CF911F910F91FF9071
:103AF000EF90DF90CF90BF909F908F9008950F939D
:103B00001F93CF93DF93EC01288139818B819C81B6
:103B1000892B31F03F3F11F080E003C02F3FE1F7E8
:103B200081E0811113C0CE010E94D408882371F076
:103B3000688179818A810E946C238C010E94C6224F
:103B40000E94E021B801CE010E94D01ADF91CF91EE
:103B50001F910F9108950E94C0230E94D0230E94BC
:103B6000EC230E94C2290E94A02880E090E00E94DD
:103B7000BC1780E090E00C94D217809117019091CF
:103B800018010E94FE250C94AB1D0E94B0230C94DA
:103B9000BD1DE92FE295EF70F0E03297EE30F105B0
:103BA000B8F4EC56FF4F0C944833803F59F018F4AA
:103BB000803E70F407C0843F59F404C0803E10F08A
:103BC000813F31F481E0089593FB882780F90895BF
:103BD00080E008950E9461230E94C91D0895CF933B
:103BE000DF9300D000D01F92CDB7DEB70F900F90BB
:103BF0000F900F900F90DF91CF910895CF93DF93A7
:103C000000D000D000D0CDB7DEB726960FB6F8941E
:103C1000DEBF0FBECDBFDF91CF9108951F93CF932D
:103C2000DF93C091B20116E08091B301C81799F0FB
:103C3000D0E01C9FF0011D9FF00D1124EC54FE4FAD
:103C40004081518162817381848195810E94FE1D32
:103C50002196C770E9CFDF91CF911F9108954091D0
:103C6000E4015091E5016091E6017091E7018091D6
:103C7000E8019091E9010C94FE1DCF938091E90138
:103C800082958F7009F05FC08091E601882309F466
:103C90005AC02091B201A091B3016091E4017091EA
:103CA000E5018091E7019091E80131E06F3F09F073
:103CB00030E0B32FC6E02A1709F445C0009721F081
:103CC0007F3F21F44B2F03C041E001C040E030E0D2
:103CD00040FD35C0C29FF001C39FF00D1124EC548C
:103CE000FE4F418174132BC04081641328C0428170
:103CF000411125C0438154814817590710F44150A0
:103D00005109481B590B483C5105C8F48091E90101
:103D10008F7080618093E90186E0829FF001839F2C
:103D2000F00D1124E754FE4F80818F7080618083F5
:103D300084EE91E00E947F1DCF910C940E1E2F5FA8
:103D40003F4F2770B8CFCF910895CF92DF92EF9277
:103D5000FF920F931F93CF93DF93CDB7DEB7629798
:103D60000FB6F894DEBF0FBECDBF8C0185E0F80121
:103D7000DE011D9601900D928A95E1F7D8014C91D4
:103D800011965C91119712966C9112971396ED9083
:103D9000FC9014977091E401E091E5012091E70116
:103DA0003091E8012115310531F0EF3F31F481E028
:103DB0007F3F19F403C081E001C080E0B82FB170EB
:103DC000CB2E80FD6BC1D090E601DD2009F4F5C05B
:103DD000F091E901E216F30638F0C701821B930B5C
:103DE000883C910548F09DC0209530952E0D3F1DD3
:103DF000283C310508F095C08F2F807F09F052C014
:103E0000E51314C0741312C0D62E61110FC0FF70D9
:103E1000F061F093E9010E942F1E84EE91E00E9470
:103E20007F1D8091E901F80185837CC1EF2831F085
:103E30005F3F31F481E04F3F19F403C081E001C0DE
:103E400080E080FD03C081E0862701C080E0F82F7C
:103E5000F170FF2E80FF1CC08091B2012091B30150
:103E600036E0821709F438C190E0389FF001399F9D
:103E7000F00D1124EC54FE4F7181571306C0708170
:103E8000471303C07281671303C001968770E9CF9F
:103E9000D62E662309F446C18091E90181608093A2
:103EA000E90155C0E51308C0741306C0611104C0D0
:103EB000D8011596FC93AEC04D875E878D859E8593
:103EC0006A8B0E94EA1D6A89882329F1D62E66230F
:103ED00011F12091E901822F82958F7090E0029775
:103EE0000CF462C08091E4019091E50198878F8382
:103EF0001986FB86EA862C87CE01079653C0E51704
:103F000041F14D875E878D859E856A8B0E94EA1DF3
:103F10006A89811130C0C8010E947F1DDD24D394BD
:103F200001C18F2F807F59F77E2DF98AE88A898910
:103F30000E94EF1D84EE91E00E947F1DE4EEF1E00F
:103F400086E0DF011D928A95E9F70E942F1ED12C91
:103F5000E9C07413D6CF6111D4CFD8011596FC9364
:103F6000C8010E947F1DE4EEF1E086E0DF011D92B2
:103F70008A95E9F7D7C0D62E662369F22091E90128
:103F8000822F82958F7090E0029774F08091E40107
:103F90009091E5019A8389831B82FD82EC822E83B6
:103FA000CE0101960E947F1D86E0F801A4EEB1E0EB
:103FB00001900D928A95E1F78AC0E216F30628F087
:103FC000C701821B930B9C0104C0209530952E0DD8
:103FD0003F1D283C310508F053C0D62E662309F456
:103FE0009ACFE5132CC074132AC08091E90180FD9B
:103FF0001DC0982F92959F70C9F0D80115968C938B
:1040000015979F3039F09F5F9295907F8F70892B25
:1040100015968C93C8010E947F1D86E0F801A4EEDE
:10402000B1E001900D928A95E1F753C086E0F80166
:10403000A4EEB1E001900D928A95E1F773C04D872F
:104040005E878D859E850E94EA1D882381F096E01B
:10405000F801A4EEB1E001900D929A95E1F78A8BF8
:104060000E943D1E0E942F1E8A89D82E5BC080911F
:10407000E90181608093E901C8010E947F1D52C05F
:104080007E2DF98AE88A89890E94EF1DE4EEF1E02D
:1040900086E0DF011D928A95E9F71BC0662309F4CB
:1040A0003ACF4D875E878D859E850E94EA1DD82E6A
:1040B000882309F430CF86E0F801A4EEB1E0019046
:1040C0000D928A95E1F784EE91E00E9423190E94F7
:1040D0003D1E0E942F1E26C04D875E878D859E85C2
:1040E0000E946123292F22952F7030E02230310564
:1040F0002CF49F7041F0811106C00CC024303105B2
:104100002CF49F7049F4805E883020F0C8010E9432
:104110007F1DCF2CDC2C06C0D80115969C91907F7A
:1041200091F7F8CF8D2D62960FB6F894DEBF0FBED3
:10413000CDBFDF91CF911F910F91FF90EF90DF9056
:10414000CF9008951F93CF93DF93CDB7DEB72C9711
:104150000FB6F894DEBF0FBECDBF4F835887698777
:104160007A878B879C87CE0107960E94A51E88239D
:10417000C1F02F8138858A859B85892B31F03F3F9F
:1041800011F080E003C02F3FE1F781E0811147C0CB
:104190004F81588569857A858B859C850E94FE1D97
:1041A0003EC086E0FE013796DE01119601900D9229
:1041B0008A95E1F7FF81E8854A855B8541155105C0
:1041C00031F0EF3F31F481E0FF3F19F403C081E0AB
:1041D00001C080E080FD23C02091B30130E0C9011F
:1041E0000196877099276091B20170E08617970752
:1041F000F1F1F983EA835D834C8396E0929FD001CD
:10420000939FB00D1124AC54BE4FFE013196019026
:104210000D929A95E1F78093B3010E940E1E16E06D
:104220008091B2019091B301891779F1189FC00173
:1042300011248C549E4F0E94A51E882331F1E091D9
:10424000B2011E9FF0011124EC54FE4F40815181B8
:1042500062817381848195810E94FE1D8091B201EB
:1042600090E00196877099278093B201D9CF0E9480
:10427000C51D1092B3011092B201E4EEF1E086E0A8
:10428000DF011D928A95E9F7CACF2C960FB6F894F4
:10429000DEBF0FBECDBFDF91CF911F910895EF928A
:1042A000FF920F931F93CF93DF939C01009709F424
:1042B00071C0F12CEE24E394E9012196F901849177
:1042C000843740F4843008F056C0813081F0823069
:1042D00021F160C0853709F449C0C0F19CE7980F0F
:1042E000903708F057C08F770E94471A46C089015F
:1042F0000E5F1F4FFE01849190E2980F983050F4AA
:104300008770FE2D01C0FF0F8A95EAF78F2F0E945C
:10431000C32315C00E94291914C089010E5F1F4FC5
:10432000FE01849190E2980F983068F48770FE2D1A
:1043300001C0FF0F8A95EAF78F2F0E94C9230E94C0
:10434000EC23E8011AC00E94471AFBCF2E5F3F4FB3
:10435000FE01C491CC2341F08FE99FE00197F1F772
:1043600000C00000C150F6CFE90107C0FE01F49083
:10437000E901229602C00E9429198F2D882341F05D
:10438000EFE9FFE03197F1F700C000008150F6CF70
:104390009E0192CFDF91CF911F910F91FF90EF90EF
:1043A000089508950C94D1210E94D2216093200297
:1043B0007093210280932202909323020C94AB1DF0
:1043C00008950C94D4210F931F9300912002109113
:1043D00021022091220230912302602B712B822B2B
:1043E000932B1F910F910C94D4210F931F93009145
:1043F0002002109121022091220230912302602399
:104400007123822393231F910F910C94D4210F9336
:104410001F930091200210912102209122023091DD
:10442000230260277127822793271F910F910C94F5
:10443000D4210C9428070E94192260931C027093C7
:104440001D0280931E0290931F020C94AB1D60E02E
:1044500070E0CB010C941B2241E050E060E070E082
:1044600004C0440F551F661F771F8A95D2F7CB01F2
:10447000BA010C941B2241E050E060E070E004C0FF
:10448000440F551F661F771F8A95D2F780911C0233
:1044900090911D02A0911E02B0911F02482B592B32
:1044A0006A2B7B2BCB01BA010C941B2241E050E01C
:1044B00060E070E004C0440F551F661F771F8A95A7
:1044C000D2F7409550956095709580911C0290911F
:1044D0001D02A0911E02B0911F02482359236A2396
:1044E0007B23CB01BA010C941B2241E050E060E039
:1044F00070E004C0440F551F661F771F8A95D2F7DE
:1045000080911C0290911D02A0911E02B0911F0289
:10451000482759276A277B27CB01BA010C941B2215
:104520000F931F9300911C0210911D0220911E02F7
:1045300030911F02602B712B822B932B1F910F91B7
:104540000C941B220F931F9300911C0210911D02CB
:1045500020911E0230911F02602371238223932336
:104560001F910F910C941B220F931F9300911C021B
:1045700010911D0220911E0230911F0260277127A9
:10458000822793271F910F910C941B2208952FE0EF
:10459000929F800D1124482F469546954695877029
:1045A000B1E001C0BB0F8A95EAF785E0489FA00102
:1045B000112446515E4F80E090E070E0FA01E80F70
:1045C000F91FA0819B01082E02C0369527950A94F9
:1045D000E2F72170332721952A272B232A272083CE
:1045E00001968530910551F708952FE0929F800D37
:1045F0001124682F669566956695982F977085E0CB
:10460000689FB001112466517E4F40E050E080E089
:10461000FB01E40FF51F208130E0092E02C0369522
:1046200027950A94E2F721703327042E01C0220F48
:104630000A94EAF7822B4F5F5F4F4530510541F7EF
:104640000895CF92DF92EF92FF920F931F93CF9333
:10465000DF93EC01C0902002D0902102E090220272
:10466000F090230280911C0290911D02A0911E02E5
:10467000B0911F02C82AD92AEA2AFB2A0FE110E0CA
:10468000B701A601002E04C076956795579547950A
:104690000A94D2F740FD05C00150110988F780E067
:1046A00007C0BE01802F0E942B0B0197A9F3802F1A
:1046B000DF91CF911F910F91FF90EF90DF90CF90FE
:1046C0000895CF93DF93EC010E942123BE010E9445
:1046D0002B0BDF91CF9108951F93CF93DF93EB01C5
:1046E0009091B101992321F0CB010E94612313C065
:1046F000882349F0CB010E942123182F682FCE0177
:104700000E94C72204C0CB010E94F522182FBE01CF
:10471000812F0E942B0BDF91CF911F9108958091E3
:10472000240285958595859508958091240287704A
:10473000089590912402977081E009F480E0089533
:1047400080914802089590914802982B90934802D6
:104750000895809590914802982390934802089577
:1047600010924802089590914702982B9093470227
:104770000895809590914702982390934702089559
:1047800010924702089590914602982B909346020A
:10479000089580959091460298239093460208953B
:1047A00010924602089580912502089508950C9470
:1047B000D62390912502981721F0809325020C941E
:1047C000D723089580912502882329F0109225028D
:1047D00080E00C94D7230895E0911701F09118011F
:1047E000809148028083E0911701F0911801808147
:1047F00090914702892B8083E0911701F091180175
:10480000808190914602892B808390912502992383
:1048100081F0E0911701F09118018081892B80834C
:1048200080911701909118010E94592581110E94D1
:10483000E22380911701909118010C945C17089560
:104840000C941F2498E0899F90011124622B60939F
:1048500024020E943B2280912402859585958595AE
:104860000C9420241092240280E00C942024409187
:1048700024028095842380932402982F977079F4E2
:1048800050E0282F332727FD30954217530739F082
:104890008595859585950E9456220C94322408951D
:1048A00090937301809372010895CF92DF92EF92FB
:1048B000FF920F931F936C01EE24FF24C114D104C7
:1048C000E104F10421F46B017C0180E001C080E18E
:1048D00033272F2D1E2D0D2D011511052105310515
:1048E00019F0885F6801790197018601A4E0369587
:1048F000279517950795AA95D1F70115110521055B
:10490000310519F08C5F6801790197018601F2E0A9
:104910003695279517950795FA95D1F70115110545
:104920002105310519F08E5F68017901B701A601F3
:104930007695679557954795452B462B472B09F05C
:104940008F5F1F910F91FF90EF90DF90CF900895B0
:104950008295982F9C7C96959695837344E0849FCE
:1049600090011124922B892F8A7A86959575990F3B
:10497000892B08951F93CF93DF931F92CDB7DEB796
:1049800099830E94A824182F9981892F0E94A82416
:10499000212F30E0322F2227A901482BCA010F9086
:1049A000DF91CF911F91089580E090E00E947433D1
:1049B00021E08D3E9E4F09F020E0822F089582E095
:1049C00090E00C94663383E090E00C94663384E0CE
:1049D00090E00C946633682F84E090E00C947A3376
:1049E00086E090E00C946633682F86E090E00C94AB
:1049F0007A33AB01BC018FE090E00C948C33AB01B7
:104A0000BC0183E190E00C948C3360E070E0CB015A
:104A10000C94FF2460E070E0CB010E94F9240C9418
:104A200005256DEE7EEF80E090E00E94983360E017
:104A300082E090E00E947A3360E083E090E00E94A0
:104A40007A331092200210922102109222021092C8
:104A5000230260E084E090E00E947A3360E085E029
:104A600090E00E947A3360E086E090E00E947A3322
:104A70006FEF87E090E00E947A3340E050E0BA01A7
:104A800088E090E00E948C3360E08DE090E00E942E
:104A90007A3340E050E0BA0188E190E00E948C3324
:104AA00060E087E190E00E947A330C940A250C9430
:104AB0001125029620912901211102C026E005C08E
:104AC0002091B60227FFFACF2EE1FC0180E02150B1
:104AD00028F091919923D9F38F5FF9CF089520E0C1
:104AE00030E04FEFFC01E20FF31F5281561799F0AF
:104AF0004F3F19F4511101C0422F2F5F3F4F263015
:104B0000310581F74F3F39F0FC01E40FF11D47FDFE
:104B1000FA9562830895089520E030E0FC01E20FE9
:104B2000F31F4281461301C012822F5F3F4F263090
:104B30003105A1F70895262F2695269526952E3125
:104B400078F4FC01E20FF11D677021E030E0062EE1
:104B500001C0220F0A94EAF78281822B8283089592
:104B60008091490280FF0CC01F926F938CE498E003
:104B70009F938F930E9475060F900F900F900F9048
:104B80000895262F2695269526952E3180F4FC0132
:104B9000E20FF11D677021E030E0062E01C0220F08
:104BA0000A94EAF720958281282322830895809130
:104BB000490280FF0CC01F926F938EE298E09F9392
:104BC0008F930E9475060F900F900F900F9008958D
:104BD00020912901222329F02091B60227FD0C946F
:104BE0009B250C946F2520912901222329F02091E7
:104BF000B60227FD0C94C1250C948C252091290127
:104C0000FC013296222331F08091B60287FF02C068
:104C10008EE101C086E0DF011D928A95E9F70895D3
:104C200008950C9410260E9411268091BD028430B4
:104C300049F110924A0220E488E190E00FB6F8941E
:104C4000A895809360000FBE2093600080E00E94D2
:104C50004B0880E00E94C2080E94112683B7817F22
:104C6000846083BF83B7816083BF7894889583B75E
:104C70008E7F83BF88E10FB6F89480936000109216
:104C800060000FBE089508950895CF930E944326B3
:104C90000E94560E0E944426C0E08C2F0E94BC0D3C
:104CA000892B29F4CF5FC530C1F780E001C081E0D6
:104CB000CF91089508950C945A260E94C51D0E9414
:104CC000CE290E9450170E94C2080C945B261F92A6
:104CD0000F920FB60F9211248F939F93AF93BF93B0
:104CE00080914A02811113C08091B2029091B30267
:104CF000A091B402B091B5024196A11DB11D80935F
:104D0000B2029093B302A093B402B093B502BF91E4
:104D1000AF919F918F910F900FBE0F901F9018959C
:104D200082E084BD93E095BD9AEF97BD80936E00BD
:104D300008952FB7F8948091B2029091B302A09198
:104D4000B402B091B5022FBF0895CF92DF92EF92D7
:104D5000FF920F931F932FB7F8944091B202509196
:104D6000B3026091B4027091B5022FBF6A017B015A
:104D7000EE24FF248C0120E030E0C016D106E206CC
:104D8000F30610F441505109481B590BCA011F91F9
:104D90000F91FF90EF90DF90CF90089578941F923D
:104DA0000F920FB60F9211248F939F93AF93BF93DF
:104DB0008091B2029091B302A091B402B091B50279
:104DC0000196A11DB11D8093B2029093B302A093EE
:104DD000B402B093B502BF91AF919F918F910F90A4
:104DE0000FBE0F901F90189581E08093E00080E245
:104DF0008093D8001092C9008FE19EE40197F1F7EB
:104E000000C0000087E090EBDC018093C602909325
:104E1000C702A093C802B093C9022CE088E190E0D9
:104E20000FB6F894A895809360000FBE20936000A1
:104E3000FFCF0E94D424811102C00E9457250E94F6
:104E4000DF24809349020E94E72490E09093B70208
:104E50008093B6020E94E324682F70E080E090E027
:104E60000C94E12180914E0280FF0BC060911C01E7
:104E700085E0689FB00111247595679575956795D4
:104E80002AC081FF09C060911C0185E0689FB001C4
:104E90001124759567951FC082FF07C060911C01A2
:104EA00085E0689FB001112416C040914D02442353
:104EB000C9F060911B01461788F720911C0185E01D
:104EC000289F90011124429FC001439F900D1124FF
:104ED00070E00E9412336038710540F4611571056D
:104EE00039F002C065E070E0862F08958FE70895DD
:104EF00081E0089580914E0280FF08C060911A0100
:104F000070E0759567957595679521C081FF06C01E
:104F100060911A0170E07595679519C082FF04C011
:104F200060911A0170E010C080914D028823C1F099
:104F3000609119018617A0F790911A01989FC001FE
:104F4000112470E00E9412336038710528F4611555
:104F5000710521F0862F08958FE7089581E0089567
:104F600061E070E0F4CF803F21F40E943227819508
:104F700004C0813F29F40E94322780935202089591
:104F8000823F21F40E943227819504C0833F29F497
:104F90000E943227809351020895893F19F40E949C
:104FA0007A2705C08A3F31F40E947A278195809341
:104FB000530208958B3F21F40E947A27819504C003
:104FC0008C3F29F40E947A27809354020895843FED
:104FD00021F480915002816017C0853F21F48091B7
:104FE0005002826011C0863F21F48091500284609B
:104FF0000BC0873F21F480915002886005C0883F34
:1050000031F48091500280618093500208958D3F69
:1050100021F480914E0281600BC08E3F21F480917B
:105020004E02826005C08F3F29F480914E02846059
:1050300080934E020895803F39F48091520287FF99
:105040006CC01092520269C0813F29F480915202D3
:105050001816BCF362C090915102823F29F497FF69
:105060005CC01092510259C0833F19F41916CCF359
:1050700054C0893F41F48091530218160CF04DC082
:10508000109253024AC08A3F29F48091530287FF4D
:1050900044C0F6CF8B3F39F48091540287FF3DC066
:1050A000109254023AC08C3F29F480915402181691
:1050B000BCF333C0843F21F4809150028E7F17C02F
:1050C000853F21F4809150028D7F11C0863F21F4ED
:1050D000809150028B7F0BC0873F21F4809150025A
:1050E000877F05C0883F31F4809150028F7E809386
:1050F000500213C08D3F21F480914E028E7F0BC071
:105100008E3F21F480914E028D7F05C08F3F29F4A0
:1051100080914E028B7F80934E02809151028111CB
:105120000EC08091520281110AC0809153028111F8
:1051300006C080915402811102C010924D02089560
:105140008091490283FF7EC081E998E00E94DC05DE
:10515000809150021F928F938CE898E09F938F93D9
:105160000E9475068AE898E00E94DC0520915102B1
:10517000822F992787FD90959F932F9387E898E03A
:105180009F938F930E94750685E898E00E94DC0546
:1051900020915202822F992787FD90959F932F93FC
:1051A00082E898E09F938F930E94750680E898E0CC
:1051B0000E94DC0520915302822F992787FD90954C
:1051C0009F932F938DE798E09F938F930E9475068E
:1051D0008BE798E00E94DC0520915402822F9927EA
:1051E00087FD90959F932F9388E798E09F938F93E7
:1051F0000E94750685E798E00E94DC0580914D02CB
:105200001F928F9382E798E09F938F930E94750679
:1052100080E798E00E94DC0580914E021F928F93F8
:105220008DE698E09F938F930E9475068AE698E03A
:105230000E94DC058DB79EB74C960FB6F8949EBFC2
:105240000FBE8DBF8FE492E00E94AE170E94992698
:1052500090934C0280934B0208951F93CF93DF935A
:1052600080914B0290914C020E94A52640914D02E4
:10527000442321F020911D0130E006C020911E0141
:105280005AE0259F900111248217930708F476C0F5
:105290008091510210915202D0915302C091540258
:1052A000811107C0111105C0D11103C0CC2309F42D
:1052B00065C04F3F19F04F5F40934D02181624F41C
:1052C0000E943227809351028091510287FF05C0CE
:1052D0000E943227819580935102111624F40E9476
:1052E0003227809352028091520287FF05C00E94AC
:1052F0003227819580935202209151022223D9F0C6
:10530000409152024423B9F055EB2503900111243A
:10531000332319F03093510203C081E0809351028E
:1053200025EB4203C001112490935202911103C056
:1053300081E0809352021D1624F40E947A27809304
:1053400053028091530287FF05C00E947A278195FE
:10535000809353021C1624F40E947A2780935402EF
:105360008091540287FF05C00E947A27819580931F
:105370005402DF91CF911F910C94A028DF91CF911F
:105380001F910895EFE4F2E086E0DF011D928A9517
:10539000E9F710924D0210924E0208950E94D42413
:1053A000811102C00E9457250E94F0248093B80208
:1053B000282F269530E02630310524F081708A6050
:1053C0008093B8028091B80280FF02C0869501C028
:1053D00080E00C944B082091B802322F3695832F31
:1053E00090E0059744F491E0930F990F822F81701C
:1053F000892B8093B8028091B80281608093B802B3
:105400000E94F4248091490280FF0FC08091B8026D
:1054100086951F928F938BE199E09F938F930E94C3
:1054200075060F900F900F900F908091B80286959F
:105430000C944B088091B802982F969591F0915852
:10544000990F8170892B8093B8028E7F91E009F4C7
:1054500090E08091B80290FB80F98093B8020E949E
:10546000F4248091490280FF0FC08091B802869594
:105470001F928F9383E099E09F938F930E9475060C
:105480000F900F900F900F908091B80286950C941A
:105490004B088091B80280FD1DC081608093B802E6
:1054A000813019F483E08093B8028091B8020E94A1
:1054B000F4248091490280FF08C08BED98E09F930F
:1054C0008F930E9475060F900F908091B802869579
:1054D0000C944B0808958091B80280FF14C08E7F11
:1054E0008093B8020E94F4248091490280FF08C092
:1054F00088EC98E09F938F930E9475060F900F9011
:1055000080E00C944B080895CF93C091B802C1700D
:105510008091490280FF0CC01F92CF938DEE98E0DE
:105520009F938F930E9475060F900F900F900F908E
:10553000CC2319F0CF910C946B2ACF910C94492A6B
:105540003091B802232F26952F5F2F77822F90E07E
:10555000317006972CF4220F232B2093B80202C03F
:105560003093B8028091B8028E7F91E009F490E008
:105570008091B80290FB80F98093B8020E94F424D5
:105580008091490280FF0FC08091B80286951F92DA
:105590008F9384EB98E09F938F930E9475060F90F2
:1055A0000F900F900F908091B80286950C944B0845
:1055B000863008F085E0880F9091B8029170982BA2
:1055C0009093B8029E7F21E009F420E08091B80218
:1055D00020FB80F98093B8020E94F4248091B802E5
:1055E00086950C944B088091780208959FB7F894A3
:1055F000109257029FBF9091BD02943009F058C09D
:105600009091E9009F702091EC0020FF02C020E8FB
:1056100001C020E0292B93E09093E9009091EB00EA
:1056200090FF43C09091EE0097FF3FC090915502CC
:10563000992321F09091E80095FF37C01092550210
:1056400096E03091E80035FD15C03091BD02343050
:1056500061F53091EB0035FD28C0915021F481E0D7
:105660008093550222C0EFE9FFE03197F1F700C0C7
:105670000000E7CF8093F1008091E80085FD0AC02B
:105680008091E80080FFFCCF8091E8008E778093C6
:10569000E80006C08FB7F89491E0909357028FBF4F
:1056A0002F702093E90080E008952F702093E90087
:1056B0008FEF08950F931F93CF93DF9300D01F9226
:1056C000CDB7DEB78C010E94282E823011F08430D5
:1056D00021F584E089831B830A8382E08093E900BB
:1056E0008FEF9091E800815095FD06C095ED9A9559
:1056F000F1F700008111F5CF8091E80085FF0DC022
:1057000040E050E063E070E0CE0101960E94452E3B
:105710008091E8008E778093E8000F900F900F90B3
:10572000DF91CF911F910F910895CF93DF9300D018
:105730001F92CDB7DEB72091BD02243031F523E0B2
:105740002983805891099B838A8382E08093E900B2
:105750008FEF9091E800815095FD06C095ED9A95E8
:10576000F1F700008111F5CF8091E80085FF0DC0B1
:1057700040E050E063E070E0CE0101960E94452ECB
:105780008091E8008E778093E8000F900F900F9043
:10579000DF91CF910895CF93DF93EC010E94282EE3
:1057A000823011F08430F9F482E08093E9008FEFC9
:1057B0009091E800815095FD06C095ED9A95F1F71E
:1057C00000008111F5CF8091E80085FF0CC040E01A
:1057D00050E066E070E0CE010E94452E8091E80026
:1057E0008E778093E800DF91CF910895CF93DF9378
:1057F000EC010E94282E823011F08430D9F580917E
:105800002901811103C068E081E006C08091B602E1
:1058100087FFF9CF60E282E08093E9008FEF9091FB
:10582000E800815095FD06C095ED9A95F1F70000CE
:105830008111F5CF8091E80085FF1CC0809129017E
:10584000811105C040E050E068E070E003C070E006
:1058500040E050E0CE010E94452E8091E8008E7716
:105860008093E80080E2FE01A8E5B2E001900D928D
:105870008A95E1F7DF91CF91089588E599E00E943C
:10588000DC058091BC02811109C00E94D72F0E94C3
:1058900034308091E20084608093E200089584E5D2
:1058A00099E00E94DC051092BC02089580E599E021
:1058B0000C94DC058CE499E00C94DC0588E499E018
:1058C0000E94DC050C945D26809156028F5F8093C8
:1058D000560262E30E94F232911135C010925602D4
:1058E00080915702882379F18091BD02843049F577
:1058F0008091E9008F709091EC0090FF02C090E8D9
:1059000001C090E0982B83E08093E9008091EB0048
:1059100080FF14C08091EE0087FF10C08091E800E6
:1059200085FF03C01092F100F9CF8091E80080FF5D
:1059300005C08091E8008E778093E8009F70909377
:10594000E90010925702089542E061EC81E00E9464
:10595000512F42E261EC82E00E94512F42E261EC61
:1059600083E00C94512F8091BF02833009F460C012
:1059700030F4813071F0823009F499C008958A3092
:1059800009F485C08B3009F46BC0893009F0A7C0D9
:1059900020C08091BE02813A09F0A1C08091E80048
:1059A000877F8093E8008091C2029091C302892B87
:1059B00021F060E080E090E003C060E288E592E0E2
:1059C00070E00E948E2E8091E8008B778093E80033
:1059D00008958091BE02813209F081C08091C20297
:1059E0009091C302029708F07AC08091E800877F07
:1059F0008093E8008091E80082FD05C08091BD029F
:105A00008111F8CF6CC02091F3008091F20090E0FA
:105A1000922B029729F48091F1008B7F813021F441
:105A20008091F100809378028091E8008B7753C0D9
:105A30008091BE02813A09F052C08091C2029091D9
:105A4000C302892B09F04BC08091E800877F8093C7
:105A5000E8008091E80080FFFCCF8091290136C0EA
:105A60008091BE028132D9F58091C2029091C30229
:105A7000892BA9F58091E800877F8093E8000E9438
:105A8000862F8091C002809329010C94C51D8091BE
:105A9000BE02813221F58091E800877F8093E80083
:105AA0000E94862F8091C10280937902089580918F
:105AB000BE02813AA1F48091E800877F8093E800DC
:105AC0008091E80080FFFCCF809179028093F10003
:105AD0008091E8008E778093E8000C94862F0895DB
